{"contracts/Election.sol":{"Election":{"abi":[{"inputs":[],"stateMutability":"nonpayable","type":"constructor"},{"anonymous":false,"inputs":[],"name":"ElectionClosed","type":"event"},{"anonymous":false,"inputs":[],"name":"ElectionOpen","type":"event"},{"anonymous":false,"inputs":[{"indexed":false,"internalType":"string","name":"winnerName","type":"string"},{"indexed":false,"internalType":"uint256","name":"winnerVoteCount","type":"uint256"}],"name":"ElectionResultDeclared","type":"event"},{"anonymous":false,"inputs":[{"indexed":false,"internalType":"uint256","name":"candidateId","type":"uint256"},{"indexed":false,"internalType":"string","name":"name","type":"string"},{"indexed":false,"internalType":"address","name":"ethereumAddress","type":"address"},{"indexed":false,"internalType":"string","name":"email","type":"string"},{"indexed":false,"internalType":"string","name":"mobileNumber","type":"string"},{"indexed":false,"internalType":"uint256","name":"dateOfBirth","type":"uint256"},{"indexed":false,"internalType":"string","name":"aadharNumber","type":"string"},{"indexed":false,"internalType":"string","name":"voterId","type":"string"},{"indexed":false,"internalType":"string","name":"homeAddress","type":"string"}],"name":"NewCandidate","type":"event"},{"anonymous":false,"inputs":[{"indexed":true,"internalType":"address","name":"voter","type":"address"},{"indexed":false,"internalType":"uint256","name":"candidateId","type":"uint256"}],"name":"Voted","type":"event"},{"anonymous":false,"inputs":[{"indexed":true,"internalType":"address","name":"voterAddress","type":"address"}],"name":"VoterLoggedIn","type":"event"},{"anonymous":false,"inputs":[{"indexed":false,"internalType":"string","name":"name","type":"string"},{"indexed":false,"internalType":"address","name":"voterAddress","type":"address"},{"indexed":false,"internalType":"string","name":"email","type":"string"},{"indexed":false,"internalType":"string","name":"mobileNumber","type":"string"},{"indexed":false,"internalType":"string","name":"voterId","type":"string"}],"name":"VoterRegistered","type":"event"},{"inputs":[{"internalType":"address","name":"_adminAddress","type":"address"},{"internalType":"string","name":"_name","type":"string"},{"internalType":"string","name":"_email","type":"string"}],"name":"addAdmin","outputs":[],"stateMutability":"nonpayable","type":"function"},{"inputs":[{"internalType":"string","name":"_name","type":"string"},{"internalType":"address","name":"_ethereumAddress","type":"address"},{"internalType":"string","name":"_email","type":"string"},{"internalType":"string","name":"_mobileNumber","type":"string"},{"internalType":"uint256","name":"_dateOfBirth","type":"uint256"},{"internalType":"string","name":"_aadharNumber","type":"string"},{"internalType":"string","name":"_voterId","type":"string"},{"internalType":"string","name":"_homeAddress","type":"string"}],"name":"addCandidate","outputs":[],"stateMutability":"nonpayable","type":"function"},{"inputs":[{"internalType":"uint256","name":"","type":"uint256"}],"name":"adminAccounts","outputs":[{"internalType":"address","name":"","type":"address"}],"stateMutability":"view","type":"function"},{"inputs":[{"internalType":"address","name":"","type":"address"}],"name":"admins","outputs":[{"internalType":"string","name":"name","type":"string"},{"internalType":"string","name":"email","type":"string"},{"internalType":"address","name":"ethereumAddress","type":"address"},{"internalType":"bool","name":"isAdmin","type":"bool"}],"stateMutability":"view","type":"function"},{"inputs":[{"internalType":"uint256","name":"","type":"uint256"}],"name":"candidates","outputs":[{"internalType":"uint256","name":"id","type":"uint256"},{"internalType":"string","name":"name","type":"string"},{"internalType":"uint256","name":"voteCount","type":"uint256"},{"internalType":"address","name":"ethereumAddress","type":"address"},{"internalType":"string","name":"email","type":"string"},{"internalType":"string","name":"mobileNumber","type":"string"},{"internalType":"uint256","name":"dateOfBirth","type":"uint256"},{"internalType":"string","name":"aadharNumber","type":"string"},{"internalType":"string","name":"voterId","type":"string"},{"internalType":"string","name":"homeAddress","type":"string"}],"stateMutability":"view","type":"function"},{"inputs":[{"internalType":"address","name":"","type":"address"}],"name":"candidatesRegistered","outputs":[{"internalType":"bool","name":"","type":"bool"}],"stateMutability":"view","type":"function"},{"inputs":[{"internalType":"address","name":"_voterEthAddress","type":"address"}],"name":"checkHasVoted","outputs":[{"internalType":"bool","name":"","type":"bool"}],"stateMutability":"view","type":"function"},{"inputs":[],"name":"closeElection","outputs":[],"stateMutability":"nonpayable","type":"function"},{"inputs":[],"name":"declareElectionResult","outputs":[],"stateMutability":"nonpayable","type":"function"},{"inputs":[{"internalType":"uint256","name":"_candidateId","type":"uint256"}],"name":"getCandidate","outputs":[{"internalType":"string","name":"name","type":"string"},{"internalType":"string","name":"email","type":"string"},{"internalType":"string","name":"mobileNumber","type":"string"},{"internalType":"uint256","name":"dateOfBirth","type":"uint256"},{"internalType":"string","name":"homeAddress","type":"string"},{"internalType":"uint256","name":"candidateId","type":"uint256"}],"stateMutability":"view","type":"function"},{"inputs":[{"internalType":"address","name":"_ethereumAddress","type":"address"}],"name":"getCandidateInfo","outputs":[{"components":[{"internalType":"bool","name":"profileFilled","type":"bool"},{"internalType":"bool","name":"otpVerified","type":"bool"},{"internalType":"bool","name":"faceRegistered","type":"bool"},{"internalType":"bool","name":"fullyRegistered","type":"bool"}],"internalType":"struct Election.CandidateRegistrationInfo","name":"","type":"tuple"}],"stateMutability":"view","type":"function"},{"inputs":[{"internalType":"address","name":"_ethereumAddress","type":"address"}],"name":"getCandidateIpfsHash","outputs":[{"components":[{"internalType":"string","name":"faceHash","type":"string"},{"internalType":"string","name":"documentHash","type":"string"}],"internalType":"struct Election.IpfsHash","name":"","type":"tuple"}],"stateMutability":"view","type":"function"},{"inputs":[],"name":"getCandidatesCount","outputs":[{"internalType":"uint256","name":"","type":"uint256"}],"stateMutability":"view","type":"function"},{"inputs":[],"name":"getIsVotingOpen","outputs":[{"internalType":"bool","name":"","type":"bool"}],"stateMutability":"view","type":"function"},{"inputs":[],"name":"getOwner","outputs":[{"internalType":"address","name":"tempOwner","type":"address"}],"stateMutability":"view","type":"function"},{"inputs":[],"name":"getResultsDeclared","outputs":[{"internalType":"bool","name":"","type":"bool"}],"stateMutability":"view","type":"function"},{"inputs":[{"internalType":"address","name":"_ethereumAddress","type":"address"}],"name":"getVoterInfo","outputs":[{"components":[{"internalType":"bool","name":"profileFilled","type":"bool"},{"internalType":"bool","name":"otpVerified","type":"bool"},{"internalType":"bool","name":"faceRegistered","type":"bool"},{"internalType":"bool","name":"fullyRegistered","type":"bool"}],"internalType":"struct Election.VoterRegistrationInfo","name":"","type":"tuple"}],"stateMutability":"view","type":"function"},{"inputs":[{"internalType":"address","name":"_ethereumAddress","type":"address"}],"name":"getVoterIpfsHash","outputs":[{"components":[{"internalType":"string","name":"faceHash","type":"string"},{"internalType":"string","name":"documentHash","type":"string"}],"internalType":"struct Election.IpfsHash","name":"","type":"tuple"}],"stateMutability":"view","type":"function"},{"inputs":[],"name":"getWinnerId","outputs":[{"internalType":"uint256","name":"id","type":"uint256"}],"stateMutability":"view","type":"function"},{"inputs":[],"name":"getWinnerName","outputs":[{"internalType":"string","name":"name","type":"string"}],"stateMutability":"view","type":"function"},{"inputs":[],"name":"getWinnerVoteCount","outputs":[{"internalType":"uint256","name":"voteCount","type":"uint256"}],"stateMutability":"view","type":"function"},{"inputs":[{"internalType":"address","name":"","type":"address"}],"name":"hasVoted","outputs":[{"internalType":"bool","name":"","type":"bool"}],"stateMutability":"view","type":"function"},{"inputs":[{"internalType":"address","name":"_ethereumAddress","type":"address"}],"name":"isVoterRegistered","outputs":[{"internalType":"bool","name":"","type":"bool"}],"stateMutability":"view","type":"function"},{"inputs":[],"name":"isVotingOpen","outputs":[{"internalType":"bool","name":"","type":"bool"}],"stateMutability":"view","type":"function"},{"inputs":[{"internalType":"string","name":"_email","type":"string"},{"internalType":"string","name":"_password","type":"string"},{"internalType":"address","name":"_ethereumAddress","type":"address"}],"name":"loginVoter","outputs":[],"stateMutability":"nonpayable","type":"function"},{"inputs":[],"name":"openElection","outputs":[],"stateMutability":"nonpayable","type":"function"},{"inputs":[],"name":"owner","outputs":[{"internalType":"address","name":"","type":"address"}],"stateMutability":"view","type":"function"},{"inputs":[{"internalType":"string","name":"_name","type":"string"},{"internalType":"address","name":"_ethereumAddress","type":"address"},{"internalType":"string","name":"_email","type":"string"},{"internalType":"string","name":"_mobileNumber","type":"string"},{"internalType":"string","name":"_voterId","type":"string"},{"internalType":"string","name":"_password","type":"string"}],"name":"registerVoter","outputs":[],"stateMutability":"nonpayable","type":"function"},{"inputs":[{"internalType":"uint256","name":"","type":"uint256"}],"name":"registeredVoters","outputs":[{"internalType":"address","name":"","type":"address"}],"stateMutability":"view","type":"function"},{"inputs":[],"name":"resultsDeclared","outputs":[{"internalType":"bool","name":"","type":"bool"}],"stateMutability":"view","type":"function"},{"inputs":[{"internalType":"address","name":"_ethereumAddress","type":"address"}],"name":"setCandidateBasic","outputs":[],"stateMutability":"nonpayable","type":"function"},{"inputs":[{"internalType":"address","name":"_ethereumAddress","type":"address"}],"name":"setCandidateFace","outputs":[],"stateMutability":"nonpayable","type":"function"},{"inputs":[{"internalType":"address","name":"_ethereumAddress","type":"address"},{"internalType":"string","name":"_facialHash","type":"string"},{"internalType":"string","name":"_documentHash","type":"string"}],"name":"setCandidateIpfsHash","outputs":[],"stateMutability":"nonpayable","type":"function"},{"inputs":[{"internalType":"address","name":"_ethereumAddress","type":"address"}],"name":"setCandidateOtp","outputs":[],"stateMutability":"nonpayable","type":"function"},{"inputs":[{"internalType":"address","name":"_ethereumAddress","type":"address"}],"name":"setVoterBasic","outputs":[],"stateMutability":"nonpayable","type":"function"},{"inputs":[{"internalType":"address","name":"_ethereumAddress","type":"address"}],"name":"setVoterFace","outputs":[],"stateMutability":"nonpayable","type":"function"},{"inputs":[{"internalType":"address","name":"_ethereumAddress","type":"address"},{"internalType":"string","name":"_facialHash","type":"string"},{"internalType":"string","name":"_documentHash","type":"string"}],"name":"setVoterIpfsHash","outputs":[],"stateMutability":"nonpayable","type":"function"},{"inputs":[{"internalType":"address","name":"_ethereumAddress","type":"address"}],"name":"setVoterOtp","outputs":[],"stateMutability":"nonpayable","type":"function"},{"inputs":[{"internalType":"address","name":"","type":"address"}],"name":"userVote","outputs":[{"internalType":"uint256","name":"","type":"uint256"}],"stateMutability":"view","type":"function"},{"inputs":[{"internalType":"uint256","name":"_candidateId","type":"uint256"},{"internalType":"address","name":"_ethereumAddress","type":"address"}],"name":"vote","outputs":[],"stateMutability":"nonpayable","type":"function"},{"inputs":[{"internalType":"address","name":"","type":"address"}],"name":"voters","outputs":[{"internalType":"address","name":"ethereumAddress","type":"address"},{"internalType":"string","name":"name","type":"string"},{"internalType":"string","name":"email","type":"string"},{"internalType":"string","name":"mobileNumber","type":"string"},{"internalType":"string","name":"voterId","type":"string"},{"internalType":"bytes32","name":"passwordHash","type":"bytes32"}],"stateMutability":"view","type":"function"},{"inputs":[],"name":"winner","outputs":[{"internalType":"uint256","name":"id","type":"uint256"},{"internalType":"string","name":"name","type":"string"},{"internalType":"uint256","name":"voteCount","type":"uint256"},{"internalType":"address","name":"ethereumAddress","type":"address"}],"stateMutability":"view","type":"function"}],"devdoc":{"kind":"dev","methods":{},"version":1},"evm":{"bytecode":{"linkReferences":{},"object":"608060405234801561001057600080fd5b50336000806101000a81548173ffffffffffffffffffffffffffffffffffffffff021916908373ffffffffffffffffffffffffffffffffffffffff16021790555060008060146101000a81548160ff02191690831515021790555060008060156101000a81548160ff021916908315150217905550614f5f806100946000396000f3fe608060405234801561001057600080fd5b506004361061025e5760003560e01c80638b55c27a11610146578063c0e1353e116100c3578063dfbf53ae11610087578063dfbf53ae14610733578063e35f8cef14610754578063eb2119db14610784578063f31adac3146107b4578063f5ba1c87146107d2578063fa7f1bae146108025761025e565b8063c0e1353e146106a5578063c5d00f5d146106c1578063cf01723a146106cb578063d0b7c7ff146106fb578063dcd2aa91146107175761025e565b8063a3ec138d1161010a578063a3ec138d146105fe578063a959f75614610633578063af5b2cc11461064f578063b3fe99e51461066b578063bb9aa28f146106875761025e565b80638b55c27a146105445780638da5cb5b14610562578063965473bd146105805780639ed1f2551461059e578063a2addd68146105ce5761025e565b80633fa85856116101df57806366b54449116101a357806366b54449146104aa5780636c28fdb1146104c65780636c6c32d0146104d05780636f75af6a146104da57806386fe13d4146104f6578063893d20e8146105265761025e565b80633fa85856146103f157806340bcb76914610421578063429b62e51461043f5780635babf5ef146104725780635f50e9f41461048e5761025e565b806328bde1e11161022657806328bde1e1146103195780632bfda515146103495780633477ee2e1461036757806335b8e820146103a05780633a7d77e0146103d55761025e565b806302d947ef14610263578063040ca3bf1461027f57806309eef43e1461029b5780630aea6806146102cb5780632436e06b146102e9575b600080fd5b61027d60048036038101906102789190614064565b610820565b005b61029960048036038101906102949190613d79565b610aab565b005b6102b560048036038101906102b09190613cd1565b610d98565b6040516102c291906146c3565b60405180910390f35b6102d3610db8565b6040516102e09190614a47565b60405180910390f35b61030360048036038101906102fe919061403b565b610e14565b604051610310919061462b565b60405180910390f35b610333600480360381019061032e9190613cd1565b610e53565b60405161034091906149ef565b60405180910390f35b610351610f18565b60405161035e91906146de565b60405180910390f35b610381600480360381019061037c919061403b565b610ffc565b6040516103979a99989796959493929190614b65565b60405180910390f35b6103ba60048036038101906103b5919061403b565b6113b0565b6040516103cc969594939291906147c2565b60405180910390f35b6103ef60048036038101906103ea9190613cfa565b611883565b005b61040b60048036038101906104069190613cd1565b6119cf565b60405161041891906146c3565b60405180910390f35b6104296119ef565b60405161043691906146c3565b60405180910390f35b61045960048036038101906104549190613cd1565b611a05565b604051610469949392919061476f565b60405180910390f35b61048c60048036038101906104879190613cfa565b611b72565b005b6104a860048036038101906104a39190613e7a565b611e15565b005b6104c460048036038101906104bf9190613cd1565b6121ac565b005b6104ce612265565b005b6104d861270c565b005b6104f460048036038101906104ef9190613cd1565b6127e2565b005b610510600480360381019061050b9190613cd1565b6128d4565b60405161051d9190614a0a565b60405180910390f35b61052e612a51565b60405161053b919061462b565b60405180910390f35b61054c612a7a565b60405161055991906146c3565b60405180910390f35b61056a612a90565b604051610577919061462b565b60405180910390f35b610588612ab4565b60405161059591906146c3565b60405180910390f35b6105b860048036038101906105b39190613cd1565b612ac7565b6040516105c59190614a2c565b60405180910390f35b6105e860048036038101906105e3919061403b565b612b8c565b6040516105f5919061462b565b60405180910390f35b61061860048036038101906106139190613cd1565b612bcb565b60405161062a96959493929190614646565b60405180910390f35b61064d60048036038101906106489190613cd1565b612e47565b005b61066960048036038101906106649190613cd1565b612ea5565b005b61068560048036038101906106809190613cfa565b612f03565b005b61068f61304f565b60405161069c9190614a47565b60405180910390f35b6106bf60048036038101906106ba9190613cd1565b61305c565b005b6106c9613115565b005b6106e560048036038101906106e09190613cd1565b6131ec565b6040516106f29190614a0a565b60405180910390f35b61071560048036038101906107109190613fbc565b613369565b005b610731600480360381019061072c9190613cd1565b6137ff565b005b61073b6138f1565b60405161074b9493929190614b19565b60405180910390f35b61076e60048036038101906107699190613cd1565b6139b7565b60405161077b91906146c3565b60405180910390f35b61079e60048036038101906107999190613cd1565b613a0d565b6040516107ab91906146c3565b60405180910390f35b6107bc613a66565b6040516107c99190614a47565b60405180910390f35b6107ec60048036038101906107e79190613cd1565b613ac2565b6040516107f99190614a47565b60405180910390f35b61080a613ada565b60405161081791906146c3565b60405180910390f35b600060149054906101000a900460ff1661086f576040517f08c379a0000000000000000000000000000000000000000000000000000000008152600401610866906149af565b60405180910390fd5b600660008273ffffffffffffffffffffffffffffffffffffffff1673ffffffffffffffffffffffffffffffffffffffff16815260200190815260200160002060009054906101000a900460ff16156108fc576040517f08c379a00000000000000000000000000000000000000000000000000000000081526004016108f39061486f565b60405180910390fd5b60008211801561091157506005805490508211155b610950576040517f08c379a0000000000000000000000000000000000000000000000000000000008152600401610947906149cf565b60405180910390fd5b6001600660008373ffffffffffffffffffffffffffffffffffffffff1673ffffffffffffffffffffffffffffffffffffffff16815260200190815260200160002060006101000a81548160ff02191690831515021790555081600760008373ffffffffffffffffffffffffffffffffffffffff1673ffffffffffffffffffffffffffffffffffffffff1681526020019081526020016000208190555060056001836109fb9190614d1a565b81548110610a32577f4e487b7100000000000000000000000000000000000000000000000000000000600052603260045260246000fd5b90600052602060002090600a02016002016000815480929190610a5490614e14565b91905055508073ffffffffffffffffffffffffffffffffffffffff167f4d99b957a2bc29a30ebd96a7be8e68fe50a3c701db28a91436490b7d53870ca483604051610a9f9190614a47565b60405180910390a25050565b600b60008673ffffffffffffffffffffffffffffffffffffffff1673ffffffffffffffffffffffffffffffffffffffff16815260200190815260200160002060000160009054906101000a900460ff1615610b3b576040517f08c379a0000000000000000000000000000000000000000000000000000000008152600401610b329061498f565b60405180910390fd5b6000610b4682613aed565b90506040518060c001604052808773ffffffffffffffffffffffffffffffffffffffff16815260200188815260200186815260200185815260200184815260200182815250600860008873ffffffffffffffffffffffffffffffffffffffff1673ffffffffffffffffffffffffffffffffffffffff16815260200190815260200160002060008201518160000160006101000a81548173ffffffffffffffffffffffffffffffffffffffff021916908373ffffffffffffffffffffffffffffffffffffffff1602179055506020820151816001019080519060200190610c2d929190613b22565b506040820151816002019080519060200190610c4a929190613b22565b506060820151816003019080519060200190610c67929190613b22565b506080820151816004019080519060200190610c84929190613b22565b5060a082015181600501559050506009869080600181540180825580915050600190039060005260206000200160009091909190916101000a81548173ffffffffffffffffffffffffffffffffffffffff021916908373ffffffffffffffffffffffffffffffffffffffff1602179055506001600b60008873ffffffffffffffffffffffffffffffffffffffff1673ffffffffffffffffffffffffffffffffffffffff16815260200190815260200160002060000160006101000a81548160ff0219169083151502179055507f307d82e79bd1b0a99cd4970244aff7a24728c87d44538d53a33b3d9b7249ccdc8787878787604051610d87959493929190614700565b60405180910390a150505050505050565b60066020528060005260406000206000915054906101000a900460ff1681565b60008060149054906101000a900460ff1615610e09576040517f08c379a0000000000000000000000000000000000000000000000000000000008152600401610e00906148ef565b60405180910390fd5b600160000154905090565b60098181548110610e2457600080fd5b906000526020600020016000915054906101000a900473ffffffffffffffffffffffffffffffffffffffff1681565b610e5b613ba8565b600e60008373ffffffffffffffffffffffffffffffffffffffff1673ffffffffffffffffffffffffffffffffffffffff1681526020019081526020016000206040518060800160405290816000820160009054906101000a900460ff161515151581526020016000820160019054906101000a900460ff161515151581526020016000820160029054906101000a900460ff161515151581526020016000820160039054906101000a900460ff1615151515815250509050919050565b6060600060149054906101000a900460ff1615610f6a576040517f08c379a0000000000000000000000000000000000000000000000000000000008152600401610f61906148ef565b60405180910390fd5b600180018054610f7990614de2565b80601f0160208091040260200160405190810160405280929190818152602001828054610fa590614de2565b8015610ff25780601f10610fc757610100808354040283529160200191610ff2565b820191906000526020600020905b815481529060010190602001808311610fd557829003601f168201915b5050505050905090565b6005818154811061100c57600080fd5b90600052602060002090600a020160009150905080600001549080600101805461103590614de2565b80601f016020809104026020016040519081016040528092919081815260200182805461106190614de2565b80156110ae5780601f10611083576101008083540402835291602001916110ae565b820191906000526020600020905b81548152906001019060200180831161109157829003601f168201915b5050505050908060020154908060030160009054906101000a900473ffffffffffffffffffffffffffffffffffffffff16908060040180546110ef90614de2565b80601f016020809104026020016040519081016040528092919081815260200182805461111b90614de2565b80156111685780601f1061113d57610100808354040283529160200191611168565b820191906000526020600020905b81548152906001019060200180831161114b57829003601f168201915b50505050509080600501805461117d90614de2565b80601f01602080910402602001604051908101604052809291908181526020018280546111a990614de2565b80156111f65780601f106111cb576101008083540402835291602001916111f6565b820191906000526020600020905b8154815290600101906020018083116111d957829003601f168201915b50505050509080600601549080600701805461121190614de2565b80601f016020809104026020016040519081016040528092919081815260200182805461123d90614de2565b801561128a5780601f1061125f5761010080835404028352916020019161128a565b820191906000526020600020905b81548152906001019060200180831161126d57829003601f168201915b50505050509080600801805461129f90614de2565b80601f01602080910402602001604051908101604052809291908181526020018280546112cb90614de2565b80156113185780601f106112ed57610100808354040283529160200191611318565b820191906000526020600020905b8154815290600101906020018083116112fb57829003601f168201915b50505050509080600901805461132d90614de2565b80601f016020809104026020016040519081016040528092919081815260200182805461135990614de2565b80156113a65780601f1061137b576101008083540402835291602001916113a6565b820191906000526020600020905b81548152906001019060200180831161138957829003601f168201915b505050505090508a565b606080606060006060600080871180156113cf57506005805490508711155b61140e576040517f08c379a0000000000000000000000000000000000000000000000000000000008152600401611405906149cf565b60405180910390fd5b6000600560018961141f9190614d1a565b81548110611456577f4e487b7100000000000000000000000000000000000000000000000000000000600052603260045260246000fd5b90600052602060002090600a0201604051806101400160405290816000820154815260200160018201805461148a90614de2565b80601f01602080910402602001604051908101604052809291908181526020018280546114b690614de2565b80156115035780601f106114d857610100808354040283529160200191611503565b820191906000526020600020905b8154815290600101906020018083116114e657829003601f168201915b50505050508152602001600282015481526020016003820160009054906101000a900473ffffffffffffffffffffffffffffffffffffffff1673ffffffffffffffffffffffffffffffffffffffff1673ffffffffffffffffffffffffffffffffffffffff16815260200160048201805461157c90614de2565b80601f01602080910402602001604051908101604052809291908181526020018280546115a890614de2565b80156115f55780601f106115ca576101008083540402835291602001916115f5565b820191906000526020600020905b8154815290600101906020018083116115d857829003601f168201915b5050505050815260200160058201805461160e90614de2565b80601f016020809104026020016040519081016040528092919081815260200182805461163a90614de2565b80156116875780601f1061165c57610100808354040283529160200191611687565b820191906000526020600020905b81548152906001019060200180831161166a57829003601f168201915b50505050508152602001600682015481526020016007820180546116aa90614de2565b80601f01602080910402602001604051908101604052809291908181526020018280546116d690614de2565b80156117235780601f106116f857610100808354040283529160200191611723565b820191906000526020600020905b81548152906001019060200180831161170657829003601f168201915b5050505050815260200160088201805461173c90614de2565b80601f016020809104026020016040519081016040528092919081815260200182805461176890614de2565b80156117b55780601f1061178a576101008083540402835291602001916117b5565b820191906000526020600020905b81548152906001019060200180831161179857829003601f168201915b505050505081526020016009820180546117ce90614de2565b80601f01602080910402602001604051908101604052809291908181526020018280546117fa90614de2565b80156118475780601f1061181c57610100808354040283529160200191611847565b820191906000526020600020905b81548152906001019060200180831161182a57829003601f168201915b5050505050815250509050806020015181608001518260a001518360c001518461012001518c9650965096509650965096505091939550919395565b6001600e60008573ffffffffffffffffffffffffffffffffffffffff1673ffffffffffffffffffffffffffffffffffffffff16815260200190815260200160002060000160026101000a81548160ff0219169083151502179055506001600e60008573ffffffffffffffffffffffffffffffffffffffff1673ffffffffffffffffffffffffffffffffffffffff16815260200190815260200160002060000160036101000a81548160ff021916908315150217905550604051806040016040528083815260200182815250600d60008573ffffffffffffffffffffffffffffffffffffffff1673ffffffffffffffffffffffffffffffffffffffff16815260200190815260200160002060008201518160000190805190602001906119a9929190613b22565b5060208201518160010190805190602001906119c6929190613b22565b50905050505050565b600c6020528060005260406000206000915054906101000a900460ff1681565b60008060159054906101000a900460ff16905090565b600f602052806000526040600020600091509050806000018054611a2890614de2565b80601f0160208091040260200160405190810160405280929190818152602001828054611a5490614de2565b8015611aa15780601f10611a7657610100808354040283529160200191611aa1565b820191906000526020600020905b815481529060010190602001808311611a8457829003601f168201915b505050505090806001018054611ab690614de2565b80601f0160208091040260200160405190810160405280929190818152602001828054611ae290614de2565b8015611b2f5780601f10611b0457610100808354040283529160200191611b2f565b820191906000526020600020905b815481529060010190602001808311611b1257829003601f168201915b5050505050908060020160009054906101000a900473ffffffffffffffffffffffffffffffffffffffff16908060020160149054906101000a900460ff16905084565b60008054906101000a900473ffffffffffffffffffffffffffffffffffffffff1673ffffffffffffffffffffffffffffffffffffffff163373ffffffffffffffffffffffffffffffffffffffff1614611c00576040517f08c379a0000000000000000000000000000000000000000000000000000000008152600401611bf79061494f565b60405180910390fd5b600f60008473ffffffffffffffffffffffffffffffffffffffff1673ffffffffffffffffffffffffffffffffffffffff16815260200190815260200160002060020160149054906101000a900460ff1615611c90576040517f08c379a0000000000000000000000000000000000000000000000000000000008152600401611c879061496f565b60405180910390fd5b60405180608001604052808381526020018281526020018473ffffffffffffffffffffffffffffffffffffffff16815260200160011515815250600f60008573ffffffffffffffffffffffffffffffffffffffff1673ffffffffffffffffffffffffffffffffffffffff1681526020019081526020016000206000820151816000019080519060200190611d25929190613b22565b506020820151816001019080519060200190611d42929190613b22565b5060408201518160020160006101000a81548173ffffffffffffffffffffffffffffffffffffffff021916908373ffffffffffffffffffffffffffffffffffffffff16021790555060608201518160020160146101000a81548160ff0219169083151502179055509050506010839080600181540180825580915050600190039060005260206000200160009091909190916101000a81548173ffffffffffffffffffffffffffffffffffffffff021916908373ffffffffffffffffffffffffffffffffffffffff160217905550505050565b600060149054906101000a900460ff1615611e65576040517f08c379a0000000000000000000000000000000000000000000000000000000008152600401611e5c9061492f565b60405180910390fd5b600c60008873ffffffffffffffffffffffffffffffffffffffff1673ffffffffffffffffffffffffffffffffffffffff16815260200190815260200160002060009054906101000a900460ff1615611ef2576040517f08c379a0000000000000000000000000000000000000000000000000000000008152600401611ee99061498f565b60405180910390fd5b60006001600580549050611f069190614cc4565b905060056040518061014001604052808381526020018b8152602001600081526020018a73ffffffffffffffffffffffffffffffffffffffff1681526020018981526020018881526020018781526020018681526020018581526020018481525090806001815401808255809150506001900390600052602060002090600a0201600090919091909150600082015181600001556020820151816001019080519060200190611fb6929190613b22565b506040820151816002015560608201518160030160006101000a81548173ffffffffffffffffffffffffffffffffffffffff021916908373ffffffffffffffffffffffffffffffffffffffff1602179055506080820151816004019080519060200190612024929190613b22565b5060a0820151816005019080519060200190612041929190613b22565b5060c0820151816006015560e0820151816007019080519060200190612068929190613b22565b50610100820151816008019080519060200190612086929190613b22565b506101208201518160090190805190602001906120a4929190613b22565b5050506001600c60008a73ffffffffffffffffffffffffffffffffffffffff1673ffffffffffffffffffffffffffffffffffffffff16815260200190815260200160002060006101000a81548160ff0219169083151502179055506001600e60008a73ffffffffffffffffffffffffffffffffffffffff1673ffffffffffffffffffffffffffffffffffffffff16815260200190815260200160002060000160006101000a81548160ff0219169083151502179055507f8390120aa7b9c5d5dd0a018d0fdfdcd10e11eec3f676c8b6781756fd3394d878818a8a8a8a8a8a8a8a60405161219999989796959493929190614a62565b60405180910390a1505050505050505050565b6001600b60008373ffffffffffffffffffffffffffffffffffffffff1673ffffffffffffffffffffffffffffffffffffffff16815260200190815260200160002060000160026101000a81548160ff0219169083151502179055506001600b60008373ffffffffffffffffffffffffffffffffffffffff1673ffffffffffffffffffffffffffffffffffffffff16815260200190815260200160002060000160036101000a81548160ff02191690831515021790555050565b60008054906101000a900473ffffffffffffffffffffffffffffffffffffffff1673ffffffffffffffffffffffffffffffffffffffff163373ffffffffffffffffffffffffffffffffffffffff16146122f3576040517f08c379a00000000000000000000000000000000000000000000000000000000081526004016122ea9061494f565b60405180910390fd5b600060149054906101000a900460ff1615612343576040517f08c379a000000000000000000000000000000000000000000000000000000000815260040161233a9061488f565b60405180910390fd5b60006005805490501161238b576040517f08c379a00000000000000000000000000000000000000000000000000000000081526004016123829061490f565b60405180910390fd5b6000806001600060156101000a81548160ff02191690831515021790555060005b60058054905081101561246a5782600582815481106123f4577f4e487b7100000000000000000000000000000000000000000000000000000000600052603260045260246000fd5b90600052602060002090600a020160020154106124655760058181548110612445577f4e487b7100000000000000000000000000000000000000000000000000000000600052603260045260246000fd5b90600052602060002090600a020160020154925080915080806001019150505b6123ac565b5060008110612708576000600582815481106124af577f4e487b7100000000000000000000000000000000000000000000000000000000600052603260045260246000fd5b90600052602060002090600a020160010180546124cb90614de2565b80601f01602080910402602001604051908101604052809291908181526020018280546124f790614de2565b80156125445780601f1061251957610100808354040283529160200191612544565b820191906000526020600020905b81548152906001019060200180831161252757829003601f168201915b50505050509050600060058381548110612587577f4e487b7100000000000000000000000000000000000000000000000000000000600052603260045260246000fd5b90600052602060002090600a02016002015490506000600584815481106125d7577f4e487b7100000000000000000000000000000000000000000000000000000000600052603260045260246000fd5b90600052602060002090600a020160030160009054906101000a900473ffffffffffffffffffffffffffffffffffffffff16905060405180608001604052806001866126239190614cc4565b81526020018481526020018381526020018273ffffffffffffffffffffffffffffffffffffffff168152506001600082015181600001556020820151816001019080519060200190612676929190613b22565b506040820151816002015560608201518160030160006101000a81548173ffffffffffffffffffffffffffffffffffffffff021916908373ffffffffffffffffffffffffffffffffffffffff1602179055509050507f1aaa99e411a940104e7b7866d6fc9317a3e67e76472e8d2776a9a8943112c39083836040516126fc92919061483f565b60405180910390a15050505b5050565b60008054906101000a900473ffffffffffffffffffffffffffffffffffffffff1673ffffffffffffffffffffffffffffffffffffffff163373ffffffffffffffffffffffffffffffffffffffff161461279a576040517f08c379a00000000000000000000000000000000000000000000000000000000081526004016127919061494f565b60405180910390fd5b60008060146101000a81548160ff0219169083151502179055507fa549b9addfc3693a1863ac5b0b13c42960d78df554c01ea6ac72a7db985df0cf60405160405180910390a1565b604051806080016040528060011515815260200160001515815260200160001515815260200160001515815250600e60008373ffffffffffffffffffffffffffffffffffffffff1673ffffffffffffffffffffffffffffffffffffffff16815260200190815260200160002060008201518160000160006101000a81548160ff02191690831515021790555060208201518160000160016101000a81548160ff02191690831515021790555060408201518160000160026101000a81548160ff02191690831515021790555060608201518160000160036101000a81548160ff02191690831515021790555090505050565b6128dc613bd8565b600a60008373ffffffffffffffffffffffffffffffffffffffff1673ffffffffffffffffffffffffffffffffffffffff16815260200190815260200160002060405180604001604052908160008201805461293690614de2565b80601f016020809104026020016040519081016040528092919081815260200182805461296290614de2565b80156129af5780601f10612984576101008083540402835291602001916129af565b820191906000526020600020905b81548152906001019060200180831161299257829003601f168201915b505050505081526020016001820180546129c890614de2565b80601f01602080910402602001604051908101604052809291908181526020018280546129f490614de2565b8015612a415780601f10612a1657610100808354040283529160200191612a41565b820191906000526020600020905b815481529060010190602001808311612a2457829003601f168201915b5050505050815250509050919050565b60008060009054906101000a900473ffffffffffffffffffffffffffffffffffffffff16905090565b60008060149054906101000a900460ff16905090565b60008054906101000a900473ffffffffffffffffffffffffffffffffffffffff1681565b600060159054906101000a900460ff1681565b612acf613bf2565b600b60008373ffffffffffffffffffffffffffffffffffffffff1673ffffffffffffffffffffffffffffffffffffffff1681526020019081526020016000206040518060800160405290816000820160009054906101000a900460ff161515151581526020016000820160019054906101000a900460ff161515151581526020016000820160029054906101000a900460ff161515151581526020016000820160039054906101000a900460ff1615151515815250509050919050565b60108181548110612b9c57600080fd5b906000526020600020016000915054906101000a900473ffffffffffffffffffffffffffffffffffffffff1681565b60086020528060005260406000206000915090508060000160009054906101000a900473ffffffffffffffffffffffffffffffffffffffff1690806001018054612c1490614de2565b80601f0160208091040260200160405190810160405280929190818152602001828054612c4090614de2565b8015612c8d5780601f10612c6257610100808354040283529160200191612c8d565b820191906000526020600020905b815481529060010190602001808311612c7057829003601f168201915b505050505090806002018054612ca290614de2565b80601f0160208091040260200160405190810160405280929190818152602001828054612cce90614de2565b8015612d1b5780601f10612cf057610100808354040283529160200191612d1b565b820191906000526020600020905b815481529060010190602001808311612cfe57829003601f168201915b505050505090806003018054612d3090614de2565b80601f0160208091040260200160405190810160405280929190818152602001828054612d5c90614de2565b8015612da95780601f10612d7e57610100808354040283529160200191612da9565b820191906000526020600020905b815481529060010190602001808311612d8c57829003601f168201915b505050505090806004018054612dbe90614de2565b80601f0160208091040260200160405190810160405280929190818152602001828054612dea90614de2565b8015612e375780601f10612e0c57610100808354040283529160200191612e37565b820191906000526020600020905b815481529060010190602001808311612e1a57829003601f168201915b5050505050908060050154905086565b6001600b60008373ffffffffffffffffffffffffffffffffffffffff1673ffffffffffffffffffffffffffffffffffffffff16815260200190815260200160002060000160016101000a81548160ff02191690831515021790555050565b6001600e60008373ffffffffffffffffffffffffffffffffffffffff1673ffffffffffffffffffffffffffffffffffffffff16815260200190815260200160002060000160016101000a81548160ff02191690831515021790555050565b604051806040016040528083815260200182815250600a60008573ffffffffffffffffffffffffffffffffffffffff1673ffffffffffffffffffffffffffffffffffffffff1681526020019081526020016000206000820151816000019080519060200190612f73929190613b22565b506020820151816001019080519060200190612f90929190613b22565b509050506001600b60008573ffffffffffffffffffffffffffffffffffffffff1673ffffffffffffffffffffffffffffffffffffffff16815260200190815260200160002060000160026101000a81548160ff0219169083151502179055506001600b60008573ffffffffffffffffffffffffffffffffffffffff1673ffffffffffffffffffffffffffffffffffffffff16815260200190815260200160002060000160036101000a81548160ff021916908315150217905550505050565b6000600580549050905090565b6001600e60008373ffffffffffffffffffffffffffffffffffffffff1673ffffffffffffffffffffffffffffffffffffffff16815260200190815260200160002060000160026101000a81548160ff0219169083151502179055506001600e60008373ffffffffffffffffffffffffffffffffffffffff1673ffffffffffffffffffffffffffffffffffffffff16815260200190815260200160002060000160036101000a81548160ff02191690831515021790555050565b60008054906101000a900473ffffffffffffffffffffffffffffffffffffffff1673ffffffffffffffffffffffffffffffffffffffff163373ffffffffffffffffffffffffffffffffffffffff16146131a3576040517f08c379a000000000000000000000000000000000000000000000000000000000815260040161319a9061494f565b60405180910390fd5b6001600060146101000a81548160ff0219169083151502179055507f258a7c8a176359d1dd4b5872009764b97f6228ed4dfc610540018b756f6f22bd60405160405180910390a1565b6131f4613bd8565b600d60008373ffffffffffffffffffffffffffffffffffffffff1673ffffffffffffffffffffffffffffffffffffffff16815260200190815260200160002060405180604001604052908160008201805461324e90614de2565b80601f016020809104026020016040519081016040528092919081815260200182805461327a90614de2565b80156132c75780601f1061329c576101008083540402835291602001916132c7565b820191906000526020600020905b8154815290600101906020018083116132aa57829003601f168201915b505050505081526020016001820180546132e090614de2565b80601f016020809104026020016040519081016040528092919081815260200182805461330c90614de2565b80156133595780601f1061332e57610100808354040283529160200191613359565b820191906000526020600020905b81548152906001019060200180831161333c57829003601f168201915b5050505050815250509050919050565b600b60008273ffffffffffffffffffffffffffffffffffffffff1673ffffffffffffffffffffffffffffffffffffffff16815260200190815260200160002060000160039054906101000a900460ff16156133f9576040517f08c379a00000000000000000000000000000000000000000000000000000000081526004016133f0906148af565b60405180910390fd5b6000600860008373ffffffffffffffffffffffffffffffffffffffff1673ffffffffffffffffffffffffffffffffffffffff1681526020019081526020016000206040518060c00160405290816000820160009054906101000a900473ffffffffffffffffffffffffffffffffffffffff1673ffffffffffffffffffffffffffffffffffffffff1673ffffffffffffffffffffffffffffffffffffffff1681526020016001820180546134ab90614de2565b80601f01602080910402602001604051908101604052809291908181526020018280546134d790614de2565b80156135245780601f106134f957610100808354040283529160200191613524565b820191906000526020600020905b81548152906001019060200180831161350757829003601f168201915b5050505050815260200160028201805461353d90614de2565b80601f016020809104026020016040519081016040528092919081815260200182805461356990614de2565b80156135b65780601f1061358b576101008083540402835291602001916135b6565b820191906000526020600020905b81548152906001019060200180831161359957829003601f168201915b505050505081526020016003820180546135cf90614de2565b80601f01602080910402602001604051908101604052809291908181526020018280546135fb90614de2565b80156136485780601f1061361d57610100808354040283529160200191613648565b820191906000526020600020905b81548152906001019060200180831161362b57829003601f168201915b5050505050815260200160048201805461366190614de2565b80601f016020809104026020016040519081016040528092919081815260200182805461368d90614de2565b80156136da5780601f106136af576101008083540402835291602001916136da565b820191906000526020600020905b8154815290600101906020018083116136bd57829003601f168201915b5050505050815260200160058201548152505090508060a00151836040516020016137059190614614565b60405160208183030381529060405280519060200120148015613777575080604001516040516020016137389190614614565b604051602081830303815290604052805190602001208460405160200161375f9190614614565b60405160208183030381529060405280519060200120145b6137b6576040517f08c379a00000000000000000000000000000000000000000000000000000000081526004016137ad906148cf565b60405180910390fd5b8173ffffffffffffffffffffffffffffffffffffffff167f048e252d5e4f0eb06f35f4b2d35d1c46d725d11d87b685253169fa84a995e14160405160405180910390a250505050565b604051806080016040528060011515815260200160001515815260200160001515815260200160001515815250600b60008373ffffffffffffffffffffffffffffffffffffffff1673ffffffffffffffffffffffffffffffffffffffff16815260200190815260200160002060008201518160000160006101000a81548160ff02191690831515021790555060208201518160000160016101000a81548160ff02191690831515021790555060408201518160000160026101000a81548160ff02191690831515021790555060608201518160000160036101000a81548160ff02191690831515021790555090505050565b600180600001549080600101805461390890614de2565b80601f016020809104026020016040519081016040528092919081815260200182805461393490614de2565b80156139815780601f1061395657610100808354040283529160200191613981565b820191906000526020600020905b81548152906001019060200180831161396457829003601f168201915b5050505050908060020154908060030160009054906101000a900473ffffffffffffffffffffffffffffffffffffffff16905084565b6000600660008373ffffffffffffffffffffffffffffffffffffffff1673ffffffffffffffffffffffffffffffffffffffff16815260200190815260200160002060009054906101000a900460ff169050919050565b6000600b60008373ffffffffffffffffffffffffffffffffffffffff1673ffffffffffffffffffffffffffffffffffffffff16815260200190815260200160002060000160039054906101000a900460ff169050919050565b60008060149054906101000a900460ff1615613ab7576040517f08c379a0000000000000000000000000000000000000000000000000000000008152600401613aae906148ef565b60405180910390fd5b600160020154905090565b60076020528060005260406000206000915090505481565b600060149054906101000a900460ff1681565b60008082604051602001613b019190614614565b60405160208183030381529060405280519060200120905080915050919050565b828054613b2e90614de2565b90600052602060002090601f016020900481019282613b505760008555613b97565b82601f10613b6957805160ff1916838001178555613b97565b82800160010185558215613b97579182015b82811115613b96578251825591602001919060010190613b7b565b5b509050613ba49190613c22565b5090565b60405180608001604052806000151581526020016000151581526020016000151581526020016000151581525090565b604051806040016040528060608152602001606081525090565b60405180608001604052806000151581526020016000151581526020016000151581526020016000151581525090565b5b80821115613c3b576000816000905550600101613c23565b5090565b6000613c52613c4d84614c5c565b614c2b565b905082815260208101848484011115613c6a57600080fd5b613c75848285614da0565b509392505050565b600081359050613c8c81614efb565b92915050565b600082601f830112613ca357600080fd5b8135613cb3848260208601613c3f565b91505092915050565b600081359050613ccb81614f12565b92915050565b600060208284031215613ce357600080fd5b6000613cf184828501613c7d565b91505092915050565b600080600060608486031215613d0f57600080fd5b6000613d1d86828701613c7d565b935050602084013567ffffffffffffffff811115613d3a57600080fd5b613d4686828701613c92565b925050604084013567ffffffffffffffff811115613d6357600080fd5b613d6f86828701613c92565b9150509250925092565b60008060008060008060c08789031215613d9257600080fd5b600087013567ffffffffffffffff811115613dac57600080fd5b613db889828a01613c92565b9650506020613dc989828a01613c7d565b955050604087013567ffffffffffffffff811115613de657600080fd5b613df289828a01613c92565b945050606087013567ffffffffffffffff811115613e0f57600080fd5b613e1b89828a01613c92565b935050608087013567ffffffffffffffff811115613e3857600080fd5b613e4489828a01613c92565b92505060a087013567ffffffffffffffff811115613e6157600080fd5b613e6d89828a01613c92565b9150509295509295509295565b600080600080600080600080610100898b031215613e9757600080fd5b600089013567ffffffffffffffff811115613eb157600080fd5b613ebd8b828c01613c92565b9850506020613ece8b828c01613c7d565b975050604089013567ffffffffffffffff811115613eeb57600080fd5b613ef78b828c01613c92565b965050606089013567ffffffffffffffff811115613f1457600080fd5b613f208b828c01613c92565b9550506080613f318b828c01613cbc565b94505060a089013567ffffffffffffffff811115613f4e57600080fd5b613f5a8b828c01613c92565b93505060c089013567ffffffffffffffff811115613f7757600080fd5b613f838b828c01613c92565b92505060e089013567ffffffffffffffff811115613fa057600080fd5b613fac8b828c01613c92565b9150509295985092959890939650565b600080600060608486031215613fd157600080fd5b600084013567ffffffffffffffff811115613feb57600080fd5b613ff786828701613c92565b935050602084013567ffffffffffffffff81111561401457600080fd5b61402086828701613c92565b925050604061403186828701613c7d565b9150509250925092565b60006020828403121561404d57600080fd5b600061405b84828501613cbc565b91505092915050565b6000806040838503121561407757600080fd5b600061408585828601613cbc565b925050602061409685828601613c7d565b9150509250929050565b6140a981614d4e565b82525050565b6140b881614d60565b82525050565b6140c781614d60565b82525050565b6140d681614d6c565b82525050565b60006140e782614c8c565b6140f18185614c97565b9350614101818560208601614daf565b61410a81614eea565b840191505092915050565b600061412082614c8c565b61412a8185614ca8565b935061413a818560208601614daf565b61414381614eea565b840191505092915050565b600061415982614c8c565b6141638185614cb9565b9350614173818560208601614daf565b80840191505092915050565b600061418c601783614ca8565b91507f596f75206861766520616c726561647920766f7465642e0000000000000000006000830152602082019050919050565b60006141cc602b83614ca8565b91507f43616e6e6f74206465636c61726520726573756c74207768696c6520766f746960008301527f6e67206973206f70656e2e0000000000000000000000000000000000000000006020830152604082019050919050565b6000614232601e83614ca8565b91507f766f74657273566f746572206973206e6f7420726567697374657265642e00006000830152602082019050919050565b6000614272601283614ca8565b91507f496e636f72726563742070617373776f726400000000000000000000000000006000830152602082019050919050565b60006142b2601783614ca8565b91507f456c656374696f6e206973207374696c6c206f70656e2e0000000000000000006000830152602082019050919050565b60006142f2602783614ca8565b91507f4e6f2063616e6469646174657320746f206465636c617265206173207468652060008301527f77696e6e65722e000000000000000000000000000000000000000000000000006020830152604082019050919050565b6000614358602983614ca8565b91507f43616e206e6f74207265676973746572207768656e20456c656374696f6e206960008301527f732072756e6e696e6700000000000000000000000000000000000000000000006020830152604082019050919050565b60006143be602783614ca8565b91507f4f6e6c7920746865206f776e65722063616e20706572666f726d20746869732060008301527f616374696f6e2e000000000000000000000000000000000000000000000000006020830152604082019050919050565b6000614424601583614ca8565b91507f41646d696e20616c7265616479206578697374732e00000000000000000000006000830152602082019050919050565b6000614464601c83614ca8565b91507f566f74657220697320616c726561647920726567697374657265642e000000006000830152602082019050919050565b60006144a4601183614ca8565b91507f566f74696e6720697320636c6f7365642e0000000000000000000000000000006000830152602082019050919050565b60006144e4601583614ca8565b91507f496e76616c69642063616e6469646174652049442e00000000000000000000006000830152602082019050919050565b60808201600082015161452d60008501826140af565b50602082015161454060208501826140af565b50604082015161455360408501826140af565b50606082015161456660608501826140af565b50505050565b6000604083016000830151848203600086015261458982826140dc565b915050602083015184820360208601526145a382826140dc565b9150508091505092915050565b6080820160008201516145c660008501826140af565b5060208201516145d960208501826140af565b5060408201516145ec60408501826140af565b5060608201516145ff60608501826140af565b50505050565b61460e81614d96565b82525050565b6000614620828461414e565b915081905092915050565b600060208201905061464060008301846140a0565b92915050565b600060c08201905061465b60008301896140a0565b818103602083015261466d8188614115565b905081810360408301526146818187614115565b905081810360608301526146958186614115565b905081810360808301526146a98185614115565b90506146b860a08301846140cd565b979650505050505050565b60006020820190506146d860008301846140be565b92915050565b600060208201905081810360008301526146f88184614115565b905092915050565b600060a082019050818103600083015261471a8188614115565b905061472960208301876140a0565b818103604083015261473b8186614115565b9050818103606083015261474f8185614115565b905081810360808301526147638184614115565b90509695505050505050565b600060808201905081810360008301526147898187614115565b9050818103602083015261479d8186614115565b90506147ac60408301856140a0565b6147b960608301846140be565b95945050505050565b600060c08201905081810360008301526147dc8189614115565b905081810360208301526147f08188614115565b905081810360408301526148048187614115565b90506148136060830186614605565b81810360808301526148258185614115565b905061483460a0830184614605565b979650505050505050565b600060408201905081810360008301526148598185614115565b90506148686020830184614605565b9392505050565b600060208201905081810360008301526148888161417f565b9050919050565b600060208201905081810360008301526148a8816141bf565b9050919050565b600060208201905081810360008301526148c881614225565b9050919050565b600060208201905081810360008301526148e881614265565b9050919050565b60006020820190508181036000830152614908816142a5565b9050919050565b60006020820190508181036000830152614928816142e5565b9050919050565b600060208201905081810360008301526149488161434b565b9050919050565b60006020820190508181036000830152614968816143b1565b9050919050565b6000602082019050818103600083015261498881614417565b9050919050565b600060208201905081810360008301526149a881614457565b9050919050565b600060208201905081810360008301526149c881614497565b9050919050565b600060208201905081810360008301526149e8816144d7565b9050919050565b6000608082019050614a046000830184614517565b92915050565b60006020820190508181036000830152614a24818461456c565b905092915050565b6000608082019050614a4160008301846145b0565b92915050565b6000602082019050614a5c6000830184614605565b92915050565b600061012082019050614a78600083018c614605565b8181036020830152614a8a818b614115565b9050614a99604083018a6140a0565b8181036060830152614aab8189614115565b90508181036080830152614abf8188614115565b9050614ace60a0830187614605565b81810360c0830152614ae08186614115565b905081810360e0830152614af48185614115565b9050818103610100830152614b098184614115565b90509a9950505050505050505050565b6000608082019050614b2e6000830187614605565b8181036020830152614b408186614115565b9050614b4f6040830185614605565b614b5c60608301846140a0565b95945050505050565b600061014082019050614b7b600083018d614605565b8181036020830152614b8d818c614115565b9050614b9c604083018b614605565b614ba9606083018a6140a0565b8181036080830152614bbb8189614115565b905081810360a0830152614bcf8188614115565b9050614bde60c0830187614605565b81810360e0830152614bf08186614115565b9050818103610100830152614c058185614115565b9050818103610120830152614c1a8184614115565b90509b9a5050505050505050505050565b6000604051905081810181811067ffffffffffffffff82111715614c5257614c51614ebb565b5b8060405250919050565b600067ffffffffffffffff821115614c7757614c76614ebb565b5b601f19601f8301169050602081019050919050565b600081519050919050565b600082825260208201905092915050565b600082825260208201905092915050565b600081905092915050565b6000614ccf82614d96565b9150614cda83614d96565b9250827fffffffffffffffffffffffffffffffffffffffffffffffffffffffffffffffff03821115614d0f57614d0e614e5d565b5b828201905092915050565b6000614d2582614d96565b9150614d3083614d96565b925082821015614d4357614d42614e5d565b5b828203905092915050565b6000614d5982614d76565b9050919050565b60008115159050919050565b6000819050919050565b600073ffffffffffffffffffffffffffffffffffffffff82169050919050565b6000819050919050565b82818337600083830152505050565b60005b83811015614dcd578082015181840152602081019050614db2565b83811115614ddc576000848401525b50505050565b60006002820490506001821680614dfa57607f821691505b60208210811415614e0e57614e0d614e8c565b5b50919050565b6000614e1f82614d96565b91507fffffffffffffffffffffffffffffffffffffffffffffffffffffffffffffffff821415614e5257614e51614e5d565b5b600182019050919050565b7f4e487b7100000000000000000000000000000000000000000000000000000000600052601160045260246000fd5b7f4e487b7100000000000000000000000000000000000000000000000000000000600052602260045260246000fd5b7f4e487b7100000000000000000000000000000000000000000000000000000000600052604160045260246000fd5b6000601f19601f8301169050919050565b614f0481614d4e565b8114614f0f57600080fd5b50565b614f1b81614d96565b8114614f2657600080fd5b5056fea264697066735822122033db82181d764bab437903ec3b5a32d8cd729bb6d516c9ecf30ab79c20ca1dd664736f6c63430008000033","opcodes":"PUSH1 0x80 PUSH1 0x40 MSTORE CALLVALUE DUP1 ISZERO PUSH2 0x10 JUMPI PUSH1 0x0 DUP1 REVERT JUMPDEST POP CALLER PUSH1 0x0 DUP1 PUSH2 0x100 EXP DUP2 SLOAD DUP2 PUSH20 0xFFFFFFFFFFFFFFFFFFFFFFFFFFFFFFFFFFFFFFFF MUL NOT AND SWAP1 DUP4 PUSH20 0xFFFFFFFFFFFFFFFFFFFFFFFFFFFFFFFFFFFFFFFF AND MUL OR SWAP1 SSTORE POP PUSH1 0x0 DUP1 PUSH1 0x14 PUSH2 0x100 EXP DUP2 SLOAD DUP2 PUSH1 0xFF MUL NOT AND SWAP1 DUP4 ISZERO ISZERO MUL OR SWAP1 SSTORE POP PUSH1 0x0 DUP1 PUSH1 0x15 PUSH2 0x100 EXP DUP2 SLOAD DUP2 PUSH1 0xFF MUL NOT AND SWAP1 DUP4 ISZERO ISZERO MUL OR SWAP1 SSTORE POP PUSH2 0x4F5F DUP1 PUSH2 0x94 PUSH1 0x0 CODECOPY PUSH1 0x0 RETURN INVALID PUSH1 0x80 PUSH1 0x40 MSTORE CALLVALUE DUP1 ISZERO PUSH2 0x10 JUMPI PUSH1 0x0 DUP1 REVERT JUMPDEST POP PUSH1 0x4 CALLDATASIZE LT PUSH2 0x25E JUMPI PUSH1 0x0 CALLDATALOAD PUSH1 0xE0 SHR DUP1 PUSH4 0x8B55C27A GT PUSH2 0x146 JUMPI DUP1 PUSH4 0xC0E1353E GT PUSH2 0xC3 JUMPI DUP1 PUSH4 0xDFBF53AE GT PUSH2 0x87 JUMPI DUP1 PUSH4 0xDFBF53AE EQ PUSH2 0x733 JUMPI DUP1 PUSH4 0xE35F8CEF EQ PUSH2 0x754 JUMPI DUP1 PUSH4 0xEB2119DB EQ PUSH2 0x784 JUMPI DUP1 PUSH4 0xF31ADAC3 EQ PUSH2 0x7B4 JUMPI DUP1 PUSH4 0xF5BA1C87 EQ PUSH2 0x7D2 JUMPI DUP1 PUSH4 0xFA7F1BAE EQ PUSH2 0x802 JUMPI PUSH2 0x25E JUMP JUMPDEST DUP1 PUSH4 0xC0E1353E EQ PUSH2 0x6A5 JUMPI DUP1 PUSH4 0xC5D00F5D EQ PUSH2 0x6C1 JUMPI DUP1 PUSH4 0xCF01723A EQ PUSH2 0x6CB JUMPI DUP1 PUSH4 0xD0B7C7FF EQ PUSH2 0x6FB JUMPI DUP1 PUSH4 0xDCD2AA91 EQ PUSH2 0x717 JUMPI PUSH2 0x25E JUMP JUMPDEST DUP1 PUSH4 0xA3EC138D GT PUSH2 0x10A JUMPI DUP1 PUSH4 0xA3EC138D EQ PUSH2 0x5FE JUMPI DUP1 PUSH4 0xA959F756 EQ PUSH2 0x633 JUMPI DUP1 PUSH4 0xAF5B2CC1 EQ PUSH2 0x64F JUMPI DUP1 PUSH4 0xB3FE99E5 EQ PUSH2 0x66B JUMPI DUP1 PUSH4 0xBB9AA28F EQ PUSH2 0x687 JUMPI PUSH2 0x25E JUMP JUMPDEST DUP1 PUSH4 0x8B55C27A EQ PUSH2 0x544 JUMPI DUP1 PUSH4 0x8DA5CB5B EQ PUSH2 0x562 JUMPI DUP1 PUSH4 0x965473BD EQ PUSH2 0x580 JUMPI DUP1 PUSH4 0x9ED1F255 EQ PUSH2 0x59E JUMPI DUP1 PUSH4 0xA2ADDD68 EQ PUSH2 0x5CE JUMPI PUSH2 0x25E JUMP JUMPDEST DUP1 PUSH4 0x3FA85856 GT PUSH2 0x1DF JUMPI DUP1 PUSH4 0x66B54449 GT PUSH2 0x1A3 JUMPI DUP1 PUSH4 0x66B54449 EQ PUSH2 0x4AA JUMPI DUP1 PUSH4 0x6C28FDB1 EQ PUSH2 0x4C6 JUMPI DUP1 PUSH4 0x6C6C32D0 EQ PUSH2 0x4D0 JUMPI DUP1 PUSH4 0x6F75AF6A EQ PUSH2 0x4DA JUMPI DUP1 PUSH4 0x86FE13D4 EQ PUSH2 0x4F6 JUMPI DUP1 PUSH4 0x893D20E8 EQ PUSH2 0x526 JUMPI PUSH2 0x25E JUMP JUMPDEST DUP1 PUSH4 0x3FA85856 EQ PUSH2 0x3F1 JUMPI DUP1 PUSH4 0x40BCB769 EQ PUSH2 0x421 JUMPI DUP1 PUSH4 0x429B62E5 EQ PUSH2 0x43F JUMPI DUP1 PUSH4 0x5BABF5EF EQ PUSH2 0x472 JUMPI DUP1 PUSH4 0x5F50E9F4 EQ PUSH2 0x48E JUMPI PUSH2 0x25E JUMP JUMPDEST DUP1 PUSH4 0x28BDE1E1 GT PUSH2 0x226 JUMPI DUP1 PUSH4 0x28BDE1E1 EQ PUSH2 0x319 JUMPI DUP1 PUSH4 0x2BFDA515 EQ PUSH2 0x349 JUMPI DUP1 PUSH4 0x3477EE2E EQ PUSH2 0x367 JUMPI DUP1 PUSH4 0x35B8E820 EQ PUSH2 0x3A0 JUMPI DUP1 PUSH4 0x3A7D77E0 EQ PUSH2 0x3D5 JUMPI PUSH2 0x25E JUMP JUMPDEST DUP1 PUSH4 0x2D947EF EQ PUSH2 0x263 JUMPI DUP1 PUSH4 0x40CA3BF EQ PUSH2 0x27F JUMPI DUP1 PUSH4 0x9EEF43E EQ PUSH2 0x29B JUMPI DUP1 PUSH4 0xAEA6806 EQ PUSH2 0x2CB JUMPI DUP1 PUSH4 0x2436E06B EQ PUSH2 0x2E9 JUMPI JUMPDEST PUSH1 0x0 DUP1 REVERT JUMPDEST PUSH2 0x27D PUSH1 0x4 DUP1 CALLDATASIZE SUB DUP2 ADD SWAP1 PUSH2 0x278 SWAP2 SWAP1 PUSH2 0x4064 JUMP JUMPDEST PUSH2 0x820 JUMP JUMPDEST STOP JUMPDEST PUSH2 0x299 PUSH1 0x4 DUP1 CALLDATASIZE SUB DUP2 ADD SWAP1 PUSH2 0x294 SWAP2 SWAP1 PUSH2 0x3D79 JUMP JUMPDEST PUSH2 0xAAB JUMP JUMPDEST STOP JUMPDEST PUSH2 0x2B5 PUSH1 0x4 DUP1 CALLDATASIZE SUB DUP2 ADD SWAP1 PUSH2 0x2B0 SWAP2 SWAP1 PUSH2 0x3CD1 JUMP JUMPDEST PUSH2 0xD98 JUMP JUMPDEST PUSH1 0x40 MLOAD PUSH2 0x2C2 SWAP2 SWAP1 PUSH2 0x46C3 JUMP JUMPDEST PUSH1 0x40 MLOAD DUP1 SWAP2 SUB SWAP1 RETURN JUMPDEST PUSH2 0x2D3 PUSH2 0xDB8 JUMP JUMPDEST PUSH1 0x40 MLOAD PUSH2 0x2E0 SWAP2 SWAP1 PUSH2 0x4A47 JUMP JUMPDEST PUSH1 0x40 MLOAD DUP1 SWAP2 SUB SWAP1 RETURN JUMPDEST PUSH2 0x303 PUSH1 0x4 DUP1 CALLDATASIZE SUB DUP2 ADD SWAP1 PUSH2 0x2FE SWAP2 SWAP1 PUSH2 0x403B JUMP JUMPDEST PUSH2 0xE14 JUMP JUMPDEST PUSH1 0x40 MLOAD PUSH2 0x310 SWAP2 SWAP1 PUSH2 0x462B JUMP JUMPDEST PUSH1 0x40 MLOAD DUP1 SWAP2 SUB SWAP1 RETURN JUMPDEST PUSH2 0x333 PUSH1 0x4 DUP1 CALLDATASIZE SUB DUP2 ADD SWAP1 PUSH2 0x32E SWAP2 SWAP1 PUSH2 0x3CD1 JUMP JUMPDEST PUSH2 0xE53 JUMP JUMPDEST PUSH1 0x40 MLOAD PUSH2 0x340 SWAP2 SWAP1 PUSH2 0x49EF JUMP JUMPDEST PUSH1 0x40 MLOAD DUP1 SWAP2 SUB SWAP1 RETURN JUMPDEST PUSH2 0x351 PUSH2 0xF18 JUMP JUMPDEST PUSH1 0x40 MLOAD PUSH2 0x35E SWAP2 SWAP1 PUSH2 0x46DE JUMP JUMPDEST PUSH1 0x40 MLOAD DUP1 SWAP2 SUB SWAP1 RETURN JUMPDEST PUSH2 0x381 PUSH1 0x4 DUP1 CALLDATASIZE SUB DUP2 ADD SWAP1 PUSH2 0x37C SWAP2 SWAP1 PUSH2 0x403B JUMP JUMPDEST PUSH2 0xFFC JUMP JUMPDEST PUSH1 0x40 MLOAD PUSH2 0x397 SWAP11 SWAP10 SWAP9 SWAP8 SWAP7 SWAP6 SWAP5 SWAP4 SWAP3 SWAP2 SWAP1 PUSH2 0x4B65 JUMP JUMPDEST PUSH1 0x40 MLOAD DUP1 SWAP2 SUB SWAP1 RETURN JUMPDEST PUSH2 0x3BA PUSH1 0x4 DUP1 CALLDATASIZE SUB DUP2 ADD SWAP1 PUSH2 0x3B5 SWAP2 SWAP1 PUSH2 0x403B JUMP JUMPDEST PUSH2 0x13B0 JUMP JUMPDEST PUSH1 0x40 MLOAD PUSH2 0x3CC SWAP7 SWAP6 SWAP5 SWAP4 SWAP3 SWAP2 SWAP1 PUSH2 0x47C2 JUMP JUMPDEST PUSH1 0x40 MLOAD DUP1 SWAP2 SUB SWAP1 RETURN JUMPDEST PUSH2 0x3EF PUSH1 0x4 DUP1 CALLDATASIZE SUB DUP2 ADD SWAP1 PUSH2 0x3EA SWAP2 SWAP1 PUSH2 0x3CFA JUMP JUMPDEST PUSH2 0x1883 JUMP JUMPDEST STOP JUMPDEST PUSH2 0x40B PUSH1 0x4 DUP1 CALLDATASIZE SUB DUP2 ADD SWAP1 PUSH2 0x406 SWAP2 SWAP1 PUSH2 0x3CD1 JUMP JUMPDEST PUSH2 0x19CF JUMP JUMPDEST PUSH1 0x40 MLOAD PUSH2 0x418 SWAP2 SWAP1 PUSH2 0x46C3 JUMP JUMPDEST PUSH1 0x40 MLOAD DUP1 SWAP2 SUB SWAP1 RETURN JUMPDEST PUSH2 0x429 PUSH2 0x19EF JUMP JUMPDEST PUSH1 0x40 MLOAD PUSH2 0x436 SWAP2 SWAP1 PUSH2 0x46C3 JUMP JUMPDEST PUSH1 0x40 MLOAD DUP1 SWAP2 SUB SWAP1 RETURN JUMPDEST PUSH2 0x459 PUSH1 0x4 DUP1 CALLDATASIZE SUB DUP2 ADD SWAP1 PUSH2 0x454 SWAP2 SWAP1 PUSH2 0x3CD1 JUMP JUMPDEST PUSH2 0x1A05 JUMP JUMPDEST PUSH1 0x40 MLOAD PUSH2 0x469 SWAP5 SWAP4 SWAP3 SWAP2 SWAP1 PUSH2 0x476F JUMP JUMPDEST PUSH1 0x40 MLOAD DUP1 SWAP2 SUB SWAP1 RETURN JUMPDEST PUSH2 0x48C PUSH1 0x4 DUP1 CALLDATASIZE SUB DUP2 ADD SWAP1 PUSH2 0x487 SWAP2 SWAP1 PUSH2 0x3CFA JUMP JUMPDEST PUSH2 0x1B72 JUMP JUMPDEST STOP JUMPDEST PUSH2 0x4A8 PUSH1 0x4 DUP1 CALLDATASIZE SUB DUP2 ADD SWAP1 PUSH2 0x4A3 SWAP2 SWAP1 PUSH2 0x3E7A JUMP JUMPDEST PUSH2 0x1E15 JUMP JUMPDEST STOP JUMPDEST PUSH2 0x4C4 PUSH1 0x4 DUP1 CALLDATASIZE SUB DUP2 ADD SWAP1 PUSH2 0x4BF SWAP2 SWAP1 PUSH2 0x3CD1 JUMP JUMPDEST PUSH2 0x21AC JUMP JUMPDEST STOP JUMPDEST PUSH2 0x4CE PUSH2 0x2265 JUMP JUMPDEST STOP JUMPDEST PUSH2 0x4D8 PUSH2 0x270C JUMP JUMPDEST STOP JUMPDEST PUSH2 0x4F4 PUSH1 0x4 DUP1 CALLDATASIZE SUB DUP2 ADD SWAP1 PUSH2 0x4EF SWAP2 SWAP1 PUSH2 0x3CD1 JUMP JUMPDEST PUSH2 0x27E2 JUMP JUMPDEST STOP JUMPDEST PUSH2 0x510 PUSH1 0x4 DUP1 CALLDATASIZE SUB DUP2 ADD SWAP1 PUSH2 0x50B SWAP2 SWAP1 PUSH2 0x3CD1 JUMP JUMPDEST PUSH2 0x28D4 JUMP JUMPDEST PUSH1 0x40 MLOAD PUSH2 0x51D SWAP2 SWAP1 PUSH2 0x4A0A JUMP JUMPDEST PUSH1 0x40 MLOAD DUP1 SWAP2 SUB SWAP1 RETURN JUMPDEST PUSH2 0x52E PUSH2 0x2A51 JUMP JUMPDEST PUSH1 0x40 MLOAD PUSH2 0x53B SWAP2 SWAP1 PUSH2 0x462B JUMP JUMPDEST PUSH1 0x40 MLOAD DUP1 SWAP2 SUB SWAP1 RETURN JUMPDEST PUSH2 0x54C PUSH2 0x2A7A JUMP JUMPDEST PUSH1 0x40 MLOAD PUSH2 0x559 SWAP2 SWAP1 PUSH2 0x46C3 JUMP JUMPDEST PUSH1 0x40 MLOAD DUP1 SWAP2 SUB SWAP1 RETURN JUMPDEST PUSH2 0x56A PUSH2 0x2A90 JUMP JUMPDEST PUSH1 0x40 MLOAD PUSH2 0x577 SWAP2 SWAP1 PUSH2 0x462B JUMP JUMPDEST PUSH1 0x40 MLOAD DUP1 SWAP2 SUB SWAP1 RETURN JUMPDEST PUSH2 0x588 PUSH2 0x2AB4 JUMP JUMPDEST PUSH1 0x40 MLOAD PUSH2 0x595 SWAP2 SWAP1 PUSH2 0x46C3 JUMP JUMPDEST PUSH1 0x40 MLOAD DUP1 SWAP2 SUB SWAP1 RETURN JUMPDEST PUSH2 0x5B8 PUSH1 0x4 DUP1 CALLDATASIZE SUB DUP2 ADD SWAP1 PUSH2 0x5B3 SWAP2 SWAP1 PUSH2 0x3CD1 JUMP JUMPDEST PUSH2 0x2AC7 JUMP JUMPDEST PUSH1 0x40 MLOAD PUSH2 0x5C5 SWAP2 SWAP1 PUSH2 0x4A2C JUMP JUMPDEST PUSH1 0x40 MLOAD DUP1 SWAP2 SUB SWAP1 RETURN JUMPDEST PUSH2 0x5E8 PUSH1 0x4 DUP1 CALLDATASIZE SUB DUP2 ADD SWAP1 PUSH2 0x5E3 SWAP2 SWAP1 PUSH2 0x403B JUMP JUMPDEST PUSH2 0x2B8C JUMP JUMPDEST PUSH1 0x40 MLOAD PUSH2 0x5F5 SWAP2 SWAP1 PUSH2 0x462B JUMP JUMPDEST PUSH1 0x40 MLOAD DUP1 SWAP2 SUB SWAP1 RETURN JUMPDEST PUSH2 0x618 PUSH1 0x4 DUP1 CALLDATASIZE SUB DUP2 ADD SWAP1 PUSH2 0x613 SWAP2 SWAP1 PUSH2 0x3CD1 JUMP JUMPDEST PUSH2 0x2BCB JUMP JUMPDEST PUSH1 0x40 MLOAD PUSH2 0x62A SWAP7 SWAP6 SWAP5 SWAP4 SWAP3 SWAP2 SWAP1 PUSH2 0x4646 JUMP JUMPDEST PUSH1 0x40 MLOAD DUP1 SWAP2 SUB SWAP1 RETURN JUMPDEST PUSH2 0x64D PUSH1 0x4 DUP1 CALLDATASIZE SUB DUP2 ADD SWAP1 PUSH2 0x648 SWAP2 SWAP1 PUSH2 0x3CD1 JUMP JUMPDEST PUSH2 0x2E47 JUMP JUMPDEST STOP JUMPDEST PUSH2 0x669 PUSH1 0x4 DUP1 CALLDATASIZE SUB DUP2 ADD SWAP1 PUSH2 0x664 SWAP2 SWAP1 PUSH2 0x3CD1 JUMP JUMPDEST PUSH2 0x2EA5 JUMP JUMPDEST STOP JUMPDEST PUSH2 0x685 PUSH1 0x4 DUP1 CALLDATASIZE SUB DUP2 ADD SWAP1 PUSH2 0x680 SWAP2 SWAP1 PUSH2 0x3CFA JUMP JUMPDEST PUSH2 0x2F03 JUMP JUMPDEST STOP JUMPDEST PUSH2 0x68F PUSH2 0x304F JUMP JUMPDEST PUSH1 0x40 MLOAD PUSH2 0x69C SWAP2 SWAP1 PUSH2 0x4A47 JUMP JUMPDEST PUSH1 0x40 MLOAD DUP1 SWAP2 SUB SWAP1 RETURN JUMPDEST PUSH2 0x6BF PUSH1 0x4 DUP1 CALLDATASIZE SUB DUP2 ADD SWAP1 PUSH2 0x6BA SWAP2 SWAP1 PUSH2 0x3CD1 JUMP JUMPDEST PUSH2 0x305C JUMP JUMPDEST STOP JUMPDEST PUSH2 0x6C9 PUSH2 0x3115 JUMP JUMPDEST STOP JUMPDEST PUSH2 0x6E5 PUSH1 0x4 DUP1 CALLDATASIZE SUB DUP2 ADD SWAP1 PUSH2 0x6E0 SWAP2 SWAP1 PUSH2 0x3CD1 JUMP JUMPDEST PUSH2 0x31EC JUMP JUMPDEST PUSH1 0x40 MLOAD PUSH2 0x6F2 SWAP2 SWAP1 PUSH2 0x4A0A JUMP JUMPDEST PUSH1 0x40 MLOAD DUP1 SWAP2 SUB SWAP1 RETURN JUMPDEST PUSH2 0x715 PUSH1 0x4 DUP1 CALLDATASIZE SUB DUP2 ADD SWAP1 PUSH2 0x710 SWAP2 SWAP1 PUSH2 0x3FBC JUMP JUMPDEST PUSH2 0x3369 JUMP JUMPDEST STOP JUMPDEST PUSH2 0x731 PUSH1 0x4 DUP1 CALLDATASIZE SUB DUP2 ADD SWAP1 PUSH2 0x72C SWAP2 SWAP1 PUSH2 0x3CD1 JUMP JUMPDEST PUSH2 0x37FF JUMP JUMPDEST STOP JUMPDEST PUSH2 0x73B PUSH2 0x38F1 JUMP JUMPDEST PUSH1 0x40 MLOAD PUSH2 0x74B SWAP5 SWAP4 SWAP3 SWAP2 SWAP1 PUSH2 0x4B19 JUMP JUMPDEST PUSH1 0x40 MLOAD DUP1 SWAP2 SUB SWAP1 RETURN JUMPDEST PUSH2 0x76E PUSH1 0x4 DUP1 CALLDATASIZE SUB DUP2 ADD SWAP1 PUSH2 0x769 SWAP2 SWAP1 PUSH2 0x3CD1 JUMP JUMPDEST PUSH2 0x39B7 JUMP JUMPDEST PUSH1 0x40 MLOAD PUSH2 0x77B SWAP2 SWAP1 PUSH2 0x46C3 JUMP JUMPDEST PUSH1 0x40 MLOAD DUP1 SWAP2 SUB SWAP1 RETURN JUMPDEST PUSH2 0x79E PUSH1 0x4 DUP1 CALLDATASIZE SUB DUP2 ADD SWAP1 PUSH2 0x799 SWAP2 SWAP1 PUSH2 0x3CD1 JUMP JUMPDEST PUSH2 0x3A0D JUMP JUMPDEST PUSH1 0x40 MLOAD PUSH2 0x7AB SWAP2 SWAP1 PUSH2 0x46C3 JUMP JUMPDEST PUSH1 0x40 MLOAD DUP1 SWAP2 SUB SWAP1 RETURN JUMPDEST PUSH2 0x7BC PUSH2 0x3A66 JUMP JUMPDEST PUSH1 0x40 MLOAD PUSH2 0x7C9 SWAP2 SWAP1 PUSH2 0x4A47 JUMP JUMPDEST PUSH1 0x40 MLOAD DUP1 SWAP2 SUB SWAP1 RETURN JUMPDEST PUSH2 0x7EC PUSH1 0x4 DUP1 CALLDATASIZE SUB DUP2 ADD SWAP1 PUSH2 0x7E7 SWAP2 SWAP1 PUSH2 0x3CD1 JUMP JUMPDEST PUSH2 0x3AC2 JUMP JUMPDEST PUSH1 0x40 MLOAD PUSH2 0x7F9 SWAP2 SWAP1 PUSH2 0x4A47 JUMP JUMPDEST PUSH1 0x40 MLOAD DUP1 SWAP2 SUB SWAP1 RETURN JUMPDEST PUSH2 0x80A PUSH2 0x3ADA JUMP JUMPDEST PUSH1 0x40 MLOAD PUSH2 0x817 SWAP2 SWAP1 PUSH2 0x46C3 JUMP JUMPDEST PUSH1 0x40 MLOAD DUP1 SWAP2 SUB SWAP1 RETURN JUMPDEST PUSH1 0x0 PUSH1 0x14 SWAP1 SLOAD SWAP1 PUSH2 0x100 EXP SWAP1 DIV PUSH1 0xFF AND PUSH2 0x86F JUMPI PUSH1 0x40 MLOAD PUSH32 0x8C379A000000000000000000000000000000000000000000000000000000000 DUP2 MSTORE PUSH1 0x4 ADD PUSH2 0x866 SWAP1 PUSH2 0x49AF JUMP JUMPDEST PUSH1 0x40 MLOAD DUP1 SWAP2 SUB SWAP1 REVERT JUMPDEST PUSH1 0x6 PUSH1 0x0 DUP3 PUSH20 0xFFFFFFFFFFFFFFFFFFFFFFFFFFFFFFFFFFFFFFFF AND PUSH20 0xFFFFFFFFFFFFFFFFFFFFFFFFFFFFFFFFFFFFFFFF AND DUP2 MSTORE PUSH1 0x20 ADD SWAP1 DUP2 MSTORE PUSH1 0x20 ADD PUSH1 0x0 KECCAK256 PUSH1 0x0 SWAP1 SLOAD SWAP1 PUSH2 0x100 EXP SWAP1 DIV PUSH1 0xFF AND ISZERO PUSH2 0x8FC JUMPI PUSH1 0x40 MLOAD PUSH32 0x8C379A000000000000000000000000000000000000000000000000000000000 DUP2 MSTORE PUSH1 0x4 ADD PUSH2 0x8F3 SWAP1 PUSH2 0x486F JUMP JUMPDEST PUSH1 0x40 MLOAD DUP1 SWAP2 SUB SWAP1 REVERT JUMPDEST PUSH1 0x0 DUP3 GT DUP1 ISZERO PUSH2 0x911 JUMPI POP PUSH1 0x5 DUP1 SLOAD SWAP1 POP DUP3 GT ISZERO JUMPDEST PUSH2 0x950 JUMPI PUSH1 0x40 MLOAD PUSH32 0x8C379A000000000000000000000000000000000000000000000000000000000 DUP2 MSTORE PUSH1 0x4 ADD PUSH2 0x947 SWAP1 PUSH2 0x49CF JUMP JUMPDEST PUSH1 0x40 MLOAD DUP1 SWAP2 SUB SWAP1 REVERT JUMPDEST PUSH1 0x1 PUSH1 0x6 PUSH1 0x0 DUP4 PUSH20 0xFFFFFFFFFFFFFFFFFFFFFFFFFFFFFFFFFFFFFFFF AND PUSH20 0xFFFFFFFFFFFFFFFFFFFFFFFFFFFFFFFFFFFFFFFF AND DUP2 MSTORE PUSH1 0x20 ADD SWAP1 DUP2 MSTORE PUSH1 0x20 ADD PUSH1 0x0 KECCAK256 PUSH1 0x0 PUSH2 0x100 EXP DUP2 SLOAD DUP2 PUSH1 0xFF MUL NOT AND SWAP1 DUP4 ISZERO ISZERO MUL OR SWAP1 SSTORE POP DUP2 PUSH1 0x7 PUSH1 0x0 DUP4 PUSH20 0xFFFFFFFFFFFFFFFFFFFFFFFFFFFFFFFFFFFFFFFF AND PUSH20 0xFFFFFFFFFFFFFFFFFFFFFFFFFFFFFFFFFFFFFFFF AND DUP2 MSTORE PUSH1 0x20 ADD SWAP1 DUP2 MSTORE PUSH1 0x20 ADD PUSH1 0x0 KECCAK256 DUP2 SWAP1 SSTORE POP PUSH1 0x5 PUSH1 0x1 DUP4 PUSH2 0x9FB SWAP2 SWAP1 PUSH2 0x4D1A JUMP JUMPDEST DUP2 SLOAD DUP2 LT PUSH2 0xA32 JUMPI PUSH32 0x4E487B7100000000000000000000000000000000000000000000000000000000 PUSH1 0x0 MSTORE PUSH1 0x32 PUSH1 0x4 MSTORE PUSH1 0x24 PUSH1 0x0 REVERT JUMPDEST SWAP1 PUSH1 0x0 MSTORE PUSH1 0x20 PUSH1 0x0 KECCAK256 SWAP1 PUSH1 0xA MUL ADD PUSH1 0x2 ADD PUSH1 0x0 DUP2 SLOAD DUP1 SWAP3 SWAP2 SWAP1 PUSH2 0xA54 SWAP1 PUSH2 0x4E14 JUMP JUMPDEST SWAP2 SWAP1 POP SSTORE POP DUP1 PUSH20 0xFFFFFFFFFFFFFFFFFFFFFFFFFFFFFFFFFFFFFFFF AND PUSH32 0x4D99B957A2BC29A30EBD96A7BE8E68FE50A3C701DB28A91436490B7D53870CA4 DUP4 PUSH1 0x40 MLOAD PUSH2 0xA9F SWAP2 SWAP1 PUSH2 0x4A47 JUMP JUMPDEST PUSH1 0x40 MLOAD DUP1 SWAP2 SUB SWAP1 LOG2 POP POP JUMP JUMPDEST PUSH1 0xB PUSH1 0x0 DUP7 PUSH20 0xFFFFFFFFFFFFFFFFFFFFFFFFFFFFFFFFFFFFFFFF AND PUSH20 0xFFFFFFFFFFFFFFFFFFFFFFFFFFFFFFFFFFFFFFFF AND DUP2 MSTORE PUSH1 0x20 ADD SWAP1 DUP2 MSTORE PUSH1 0x20 ADD PUSH1 0x0 KECCAK256 PUSH1 0x0 ADD PUSH1 0x0 SWAP1 SLOAD SWAP1 PUSH2 0x100 EXP SWAP1 DIV PUSH1 0xFF AND ISZERO PUSH2 0xB3B JUMPI PUSH1 0x40 MLOAD PUSH32 0x8C379A000000000000000000000000000000000000000000000000000000000 DUP2 MSTORE PUSH1 0x4 ADD PUSH2 0xB32 SWAP1 PUSH2 0x498F JUMP JUMPDEST PUSH1 0x40 MLOAD DUP1 SWAP2 SUB SWAP1 REVERT JUMPDEST PUSH1 0x0 PUSH2 0xB46 DUP3 PUSH2 0x3AED JUMP JUMPDEST SWAP1 POP PUSH1 0x40 MLOAD DUP1 PUSH1 0xC0 ADD PUSH1 0x40 MSTORE DUP1 DUP8 PUSH20 0xFFFFFFFFFFFFFFFFFFFFFFFFFFFFFFFFFFFFFFFF AND DUP2 MSTORE PUSH1 0x20 ADD DUP9 DUP2 MSTORE PUSH1 0x20 ADD DUP7 DUP2 MSTORE PUSH1 0x20 ADD DUP6 DUP2 MSTORE PUSH1 0x20 ADD DUP5 DUP2 MSTORE PUSH1 0x20 ADD DUP3 DUP2 MSTORE POP PUSH1 0x8 PUSH1 0x0 DUP9 PUSH20 0xFFFFFFFFFFFFFFFFFFFFFFFFFFFFFFFFFFFFFFFF AND PUSH20 0xFFFFFFFFFFFFFFFFFFFFFFFFFFFFFFFFFFFFFFFF AND DUP2 MSTORE PUSH1 0x20 ADD SWAP1 DUP2 MSTORE PUSH1 0x20 ADD PUSH1 0x0 KECCAK256 PUSH1 0x0 DUP3 ADD MLOAD DUP2 PUSH1 0x0 ADD PUSH1 0x0 PUSH2 0x100 EXP DUP2 SLOAD DUP2 PUSH20 0xFFFFFFFFFFFFFFFFFFFFFFFFFFFFFFFFFFFFFFFF MUL NOT AND SWAP1 DUP4 PUSH20 0xFFFFFFFFFFFFFFFFFFFFFFFFFFFFFFFFFFFFFFFF AND MUL OR SWAP1 SSTORE POP PUSH1 0x20 DUP3 ADD MLOAD DUP2 PUSH1 0x1 ADD SWAP1 DUP1 MLOAD SWAP1 PUSH1 0x20 ADD SWAP1 PUSH2 0xC2D SWAP3 SWAP2 SWAP1 PUSH2 0x3B22 JUMP JUMPDEST POP PUSH1 0x40 DUP3 ADD MLOAD DUP2 PUSH1 0x2 ADD SWAP1 DUP1 MLOAD SWAP1 PUSH1 0x20 ADD SWAP1 PUSH2 0xC4A SWAP3 SWAP2 SWAP1 PUSH2 0x3B22 JUMP JUMPDEST POP PUSH1 0x60 DUP3 ADD MLOAD DUP2 PUSH1 0x3 ADD SWAP1 DUP1 MLOAD SWAP1 PUSH1 0x20 ADD SWAP1 PUSH2 0xC67 SWAP3 SWAP2 SWAP1 PUSH2 0x3B22 JUMP JUMPDEST POP PUSH1 0x80 DUP3 ADD MLOAD DUP2 PUSH1 0x4 ADD SWAP1 DUP1 MLOAD SWAP1 PUSH1 0x20 ADD SWAP1 PUSH2 0xC84 SWAP3 SWAP2 SWAP1 PUSH2 0x3B22 JUMP JUMPDEST POP PUSH1 0xA0 DUP3 ADD MLOAD DUP2 PUSH1 0x5 ADD SSTORE SWAP1 POP POP PUSH1 0x9 DUP7 SWAP1 DUP1 PUSH1 0x1 DUP2 SLOAD ADD DUP1 DUP3 SSTORE DUP1 SWAP2 POP POP PUSH1 0x1 SWAP1 SUB SWAP1 PUSH1 0x0 MSTORE PUSH1 0x20 PUSH1 0x0 KECCAK256 ADD PUSH1 0x0 SWAP1 SWAP2 SWAP1 SWAP2 SWAP1 SWAP2 PUSH2 0x100 EXP DUP2 SLOAD DUP2 PUSH20 0xFFFFFFFFFFFFFFFFFFFFFFFFFFFFFFFFFFFFFFFF MUL NOT AND SWAP1 DUP4 PUSH20 0xFFFFFFFFFFFFFFFFFFFFFFFFFFFFFFFFFFFFFFFF AND MUL OR SWAP1 SSTORE POP PUSH1 0x1 PUSH1 0xB PUSH1 0x0 DUP9 PUSH20 0xFFFFFFFFFFFFFFFFFFFFFFFFFFFFFFFFFFFFFFFF AND PUSH20 0xFFFFFFFFFFFFFFFFFFFFFFFFFFFFFFFFFFFFFFFF AND DUP2 MSTORE PUSH1 0x20 ADD SWAP1 DUP2 MSTORE PUSH1 0x20 ADD PUSH1 0x0 KECCAK256 PUSH1 0x0 ADD PUSH1 0x0 PUSH2 0x100 EXP DUP2 SLOAD DUP2 PUSH1 0xFF MUL NOT AND SWAP1 DUP4 ISZERO ISZERO MUL OR SWAP1 SSTORE POP PUSH32 0x307D82E79BD1B0A99CD4970244AFF7A24728C87D44538D53A33B3D9B7249CCDC DUP8 DUP8 DUP8 DUP8 DUP8 PUSH1 0x40 MLOAD PUSH2 0xD87 SWAP6 SWAP5 SWAP4 SWAP3 SWAP2 SWAP1 PUSH2 0x4700 JUMP JUMPDEST PUSH1 0x40 MLOAD DUP1 SWAP2 SUB SWAP1 LOG1 POP POP POP POP POP POP POP JUMP JUMPDEST PUSH1 0x6 PUSH1 0x20 MSTORE DUP1 PUSH1 0x0 MSTORE PUSH1 0x40 PUSH1 0x0 KECCAK256 PUSH1 0x0 SWAP2 POP SLOAD SWAP1 PUSH2 0x100 EXP SWAP1 DIV PUSH1 0xFF AND DUP2 JUMP JUMPDEST PUSH1 0x0 DUP1 PUSH1 0x14 SWAP1 SLOAD SWAP1 PUSH2 0x100 EXP SWAP1 DIV PUSH1 0xFF AND ISZERO PUSH2 0xE09 JUMPI PUSH1 0x40 MLOAD PUSH32 0x8C379A000000000000000000000000000000000000000000000000000000000 DUP2 MSTORE PUSH1 0x4 ADD PUSH2 0xE00 SWAP1 PUSH2 0x48EF JUMP JUMPDEST PUSH1 0x40 MLOAD DUP1 SWAP2 SUB SWAP1 REVERT JUMPDEST PUSH1 0x1 PUSH1 0x0 ADD SLOAD SWAP1 POP SWAP1 JUMP JUMPDEST PUSH1 0x9 DUP2 DUP2 SLOAD DUP2 LT PUSH2 0xE24 JUMPI PUSH1 0x0 DUP1 REVERT JUMPDEST SWAP1 PUSH1 0x0 MSTORE PUSH1 0x20 PUSH1 0x0 KECCAK256 ADD PUSH1 0x0 SWAP2 POP SLOAD SWAP1 PUSH2 0x100 EXP SWAP1 DIV PUSH20 0xFFFFFFFFFFFFFFFFFFFFFFFFFFFFFFFFFFFFFFFF AND DUP2 JUMP JUMPDEST PUSH2 0xE5B PUSH2 0x3BA8 JUMP JUMPDEST PUSH1 0xE PUSH1 0x0 DUP4 PUSH20 0xFFFFFFFFFFFFFFFFFFFFFFFFFFFFFFFFFFFFFFFF AND PUSH20 0xFFFFFFFFFFFFFFFFFFFFFFFFFFFFFFFFFFFFFFFF AND DUP2 MSTORE PUSH1 0x20 ADD SWAP1 DUP2 MSTORE PUSH1 0x20 ADD PUSH1 0x0 KECCAK256 PUSH1 0x40 MLOAD DUP1 PUSH1 0x80 ADD PUSH1 0x40 MSTORE SWAP1 DUP2 PUSH1 0x0 DUP3 ADD PUSH1 0x0 SWAP1 SLOAD SWAP1 PUSH2 0x100 EXP SWAP1 DIV PUSH1 0xFF AND ISZERO ISZERO ISZERO ISZERO DUP2 MSTORE PUSH1 0x20 ADD PUSH1 0x0 DUP3 ADD PUSH1 0x1 SWAP1 SLOAD SWAP1 PUSH2 0x100 EXP SWAP1 DIV PUSH1 0xFF AND ISZERO ISZERO ISZERO ISZERO DUP2 MSTORE PUSH1 0x20 ADD PUSH1 0x0 DUP3 ADD PUSH1 0x2 SWAP1 SLOAD SWAP1 PUSH2 0x100 EXP SWAP1 DIV PUSH1 0xFF AND ISZERO ISZERO ISZERO ISZERO DUP2 MSTORE PUSH1 0x20 ADD PUSH1 0x0 DUP3 ADD PUSH1 0x3 SWAP1 SLOAD SWAP1 PUSH2 0x100 EXP SWAP1 DIV PUSH1 0xFF AND ISZERO ISZERO ISZERO ISZERO DUP2 MSTORE POP POP SWAP1 POP SWAP2 SWAP1 POP JUMP JUMPDEST PUSH1 0x60 PUSH1 0x0 PUSH1 0x14 SWAP1 SLOAD SWAP1 PUSH2 0x100 EXP SWAP1 DIV PUSH1 0xFF AND ISZERO PUSH2 0xF6A JUMPI PUSH1 0x40 MLOAD PUSH32 0x8C379A000000000000000000000000000000000000000000000000000000000 DUP2 MSTORE PUSH1 0x4 ADD PUSH2 0xF61 SWAP1 PUSH2 0x48EF JUMP JUMPDEST PUSH1 0x40 MLOAD DUP1 SWAP2 SUB SWAP1 REVERT JUMPDEST PUSH1 0x1 DUP1 ADD DUP1 SLOAD PUSH2 0xF79 SWAP1 PUSH2 0x4DE2 JUMP JUMPDEST DUP1 PUSH1 0x1F ADD PUSH1 0x20 DUP1 SWAP2 DIV MUL PUSH1 0x20 ADD PUSH1 0x40 MLOAD SWAP1 DUP2 ADD PUSH1 0x40 MSTORE DUP1 SWAP3 SWAP2 SWAP1 DUP2 DUP2 MSTORE PUSH1 0x20 ADD DUP3 DUP1 SLOAD PUSH2 0xFA5 SWAP1 PUSH2 0x4DE2 JUMP JUMPDEST DUP1 ISZERO PUSH2 0xFF2 JUMPI DUP1 PUSH1 0x1F LT PUSH2 0xFC7 JUMPI PUSH2 0x100 DUP1 DUP4 SLOAD DIV MUL DUP4 MSTORE SWAP2 PUSH1 0x20 ADD SWAP2 PUSH2 0xFF2 JUMP JUMPDEST DUP3 ADD SWAP2 SWAP1 PUSH1 0x0 MSTORE PUSH1 0x20 PUSH1 0x0 KECCAK256 SWAP1 JUMPDEST DUP2 SLOAD DUP2 MSTORE SWAP1 PUSH1 0x1 ADD SWAP1 PUSH1 0x20 ADD DUP1 DUP4 GT PUSH2 0xFD5 JUMPI DUP3 SWAP1 SUB PUSH1 0x1F AND DUP3 ADD SWAP2 JUMPDEST POP POP POP POP POP SWAP1 POP SWAP1 JUMP JUMPDEST PUSH1 0x5 DUP2 DUP2 SLOAD DUP2 LT PUSH2 0x100C JUMPI PUSH1 0x0 DUP1 REVERT JUMPDEST SWAP1 PUSH1 0x0 MSTORE PUSH1 0x20 PUSH1 0x0 KECCAK256 SWAP1 PUSH1 0xA MUL ADD PUSH1 0x0 SWAP2 POP SWAP1 POP DUP1 PUSH1 0x0 ADD SLOAD SWAP1 DUP1 PUSH1 0x1 ADD DUP1 SLOAD PUSH2 0x1035 SWAP1 PUSH2 0x4DE2 JUMP JUMPDEST DUP1 PUSH1 0x1F ADD PUSH1 0x20 DUP1 SWAP2 DIV MUL PUSH1 0x20 ADD PUSH1 0x40 MLOAD SWAP1 DUP2 ADD PUSH1 0x40 MSTORE DUP1 SWAP3 SWAP2 SWAP1 DUP2 DUP2 MSTORE PUSH1 0x20 ADD DUP3 DUP1 SLOAD PUSH2 0x1061 SWAP1 PUSH2 0x4DE2 JUMP JUMPDEST DUP1 ISZERO PUSH2 0x10AE JUMPI DUP1 PUSH1 0x1F LT PUSH2 0x1083 JUMPI PUSH2 0x100 DUP1 DUP4 SLOAD DIV MUL DUP4 MSTORE SWAP2 PUSH1 0x20 ADD SWAP2 PUSH2 0x10AE JUMP JUMPDEST DUP3 ADD SWAP2 SWAP1 PUSH1 0x0 MSTORE PUSH1 0x20 PUSH1 0x0 KECCAK256 SWAP1 JUMPDEST DUP2 SLOAD DUP2 MSTORE SWAP1 PUSH1 0x1 ADD SWAP1 PUSH1 0x20 ADD DUP1 DUP4 GT PUSH2 0x1091 JUMPI DUP3 SWAP1 SUB PUSH1 0x1F AND DUP3 ADD SWAP2 JUMPDEST POP POP POP POP POP SWAP1 DUP1 PUSH1 0x2 ADD SLOAD SWAP1 DUP1 PUSH1 0x3 ADD PUSH1 0x0 SWAP1 SLOAD SWAP1 PUSH2 0x100 EXP SWAP1 DIV PUSH20 0xFFFFFFFFFFFFFFFFFFFFFFFFFFFFFFFFFFFFFFFF AND SWAP1 DUP1 PUSH1 0x4 ADD DUP1 SLOAD PUSH2 0x10EF SWAP1 PUSH2 0x4DE2 JUMP JUMPDEST DUP1 PUSH1 0x1F ADD PUSH1 0x20 DUP1 SWAP2 DIV MUL PUSH1 0x20 ADD PUSH1 0x40 MLOAD SWAP1 DUP2 ADD PUSH1 0x40 MSTORE DUP1 SWAP3 SWAP2 SWAP1 DUP2 DUP2 MSTORE PUSH1 0x20 ADD DUP3 DUP1 SLOAD PUSH2 0x111B SWAP1 PUSH2 0x4DE2 JUMP JUMPDEST DUP1 ISZERO PUSH2 0x1168 JUMPI DUP1 PUSH1 0x1F LT PUSH2 0x113D JUMPI PUSH2 0x100 DUP1 DUP4 SLOAD DIV MUL DUP4 MSTORE SWAP2 PUSH1 0x20 ADD SWAP2 PUSH2 0x1168 JUMP JUMPDEST DUP3 ADD SWAP2 SWAP1 PUSH1 0x0 MSTORE PUSH1 0x20 PUSH1 0x0 KECCAK256 SWAP1 JUMPDEST DUP2 SLOAD DUP2 MSTORE SWAP1 PUSH1 0x1 ADD SWAP1 PUSH1 0x20 ADD DUP1 DUP4 GT PUSH2 0x114B JUMPI DUP3 SWAP1 SUB PUSH1 0x1F AND DUP3 ADD SWAP2 JUMPDEST POP POP POP POP POP SWAP1 DUP1 PUSH1 0x5 ADD DUP1 SLOAD PUSH2 0x117D SWAP1 PUSH2 0x4DE2 JUMP JUMPDEST DUP1 PUSH1 0x1F ADD PUSH1 0x20 DUP1 SWAP2 DIV MUL PUSH1 0x20 ADD PUSH1 0x40 MLOAD SWAP1 DUP2 ADD PUSH1 0x40 MSTORE DUP1 SWAP3 SWAP2 SWAP1 DUP2 DUP2 MSTORE PUSH1 0x20 ADD DUP3 DUP1 SLOAD PUSH2 0x11A9 SWAP1 PUSH2 0x4DE2 JUMP JUMPDEST DUP1 ISZERO PUSH2 0x11F6 JUMPI DUP1 PUSH1 0x1F LT PUSH2 0x11CB JUMPI PUSH2 0x100 DUP1 DUP4 SLOAD DIV MUL DUP4 MSTORE SWAP2 PUSH1 0x20 ADD SWAP2 PUSH2 0x11F6 JUMP JUMPDEST DUP3 ADD SWAP2 SWAP1 PUSH1 0x0 MSTORE PUSH1 0x20 PUSH1 0x0 KECCAK256 SWAP1 JUMPDEST DUP2 SLOAD DUP2 MSTORE SWAP1 PUSH1 0x1 ADD SWAP1 PUSH1 0x20 ADD DUP1 DUP4 GT PUSH2 0x11D9 JUMPI DUP3 SWAP1 SUB PUSH1 0x1F AND DUP3 ADD SWAP2 JUMPDEST POP POP POP POP POP SWAP1 DUP1 PUSH1 0x6 ADD SLOAD SWAP1 DUP1 PUSH1 0x7 ADD DUP1 SLOAD PUSH2 0x1211 SWAP1 PUSH2 0x4DE2 JUMP JUMPDEST DUP1 PUSH1 0x1F ADD PUSH1 0x20 DUP1 SWAP2 DIV MUL PUSH1 0x20 ADD PUSH1 0x40 MLOAD SWAP1 DUP2 ADD PUSH1 0x40 MSTORE DUP1 SWAP3 SWAP2 SWAP1 DUP2 DUP2 MSTORE PUSH1 0x20 ADD DUP3 DUP1 SLOAD PUSH2 0x123D SWAP1 PUSH2 0x4DE2 JUMP JUMPDEST DUP1 ISZERO PUSH2 0x128A JUMPI DUP1 PUSH1 0x1F LT PUSH2 0x125F JUMPI PUSH2 0x100 DUP1 DUP4 SLOAD DIV MUL DUP4 MSTORE SWAP2 PUSH1 0x20 ADD SWAP2 PUSH2 0x128A JUMP JUMPDEST DUP3 ADD SWAP2 SWAP1 PUSH1 0x0 MSTORE PUSH1 0x20 PUSH1 0x0 KECCAK256 SWAP1 JUMPDEST DUP2 SLOAD DUP2 MSTORE SWAP1 PUSH1 0x1 ADD SWAP1 PUSH1 0x20 ADD DUP1 DUP4 GT PUSH2 0x126D JUMPI DUP3 SWAP1 SUB PUSH1 0x1F AND DUP3 ADD SWAP2 JUMPDEST POP POP POP POP POP SWAP1 DUP1 PUSH1 0x8 ADD DUP1 SLOAD PUSH2 0x129F SWAP1 PUSH2 0x4DE2 JUMP JUMPDEST DUP1 PUSH1 0x1F ADD PUSH1 0x20 DUP1 SWAP2 DIV MUL PUSH1 0x20 ADD PUSH1 0x40 MLOAD SWAP1 DUP2 ADD PUSH1 0x40 MSTORE DUP1 SWAP3 SWAP2 SWAP1 DUP2 DUP2 MSTORE PUSH1 0x20 ADD DUP3 DUP1 SLOAD PUSH2 0x12CB SWAP1 PUSH2 0x4DE2 JUMP JUMPDEST DUP1 ISZERO PUSH2 0x1318 JUMPI DUP1 PUSH1 0x1F LT PUSH2 0x12ED JUMPI PUSH2 0x100 DUP1 DUP4 SLOAD DIV MUL DUP4 MSTORE SWAP2 PUSH1 0x20 ADD SWAP2 PUSH2 0x1318 JUMP JUMPDEST DUP3 ADD SWAP2 SWAP1 PUSH1 0x0 MSTORE PUSH1 0x20 PUSH1 0x0 KECCAK256 SWAP1 JUMPDEST DUP2 SLOAD DUP2 MSTORE SWAP1 PUSH1 0x1 ADD SWAP1 PUSH1 0x20 ADD DUP1 DUP4 GT PUSH2 0x12FB JUMPI DUP3 SWAP1 SUB PUSH1 0x1F AND DUP3 ADD SWAP2 JUMPDEST POP POP POP POP POP SWAP1 DUP1 PUSH1 0x9 ADD DUP1 SLOAD PUSH2 0x132D SWAP1 PUSH2 0x4DE2 JUMP JUMPDEST DUP1 PUSH1 0x1F ADD PUSH1 0x20 DUP1 SWAP2 DIV MUL PUSH1 0x20 ADD PUSH1 0x40 MLOAD SWAP1 DUP2 ADD PUSH1 0x40 MSTORE DUP1 SWAP3 SWAP2 SWAP1 DUP2 DUP2 MSTORE PUSH1 0x20 ADD DUP3 DUP1 SLOAD PUSH2 0x1359 SWAP1 PUSH2 0x4DE2 JUMP JUMPDEST DUP1 ISZERO PUSH2 0x13A6 JUMPI DUP1 PUSH1 0x1F LT PUSH2 0x137B JUMPI PUSH2 0x100 DUP1 DUP4 SLOAD DIV MUL DUP4 MSTORE SWAP2 PUSH1 0x20 ADD SWAP2 PUSH2 0x13A6 JUMP JUMPDEST DUP3 ADD SWAP2 SWAP1 PUSH1 0x0 MSTORE PUSH1 0x20 PUSH1 0x0 KECCAK256 SWAP1 JUMPDEST DUP2 SLOAD DUP2 MSTORE SWAP1 PUSH1 0x1 ADD SWAP1 PUSH1 0x20 ADD DUP1 DUP4 GT PUSH2 0x1389 JUMPI DUP3 SWAP1 SUB PUSH1 0x1F AND DUP3 ADD SWAP2 JUMPDEST POP POP POP POP POP SWAP1 POP DUP11 JUMP JUMPDEST PUSH1 0x60 DUP1 PUSH1 0x60 PUSH1 0x0 PUSH1 0x60 PUSH1 0x0 DUP1 DUP8 GT DUP1 ISZERO PUSH2 0x13CF JUMPI POP PUSH1 0x5 DUP1 SLOAD SWAP1 POP DUP8 GT ISZERO JUMPDEST PUSH2 0x140E JUMPI PUSH1 0x40 MLOAD PUSH32 0x8C379A000000000000000000000000000000000000000000000000000000000 DUP2 MSTORE PUSH1 0x4 ADD PUSH2 0x1405 SWAP1 PUSH2 0x49CF JUMP JUMPDEST PUSH1 0x40 MLOAD DUP1 SWAP2 SUB SWAP1 REVERT JUMPDEST PUSH1 0x0 PUSH1 0x5 PUSH1 0x1 DUP10 PUSH2 0x141F SWAP2 SWAP1 PUSH2 0x4D1A JUMP JUMPDEST DUP2 SLOAD DUP2 LT PUSH2 0x1456 JUMPI PUSH32 0x4E487B7100000000000000000000000000000000000000000000000000000000 PUSH1 0x0 MSTORE PUSH1 0x32 PUSH1 0x4 MSTORE PUSH1 0x24 PUSH1 0x0 REVERT JUMPDEST SWAP1 PUSH1 0x0 MSTORE PUSH1 0x20 PUSH1 0x0 KECCAK256 SWAP1 PUSH1 0xA MUL ADD PUSH1 0x40 MLOAD DUP1 PUSH2 0x140 ADD PUSH1 0x40 MSTORE SWAP1 DUP2 PUSH1 0x0 DUP3 ADD SLOAD DUP2 MSTORE PUSH1 0x20 ADD PUSH1 0x1 DUP3 ADD DUP1 SLOAD PUSH2 0x148A SWAP1 PUSH2 0x4DE2 JUMP JUMPDEST DUP1 PUSH1 0x1F ADD PUSH1 0x20 DUP1 SWAP2 DIV MUL PUSH1 0x20 ADD PUSH1 0x40 MLOAD SWAP1 DUP2 ADD PUSH1 0x40 MSTORE DUP1 SWAP3 SWAP2 SWAP1 DUP2 DUP2 MSTORE PUSH1 0x20 ADD DUP3 DUP1 SLOAD PUSH2 0x14B6 SWAP1 PUSH2 0x4DE2 JUMP JUMPDEST DUP1 ISZERO PUSH2 0x1503 JUMPI DUP1 PUSH1 0x1F LT PUSH2 0x14D8 JUMPI PUSH2 0x100 DUP1 DUP4 SLOAD DIV MUL DUP4 MSTORE SWAP2 PUSH1 0x20 ADD SWAP2 PUSH2 0x1503 JUMP JUMPDEST DUP3 ADD SWAP2 SWAP1 PUSH1 0x0 MSTORE PUSH1 0x20 PUSH1 0x0 KECCAK256 SWAP1 JUMPDEST DUP2 SLOAD DUP2 MSTORE SWAP1 PUSH1 0x1 ADD SWAP1 PUSH1 0x20 ADD DUP1 DUP4 GT PUSH2 0x14E6 JUMPI DUP3 SWAP1 SUB PUSH1 0x1F AND DUP3 ADD SWAP2 JUMPDEST POP POP POP POP POP DUP2 MSTORE PUSH1 0x20 ADD PUSH1 0x2 DUP3 ADD SLOAD DUP2 MSTORE PUSH1 0x20 ADD PUSH1 0x3 DUP3 ADD PUSH1 0x0 SWAP1 SLOAD SWAP1 PUSH2 0x100 EXP SWAP1 DIV PUSH20 0xFFFFFFFFFFFFFFFFFFFFFFFFFFFFFFFFFFFFFFFF AND PUSH20 0xFFFFFFFFFFFFFFFFFFFFFFFFFFFFFFFFFFFFFFFF AND PUSH20 0xFFFFFFFFFFFFFFFFFFFFFFFFFFFFFFFFFFFFFFFF AND DUP2 MSTORE PUSH1 0x20 ADD PUSH1 0x4 DUP3 ADD DUP1 SLOAD PUSH2 0x157C SWAP1 PUSH2 0x4DE2 JUMP JUMPDEST DUP1 PUSH1 0x1F ADD PUSH1 0x20 DUP1 SWAP2 DIV MUL PUSH1 0x20 ADD PUSH1 0x40 MLOAD SWAP1 DUP2 ADD PUSH1 0x40 MSTORE DUP1 SWAP3 SWAP2 SWAP1 DUP2 DUP2 MSTORE PUSH1 0x20 ADD DUP3 DUP1 SLOAD PUSH2 0x15A8 SWAP1 PUSH2 0x4DE2 JUMP JUMPDEST DUP1 ISZERO PUSH2 0x15F5 JUMPI DUP1 PUSH1 0x1F LT PUSH2 0x15CA JUMPI PUSH2 0x100 DUP1 DUP4 SLOAD DIV MUL DUP4 MSTORE SWAP2 PUSH1 0x20 ADD SWAP2 PUSH2 0x15F5 JUMP JUMPDEST DUP3 ADD SWAP2 SWAP1 PUSH1 0x0 MSTORE PUSH1 0x20 PUSH1 0x0 KECCAK256 SWAP1 JUMPDEST DUP2 SLOAD DUP2 MSTORE SWAP1 PUSH1 0x1 ADD SWAP1 PUSH1 0x20 ADD DUP1 DUP4 GT PUSH2 0x15D8 JUMPI DUP3 SWAP1 SUB PUSH1 0x1F AND DUP3 ADD SWAP2 JUMPDEST POP POP POP POP POP DUP2 MSTORE PUSH1 0x20 ADD PUSH1 0x5 DUP3 ADD DUP1 SLOAD PUSH2 0x160E SWAP1 PUSH2 0x4DE2 JUMP JUMPDEST DUP1 PUSH1 0x1F ADD PUSH1 0x20 DUP1 SWAP2 DIV MUL PUSH1 0x20 ADD PUSH1 0x40 MLOAD SWAP1 DUP2 ADD PUSH1 0x40 MSTORE DUP1 SWAP3 SWAP2 SWAP1 DUP2 DUP2 MSTORE PUSH1 0x20 ADD DUP3 DUP1 SLOAD PUSH2 0x163A SWAP1 PUSH2 0x4DE2 JUMP JUMPDEST DUP1 ISZERO PUSH2 0x1687 JUMPI DUP1 PUSH1 0x1F LT PUSH2 0x165C JUMPI PUSH2 0x100 DUP1 DUP4 SLOAD DIV MUL DUP4 MSTORE SWAP2 PUSH1 0x20 ADD SWAP2 PUSH2 0x1687 JUMP JUMPDEST DUP3 ADD SWAP2 SWAP1 PUSH1 0x0 MSTORE PUSH1 0x20 PUSH1 0x0 KECCAK256 SWAP1 JUMPDEST DUP2 SLOAD DUP2 MSTORE SWAP1 PUSH1 0x1 ADD SWAP1 PUSH1 0x20 ADD DUP1 DUP4 GT PUSH2 0x166A JUMPI DUP3 SWAP1 SUB PUSH1 0x1F AND DUP3 ADD SWAP2 JUMPDEST POP POP POP POP POP DUP2 MSTORE PUSH1 0x20 ADD PUSH1 0x6 DUP3 ADD SLOAD DUP2 MSTORE PUSH1 0x20 ADD PUSH1 0x7 DUP3 ADD DUP1 SLOAD PUSH2 0x16AA SWAP1 PUSH2 0x4DE2 JUMP JUMPDEST DUP1 PUSH1 0x1F ADD PUSH1 0x20 DUP1 SWAP2 DIV MUL PUSH1 0x20 ADD PUSH1 0x40 MLOAD SWAP1 DUP2 ADD PUSH1 0x40 MSTORE DUP1 SWAP3 SWAP2 SWAP1 DUP2 DUP2 MSTORE PUSH1 0x20 ADD DUP3 DUP1 SLOAD PUSH2 0x16D6 SWAP1 PUSH2 0x4DE2 JUMP JUMPDEST DUP1 ISZERO PUSH2 0x1723 JUMPI DUP1 PUSH1 0x1F LT PUSH2 0x16F8 JUMPI PUSH2 0x100 DUP1 DUP4 SLOAD DIV MUL DUP4 MSTORE SWAP2 PUSH1 0x20 ADD SWAP2 PUSH2 0x1723 JUMP JUMPDEST DUP3 ADD SWAP2 SWAP1 PUSH1 0x0 MSTORE PUSH1 0x20 PUSH1 0x0 KECCAK256 SWAP1 JUMPDEST DUP2 SLOAD DUP2 MSTORE SWAP1 PUSH1 0x1 ADD SWAP1 PUSH1 0x20 ADD DUP1 DUP4 GT PUSH2 0x1706 JUMPI DUP3 SWAP1 SUB PUSH1 0x1F AND DUP3 ADD SWAP2 JUMPDEST POP POP POP POP POP DUP2 MSTORE PUSH1 0x20 ADD PUSH1 0x8 DUP3 ADD DUP1 SLOAD PUSH2 0x173C SWAP1 PUSH2 0x4DE2 JUMP JUMPDEST DUP1 PUSH1 0x1F ADD PUSH1 0x20 DUP1 SWAP2 DIV MUL PUSH1 0x20 ADD PUSH1 0x40 MLOAD SWAP1 DUP2 ADD PUSH1 0x40 MSTORE DUP1 SWAP3 SWAP2 SWAP1 DUP2 DUP2 MSTORE PUSH1 0x20 ADD DUP3 DUP1 SLOAD PUSH2 0x1768 SWAP1 PUSH2 0x4DE2 JUMP JUMPDEST DUP1 ISZERO PUSH2 0x17B5 JUMPI DUP1 PUSH1 0x1F LT PUSH2 0x178A JUMPI PUSH2 0x100 DUP1 DUP4 SLOAD DIV MUL DUP4 MSTORE SWAP2 PUSH1 0x20 ADD SWAP2 PUSH2 0x17B5 JUMP JUMPDEST DUP3 ADD SWAP2 SWAP1 PUSH1 0x0 MSTORE PUSH1 0x20 PUSH1 0x0 KECCAK256 SWAP1 JUMPDEST DUP2 SLOAD DUP2 MSTORE SWAP1 PUSH1 0x1 ADD SWAP1 PUSH1 0x20 ADD DUP1 DUP4 GT PUSH2 0x1798 JUMPI DUP3 SWAP1 SUB PUSH1 0x1F AND DUP3 ADD SWAP2 JUMPDEST POP POP POP POP POP DUP2 MSTORE PUSH1 0x20 ADD PUSH1 0x9 DUP3 ADD DUP1 SLOAD PUSH2 0x17CE SWAP1 PUSH2 0x4DE2 JUMP JUMPDEST DUP1 PUSH1 0x1F ADD PUSH1 0x20 DUP1 SWAP2 DIV MUL PUSH1 0x20 ADD PUSH1 0x40 MLOAD SWAP1 DUP2 ADD PUSH1 0x40 MSTORE DUP1 SWAP3 SWAP2 SWAP1 DUP2 DUP2 MSTORE PUSH1 0x20 ADD DUP3 DUP1 SLOAD PUSH2 0x17FA SWAP1 PUSH2 0x4DE2 JUMP JUMPDEST DUP1 ISZERO PUSH2 0x1847 JUMPI DUP1 PUSH1 0x1F LT PUSH2 0x181C JUMPI PUSH2 0x100 DUP1 DUP4 SLOAD DIV MUL DUP4 MSTORE SWAP2 PUSH1 0x20 ADD SWAP2 PUSH2 0x1847 JUMP JUMPDEST DUP3 ADD SWAP2 SWAP1 PUSH1 0x0 MSTORE PUSH1 0x20 PUSH1 0x0 KECCAK256 SWAP1 JUMPDEST DUP2 SLOAD DUP2 MSTORE SWAP1 PUSH1 0x1 ADD SWAP1 PUSH1 0x20 ADD DUP1 DUP4 GT PUSH2 0x182A JUMPI DUP3 SWAP1 SUB PUSH1 0x1F AND DUP3 ADD SWAP2 JUMPDEST POP POP POP POP POP DUP2 MSTORE POP POP SWAP1 POP DUP1 PUSH1 0x20 ADD MLOAD DUP2 PUSH1 0x80 ADD MLOAD DUP3 PUSH1 0xA0 ADD MLOAD DUP4 PUSH1 0xC0 ADD MLOAD DUP5 PUSH2 0x120 ADD MLOAD DUP13 SWAP7 POP SWAP7 POP SWAP7 POP SWAP7 POP SWAP7 POP SWAP7 POP POP SWAP2 SWAP4 SWAP6 POP SWAP2 SWAP4 SWAP6 JUMP JUMPDEST PUSH1 0x1 PUSH1 0xE PUSH1 0x0 DUP6 PUSH20 0xFFFFFFFFFFFFFFFFFFFFFFFFFFFFFFFFFFFFFFFF AND PUSH20 0xFFFFFFFFFFFFFFFFFFFFFFFFFFFFFFFFFFFFFFFF AND DUP2 MSTORE PUSH1 0x20 ADD SWAP1 DUP2 MSTORE PUSH1 0x20 ADD PUSH1 0x0 KECCAK256 PUSH1 0x0 ADD PUSH1 0x2 PUSH2 0x100 EXP DUP2 SLOAD DUP2 PUSH1 0xFF MUL NOT AND SWAP1 DUP4 ISZERO ISZERO MUL OR SWAP1 SSTORE POP PUSH1 0x1 PUSH1 0xE PUSH1 0x0 DUP6 PUSH20 0xFFFFFFFFFFFFFFFFFFFFFFFFFFFFFFFFFFFFFFFF AND PUSH20 0xFFFFFFFFFFFFFFFFFFFFFFFFFFFFFFFFFFFFFFFF AND DUP2 MSTORE PUSH1 0x20 ADD SWAP1 DUP2 MSTORE PUSH1 0x20 ADD PUSH1 0x0 KECCAK256 PUSH1 0x0 ADD PUSH1 0x3 PUSH2 0x100 EXP DUP2 SLOAD DUP2 PUSH1 0xFF MUL NOT AND SWAP1 DUP4 ISZERO ISZERO MUL OR SWAP1 SSTORE POP PUSH1 0x40 MLOAD DUP1 PUSH1 0x40 ADD PUSH1 0x40 MSTORE DUP1 DUP4 DUP2 MSTORE PUSH1 0x20 ADD DUP3 DUP2 MSTORE POP PUSH1 0xD PUSH1 0x0 DUP6 PUSH20 0xFFFFFFFFFFFFFFFFFFFFFFFFFFFFFFFFFFFFFFFF AND PUSH20 0xFFFFFFFFFFFFFFFFFFFFFFFFFFFFFFFFFFFFFFFF AND DUP2 MSTORE PUSH1 0x20 ADD SWAP1 DUP2 MSTORE PUSH1 0x20 ADD PUSH1 0x0 KECCAK256 PUSH1 0x0 DUP3 ADD MLOAD DUP2 PUSH1 0x0 ADD SWAP1 DUP1 MLOAD SWAP1 PUSH1 0x20 ADD SWAP1 PUSH2 0x19A9 SWAP3 SWAP2 SWAP1 PUSH2 0x3B22 JUMP JUMPDEST POP PUSH1 0x20 DUP3 ADD MLOAD DUP2 PUSH1 0x1 ADD SWAP1 DUP1 MLOAD SWAP1 PUSH1 0x20 ADD SWAP1 PUSH2 0x19C6 SWAP3 SWAP2 SWAP1 PUSH2 0x3B22 JUMP JUMPDEST POP SWAP1 POP POP POP POP POP JUMP JUMPDEST PUSH1 0xC PUSH1 0x20 MSTORE DUP1 PUSH1 0x0 MSTORE PUSH1 0x40 PUSH1 0x0 KECCAK256 PUSH1 0x0 SWAP2 POP SLOAD SWAP1 PUSH2 0x100 EXP SWAP1 DIV PUSH1 0xFF AND DUP2 JUMP JUMPDEST PUSH1 0x0 DUP1 PUSH1 0x15 SWAP1 SLOAD SWAP1 PUSH2 0x100 EXP SWAP1 DIV PUSH1 0xFF AND SWAP1 POP SWAP1 JUMP JUMPDEST PUSH1 0xF PUSH1 0x20 MSTORE DUP1 PUSH1 0x0 MSTORE PUSH1 0x40 PUSH1 0x0 KECCAK256 PUSH1 0x0 SWAP2 POP SWAP1 POP DUP1 PUSH1 0x0 ADD DUP1 SLOAD PUSH2 0x1A28 SWAP1 PUSH2 0x4DE2 JUMP JUMPDEST DUP1 PUSH1 0x1F ADD PUSH1 0x20 DUP1 SWAP2 DIV MUL PUSH1 0x20 ADD PUSH1 0x40 MLOAD SWAP1 DUP2 ADD PUSH1 0x40 MSTORE DUP1 SWAP3 SWAP2 SWAP1 DUP2 DUP2 MSTORE PUSH1 0x20 ADD DUP3 DUP1 SLOAD PUSH2 0x1A54 SWAP1 PUSH2 0x4DE2 JUMP JUMPDEST DUP1 ISZERO PUSH2 0x1AA1 JUMPI DUP1 PUSH1 0x1F LT PUSH2 0x1A76 JUMPI PUSH2 0x100 DUP1 DUP4 SLOAD DIV MUL DUP4 MSTORE SWAP2 PUSH1 0x20 ADD SWAP2 PUSH2 0x1AA1 JUMP JUMPDEST DUP3 ADD SWAP2 SWAP1 PUSH1 0x0 MSTORE PUSH1 0x20 PUSH1 0x0 KECCAK256 SWAP1 JUMPDEST DUP2 SLOAD DUP2 MSTORE SWAP1 PUSH1 0x1 ADD SWAP1 PUSH1 0x20 ADD DUP1 DUP4 GT PUSH2 0x1A84 JUMPI DUP3 SWAP1 SUB PUSH1 0x1F AND DUP3 ADD SWAP2 JUMPDEST POP POP POP POP POP SWAP1 DUP1 PUSH1 0x1 ADD DUP1 SLOAD PUSH2 0x1AB6 SWAP1 PUSH2 0x4DE2 JUMP JUMPDEST DUP1 PUSH1 0x1F ADD PUSH1 0x20 DUP1 SWAP2 DIV MUL PUSH1 0x20 ADD PUSH1 0x40 MLOAD SWAP1 DUP2 ADD PUSH1 0x40 MSTORE DUP1 SWAP3 SWAP2 SWAP1 DUP2 DUP2 MSTORE PUSH1 0x20 ADD DUP3 DUP1 SLOAD PUSH2 0x1AE2 SWAP1 PUSH2 0x4DE2 JUMP JUMPDEST DUP1 ISZERO PUSH2 0x1B2F JUMPI DUP1 PUSH1 0x1F LT PUSH2 0x1B04 JUMPI PUSH2 0x100 DUP1 DUP4 SLOAD DIV MUL DUP4 MSTORE SWAP2 PUSH1 0x20 ADD SWAP2 PUSH2 0x1B2F JUMP JUMPDEST DUP3 ADD SWAP2 SWAP1 PUSH1 0x0 MSTORE PUSH1 0x20 PUSH1 0x0 KECCAK256 SWAP1 JUMPDEST DUP2 SLOAD DUP2 MSTORE SWAP1 PUSH1 0x1 ADD SWAP1 PUSH1 0x20 ADD DUP1 DUP4 GT PUSH2 0x1B12 JUMPI DUP3 SWAP1 SUB PUSH1 0x1F AND DUP3 ADD SWAP2 JUMPDEST POP POP POP POP POP SWAP1 DUP1 PUSH1 0x2 ADD PUSH1 0x0 SWAP1 SLOAD SWAP1 PUSH2 0x100 EXP SWAP1 DIV PUSH20 0xFFFFFFFFFFFFFFFFFFFFFFFFFFFFFFFFFFFFFFFF AND SWAP1 DUP1 PUSH1 0x2 ADD PUSH1 0x14 SWAP1 SLOAD SWAP1 PUSH2 0x100 EXP SWAP1 DIV PUSH1 0xFF AND SWAP1 POP DUP5 JUMP JUMPDEST PUSH1 0x0 DUP1 SLOAD SWAP1 PUSH2 0x100 EXP SWAP1 DIV PUSH20 0xFFFFFFFFFFFFFFFFFFFFFFFFFFFFFFFFFFFFFFFF AND PUSH20 0xFFFFFFFFFFFFFFFFFFFFFFFFFFFFFFFFFFFFFFFF AND CALLER PUSH20 0xFFFFFFFFFFFFFFFFFFFFFFFFFFFFFFFFFFFFFFFF AND EQ PUSH2 0x1C00 JUMPI PUSH1 0x40 MLOAD PUSH32 0x8C379A000000000000000000000000000000000000000000000000000000000 DUP2 MSTORE PUSH1 0x4 ADD PUSH2 0x1BF7 SWAP1 PUSH2 0x494F JUMP JUMPDEST PUSH1 0x40 MLOAD DUP1 SWAP2 SUB SWAP1 REVERT JUMPDEST PUSH1 0xF PUSH1 0x0 DUP5 PUSH20 0xFFFFFFFFFFFFFFFFFFFFFFFFFFFFFFFFFFFFFFFF AND PUSH20 0xFFFFFFFFFFFFFFFFFFFFFFFFFFFFFFFFFFFFFFFF AND DUP2 MSTORE PUSH1 0x20 ADD SWAP1 DUP2 MSTORE PUSH1 0x20 ADD PUSH1 0x0 KECCAK256 PUSH1 0x2 ADD PUSH1 0x14 SWAP1 SLOAD SWAP1 PUSH2 0x100 EXP SWAP1 DIV PUSH1 0xFF AND ISZERO PUSH2 0x1C90 JUMPI PUSH1 0x40 MLOAD PUSH32 0x8C379A000000000000000000000000000000000000000000000000000000000 DUP2 MSTORE PUSH1 0x4 ADD PUSH2 0x1C87 SWAP1 PUSH2 0x496F JUMP JUMPDEST PUSH1 0x40 MLOAD DUP1 SWAP2 SUB SWAP1 REVERT JUMPDEST PUSH1 0x40 MLOAD DUP1 PUSH1 0x80 ADD PUSH1 0x40 MSTORE DUP1 DUP4 DUP2 MSTORE PUSH1 0x20 ADD DUP3 DUP2 MSTORE PUSH1 0x20 ADD DUP5 PUSH20 0xFFFFFFFFFFFFFFFFFFFFFFFFFFFFFFFFFFFFFFFF AND DUP2 MSTORE PUSH1 0x20 ADD PUSH1 0x1 ISZERO ISZERO DUP2 MSTORE POP PUSH1 0xF PUSH1 0x0 DUP6 PUSH20 0xFFFFFFFFFFFFFFFFFFFFFFFFFFFFFFFFFFFFFFFF AND PUSH20 0xFFFFFFFFFFFFFFFFFFFFFFFFFFFFFFFFFFFFFFFF AND DUP2 MSTORE PUSH1 0x20 ADD SWAP1 DUP2 MSTORE PUSH1 0x20 ADD PUSH1 0x0 KECCAK256 PUSH1 0x0 DUP3 ADD MLOAD DUP2 PUSH1 0x0 ADD SWAP1 DUP1 MLOAD SWAP1 PUSH1 0x20 ADD SWAP1 PUSH2 0x1D25 SWAP3 SWAP2 SWAP1 PUSH2 0x3B22 JUMP JUMPDEST POP PUSH1 0x20 DUP3 ADD MLOAD DUP2 PUSH1 0x1 ADD SWAP1 DUP1 MLOAD SWAP1 PUSH1 0x20 ADD SWAP1 PUSH2 0x1D42 SWAP3 SWAP2 SWAP1 PUSH2 0x3B22 JUMP JUMPDEST POP PUSH1 0x40 DUP3 ADD MLOAD DUP2 PUSH1 0x2 ADD PUSH1 0x0 PUSH2 0x100 EXP DUP2 SLOAD DUP2 PUSH20 0xFFFFFFFFFFFFFFFFFFFFFFFFFFFFFFFFFFFFFFFF MUL NOT AND SWAP1 DUP4 PUSH20 0xFFFFFFFFFFFFFFFFFFFFFFFFFFFFFFFFFFFFFFFF AND MUL OR SWAP1 SSTORE POP PUSH1 0x60 DUP3 ADD MLOAD DUP2 PUSH1 0x2 ADD PUSH1 0x14 PUSH2 0x100 EXP DUP2 SLOAD DUP2 PUSH1 0xFF MUL NOT AND SWAP1 DUP4 ISZERO ISZERO MUL OR SWAP1 SSTORE POP SWAP1 POP POP PUSH1 0x10 DUP4 SWAP1 DUP1 PUSH1 0x1 DUP2 SLOAD ADD DUP1 DUP3 SSTORE DUP1 SWAP2 POP POP PUSH1 0x1 SWAP1 SUB SWAP1 PUSH1 0x0 MSTORE PUSH1 0x20 PUSH1 0x0 KECCAK256 ADD PUSH1 0x0 SWAP1 SWAP2 SWAP1 SWAP2 SWAP1 SWAP2 PUSH2 0x100 EXP DUP2 SLOAD DUP2 PUSH20 0xFFFFFFFFFFFFFFFFFFFFFFFFFFFFFFFFFFFFFFFF MUL NOT AND SWAP1 DUP4 PUSH20 0xFFFFFFFFFFFFFFFFFFFFFFFFFFFFFFFFFFFFFFFF AND MUL OR SWAP1 SSTORE POP POP POP POP JUMP JUMPDEST PUSH1 0x0 PUSH1 0x14 SWAP1 SLOAD SWAP1 PUSH2 0x100 EXP SWAP1 DIV PUSH1 0xFF AND ISZERO PUSH2 0x1E65 JUMPI PUSH1 0x40 MLOAD PUSH32 0x8C379A000000000000000000000000000000000000000000000000000000000 DUP2 MSTORE PUSH1 0x4 ADD PUSH2 0x1E5C SWAP1 PUSH2 0x492F JUMP JUMPDEST PUSH1 0x40 MLOAD DUP1 SWAP2 SUB SWAP1 REVERT JUMPDEST PUSH1 0xC PUSH1 0x0 DUP9 PUSH20 0xFFFFFFFFFFFFFFFFFFFFFFFFFFFFFFFFFFFFFFFF AND PUSH20 0xFFFFFFFFFFFFFFFFFFFFFFFFFFFFFFFFFFFFFFFF AND DUP2 MSTORE PUSH1 0x20 ADD SWAP1 DUP2 MSTORE PUSH1 0x20 ADD PUSH1 0x0 KECCAK256 PUSH1 0x0 SWAP1 SLOAD SWAP1 PUSH2 0x100 EXP SWAP1 DIV PUSH1 0xFF AND ISZERO PUSH2 0x1EF2 JUMPI PUSH1 0x40 MLOAD PUSH32 0x8C379A000000000000000000000000000000000000000000000000000000000 DUP2 MSTORE PUSH1 0x4 ADD PUSH2 0x1EE9 SWAP1 PUSH2 0x498F JUMP JUMPDEST PUSH1 0x40 MLOAD DUP1 SWAP2 SUB SWAP1 REVERT JUMPDEST PUSH1 0x0 PUSH1 0x1 PUSH1 0x5 DUP1 SLOAD SWAP1 POP PUSH2 0x1F06 SWAP2 SWAP1 PUSH2 0x4CC4 JUMP JUMPDEST SWAP1 POP PUSH1 0x5 PUSH1 0x40 MLOAD DUP1 PUSH2 0x140 ADD PUSH1 0x40 MSTORE DUP1 DUP4 DUP2 MSTORE PUSH1 0x20 ADD DUP12 DUP2 MSTORE PUSH1 0x20 ADD PUSH1 0x0 DUP2 MSTORE PUSH1 0x20 ADD DUP11 PUSH20 0xFFFFFFFFFFFFFFFFFFFFFFFFFFFFFFFFFFFFFFFF AND DUP2 MSTORE PUSH1 0x20 ADD DUP10 DUP2 MSTORE PUSH1 0x20 ADD DUP9 DUP2 MSTORE PUSH1 0x20 ADD DUP8 DUP2 MSTORE PUSH1 0x20 ADD DUP7 DUP2 MSTORE PUSH1 0x20 ADD DUP6 DUP2 MSTORE PUSH1 0x20 ADD DUP5 DUP2 MSTORE POP SWAP1 DUP1 PUSH1 0x1 DUP2 SLOAD ADD DUP1 DUP3 SSTORE DUP1 SWAP2 POP POP PUSH1 0x1 SWAP1 SUB SWAP1 PUSH1 0x0 MSTORE PUSH1 0x20 PUSH1 0x0 KECCAK256 SWAP1 PUSH1 0xA MUL ADD PUSH1 0x0 SWAP1 SWAP2 SWAP1 SWAP2 SWAP1 SWAP2 POP PUSH1 0x0 DUP3 ADD MLOAD DUP2 PUSH1 0x0 ADD SSTORE PUSH1 0x20 DUP3 ADD MLOAD DUP2 PUSH1 0x1 ADD SWAP1 DUP1 MLOAD SWAP1 PUSH1 0x20 ADD SWAP1 PUSH2 0x1FB6 SWAP3 SWAP2 SWAP1 PUSH2 0x3B22 JUMP JUMPDEST POP PUSH1 0x40 DUP3 ADD MLOAD DUP2 PUSH1 0x2 ADD SSTORE PUSH1 0x60 DUP3 ADD MLOAD DUP2 PUSH1 0x3 ADD PUSH1 0x0 PUSH2 0x100 EXP DUP2 SLOAD DUP2 PUSH20 0xFFFFFFFFFFFFFFFFFFFFFFFFFFFFFFFFFFFFFFFF MUL NOT AND SWAP1 DUP4 PUSH20 0xFFFFFFFFFFFFFFFFFFFFFFFFFFFFFFFFFFFFFFFF AND MUL OR SWAP1 SSTORE POP PUSH1 0x80 DUP3 ADD MLOAD DUP2 PUSH1 0x4 ADD SWAP1 DUP1 MLOAD SWAP1 PUSH1 0x20 ADD SWAP1 PUSH2 0x2024 SWAP3 SWAP2 SWAP1 PUSH2 0x3B22 JUMP JUMPDEST POP PUSH1 0xA0 DUP3 ADD MLOAD DUP2 PUSH1 0x5 ADD SWAP1 DUP1 MLOAD SWAP1 PUSH1 0x20 ADD SWAP1 PUSH2 0x2041 SWAP3 SWAP2 SWAP1 PUSH2 0x3B22 JUMP JUMPDEST POP PUSH1 0xC0 DUP3 ADD MLOAD DUP2 PUSH1 0x6 ADD SSTORE PUSH1 0xE0 DUP3 ADD MLOAD DUP2 PUSH1 0x7 ADD SWAP1 DUP1 MLOAD SWAP1 PUSH1 0x20 ADD SWAP1 PUSH2 0x2068 SWAP3 SWAP2 SWAP1 PUSH2 0x3B22 JUMP JUMPDEST POP PUSH2 0x100 DUP3 ADD MLOAD DUP2 PUSH1 0x8 ADD SWAP1 DUP1 MLOAD SWAP1 PUSH1 0x20 ADD SWAP1 PUSH2 0x2086 SWAP3 SWAP2 SWAP1 PUSH2 0x3B22 JUMP JUMPDEST POP PUSH2 0x120 DUP3 ADD MLOAD DUP2 PUSH1 0x9 ADD SWAP1 DUP1 MLOAD SWAP1 PUSH1 0x20 ADD SWAP1 PUSH2 0x20A4 SWAP3 SWAP2 SWAP1 PUSH2 0x3B22 JUMP JUMPDEST POP POP POP PUSH1 0x1 PUSH1 0xC PUSH1 0x0 DUP11 PUSH20 0xFFFFFFFFFFFFFFFFFFFFFFFFFFFFFFFFFFFFFFFF AND PUSH20 0xFFFFFFFFFFFFFFFFFFFFFFFFFFFFFFFFFFFFFFFF AND DUP2 MSTORE PUSH1 0x20 ADD SWAP1 DUP2 MSTORE PUSH1 0x20 ADD PUSH1 0x0 KECCAK256 PUSH1 0x0 PUSH2 0x100 EXP DUP2 SLOAD DUP2 PUSH1 0xFF MUL NOT AND SWAP1 DUP4 ISZERO ISZERO MUL OR SWAP1 SSTORE POP PUSH1 0x1 PUSH1 0xE PUSH1 0x0 DUP11 PUSH20 0xFFFFFFFFFFFFFFFFFFFFFFFFFFFFFFFFFFFFFFFF AND PUSH20 0xFFFFFFFFFFFFFFFFFFFFFFFFFFFFFFFFFFFFFFFF AND DUP2 MSTORE PUSH1 0x20 ADD SWAP1 DUP2 MSTORE PUSH1 0x20 ADD PUSH1 0x0 KECCAK256 PUSH1 0x0 ADD PUSH1 0x0 PUSH2 0x100 EXP DUP2 SLOAD DUP2 PUSH1 0xFF MUL NOT AND SWAP1 DUP4 ISZERO ISZERO MUL OR SWAP1 SSTORE POP PUSH32 0x8390120AA7B9C5D5DD0A018D0FDFDCD10E11EEC3F676C8B6781756FD3394D878 DUP2 DUP11 DUP11 DUP11 DUP11 DUP11 DUP11 DUP11 DUP11 PUSH1 0x40 MLOAD PUSH2 0x2199 SWAP10 SWAP9 SWAP8 SWAP7 SWAP6 SWAP5 SWAP4 SWAP3 SWAP2 SWAP1 PUSH2 0x4A62 JUMP JUMPDEST PUSH1 0x40 MLOAD DUP1 SWAP2 SUB SWAP1 LOG1 POP POP POP POP POP POP POP POP POP JUMP JUMPDEST PUSH1 0x1 PUSH1 0xB PUSH1 0x0 DUP4 PUSH20 0xFFFFFFFFFFFFFFFFFFFFFFFFFFFFFFFFFFFFFFFF AND PUSH20 0xFFFFFFFFFFFFFFFFFFFFFFFFFFFFFFFFFFFFFFFF AND DUP2 MSTORE PUSH1 0x20 ADD SWAP1 DUP2 MSTORE PUSH1 0x20 ADD PUSH1 0x0 KECCAK256 PUSH1 0x0 ADD PUSH1 0x2 PUSH2 0x100 EXP DUP2 SLOAD DUP2 PUSH1 0xFF MUL NOT AND SWAP1 DUP4 ISZERO ISZERO MUL OR SWAP1 SSTORE POP PUSH1 0x1 PUSH1 0xB PUSH1 0x0 DUP4 PUSH20 0xFFFFFFFFFFFFFFFFFFFFFFFFFFFFFFFFFFFFFFFF AND PUSH20 0xFFFFFFFFFFFFFFFFFFFFFFFFFFFFFFFFFFFFFFFF AND DUP2 MSTORE PUSH1 0x20 ADD SWAP1 DUP2 MSTORE PUSH1 0x20 ADD PUSH1 0x0 KECCAK256 PUSH1 0x0 ADD PUSH1 0x3 PUSH2 0x100 EXP DUP2 SLOAD DUP2 PUSH1 0xFF MUL NOT AND SWAP1 DUP4 ISZERO ISZERO MUL OR SWAP1 SSTORE POP POP JUMP JUMPDEST PUSH1 0x0 DUP1 SLOAD SWAP1 PUSH2 0x100 EXP SWAP1 DIV PUSH20 0xFFFFFFFFFFFFFFFFFFFFFFFFFFFFFFFFFFFFFFFF AND PUSH20 0xFFFFFFFFFFFFFFFFFFFFFFFFFFFFFFFFFFFFFFFF AND CALLER PUSH20 0xFFFFFFFFFFFFFFFFFFFFFFFFFFFFFFFFFFFFFFFF AND EQ PUSH2 0x22F3 JUMPI PUSH1 0x40 MLOAD PUSH32 0x8C379A000000000000000000000000000000000000000000000000000000000 DUP2 MSTORE PUSH1 0x4 ADD PUSH2 0x22EA SWAP1 PUSH2 0x494F JUMP JUMPDEST PUSH1 0x40 MLOAD DUP1 SWAP2 SUB SWAP1 REVERT JUMPDEST PUSH1 0x0 PUSH1 0x14 SWAP1 SLOAD SWAP1 PUSH2 0x100 EXP SWAP1 DIV PUSH1 0xFF AND ISZERO PUSH2 0x2343 JUMPI PUSH1 0x40 MLOAD PUSH32 0x8C379A000000000000000000000000000000000000000000000000000000000 DUP2 MSTORE PUSH1 0x4 ADD PUSH2 0x233A SWAP1 PUSH2 0x488F JUMP JUMPDEST PUSH1 0x40 MLOAD DUP1 SWAP2 SUB SWAP1 REVERT JUMPDEST PUSH1 0x0 PUSH1 0x5 DUP1 SLOAD SWAP1 POP GT PUSH2 0x238B JUMPI PUSH1 0x40 MLOAD PUSH32 0x8C379A000000000000000000000000000000000000000000000000000000000 DUP2 MSTORE PUSH1 0x4 ADD PUSH2 0x2382 SWAP1 PUSH2 0x490F JUMP JUMPDEST PUSH1 0x40 MLOAD DUP1 SWAP2 SUB SWAP1 REVERT JUMPDEST PUSH1 0x0 DUP1 PUSH1 0x1 PUSH1 0x0 PUSH1 0x15 PUSH2 0x100 EXP DUP2 SLOAD DUP2 PUSH1 0xFF MUL NOT AND SWAP1 DUP4 ISZERO ISZERO MUL OR SWAP1 SSTORE POP PUSH1 0x0 JUMPDEST PUSH1 0x5 DUP1 SLOAD SWAP1 POP DUP2 LT ISZERO PUSH2 0x246A JUMPI DUP3 PUSH1 0x5 DUP3 DUP2 SLOAD DUP2 LT PUSH2 0x23F4 JUMPI PUSH32 0x4E487B7100000000000000000000000000000000000000000000000000000000 PUSH1 0x0 MSTORE PUSH1 0x32 PUSH1 0x4 MSTORE PUSH1 0x24 PUSH1 0x0 REVERT JUMPDEST SWAP1 PUSH1 0x0 MSTORE PUSH1 0x20 PUSH1 0x0 KECCAK256 SWAP1 PUSH1 0xA MUL ADD PUSH1 0x2 ADD SLOAD LT PUSH2 0x2465 JUMPI PUSH1 0x5 DUP2 DUP2 SLOAD DUP2 LT PUSH2 0x2445 JUMPI PUSH32 0x4E487B7100000000000000000000000000000000000000000000000000000000 PUSH1 0x0 MSTORE PUSH1 0x32 PUSH1 0x4 MSTORE PUSH1 0x24 PUSH1 0x0 REVERT JUMPDEST SWAP1 PUSH1 0x0 MSTORE PUSH1 0x20 PUSH1 0x0 KECCAK256 SWAP1 PUSH1 0xA MUL ADD PUSH1 0x2 ADD SLOAD SWAP3 POP DUP1 SWAP2 POP DUP1 DUP1 PUSH1 0x1 ADD SWAP2 POP POP JUMPDEST PUSH2 0x23AC JUMP JUMPDEST POP PUSH1 0x0 DUP2 LT PUSH2 0x2708 JUMPI PUSH1 0x0 PUSH1 0x5 DUP3 DUP2 SLOAD DUP2 LT PUSH2 0x24AF JUMPI PUSH32 0x4E487B7100000000000000000000000000000000000000000000000000000000 PUSH1 0x0 MSTORE PUSH1 0x32 PUSH1 0x4 MSTORE PUSH1 0x24 PUSH1 0x0 REVERT JUMPDEST SWAP1 PUSH1 0x0 MSTORE PUSH1 0x20 PUSH1 0x0 KECCAK256 SWAP1 PUSH1 0xA MUL ADD PUSH1 0x1 ADD DUP1 SLOAD PUSH2 0x24CB SWAP1 PUSH2 0x4DE2 JUMP JUMPDEST DUP1 PUSH1 0x1F ADD PUSH1 0x20 DUP1 SWAP2 DIV MUL PUSH1 0x20 ADD PUSH1 0x40 MLOAD SWAP1 DUP2 ADD PUSH1 0x40 MSTORE DUP1 SWAP3 SWAP2 SWAP1 DUP2 DUP2 MSTORE PUSH1 0x20 ADD DUP3 DUP1 SLOAD PUSH2 0x24F7 SWAP1 PUSH2 0x4DE2 JUMP JUMPDEST DUP1 ISZERO PUSH2 0x2544 JUMPI DUP1 PUSH1 0x1F LT PUSH2 0x2519 JUMPI PUSH2 0x100 DUP1 DUP4 SLOAD DIV MUL DUP4 MSTORE SWAP2 PUSH1 0x20 ADD SWAP2 PUSH2 0x2544 JUMP JUMPDEST DUP3 ADD SWAP2 SWAP1 PUSH1 0x0 MSTORE PUSH1 0x20 PUSH1 0x0 KECCAK256 SWAP1 JUMPDEST DUP2 SLOAD DUP2 MSTORE SWAP1 PUSH1 0x1 ADD SWAP1 PUSH1 0x20 ADD DUP1 DUP4 GT PUSH2 0x2527 JUMPI DUP3 SWAP1 SUB PUSH1 0x1F AND DUP3 ADD SWAP2 JUMPDEST POP POP POP POP POP SWAP1 POP PUSH1 0x0 PUSH1 0x5 DUP4 DUP2 SLOAD DUP2 LT PUSH2 0x2587 JUMPI PUSH32 0x4E487B7100000000000000000000000000000000000000000000000000000000 PUSH1 0x0 MSTORE PUSH1 0x32 PUSH1 0x4 MSTORE PUSH1 0x24 PUSH1 0x0 REVERT JUMPDEST SWAP1 PUSH1 0x0 MSTORE PUSH1 0x20 PUSH1 0x0 KECCAK256 SWAP1 PUSH1 0xA MUL ADD PUSH1 0x2 ADD SLOAD SWAP1 POP PUSH1 0x0 PUSH1 0x5 DUP5 DUP2 SLOAD DUP2 LT PUSH2 0x25D7 JUMPI PUSH32 0x4E487B7100000000000000000000000000000000000000000000000000000000 PUSH1 0x0 MSTORE PUSH1 0x32 PUSH1 0x4 MSTORE PUSH1 0x24 PUSH1 0x0 REVERT JUMPDEST SWAP1 PUSH1 0x0 MSTORE PUSH1 0x20 PUSH1 0x0 KECCAK256 SWAP1 PUSH1 0xA MUL ADD PUSH1 0x3 ADD PUSH1 0x0 SWAP1 SLOAD SWAP1 PUSH2 0x100 EXP SWAP1 DIV PUSH20 0xFFFFFFFFFFFFFFFFFFFFFFFFFFFFFFFFFFFFFFFF AND SWAP1 POP PUSH1 0x40 MLOAD DUP1 PUSH1 0x80 ADD PUSH1 0x40 MSTORE DUP1 PUSH1 0x1 DUP7 PUSH2 0x2623 SWAP2 SWAP1 PUSH2 0x4CC4 JUMP JUMPDEST DUP2 MSTORE PUSH1 0x20 ADD DUP5 DUP2 MSTORE PUSH1 0x20 ADD DUP4 DUP2 MSTORE PUSH1 0x20 ADD DUP3 PUSH20 0xFFFFFFFFFFFFFFFFFFFFFFFFFFFFFFFFFFFFFFFF AND DUP2 MSTORE POP PUSH1 0x1 PUSH1 0x0 DUP3 ADD MLOAD DUP2 PUSH1 0x0 ADD SSTORE PUSH1 0x20 DUP3 ADD MLOAD DUP2 PUSH1 0x1 ADD SWAP1 DUP1 MLOAD SWAP1 PUSH1 0x20 ADD SWAP1 PUSH2 0x2676 SWAP3 SWAP2 SWAP1 PUSH2 0x3B22 JUMP JUMPDEST POP PUSH1 0x40 DUP3 ADD MLOAD DUP2 PUSH1 0x2 ADD SSTORE PUSH1 0x60 DUP3 ADD MLOAD DUP2 PUSH1 0x3 ADD PUSH1 0x0 PUSH2 0x100 EXP DUP2 SLOAD DUP2 PUSH20 0xFFFFFFFFFFFFFFFFFFFFFFFFFFFFFFFFFFFFFFFF MUL NOT AND SWAP1 DUP4 PUSH20 0xFFFFFFFFFFFFFFFFFFFFFFFFFFFFFFFFFFFFFFFF AND MUL OR SWAP1 SSTORE POP SWAP1 POP POP PUSH32 0x1AAA99E411A940104E7B7866D6FC9317A3E67E76472E8D2776A9A8943112C390 DUP4 DUP4 PUSH1 0x40 MLOAD PUSH2 0x26FC SWAP3 SWAP2 SWAP1 PUSH2 0x483F JUMP JUMPDEST PUSH1 0x40 MLOAD DUP1 SWAP2 SUB SWAP1 LOG1 POP POP POP JUMPDEST POP POP JUMP JUMPDEST PUSH1 0x0 DUP1 SLOAD SWAP1 PUSH2 0x100 EXP SWAP1 DIV PUSH20 0xFFFFFFFFFFFFFFFFFFFFFFFFFFFFFFFFFFFFFFFF AND PUSH20 0xFFFFFFFFFFFFFFFFFFFFFFFFFFFFFFFFFFFFFFFF AND CALLER PUSH20 0xFFFFFFFFFFFFFFFFFFFFFFFFFFFFFFFFFFFFFFFF AND EQ PUSH2 0x279A JUMPI PUSH1 0x40 MLOAD PUSH32 0x8C379A000000000000000000000000000000000000000000000000000000000 DUP2 MSTORE PUSH1 0x4 ADD PUSH2 0x2791 SWAP1 PUSH2 0x494F JUMP JUMPDEST PUSH1 0x40 MLOAD DUP1 SWAP2 SUB SWAP1 REVERT JUMPDEST PUSH1 0x0 DUP1 PUSH1 0x14 PUSH2 0x100 EXP DUP2 SLOAD DUP2 PUSH1 0xFF MUL NOT AND SWAP1 DUP4 ISZERO ISZERO MUL OR SWAP1 SSTORE POP PUSH32 0xA549B9ADDFC3693A1863AC5B0B13C42960D78DF554C01EA6AC72A7DB985DF0CF PUSH1 0x40 MLOAD PUSH1 0x40 MLOAD DUP1 SWAP2 SUB SWAP1 LOG1 JUMP JUMPDEST PUSH1 0x40 MLOAD DUP1 PUSH1 0x80 ADD PUSH1 0x40 MSTORE DUP1 PUSH1 0x1 ISZERO ISZERO DUP2 MSTORE PUSH1 0x20 ADD PUSH1 0x0 ISZERO ISZERO DUP2 MSTORE PUSH1 0x20 ADD PUSH1 0x0 ISZERO ISZERO DUP2 MSTORE PUSH1 0x20 ADD PUSH1 0x0 ISZERO ISZERO DUP2 MSTORE POP PUSH1 0xE PUSH1 0x0 DUP4 PUSH20 0xFFFFFFFFFFFFFFFFFFFFFFFFFFFFFFFFFFFFFFFF AND PUSH20 0xFFFFFFFFFFFFFFFFFFFFFFFFFFFFFFFFFFFFFFFF AND DUP2 MSTORE PUSH1 0x20 ADD SWAP1 DUP2 MSTORE PUSH1 0x20 ADD PUSH1 0x0 KECCAK256 PUSH1 0x0 DUP3 ADD MLOAD DUP2 PUSH1 0x0 ADD PUSH1 0x0 PUSH2 0x100 EXP DUP2 SLOAD DUP2 PUSH1 0xFF MUL NOT AND SWAP1 DUP4 ISZERO ISZERO MUL OR SWAP1 SSTORE POP PUSH1 0x20 DUP3 ADD MLOAD DUP2 PUSH1 0x0 ADD PUSH1 0x1 PUSH2 0x100 EXP DUP2 SLOAD DUP2 PUSH1 0xFF MUL NOT AND SWAP1 DUP4 ISZERO ISZERO MUL OR SWAP1 SSTORE POP PUSH1 0x40 DUP3 ADD MLOAD DUP2 PUSH1 0x0 ADD PUSH1 0x2 PUSH2 0x100 EXP DUP2 SLOAD DUP2 PUSH1 0xFF MUL NOT AND SWAP1 DUP4 ISZERO ISZERO MUL OR SWAP1 SSTORE POP PUSH1 0x60 DUP3 ADD MLOAD DUP2 PUSH1 0x0 ADD PUSH1 0x3 PUSH2 0x100 EXP DUP2 SLOAD DUP2 PUSH1 0xFF MUL NOT AND SWAP1 DUP4 ISZERO ISZERO MUL OR SWAP1 SSTORE POP SWAP1 POP POP POP JUMP JUMPDEST PUSH2 0x28DC PUSH2 0x3BD8 JUMP JUMPDEST PUSH1 0xA PUSH1 0x0 DUP4 PUSH20 0xFFFFFFFFFFFFFFFFFFFFFFFFFFFFFFFFFFFFFFFF AND PUSH20 0xFFFFFFFFFFFFFFFFFFFFFFFFFFFFFFFFFFFFFFFF AND DUP2 MSTORE PUSH1 0x20 ADD SWAP1 DUP2 MSTORE PUSH1 0x20 ADD PUSH1 0x0 KECCAK256 PUSH1 0x40 MLOAD DUP1 PUSH1 0x40 ADD PUSH1 0x40 MSTORE SWAP1 DUP2 PUSH1 0x0 DUP3 ADD DUP1 SLOAD PUSH2 0x2936 SWAP1 PUSH2 0x4DE2 JUMP JUMPDEST DUP1 PUSH1 0x1F ADD PUSH1 0x20 DUP1 SWAP2 DIV MUL PUSH1 0x20 ADD PUSH1 0x40 MLOAD SWAP1 DUP2 ADD PUSH1 0x40 MSTORE DUP1 SWAP3 SWAP2 SWAP1 DUP2 DUP2 MSTORE PUSH1 0x20 ADD DUP3 DUP1 SLOAD PUSH2 0x2962 SWAP1 PUSH2 0x4DE2 JUMP JUMPDEST DUP1 ISZERO PUSH2 0x29AF JUMPI DUP1 PUSH1 0x1F LT PUSH2 0x2984 JUMPI PUSH2 0x100 DUP1 DUP4 SLOAD DIV MUL DUP4 MSTORE SWAP2 PUSH1 0x20 ADD SWAP2 PUSH2 0x29AF JUMP JUMPDEST DUP3 ADD SWAP2 SWAP1 PUSH1 0x0 MSTORE PUSH1 0x20 PUSH1 0x0 KECCAK256 SWAP1 JUMPDEST DUP2 SLOAD DUP2 MSTORE SWAP1 PUSH1 0x1 ADD SWAP1 PUSH1 0x20 ADD DUP1 DUP4 GT PUSH2 0x2992 JUMPI DUP3 SWAP1 SUB PUSH1 0x1F AND DUP3 ADD SWAP2 JUMPDEST POP POP POP POP POP DUP2 MSTORE PUSH1 0x20 ADD PUSH1 0x1 DUP3 ADD DUP1 SLOAD PUSH2 0x29C8 SWAP1 PUSH2 0x4DE2 JUMP JUMPDEST DUP1 PUSH1 0x1F ADD PUSH1 0x20 DUP1 SWAP2 DIV MUL PUSH1 0x20 ADD PUSH1 0x40 MLOAD SWAP1 DUP2 ADD PUSH1 0x40 MSTORE DUP1 SWAP3 SWAP2 SWAP1 DUP2 DUP2 MSTORE PUSH1 0x20 ADD DUP3 DUP1 SLOAD PUSH2 0x29F4 SWAP1 PUSH2 0x4DE2 JUMP JUMPDEST DUP1 ISZERO PUSH2 0x2A41 JUMPI DUP1 PUSH1 0x1F LT PUSH2 0x2A16 JUMPI PUSH2 0x100 DUP1 DUP4 SLOAD DIV MUL DUP4 MSTORE SWAP2 PUSH1 0x20 ADD SWAP2 PUSH2 0x2A41 JUMP JUMPDEST DUP3 ADD SWAP2 SWAP1 PUSH1 0x0 MSTORE PUSH1 0x20 PUSH1 0x0 KECCAK256 SWAP1 JUMPDEST DUP2 SLOAD DUP2 MSTORE SWAP1 PUSH1 0x1 ADD SWAP1 PUSH1 0x20 ADD DUP1 DUP4 GT PUSH2 0x2A24 JUMPI DUP3 SWAP1 SUB PUSH1 0x1F AND DUP3 ADD SWAP2 JUMPDEST POP POP POP POP POP DUP2 MSTORE POP POP SWAP1 POP SWAP2 SWAP1 POP JUMP JUMPDEST PUSH1 0x0 DUP1 PUSH1 0x0 SWAP1 SLOAD SWAP1 PUSH2 0x100 EXP SWAP1 DIV PUSH20 0xFFFFFFFFFFFFFFFFFFFFFFFFFFFFFFFFFFFFFFFF AND SWAP1 POP SWAP1 JUMP JUMPDEST PUSH1 0x0 DUP1 PUSH1 0x14 SWAP1 SLOAD SWAP1 PUSH2 0x100 EXP SWAP1 DIV PUSH1 0xFF AND SWAP1 POP SWAP1 JUMP JUMPDEST PUSH1 0x0 DUP1 SLOAD SWAP1 PUSH2 0x100 EXP SWAP1 DIV PUSH20 0xFFFFFFFFFFFFFFFFFFFFFFFFFFFFFFFFFFFFFFFF AND DUP2 JUMP JUMPDEST PUSH1 0x0 PUSH1 0x15 SWAP1 SLOAD SWAP1 PUSH2 0x100 EXP SWAP1 DIV PUSH1 0xFF AND DUP2 JUMP JUMPDEST PUSH2 0x2ACF PUSH2 0x3BF2 JUMP JUMPDEST PUSH1 0xB PUSH1 0x0 DUP4 PUSH20 0xFFFFFFFFFFFFFFFFFFFFFFFFFFFFFFFFFFFFFFFF AND PUSH20 0xFFFFFFFFFFFFFFFFFFFFFFFFFFFFFFFFFFFFFFFF AND DUP2 MSTORE PUSH1 0x20 ADD SWAP1 DUP2 MSTORE PUSH1 0x20 ADD PUSH1 0x0 KECCAK256 PUSH1 0x40 MLOAD DUP1 PUSH1 0x80 ADD PUSH1 0x40 MSTORE SWAP1 DUP2 PUSH1 0x0 DUP3 ADD PUSH1 0x0 SWAP1 SLOAD SWAP1 PUSH2 0x100 EXP SWAP1 DIV PUSH1 0xFF AND ISZERO ISZERO ISZERO ISZERO DUP2 MSTORE PUSH1 0x20 ADD PUSH1 0x0 DUP3 ADD PUSH1 0x1 SWAP1 SLOAD SWAP1 PUSH2 0x100 EXP SWAP1 DIV PUSH1 0xFF AND ISZERO ISZERO ISZERO ISZERO DUP2 MSTORE PUSH1 0x20 ADD PUSH1 0x0 DUP3 ADD PUSH1 0x2 SWAP1 SLOAD SWAP1 PUSH2 0x100 EXP SWAP1 DIV PUSH1 0xFF AND ISZERO ISZERO ISZERO ISZERO DUP2 MSTORE PUSH1 0x20 ADD PUSH1 0x0 DUP3 ADD PUSH1 0x3 SWAP1 SLOAD SWAP1 PUSH2 0x100 EXP SWAP1 DIV PUSH1 0xFF AND ISZERO ISZERO ISZERO ISZERO DUP2 MSTORE POP POP SWAP1 POP SWAP2 SWAP1 POP JUMP JUMPDEST PUSH1 0x10 DUP2 DUP2 SLOAD DUP2 LT PUSH2 0x2B9C JUMPI PUSH1 0x0 DUP1 REVERT JUMPDEST SWAP1 PUSH1 0x0 MSTORE PUSH1 0x20 PUSH1 0x0 KECCAK256 ADD PUSH1 0x0 SWAP2 POP SLOAD SWAP1 PUSH2 0x100 EXP SWAP1 DIV PUSH20 0xFFFFFFFFFFFFFFFFFFFFFFFFFFFFFFFFFFFFFFFF AND DUP2 JUMP JUMPDEST PUSH1 0x8 PUSH1 0x20 MSTORE DUP1 PUSH1 0x0 MSTORE PUSH1 0x40 PUSH1 0x0 KECCAK256 PUSH1 0x0 SWAP2 POP SWAP1 POP DUP1 PUSH1 0x0 ADD PUSH1 0x0 SWAP1 SLOAD SWAP1 PUSH2 0x100 EXP SWAP1 DIV PUSH20 0xFFFFFFFFFFFFFFFFFFFFFFFFFFFFFFFFFFFFFFFF AND SWAP1 DUP1 PUSH1 0x1 ADD DUP1 SLOAD PUSH2 0x2C14 SWAP1 PUSH2 0x4DE2 JUMP JUMPDEST DUP1 PUSH1 0x1F ADD PUSH1 0x20 DUP1 SWAP2 DIV MUL PUSH1 0x20 ADD PUSH1 0x40 MLOAD SWAP1 DUP2 ADD PUSH1 0x40 MSTORE DUP1 SWAP3 SWAP2 SWAP1 DUP2 DUP2 MSTORE PUSH1 0x20 ADD DUP3 DUP1 SLOAD PUSH2 0x2C40 SWAP1 PUSH2 0x4DE2 JUMP JUMPDEST DUP1 ISZERO PUSH2 0x2C8D JUMPI DUP1 PUSH1 0x1F LT PUSH2 0x2C62 JUMPI PUSH2 0x100 DUP1 DUP4 SLOAD DIV MUL DUP4 MSTORE SWAP2 PUSH1 0x20 ADD SWAP2 PUSH2 0x2C8D JUMP JUMPDEST DUP3 ADD SWAP2 SWAP1 PUSH1 0x0 MSTORE PUSH1 0x20 PUSH1 0x0 KECCAK256 SWAP1 JUMPDEST DUP2 SLOAD DUP2 MSTORE SWAP1 PUSH1 0x1 ADD SWAP1 PUSH1 0x20 ADD DUP1 DUP4 GT PUSH2 0x2C70 JUMPI DUP3 SWAP1 SUB PUSH1 0x1F AND DUP3 ADD SWAP2 JUMPDEST POP POP POP POP POP SWAP1 DUP1 PUSH1 0x2 ADD DUP1 SLOAD PUSH2 0x2CA2 SWAP1 PUSH2 0x4DE2 JUMP JUMPDEST DUP1 PUSH1 0x1F ADD PUSH1 0x20 DUP1 SWAP2 DIV MUL PUSH1 0x20 ADD PUSH1 0x40 MLOAD SWAP1 DUP2 ADD PUSH1 0x40 MSTORE DUP1 SWAP3 SWAP2 SWAP1 DUP2 DUP2 MSTORE PUSH1 0x20 ADD DUP3 DUP1 SLOAD PUSH2 0x2CCE SWAP1 PUSH2 0x4DE2 JUMP JUMPDEST DUP1 ISZERO PUSH2 0x2D1B JUMPI DUP1 PUSH1 0x1F LT PUSH2 0x2CF0 JUMPI PUSH2 0x100 DUP1 DUP4 SLOAD DIV MUL DUP4 MSTORE SWAP2 PUSH1 0x20 ADD SWAP2 PUSH2 0x2D1B JUMP JUMPDEST DUP3 ADD SWAP2 SWAP1 PUSH1 0x0 MSTORE PUSH1 0x20 PUSH1 0x0 KECCAK256 SWAP1 JUMPDEST DUP2 SLOAD DUP2 MSTORE SWAP1 PUSH1 0x1 ADD SWAP1 PUSH1 0x20 ADD DUP1 DUP4 GT PUSH2 0x2CFE JUMPI DUP3 SWAP1 SUB PUSH1 0x1F AND DUP3 ADD SWAP2 JUMPDEST POP POP POP POP POP SWAP1 DUP1 PUSH1 0x3 ADD DUP1 SLOAD PUSH2 0x2D30 SWAP1 PUSH2 0x4DE2 JUMP JUMPDEST DUP1 PUSH1 0x1F ADD PUSH1 0x20 DUP1 SWAP2 DIV MUL PUSH1 0x20 ADD PUSH1 0x40 MLOAD SWAP1 DUP2 ADD PUSH1 0x40 MSTORE DUP1 SWAP3 SWAP2 SWAP1 DUP2 DUP2 MSTORE PUSH1 0x20 ADD DUP3 DUP1 SLOAD PUSH2 0x2D5C SWAP1 PUSH2 0x4DE2 JUMP JUMPDEST DUP1 ISZERO PUSH2 0x2DA9 JUMPI DUP1 PUSH1 0x1F LT PUSH2 0x2D7E JUMPI PUSH2 0x100 DUP1 DUP4 SLOAD DIV MUL DUP4 MSTORE SWAP2 PUSH1 0x20 ADD SWAP2 PUSH2 0x2DA9 JUMP JUMPDEST DUP3 ADD SWAP2 SWAP1 PUSH1 0x0 MSTORE PUSH1 0x20 PUSH1 0x0 KECCAK256 SWAP1 JUMPDEST DUP2 SLOAD DUP2 MSTORE SWAP1 PUSH1 0x1 ADD SWAP1 PUSH1 0x20 ADD DUP1 DUP4 GT PUSH2 0x2D8C JUMPI DUP3 SWAP1 SUB PUSH1 0x1F AND DUP3 ADD SWAP2 JUMPDEST POP POP POP POP POP SWAP1 DUP1 PUSH1 0x4 ADD DUP1 SLOAD PUSH2 0x2DBE SWAP1 PUSH2 0x4DE2 JUMP JUMPDEST DUP1 PUSH1 0x1F ADD PUSH1 0x20 DUP1 SWAP2 DIV MUL PUSH1 0x20 ADD PUSH1 0x40 MLOAD SWAP1 DUP2 ADD PUSH1 0x40 MSTORE DUP1 SWAP3 SWAP2 SWAP1 DUP2 DUP2 MSTORE PUSH1 0x20 ADD DUP3 DUP1 SLOAD PUSH2 0x2DEA SWAP1 PUSH2 0x4DE2 JUMP JUMPDEST DUP1 ISZERO PUSH2 0x2E37 JUMPI DUP1 PUSH1 0x1F LT PUSH2 0x2E0C JUMPI PUSH2 0x100 DUP1 DUP4 SLOAD DIV MUL DUP4 MSTORE SWAP2 PUSH1 0x20 ADD SWAP2 PUSH2 0x2E37 JUMP JUMPDEST DUP3 ADD SWAP2 SWAP1 PUSH1 0x0 MSTORE PUSH1 0x20 PUSH1 0x0 KECCAK256 SWAP1 JUMPDEST DUP2 SLOAD DUP2 MSTORE SWAP1 PUSH1 0x1 ADD SWAP1 PUSH1 0x20 ADD DUP1 DUP4 GT PUSH2 0x2E1A JUMPI DUP3 SWAP1 SUB PUSH1 0x1F AND DUP3 ADD SWAP2 JUMPDEST POP POP POP POP POP SWAP1 DUP1 PUSH1 0x5 ADD SLOAD SWAP1 POP DUP7 JUMP JUMPDEST PUSH1 0x1 PUSH1 0xB PUSH1 0x0 DUP4 PUSH20 0xFFFFFFFFFFFFFFFFFFFFFFFFFFFFFFFFFFFFFFFF AND PUSH20 0xFFFFFFFFFFFFFFFFFFFFFFFFFFFFFFFFFFFFFFFF AND DUP2 MSTORE PUSH1 0x20 ADD SWAP1 DUP2 MSTORE PUSH1 0x20 ADD PUSH1 0x0 KECCAK256 PUSH1 0x0 ADD PUSH1 0x1 PUSH2 0x100 EXP DUP2 SLOAD DUP2 PUSH1 0xFF MUL NOT AND SWAP1 DUP4 ISZERO ISZERO MUL OR SWAP1 SSTORE POP POP JUMP JUMPDEST PUSH1 0x1 PUSH1 0xE PUSH1 0x0 DUP4 PUSH20 0xFFFFFFFFFFFFFFFFFFFFFFFFFFFFFFFFFFFFFFFF AND PUSH20 0xFFFFFFFFFFFFFFFFFFFFFFFFFFFFFFFFFFFFFFFF AND DUP2 MSTORE PUSH1 0x20 ADD SWAP1 DUP2 MSTORE PUSH1 0x20 ADD PUSH1 0x0 KECCAK256 PUSH1 0x0 ADD PUSH1 0x1 PUSH2 0x100 EXP DUP2 SLOAD DUP2 PUSH1 0xFF MUL NOT AND SWAP1 DUP4 ISZERO ISZERO MUL OR SWAP1 SSTORE POP POP JUMP JUMPDEST PUSH1 0x40 MLOAD DUP1 PUSH1 0x40 ADD PUSH1 0x40 MSTORE DUP1 DUP4 DUP2 MSTORE PUSH1 0x20 ADD DUP3 DUP2 MSTORE POP PUSH1 0xA PUSH1 0x0 DUP6 PUSH20 0xFFFFFFFFFFFFFFFFFFFFFFFFFFFFFFFFFFFFFFFF AND PUSH20 0xFFFFFFFFFFFFFFFFFFFFFFFFFFFFFFFFFFFFFFFF AND DUP2 MSTORE PUSH1 0x20 ADD SWAP1 DUP2 MSTORE PUSH1 0x20 ADD PUSH1 0x0 KECCAK256 PUSH1 0x0 DUP3 ADD MLOAD DUP2 PUSH1 0x0 ADD SWAP1 DUP1 MLOAD SWAP1 PUSH1 0x20 ADD SWAP1 PUSH2 0x2F73 SWAP3 SWAP2 SWAP1 PUSH2 0x3B22 JUMP JUMPDEST POP PUSH1 0x20 DUP3 ADD MLOAD DUP2 PUSH1 0x1 ADD SWAP1 DUP1 MLOAD SWAP1 PUSH1 0x20 ADD SWAP1 PUSH2 0x2F90 SWAP3 SWAP2 SWAP1 PUSH2 0x3B22 JUMP JUMPDEST POP SWAP1 POP POP PUSH1 0x1 PUSH1 0xB PUSH1 0x0 DUP6 PUSH20 0xFFFFFFFFFFFFFFFFFFFFFFFFFFFFFFFFFFFFFFFF AND PUSH20 0xFFFFFFFFFFFFFFFFFFFFFFFFFFFFFFFFFFFFFFFF AND DUP2 MSTORE PUSH1 0x20 ADD SWAP1 DUP2 MSTORE PUSH1 0x20 ADD PUSH1 0x0 KECCAK256 PUSH1 0x0 ADD PUSH1 0x2 PUSH2 0x100 EXP DUP2 SLOAD DUP2 PUSH1 0xFF MUL NOT AND SWAP1 DUP4 ISZERO ISZERO MUL OR SWAP1 SSTORE POP PUSH1 0x1 PUSH1 0xB PUSH1 0x0 DUP6 PUSH20 0xFFFFFFFFFFFFFFFFFFFFFFFFFFFFFFFFFFFFFFFF AND PUSH20 0xFFFFFFFFFFFFFFFFFFFFFFFFFFFFFFFFFFFFFFFF AND DUP2 MSTORE PUSH1 0x20 ADD SWAP1 DUP2 MSTORE PUSH1 0x20 ADD PUSH1 0x0 KECCAK256 PUSH1 0x0 ADD PUSH1 0x3 PUSH2 0x100 EXP DUP2 SLOAD DUP2 PUSH1 0xFF MUL NOT AND SWAP1 DUP4 ISZERO ISZERO MUL OR SWAP1 SSTORE POP POP POP POP JUMP JUMPDEST PUSH1 0x0 PUSH1 0x5 DUP1 SLOAD SWAP1 POP SWAP1 POP SWAP1 JUMP JUMPDEST PUSH1 0x1 PUSH1 0xE PUSH1 0x0 DUP4 PUSH20 0xFFFFFFFFFFFFFFFFFFFFFFFFFFFFFFFFFFFFFFFF AND PUSH20 0xFFFFFFFFFFFFFFFFFFFFFFFFFFFFFFFFFFFFFFFF AND DUP2 MSTORE PUSH1 0x20 ADD SWAP1 DUP2 MSTORE PUSH1 0x20 ADD PUSH1 0x0 KECCAK256 PUSH1 0x0 ADD PUSH1 0x2 PUSH2 0x100 EXP DUP2 SLOAD DUP2 PUSH1 0xFF MUL NOT AND SWAP1 DUP4 ISZERO ISZERO MUL OR SWAP1 SSTORE POP PUSH1 0x1 PUSH1 0xE PUSH1 0x0 DUP4 PUSH20 0xFFFFFFFFFFFFFFFFFFFFFFFFFFFFFFFFFFFFFFFF AND PUSH20 0xFFFFFFFFFFFFFFFFFFFFFFFFFFFFFFFFFFFFFFFF AND DUP2 MSTORE PUSH1 0x20 ADD SWAP1 DUP2 MSTORE PUSH1 0x20 ADD PUSH1 0x0 KECCAK256 PUSH1 0x0 ADD PUSH1 0x3 PUSH2 0x100 EXP DUP2 SLOAD DUP2 PUSH1 0xFF MUL NOT AND SWAP1 DUP4 ISZERO ISZERO MUL OR SWAP1 SSTORE POP POP JUMP JUMPDEST PUSH1 0x0 DUP1 SLOAD SWAP1 PUSH2 0x100 EXP SWAP1 DIV PUSH20 0xFFFFFFFFFFFFFFFFFFFFFFFFFFFFFFFFFFFFFFFF AND PUSH20 0xFFFFFFFFFFFFFFFFFFFFFFFFFFFFFFFFFFFFFFFF AND CALLER PUSH20 0xFFFFFFFFFFFFFFFFFFFFFFFFFFFFFFFFFFFFFFFF AND EQ PUSH2 0x31A3 JUMPI PUSH1 0x40 MLOAD PUSH32 0x8C379A000000000000000000000000000000000000000000000000000000000 DUP2 MSTORE PUSH1 0x4 ADD PUSH2 0x319A SWAP1 PUSH2 0x494F JUMP JUMPDEST PUSH1 0x40 MLOAD DUP1 SWAP2 SUB SWAP1 REVERT JUMPDEST PUSH1 0x1 PUSH1 0x0 PUSH1 0x14 PUSH2 0x100 EXP DUP2 SLOAD DUP2 PUSH1 0xFF MUL NOT AND SWAP1 DUP4 ISZERO ISZERO MUL OR SWAP1 SSTORE POP PUSH32 0x258A7C8A176359D1DD4B5872009764B97F6228ED4DFC610540018B756F6F22BD PUSH1 0x40 MLOAD PUSH1 0x40 MLOAD DUP1 SWAP2 SUB SWAP1 LOG1 JUMP JUMPDEST PUSH2 0x31F4 PUSH2 0x3BD8 JUMP JUMPDEST PUSH1 0xD PUSH1 0x0 DUP4 PUSH20 0xFFFFFFFFFFFFFFFFFFFFFFFFFFFFFFFFFFFFFFFF AND PUSH20 0xFFFFFFFFFFFFFFFFFFFFFFFFFFFFFFFFFFFFFFFF AND DUP2 MSTORE PUSH1 0x20 ADD SWAP1 DUP2 MSTORE PUSH1 0x20 ADD PUSH1 0x0 KECCAK256 PUSH1 0x40 MLOAD DUP1 PUSH1 0x40 ADD PUSH1 0x40 MSTORE SWAP1 DUP2 PUSH1 0x0 DUP3 ADD DUP1 SLOAD PUSH2 0x324E SWAP1 PUSH2 0x4DE2 JUMP JUMPDEST DUP1 PUSH1 0x1F ADD PUSH1 0x20 DUP1 SWAP2 DIV MUL PUSH1 0x20 ADD PUSH1 0x40 MLOAD SWAP1 DUP2 ADD PUSH1 0x40 MSTORE DUP1 SWAP3 SWAP2 SWAP1 DUP2 DUP2 MSTORE PUSH1 0x20 ADD DUP3 DUP1 SLOAD PUSH2 0x327A SWAP1 PUSH2 0x4DE2 JUMP JUMPDEST DUP1 ISZERO PUSH2 0x32C7 JUMPI DUP1 PUSH1 0x1F LT PUSH2 0x329C JUMPI PUSH2 0x100 DUP1 DUP4 SLOAD DIV MUL DUP4 MSTORE SWAP2 PUSH1 0x20 ADD SWAP2 PUSH2 0x32C7 JUMP JUMPDEST DUP3 ADD SWAP2 SWAP1 PUSH1 0x0 MSTORE PUSH1 0x20 PUSH1 0x0 KECCAK256 SWAP1 JUMPDEST DUP2 SLOAD DUP2 MSTORE SWAP1 PUSH1 0x1 ADD SWAP1 PUSH1 0x20 ADD DUP1 DUP4 GT PUSH2 0x32AA JUMPI DUP3 SWAP1 SUB PUSH1 0x1F AND DUP3 ADD SWAP2 JUMPDEST POP POP POP POP POP DUP2 MSTORE PUSH1 0x20 ADD PUSH1 0x1 DUP3 ADD DUP1 SLOAD PUSH2 0x32E0 SWAP1 PUSH2 0x4DE2 JUMP JUMPDEST DUP1 PUSH1 0x1F ADD PUSH1 0x20 DUP1 SWAP2 DIV MUL PUSH1 0x20 ADD PUSH1 0x40 MLOAD SWAP1 DUP2 ADD PUSH1 0x40 MSTORE DUP1 SWAP3 SWAP2 SWAP1 DUP2 DUP2 MSTORE PUSH1 0x20 ADD DUP3 DUP1 SLOAD PUSH2 0x330C SWAP1 PUSH2 0x4DE2 JUMP JUMPDEST DUP1 ISZERO PUSH2 0x3359 JUMPI DUP1 PUSH1 0x1F LT PUSH2 0x332E JUMPI PUSH2 0x100 DUP1 DUP4 SLOAD DIV MUL DUP4 MSTORE SWAP2 PUSH1 0x20 ADD SWAP2 PUSH2 0x3359 JUMP JUMPDEST DUP3 ADD SWAP2 SWAP1 PUSH1 0x0 MSTORE PUSH1 0x20 PUSH1 0x0 KECCAK256 SWAP1 JUMPDEST DUP2 SLOAD DUP2 MSTORE SWAP1 PUSH1 0x1 ADD SWAP1 PUSH1 0x20 ADD DUP1 DUP4 GT PUSH2 0x333C JUMPI DUP3 SWAP1 SUB PUSH1 0x1F AND DUP3 ADD SWAP2 JUMPDEST POP POP POP POP POP DUP2 MSTORE POP POP SWAP1 POP SWAP2 SWAP1 POP JUMP JUMPDEST PUSH1 0xB PUSH1 0x0 DUP3 PUSH20 0xFFFFFFFFFFFFFFFFFFFFFFFFFFFFFFFFFFFFFFFF AND PUSH20 0xFFFFFFFFFFFFFFFFFFFFFFFFFFFFFFFFFFFFFFFF AND DUP2 MSTORE PUSH1 0x20 ADD SWAP1 DUP2 MSTORE PUSH1 0x20 ADD PUSH1 0x0 KECCAK256 PUSH1 0x0 ADD PUSH1 0x3 SWAP1 SLOAD SWAP1 PUSH2 0x100 EXP SWAP1 DIV PUSH1 0xFF AND ISZERO PUSH2 0x33F9 JUMPI PUSH1 0x40 MLOAD PUSH32 0x8C379A000000000000000000000000000000000000000000000000000000000 DUP2 MSTORE PUSH1 0x4 ADD PUSH2 0x33F0 SWAP1 PUSH2 0x48AF JUMP JUMPDEST PUSH1 0x40 MLOAD DUP1 SWAP2 SUB SWAP1 REVERT JUMPDEST PUSH1 0x0 PUSH1 0x8 PUSH1 0x0 DUP4 PUSH20 0xFFFFFFFFFFFFFFFFFFFFFFFFFFFFFFFFFFFFFFFF AND PUSH20 0xFFFFFFFFFFFFFFFFFFFFFFFFFFFFFFFFFFFFFFFF AND DUP2 MSTORE PUSH1 0x20 ADD SWAP1 DUP2 MSTORE PUSH1 0x20 ADD PUSH1 0x0 KECCAK256 PUSH1 0x40 MLOAD DUP1 PUSH1 0xC0 ADD PUSH1 0x40 MSTORE SWAP1 DUP2 PUSH1 0x0 DUP3 ADD PUSH1 0x0 SWAP1 SLOAD SWAP1 PUSH2 0x100 EXP SWAP1 DIV PUSH20 0xFFFFFFFFFFFFFFFFFFFFFFFFFFFFFFFFFFFFFFFF AND PUSH20 0xFFFFFFFFFFFFFFFFFFFFFFFFFFFFFFFFFFFFFFFF AND PUSH20 0xFFFFFFFFFFFFFFFFFFFFFFFFFFFFFFFFFFFFFFFF AND DUP2 MSTORE PUSH1 0x20 ADD PUSH1 0x1 DUP3 ADD DUP1 SLOAD PUSH2 0x34AB SWAP1 PUSH2 0x4DE2 JUMP JUMPDEST DUP1 PUSH1 0x1F ADD PUSH1 0x20 DUP1 SWAP2 DIV MUL PUSH1 0x20 ADD PUSH1 0x40 MLOAD SWAP1 DUP2 ADD PUSH1 0x40 MSTORE DUP1 SWAP3 SWAP2 SWAP1 DUP2 DUP2 MSTORE PUSH1 0x20 ADD DUP3 DUP1 SLOAD PUSH2 0x34D7 SWAP1 PUSH2 0x4DE2 JUMP JUMPDEST DUP1 ISZERO PUSH2 0x3524 JUMPI DUP1 PUSH1 0x1F LT PUSH2 0x34F9 JUMPI PUSH2 0x100 DUP1 DUP4 SLOAD DIV MUL DUP4 MSTORE SWAP2 PUSH1 0x20 ADD SWAP2 PUSH2 0x3524 JUMP JUMPDEST DUP3 ADD SWAP2 SWAP1 PUSH1 0x0 MSTORE PUSH1 0x20 PUSH1 0x0 KECCAK256 SWAP1 JUMPDEST DUP2 SLOAD DUP2 MSTORE SWAP1 PUSH1 0x1 ADD SWAP1 PUSH1 0x20 ADD DUP1 DUP4 GT PUSH2 0x3507 JUMPI DUP3 SWAP1 SUB PUSH1 0x1F AND DUP3 ADD SWAP2 JUMPDEST POP POP POP POP POP DUP2 MSTORE PUSH1 0x20 ADD PUSH1 0x2 DUP3 ADD DUP1 SLOAD PUSH2 0x353D SWAP1 PUSH2 0x4DE2 JUMP JUMPDEST DUP1 PUSH1 0x1F ADD PUSH1 0x20 DUP1 SWAP2 DIV MUL PUSH1 0x20 ADD PUSH1 0x40 MLOAD SWAP1 DUP2 ADD PUSH1 0x40 MSTORE DUP1 SWAP3 SWAP2 SWAP1 DUP2 DUP2 MSTORE PUSH1 0x20 ADD DUP3 DUP1 SLOAD PUSH2 0x3569 SWAP1 PUSH2 0x4DE2 JUMP JUMPDEST DUP1 ISZERO PUSH2 0x35B6 JUMPI DUP1 PUSH1 0x1F LT PUSH2 0x358B JUMPI PUSH2 0x100 DUP1 DUP4 SLOAD DIV MUL DUP4 MSTORE SWAP2 PUSH1 0x20 ADD SWAP2 PUSH2 0x35B6 JUMP JUMPDEST DUP3 ADD SWAP2 SWAP1 PUSH1 0x0 MSTORE PUSH1 0x20 PUSH1 0x0 KECCAK256 SWAP1 JUMPDEST DUP2 SLOAD DUP2 MSTORE SWAP1 PUSH1 0x1 ADD SWAP1 PUSH1 0x20 ADD DUP1 DUP4 GT PUSH2 0x3599 JUMPI DUP3 SWAP1 SUB PUSH1 0x1F AND DUP3 ADD SWAP2 JUMPDEST POP POP POP POP POP DUP2 MSTORE PUSH1 0x20 ADD PUSH1 0x3 DUP3 ADD DUP1 SLOAD PUSH2 0x35CF SWAP1 PUSH2 0x4DE2 JUMP JUMPDEST DUP1 PUSH1 0x1F ADD PUSH1 0x20 DUP1 SWAP2 DIV MUL PUSH1 0x20 ADD PUSH1 0x40 MLOAD SWAP1 DUP2 ADD PUSH1 0x40 MSTORE DUP1 SWAP3 SWAP2 SWAP1 DUP2 DUP2 MSTORE PUSH1 0x20 ADD DUP3 DUP1 SLOAD PUSH2 0x35FB SWAP1 PUSH2 0x4DE2 JUMP JUMPDEST DUP1 ISZERO PUSH2 0x3648 JUMPI DUP1 PUSH1 0x1F LT PUSH2 0x361D JUMPI PUSH2 0x100 DUP1 DUP4 SLOAD DIV MUL DUP4 MSTORE SWAP2 PUSH1 0x20 ADD SWAP2 PUSH2 0x3648 JUMP JUMPDEST DUP3 ADD SWAP2 SWAP1 PUSH1 0x0 MSTORE PUSH1 0x20 PUSH1 0x0 KECCAK256 SWAP1 JUMPDEST DUP2 SLOAD DUP2 MSTORE SWAP1 PUSH1 0x1 ADD SWAP1 PUSH1 0x20 ADD DUP1 DUP4 GT PUSH2 0x362B JUMPI DUP3 SWAP1 SUB PUSH1 0x1F AND DUP3 ADD SWAP2 JUMPDEST POP POP POP POP POP DUP2 MSTORE PUSH1 0x20 ADD PUSH1 0x4 DUP3 ADD DUP1 SLOAD PUSH2 0x3661 SWAP1 PUSH2 0x4DE2 JUMP JUMPDEST DUP1 PUSH1 0x1F ADD PUSH1 0x20 DUP1 SWAP2 DIV MUL PUSH1 0x20 ADD PUSH1 0x40 MLOAD SWAP1 DUP2 ADD PUSH1 0x40 MSTORE DUP1 SWAP3 SWAP2 SWAP1 DUP2 DUP2 MSTORE PUSH1 0x20 ADD DUP3 DUP1 SLOAD PUSH2 0x368D SWAP1 PUSH2 0x4DE2 JUMP JUMPDEST DUP1 ISZERO PUSH2 0x36DA JUMPI DUP1 PUSH1 0x1F LT PUSH2 0x36AF JUMPI PUSH2 0x100 DUP1 DUP4 SLOAD DIV MUL DUP4 MSTORE SWAP2 PUSH1 0x20 ADD SWAP2 PUSH2 0x36DA JUMP JUMPDEST DUP3 ADD SWAP2 SWAP1 PUSH1 0x0 MSTORE PUSH1 0x20 PUSH1 0x0 KECCAK256 SWAP1 JUMPDEST DUP2 SLOAD DUP2 MSTORE SWAP1 PUSH1 0x1 ADD SWAP1 PUSH1 0x20 ADD DUP1 DUP4 GT PUSH2 0x36BD JUMPI DUP3 SWAP1 SUB PUSH1 0x1F AND DUP3 ADD SWAP2 JUMPDEST POP POP POP POP POP DUP2 MSTORE PUSH1 0x20 ADD PUSH1 0x5 DUP3 ADD SLOAD DUP2 MSTORE POP POP SWAP1 POP DUP1 PUSH1 0xA0 ADD MLOAD DUP4 PUSH1 0x40 MLOAD PUSH1 0x20 ADD PUSH2 0x3705 SWAP2 SWAP1 PUSH2 0x4614 JUMP JUMPDEST PUSH1 0x40 MLOAD PUSH1 0x20 DUP2 DUP4 SUB SUB DUP2 MSTORE SWAP1 PUSH1 0x40 MSTORE DUP1 MLOAD SWAP1 PUSH1 0x20 ADD KECCAK256 EQ DUP1 ISZERO PUSH2 0x3777 JUMPI POP DUP1 PUSH1 0x40 ADD MLOAD PUSH1 0x40 MLOAD PUSH1 0x20 ADD PUSH2 0x3738 SWAP2 SWAP1 PUSH2 0x4614 JUMP JUMPDEST PUSH1 0x40 MLOAD PUSH1 0x20 DUP2 DUP4 SUB SUB DUP2 MSTORE SWAP1 PUSH1 0x40 MSTORE DUP1 MLOAD SWAP1 PUSH1 0x20 ADD KECCAK256 DUP5 PUSH1 0x40 MLOAD PUSH1 0x20 ADD PUSH2 0x375F SWAP2 SWAP1 PUSH2 0x4614 JUMP JUMPDEST PUSH1 0x40 MLOAD PUSH1 0x20 DUP2 DUP4 SUB SUB DUP2 MSTORE SWAP1 PUSH1 0x40 MSTORE DUP1 MLOAD SWAP1 PUSH1 0x20 ADD KECCAK256 EQ JUMPDEST PUSH2 0x37B6 JUMPI PUSH1 0x40 MLOAD PUSH32 0x8C379A000000000000000000000000000000000000000000000000000000000 DUP2 MSTORE PUSH1 0x4 ADD PUSH2 0x37AD SWAP1 PUSH2 0x48CF JUMP JUMPDEST PUSH1 0x40 MLOAD DUP1 SWAP2 SUB SWAP1 REVERT JUMPDEST DUP2 PUSH20 0xFFFFFFFFFFFFFFFFFFFFFFFFFFFFFFFFFFFFFFFF AND PUSH32 0x48E252D5E4F0EB06F35F4B2D35D1C46D725D11D87B685253169FA84A995E141 PUSH1 0x40 MLOAD PUSH1 0x40 MLOAD DUP1 SWAP2 SUB SWAP1 LOG2 POP POP POP POP JUMP JUMPDEST PUSH1 0x40 MLOAD DUP1 PUSH1 0x80 ADD PUSH1 0x40 MSTORE DUP1 PUSH1 0x1 ISZERO ISZERO DUP2 MSTORE PUSH1 0x20 ADD PUSH1 0x0 ISZERO ISZERO DUP2 MSTORE PUSH1 0x20 ADD PUSH1 0x0 ISZERO ISZERO DUP2 MSTORE PUSH1 0x20 ADD PUSH1 0x0 ISZERO ISZERO DUP2 MSTORE POP PUSH1 0xB PUSH1 0x0 DUP4 PUSH20 0xFFFFFFFFFFFFFFFFFFFFFFFFFFFFFFFFFFFFFFFF AND PUSH20 0xFFFFFFFFFFFFFFFFFFFFFFFFFFFFFFFFFFFFFFFF AND DUP2 MSTORE PUSH1 0x20 ADD SWAP1 DUP2 MSTORE PUSH1 0x20 ADD PUSH1 0x0 KECCAK256 PUSH1 0x0 DUP3 ADD MLOAD DUP2 PUSH1 0x0 ADD PUSH1 0x0 PUSH2 0x100 EXP DUP2 SLOAD DUP2 PUSH1 0xFF MUL NOT AND SWAP1 DUP4 ISZERO ISZERO MUL OR SWAP1 SSTORE POP PUSH1 0x20 DUP3 ADD MLOAD DUP2 PUSH1 0x0 ADD PUSH1 0x1 PUSH2 0x100 EXP DUP2 SLOAD DUP2 PUSH1 0xFF MUL NOT AND SWAP1 DUP4 ISZERO ISZERO MUL OR SWAP1 SSTORE POP PUSH1 0x40 DUP3 ADD MLOAD DUP2 PUSH1 0x0 ADD PUSH1 0x2 PUSH2 0x100 EXP DUP2 SLOAD DUP2 PUSH1 0xFF MUL NOT AND SWAP1 DUP4 ISZERO ISZERO MUL OR SWAP1 SSTORE POP PUSH1 0x60 DUP3 ADD MLOAD DUP2 PUSH1 0x0 ADD PUSH1 0x3 PUSH2 0x100 EXP DUP2 SLOAD DUP2 PUSH1 0xFF MUL NOT AND SWAP1 DUP4 ISZERO ISZERO MUL OR SWAP1 SSTORE POP SWAP1 POP POP POP JUMP JUMPDEST PUSH1 0x1 DUP1 PUSH1 0x0 ADD SLOAD SWAP1 DUP1 PUSH1 0x1 ADD DUP1 SLOAD PUSH2 0x3908 SWAP1 PUSH2 0x4DE2 JUMP JUMPDEST DUP1 PUSH1 0x1F ADD PUSH1 0x20 DUP1 SWAP2 DIV MUL PUSH1 0x20 ADD PUSH1 0x40 MLOAD SWAP1 DUP2 ADD PUSH1 0x40 MSTORE DUP1 SWAP3 SWAP2 SWAP1 DUP2 DUP2 MSTORE PUSH1 0x20 ADD DUP3 DUP1 SLOAD PUSH2 0x3934 SWAP1 PUSH2 0x4DE2 JUMP JUMPDEST DUP1 ISZERO PUSH2 0x3981 JUMPI DUP1 PUSH1 0x1F LT PUSH2 0x3956 JUMPI PUSH2 0x100 DUP1 DUP4 SLOAD DIV MUL DUP4 MSTORE SWAP2 PUSH1 0x20 ADD SWAP2 PUSH2 0x3981 JUMP JUMPDEST DUP3 ADD SWAP2 SWAP1 PUSH1 0x0 MSTORE PUSH1 0x20 PUSH1 0x0 KECCAK256 SWAP1 JUMPDEST DUP2 SLOAD DUP2 MSTORE SWAP1 PUSH1 0x1 ADD SWAP1 PUSH1 0x20 ADD DUP1 DUP4 GT PUSH2 0x3964 JUMPI DUP3 SWAP1 SUB PUSH1 0x1F AND DUP3 ADD SWAP2 JUMPDEST POP POP POP POP POP SWAP1 DUP1 PUSH1 0x2 ADD SLOAD SWAP1 DUP1 PUSH1 0x3 ADD PUSH1 0x0 SWAP1 SLOAD SWAP1 PUSH2 0x100 EXP SWAP1 DIV PUSH20 0xFFFFFFFFFFFFFFFFFFFFFFFFFFFFFFFFFFFFFFFF AND SWAP1 POP DUP5 JUMP JUMPDEST PUSH1 0x0 PUSH1 0x6 PUSH1 0x0 DUP4 PUSH20 0xFFFFFFFFFFFFFFFFFFFFFFFFFFFFFFFFFFFFFFFF AND PUSH20 0xFFFFFFFFFFFFFFFFFFFFFFFFFFFFFFFFFFFFFFFF AND DUP2 MSTORE PUSH1 0x20 ADD SWAP1 DUP2 MSTORE PUSH1 0x20 ADD PUSH1 0x0 KECCAK256 PUSH1 0x0 SWAP1 SLOAD SWAP1 PUSH2 0x100 EXP SWAP1 DIV PUSH1 0xFF AND SWAP1 POP SWAP2 SWAP1 POP JUMP JUMPDEST PUSH1 0x0 PUSH1 0xB PUSH1 0x0 DUP4 PUSH20 0xFFFFFFFFFFFFFFFFFFFFFFFFFFFFFFFFFFFFFFFF AND PUSH20 0xFFFFFFFFFFFFFFFFFFFFFFFFFFFFFFFFFFFFFFFF AND DUP2 MSTORE PUSH1 0x20 ADD SWAP1 DUP2 MSTORE PUSH1 0x20 ADD PUSH1 0x0 KECCAK256 PUSH1 0x0 ADD PUSH1 0x3 SWAP1 SLOAD SWAP1 PUSH2 0x100 EXP SWAP1 DIV PUSH1 0xFF AND SWAP1 POP SWAP2 SWAP1 POP JUMP JUMPDEST PUSH1 0x0 DUP1 PUSH1 0x14 SWAP1 SLOAD SWAP1 PUSH2 0x100 EXP SWAP1 DIV PUSH1 0xFF AND ISZERO PUSH2 0x3AB7 JUMPI PUSH1 0x40 MLOAD PUSH32 0x8C379A000000000000000000000000000000000000000000000000000000000 DUP2 MSTORE PUSH1 0x4 ADD PUSH2 0x3AAE SWAP1 PUSH2 0x48EF JUMP JUMPDEST PUSH1 0x40 MLOAD DUP1 SWAP2 SUB SWAP1 REVERT JUMPDEST PUSH1 0x1 PUSH1 0x2 ADD SLOAD SWAP1 POP SWAP1 JUMP JUMPDEST PUSH1 0x7 PUSH1 0x20 MSTORE DUP1 PUSH1 0x0 MSTORE PUSH1 0x40 PUSH1 0x0 KECCAK256 PUSH1 0x0 SWAP2 POP SWAP1 POP SLOAD DUP2 JUMP JUMPDEST PUSH1 0x0 PUSH1 0x14 SWAP1 SLOAD SWAP1 PUSH2 0x100 EXP SWAP1 DIV PUSH1 0xFF AND DUP2 JUMP JUMPDEST PUSH1 0x0 DUP1 DUP3 PUSH1 0x40 MLOAD PUSH1 0x20 ADD PUSH2 0x3B01 SWAP2 SWAP1 PUSH2 0x4614 JUMP JUMPDEST PUSH1 0x40 MLOAD PUSH1 0x20 DUP2 DUP4 SUB SUB DUP2 MSTORE SWAP1 PUSH1 0x40 MSTORE DUP1 MLOAD SWAP1 PUSH1 0x20 ADD KECCAK256 SWAP1 POP DUP1 SWAP2 POP POP SWAP2 SWAP1 POP JUMP JUMPDEST DUP3 DUP1 SLOAD PUSH2 0x3B2E SWAP1 PUSH2 0x4DE2 JUMP JUMPDEST SWAP1 PUSH1 0x0 MSTORE PUSH1 0x20 PUSH1 0x0 KECCAK256 SWAP1 PUSH1 0x1F ADD PUSH1 0x20 SWAP1 DIV DUP2 ADD SWAP3 DUP3 PUSH2 0x3B50 JUMPI PUSH1 0x0 DUP6 SSTORE PUSH2 0x3B97 JUMP JUMPDEST DUP3 PUSH1 0x1F LT PUSH2 0x3B69 JUMPI DUP1 MLOAD PUSH1 0xFF NOT AND DUP4 DUP1 ADD OR DUP6 SSTORE PUSH2 0x3B97 JUMP JUMPDEST DUP3 DUP1 ADD PUSH1 0x1 ADD DUP6 SSTORE DUP3 ISZERO PUSH2 0x3B97 JUMPI SWAP2 DUP3 ADD JUMPDEST DUP3 DUP2 GT ISZERO PUSH2 0x3B96 JUMPI DUP3 MLOAD DUP3 SSTORE SWAP2 PUSH1 0x20 ADD SWAP2 SWAP1 PUSH1 0x1 ADD SWAP1 PUSH2 0x3B7B JUMP JUMPDEST JUMPDEST POP SWAP1 POP PUSH2 0x3BA4 SWAP2 SWAP1 PUSH2 0x3C22 JUMP JUMPDEST POP SWAP1 JUMP JUMPDEST PUSH1 0x40 MLOAD DUP1 PUSH1 0x80 ADD PUSH1 0x40 MSTORE DUP1 PUSH1 0x0 ISZERO ISZERO DUP2 MSTORE PUSH1 0x20 ADD PUSH1 0x0 ISZERO ISZERO DUP2 MSTORE PUSH1 0x20 ADD PUSH1 0x0 ISZERO ISZERO DUP2 MSTORE PUSH1 0x20 ADD PUSH1 0x0 ISZERO ISZERO DUP2 MSTORE POP SWAP1 JUMP JUMPDEST PUSH1 0x40 MLOAD DUP1 PUSH1 0x40 ADD PUSH1 0x40 MSTORE DUP1 PUSH1 0x60 DUP2 MSTORE PUSH1 0x20 ADD PUSH1 0x60 DUP2 MSTORE POP SWAP1 JUMP JUMPDEST PUSH1 0x40 MLOAD DUP1 PUSH1 0x80 ADD PUSH1 0x40 MSTORE DUP1 PUSH1 0x0 ISZERO ISZERO DUP2 MSTORE PUSH1 0x20 ADD PUSH1 0x0 ISZERO ISZERO DUP2 MSTORE PUSH1 0x20 ADD PUSH1 0x0 ISZERO ISZERO DUP2 MSTORE PUSH1 0x20 ADD PUSH1 0x0 ISZERO ISZERO DUP2 MSTORE POP SWAP1 JUMP JUMPDEST JUMPDEST DUP1 DUP3 GT ISZERO PUSH2 0x3C3B JUMPI PUSH1 0x0 DUP2 PUSH1 0x0 SWAP1 SSTORE POP PUSH1 0x1 ADD PUSH2 0x3C23 JUMP JUMPDEST POP SWAP1 JUMP JUMPDEST PUSH1 0x0 PUSH2 0x3C52 PUSH2 0x3C4D DUP5 PUSH2 0x4C5C JUMP JUMPDEST PUSH2 0x4C2B JUMP JUMPDEST SWAP1 POP DUP3 DUP2 MSTORE PUSH1 0x20 DUP2 ADD DUP5 DUP5 DUP5 ADD GT ISZERO PUSH2 0x3C6A JUMPI PUSH1 0x0 DUP1 REVERT JUMPDEST PUSH2 0x3C75 DUP5 DUP3 DUP6 PUSH2 0x4DA0 JUMP JUMPDEST POP SWAP4 SWAP3 POP POP POP JUMP JUMPDEST PUSH1 0x0 DUP2 CALLDATALOAD SWAP1 POP PUSH2 0x3C8C DUP2 PUSH2 0x4EFB JUMP JUMPDEST SWAP3 SWAP2 POP POP JUMP JUMPDEST PUSH1 0x0 DUP3 PUSH1 0x1F DUP4 ADD SLT PUSH2 0x3CA3 JUMPI PUSH1 0x0 DUP1 REVERT JUMPDEST DUP2 CALLDATALOAD PUSH2 0x3CB3 DUP5 DUP3 PUSH1 0x20 DUP7 ADD PUSH2 0x3C3F JUMP JUMPDEST SWAP2 POP POP SWAP3 SWAP2 POP POP JUMP JUMPDEST PUSH1 0x0 DUP2 CALLDATALOAD SWAP1 POP PUSH2 0x3CCB DUP2 PUSH2 0x4F12 JUMP JUMPDEST SWAP3 SWAP2 POP POP JUMP JUMPDEST PUSH1 0x0 PUSH1 0x20 DUP3 DUP5 SUB SLT ISZERO PUSH2 0x3CE3 JUMPI PUSH1 0x0 DUP1 REVERT JUMPDEST PUSH1 0x0 PUSH2 0x3CF1 DUP5 DUP3 DUP6 ADD PUSH2 0x3C7D JUMP JUMPDEST SWAP2 POP POP SWAP3 SWAP2 POP POP JUMP JUMPDEST PUSH1 0x0 DUP1 PUSH1 0x0 PUSH1 0x60 DUP5 DUP7 SUB SLT ISZERO PUSH2 0x3D0F JUMPI PUSH1 0x0 DUP1 REVERT JUMPDEST PUSH1 0x0 PUSH2 0x3D1D DUP7 DUP3 DUP8 ADD PUSH2 0x3C7D JUMP JUMPDEST SWAP4 POP POP PUSH1 0x20 DUP5 ADD CALLDATALOAD PUSH8 0xFFFFFFFFFFFFFFFF DUP2 GT ISZERO PUSH2 0x3D3A JUMPI PUSH1 0x0 DUP1 REVERT JUMPDEST PUSH2 0x3D46 DUP7 DUP3 DUP8 ADD PUSH2 0x3C92 JUMP JUMPDEST SWAP3 POP POP PUSH1 0x40 DUP5 ADD CALLDATALOAD PUSH8 0xFFFFFFFFFFFFFFFF DUP2 GT ISZERO PUSH2 0x3D63 JUMPI PUSH1 0x0 DUP1 REVERT JUMPDEST PUSH2 0x3D6F DUP7 DUP3 DUP8 ADD PUSH2 0x3C92 JUMP JUMPDEST SWAP2 POP POP SWAP3 POP SWAP3 POP SWAP3 JUMP JUMPDEST PUSH1 0x0 DUP1 PUSH1 0x0 DUP1 PUSH1 0x0 DUP1 PUSH1 0xC0 DUP8 DUP10 SUB SLT ISZERO PUSH2 0x3D92 JUMPI PUSH1 0x0 DUP1 REVERT JUMPDEST PUSH1 0x0 DUP8 ADD CALLDATALOAD PUSH8 0xFFFFFFFFFFFFFFFF DUP2 GT ISZERO PUSH2 0x3DAC JUMPI PUSH1 0x0 DUP1 REVERT JUMPDEST PUSH2 0x3DB8 DUP10 DUP3 DUP11 ADD PUSH2 0x3C92 JUMP JUMPDEST SWAP7 POP POP PUSH1 0x20 PUSH2 0x3DC9 DUP10 DUP3 DUP11 ADD PUSH2 0x3C7D JUMP JUMPDEST SWAP6 POP POP PUSH1 0x40 DUP8 ADD CALLDATALOAD PUSH8 0xFFFFFFFFFFFFFFFF DUP2 GT ISZERO PUSH2 0x3DE6 JUMPI PUSH1 0x0 DUP1 REVERT JUMPDEST PUSH2 0x3DF2 DUP10 DUP3 DUP11 ADD PUSH2 0x3C92 JUMP JUMPDEST SWAP5 POP POP PUSH1 0x60 DUP8 ADD CALLDATALOAD PUSH8 0xFFFFFFFFFFFFFFFF DUP2 GT ISZERO PUSH2 0x3E0F JUMPI PUSH1 0x0 DUP1 REVERT JUMPDEST PUSH2 0x3E1B DUP10 DUP3 DUP11 ADD PUSH2 0x3C92 JUMP JUMPDEST SWAP4 POP POP PUSH1 0x80 DUP8 ADD CALLDATALOAD PUSH8 0xFFFFFFFFFFFFFFFF DUP2 GT ISZERO PUSH2 0x3E38 JUMPI PUSH1 0x0 DUP1 REVERT JUMPDEST PUSH2 0x3E44 DUP10 DUP3 DUP11 ADD PUSH2 0x3C92 JUMP JUMPDEST SWAP3 POP POP PUSH1 0xA0 DUP8 ADD CALLDATALOAD PUSH8 0xFFFFFFFFFFFFFFFF DUP2 GT ISZERO PUSH2 0x3E61 JUMPI PUSH1 0x0 DUP1 REVERT JUMPDEST PUSH2 0x3E6D DUP10 DUP3 DUP11 ADD PUSH2 0x3C92 JUMP JUMPDEST SWAP2 POP POP SWAP3 SWAP6 POP SWAP3 SWAP6 POP SWAP3 SWAP6 JUMP JUMPDEST PUSH1 0x0 DUP1 PUSH1 0x0 DUP1 PUSH1 0x0 DUP1 PUSH1 0x0 DUP1 PUSH2 0x100 DUP10 DUP12 SUB SLT ISZERO PUSH2 0x3E97 JUMPI PUSH1 0x0 DUP1 REVERT JUMPDEST PUSH1 0x0 DUP10 ADD CALLDATALOAD PUSH8 0xFFFFFFFFFFFFFFFF DUP2 GT ISZERO PUSH2 0x3EB1 JUMPI PUSH1 0x0 DUP1 REVERT JUMPDEST PUSH2 0x3EBD DUP12 DUP3 DUP13 ADD PUSH2 0x3C92 JUMP JUMPDEST SWAP9 POP POP PUSH1 0x20 PUSH2 0x3ECE DUP12 DUP3 DUP13 ADD PUSH2 0x3C7D JUMP JUMPDEST SWAP8 POP POP PUSH1 0x40 DUP10 ADD CALLDATALOAD PUSH8 0xFFFFFFFFFFFFFFFF DUP2 GT ISZERO PUSH2 0x3EEB JUMPI PUSH1 0x0 DUP1 REVERT JUMPDEST PUSH2 0x3EF7 DUP12 DUP3 DUP13 ADD PUSH2 0x3C92 JUMP JUMPDEST SWAP7 POP POP PUSH1 0x60 DUP10 ADD CALLDATALOAD PUSH8 0xFFFFFFFFFFFFFFFF DUP2 GT ISZERO PUSH2 0x3F14 JUMPI PUSH1 0x0 DUP1 REVERT JUMPDEST PUSH2 0x3F20 DUP12 DUP3 DUP13 ADD PUSH2 0x3C92 JUMP JUMPDEST SWAP6 POP POP PUSH1 0x80 PUSH2 0x3F31 DUP12 DUP3 DUP13 ADD PUSH2 0x3CBC JUMP JUMPDEST SWAP5 POP POP PUSH1 0xA0 DUP10 ADD CALLDATALOAD PUSH8 0xFFFFFFFFFFFFFFFF DUP2 GT ISZERO PUSH2 0x3F4E JUMPI PUSH1 0x0 DUP1 REVERT JUMPDEST PUSH2 0x3F5A DUP12 DUP3 DUP13 ADD PUSH2 0x3C92 JUMP JUMPDEST SWAP4 POP POP PUSH1 0xC0 DUP10 ADD CALLDATALOAD PUSH8 0xFFFFFFFFFFFFFFFF DUP2 GT ISZERO PUSH2 0x3F77 JUMPI PUSH1 0x0 DUP1 REVERT JUMPDEST PUSH2 0x3F83 DUP12 DUP3 DUP13 ADD PUSH2 0x3C92 JUMP JUMPDEST SWAP3 POP POP PUSH1 0xE0 DUP10 ADD CALLDATALOAD PUSH8 0xFFFFFFFFFFFFFFFF DUP2 GT ISZERO PUSH2 0x3FA0 JUMPI PUSH1 0x0 DUP1 REVERT JUMPDEST PUSH2 0x3FAC DUP12 DUP3 DUP13 ADD PUSH2 0x3C92 JUMP JUMPDEST SWAP2 POP POP SWAP3 SWAP6 SWAP9 POP SWAP3 SWAP6 SWAP9 SWAP1 SWAP4 SWAP7 POP JUMP JUMPDEST PUSH1 0x0 DUP1 PUSH1 0x0 PUSH1 0x60 DUP5 DUP7 SUB SLT ISZERO PUSH2 0x3FD1 JUMPI PUSH1 0x0 DUP1 REVERT JUMPDEST PUSH1 0x0 DUP5 ADD CALLDATALOAD PUSH8 0xFFFFFFFFFFFFFFFF DUP2 GT ISZERO PUSH2 0x3FEB JUMPI PUSH1 0x0 DUP1 REVERT JUMPDEST PUSH2 0x3FF7 DUP7 DUP3 DUP8 ADD PUSH2 0x3C92 JUMP JUMPDEST SWAP4 POP POP PUSH1 0x20 DUP5 ADD CALLDATALOAD PUSH8 0xFFFFFFFFFFFFFFFF DUP2 GT ISZERO PUSH2 0x4014 JUMPI PUSH1 0x0 DUP1 REVERT JUMPDEST PUSH2 0x4020 DUP7 DUP3 DUP8 ADD PUSH2 0x3C92 JUMP JUMPDEST SWAP3 POP POP PUSH1 0x40 PUSH2 0x4031 DUP7 DUP3 DUP8 ADD PUSH2 0x3C7D JUMP JUMPDEST SWAP2 POP POP SWAP3 POP SWAP3 POP SWAP3 JUMP JUMPDEST PUSH1 0x0 PUSH1 0x20 DUP3 DUP5 SUB SLT ISZERO PUSH2 0x404D JUMPI PUSH1 0x0 DUP1 REVERT JUMPDEST PUSH1 0x0 PUSH2 0x405B DUP5 DUP3 DUP6 ADD PUSH2 0x3CBC JUMP JUMPDEST SWAP2 POP POP SWAP3 SWAP2 POP POP JUMP JUMPDEST PUSH1 0x0 DUP1 PUSH1 0x40 DUP4 DUP6 SUB SLT ISZERO PUSH2 0x4077 JUMPI PUSH1 0x0 DUP1 REVERT JUMPDEST PUSH1 0x0 PUSH2 0x4085 DUP6 DUP3 DUP7 ADD PUSH2 0x3CBC JUMP JUMPDEST SWAP3 POP POP PUSH1 0x20 PUSH2 0x4096 DUP6 DUP3 DUP7 ADD PUSH2 0x3C7D JUMP JUMPDEST SWAP2 POP POP SWAP3 POP SWAP3 SWAP1 POP JUMP JUMPDEST PUSH2 0x40A9 DUP2 PUSH2 0x4D4E JUMP JUMPDEST DUP3 MSTORE POP POP JUMP JUMPDEST PUSH2 0x40B8 DUP2 PUSH2 0x4D60 JUMP JUMPDEST DUP3 MSTORE POP POP JUMP JUMPDEST PUSH2 0x40C7 DUP2 PUSH2 0x4D60 JUMP JUMPDEST DUP3 MSTORE POP POP JUMP JUMPDEST PUSH2 0x40D6 DUP2 PUSH2 0x4D6C JUMP JUMPDEST DUP3 MSTORE POP POP JUMP JUMPDEST PUSH1 0x0 PUSH2 0x40E7 DUP3 PUSH2 0x4C8C JUMP JUMPDEST PUSH2 0x40F1 DUP2 DUP6 PUSH2 0x4C97 JUMP JUMPDEST SWAP4 POP PUSH2 0x4101 DUP2 DUP6 PUSH1 0x20 DUP7 ADD PUSH2 0x4DAF JUMP JUMPDEST PUSH2 0x410A DUP2 PUSH2 0x4EEA JUMP JUMPDEST DUP5 ADD SWAP2 POP POP SWAP3 SWAP2 POP POP JUMP JUMPDEST PUSH1 0x0 PUSH2 0x4120 DUP3 PUSH2 0x4C8C JUMP JUMPDEST PUSH2 0x412A DUP2 DUP6 PUSH2 0x4CA8 JUMP JUMPDEST SWAP4 POP PUSH2 0x413A DUP2 DUP6 PUSH1 0x20 DUP7 ADD PUSH2 0x4DAF JUMP JUMPDEST PUSH2 0x4143 DUP2 PUSH2 0x4EEA JUMP JUMPDEST DUP5 ADD SWAP2 POP POP SWAP3 SWAP2 POP POP JUMP JUMPDEST PUSH1 0x0 PUSH2 0x4159 DUP3 PUSH2 0x4C8C JUMP JUMPDEST PUSH2 0x4163 DUP2 DUP6 PUSH2 0x4CB9 JUMP JUMPDEST SWAP4 POP PUSH2 0x4173 DUP2 DUP6 PUSH1 0x20 DUP7 ADD PUSH2 0x4DAF JUMP JUMPDEST DUP1 DUP5 ADD SWAP2 POP POP SWAP3 SWAP2 POP POP JUMP JUMPDEST PUSH1 0x0 PUSH2 0x418C PUSH1 0x17 DUP4 PUSH2 0x4CA8 JUMP JUMPDEST SWAP2 POP PUSH32 0x596F75206861766520616C726561647920766F7465642E000000000000000000 PUSH1 0x0 DUP4 ADD MSTORE PUSH1 0x20 DUP3 ADD SWAP1 POP SWAP2 SWAP1 POP JUMP JUMPDEST PUSH1 0x0 PUSH2 0x41CC PUSH1 0x2B DUP4 PUSH2 0x4CA8 JUMP JUMPDEST SWAP2 POP PUSH32 0x43616E6E6F74206465636C61726520726573756C74207768696C6520766F7469 PUSH1 0x0 DUP4 ADD MSTORE PUSH32 0x6E67206973206F70656E2E000000000000000000000000000000000000000000 PUSH1 0x20 DUP4 ADD MSTORE PUSH1 0x40 DUP3 ADD SWAP1 POP SWAP2 SWAP1 POP JUMP JUMPDEST PUSH1 0x0 PUSH2 0x4232 PUSH1 0x1E DUP4 PUSH2 0x4CA8 JUMP JUMPDEST SWAP2 POP PUSH32 0x766F74657273566F746572206973206E6F7420726567697374657265642E0000 PUSH1 0x0 DUP4 ADD MSTORE PUSH1 0x20 DUP3 ADD SWAP1 POP SWAP2 SWAP1 POP JUMP JUMPDEST PUSH1 0x0 PUSH2 0x4272 PUSH1 0x12 DUP4 PUSH2 0x4CA8 JUMP JUMPDEST SWAP2 POP PUSH32 0x496E636F72726563742070617373776F72640000000000000000000000000000 PUSH1 0x0 DUP4 ADD MSTORE PUSH1 0x20 DUP3 ADD SWAP1 POP SWAP2 SWAP1 POP JUMP JUMPDEST PUSH1 0x0 PUSH2 0x42B2 PUSH1 0x17 DUP4 PUSH2 0x4CA8 JUMP JUMPDEST SWAP2 POP PUSH32 0x456C656374696F6E206973207374696C6C206F70656E2E000000000000000000 PUSH1 0x0 DUP4 ADD MSTORE PUSH1 0x20 DUP3 ADD SWAP1 POP SWAP2 SWAP1 POP JUMP JUMPDEST PUSH1 0x0 PUSH2 0x42F2 PUSH1 0x27 DUP4 PUSH2 0x4CA8 JUMP JUMPDEST SWAP2 POP PUSH32 0x4E6F2063616E6469646174657320746F206465636C6172652061732074686520 PUSH1 0x0 DUP4 ADD MSTORE PUSH32 0x77696E6E65722E00000000000000000000000000000000000000000000000000 PUSH1 0x20 DUP4 ADD MSTORE PUSH1 0x40 DUP3 ADD SWAP1 POP SWAP2 SWAP1 POP JUMP JUMPDEST PUSH1 0x0 PUSH2 0x4358 PUSH1 0x29 DUP4 PUSH2 0x4CA8 JUMP JUMPDEST SWAP2 POP PUSH32 0x43616E206E6F74207265676973746572207768656E20456C656374696F6E2069 PUSH1 0x0 DUP4 ADD MSTORE PUSH32 0x732072756E6E696E670000000000000000000000000000000000000000000000 PUSH1 0x20 DUP4 ADD MSTORE PUSH1 0x40 DUP3 ADD SWAP1 POP SWAP2 SWAP1 POP JUMP JUMPDEST PUSH1 0x0 PUSH2 0x43BE PUSH1 0x27 DUP4 PUSH2 0x4CA8 JUMP JUMPDEST SWAP2 POP PUSH32 0x4F6E6C7920746865206F776E65722063616E20706572666F726D207468697320 PUSH1 0x0 DUP4 ADD MSTORE PUSH32 0x616374696F6E2E00000000000000000000000000000000000000000000000000 PUSH1 0x20 DUP4 ADD MSTORE PUSH1 0x40 DUP3 ADD SWAP1 POP SWAP2 SWAP1 POP JUMP JUMPDEST PUSH1 0x0 PUSH2 0x4424 PUSH1 0x15 DUP4 PUSH2 0x4CA8 JUMP JUMPDEST SWAP2 POP PUSH32 0x41646D696E20616C7265616479206578697374732E0000000000000000000000 PUSH1 0x0 DUP4 ADD MSTORE PUSH1 0x20 DUP3 ADD SWAP1 POP SWAP2 SWAP1 POP JUMP JUMPDEST PUSH1 0x0 PUSH2 0x4464 PUSH1 0x1C DUP4 PUSH2 0x4CA8 JUMP JUMPDEST SWAP2 POP PUSH32 0x566F74657220697320616C726561647920726567697374657265642E00000000 PUSH1 0x0 DUP4 ADD MSTORE PUSH1 0x20 DUP3 ADD SWAP1 POP SWAP2 SWAP1 POP JUMP JUMPDEST PUSH1 0x0 PUSH2 0x44A4 PUSH1 0x11 DUP4 PUSH2 0x4CA8 JUMP JUMPDEST SWAP2 POP PUSH32 0x566F74696E6720697320636C6F7365642E000000000000000000000000000000 PUSH1 0x0 DUP4 ADD MSTORE PUSH1 0x20 DUP3 ADD SWAP1 POP SWAP2 SWAP1 POP JUMP JUMPDEST PUSH1 0x0 PUSH2 0x44E4 PUSH1 0x15 DUP4 PUSH2 0x4CA8 JUMP JUMPDEST SWAP2 POP PUSH32 0x496E76616C69642063616E6469646174652049442E0000000000000000000000 PUSH1 0x0 DUP4 ADD MSTORE PUSH1 0x20 DUP3 ADD SWAP1 POP SWAP2 SWAP1 POP JUMP JUMPDEST PUSH1 0x80 DUP3 ADD PUSH1 0x0 DUP3 ADD MLOAD PUSH2 0x452D PUSH1 0x0 DUP6 ADD DUP3 PUSH2 0x40AF JUMP JUMPDEST POP PUSH1 0x20 DUP3 ADD MLOAD PUSH2 0x4540 PUSH1 0x20 DUP6 ADD DUP3 PUSH2 0x40AF JUMP JUMPDEST POP PUSH1 0x40 DUP3 ADD MLOAD PUSH2 0x4553 PUSH1 0x40 DUP6 ADD DUP3 PUSH2 0x40AF JUMP JUMPDEST POP PUSH1 0x60 DUP3 ADD MLOAD PUSH2 0x4566 PUSH1 0x60 DUP6 ADD DUP3 PUSH2 0x40AF JUMP JUMPDEST POP POP POP POP JUMP JUMPDEST PUSH1 0x0 PUSH1 0x40 DUP4 ADD PUSH1 0x0 DUP4 ADD MLOAD DUP5 DUP3 SUB PUSH1 0x0 DUP7 ADD MSTORE PUSH2 0x4589 DUP3 DUP3 PUSH2 0x40DC JUMP JUMPDEST SWAP2 POP POP PUSH1 0x20 DUP4 ADD MLOAD DUP5 DUP3 SUB PUSH1 0x20 DUP7 ADD MSTORE PUSH2 0x45A3 DUP3 DUP3 PUSH2 0x40DC JUMP JUMPDEST SWAP2 POP POP DUP1 SWAP2 POP POP SWAP3 SWAP2 POP POP JUMP JUMPDEST PUSH1 0x80 DUP3 ADD PUSH1 0x0 DUP3 ADD MLOAD PUSH2 0x45C6 PUSH1 0x0 DUP6 ADD DUP3 PUSH2 0x40AF JUMP JUMPDEST POP PUSH1 0x20 DUP3 ADD MLOAD PUSH2 0x45D9 PUSH1 0x20 DUP6 ADD DUP3 PUSH2 0x40AF JUMP JUMPDEST POP PUSH1 0x40 DUP3 ADD MLOAD PUSH2 0x45EC PUSH1 0x40 DUP6 ADD DUP3 PUSH2 0x40AF JUMP JUMPDEST POP PUSH1 0x60 DUP3 ADD MLOAD PUSH2 0x45FF PUSH1 0x60 DUP6 ADD DUP3 PUSH2 0x40AF JUMP JUMPDEST POP POP POP POP JUMP JUMPDEST PUSH2 0x460E DUP2 PUSH2 0x4D96 JUMP JUMPDEST DUP3 MSTORE POP POP JUMP JUMPDEST PUSH1 0x0 PUSH2 0x4620 DUP3 DUP5 PUSH2 0x414E JUMP JUMPDEST SWAP2 POP DUP2 SWAP1 POP SWAP3 SWAP2 POP POP JUMP JUMPDEST PUSH1 0x0 PUSH1 0x20 DUP3 ADD SWAP1 POP PUSH2 0x4640 PUSH1 0x0 DUP4 ADD DUP5 PUSH2 0x40A0 JUMP JUMPDEST SWAP3 SWAP2 POP POP JUMP JUMPDEST PUSH1 0x0 PUSH1 0xC0 DUP3 ADD SWAP1 POP PUSH2 0x465B PUSH1 0x0 DUP4 ADD DUP10 PUSH2 0x40A0 JUMP JUMPDEST DUP2 DUP2 SUB PUSH1 0x20 DUP4 ADD MSTORE PUSH2 0x466D DUP2 DUP9 PUSH2 0x4115 JUMP JUMPDEST SWAP1 POP DUP2 DUP2 SUB PUSH1 0x40 DUP4 ADD MSTORE PUSH2 0x4681 DUP2 DUP8 PUSH2 0x4115 JUMP JUMPDEST SWAP1 POP DUP2 DUP2 SUB PUSH1 0x60 DUP4 ADD MSTORE PUSH2 0x4695 DUP2 DUP7 PUSH2 0x4115 JUMP JUMPDEST SWAP1 POP DUP2 DUP2 SUB PUSH1 0x80 DUP4 ADD MSTORE PUSH2 0x46A9 DUP2 DUP6 PUSH2 0x4115 JUMP JUMPDEST SWAP1 POP PUSH2 0x46B8 PUSH1 0xA0 DUP4 ADD DUP5 PUSH2 0x40CD JUMP JUMPDEST SWAP8 SWAP7 POP POP POP POP POP POP POP JUMP JUMPDEST PUSH1 0x0 PUSH1 0x20 DUP3 ADD SWAP1 POP PUSH2 0x46D8 PUSH1 0x0 DUP4 ADD DUP5 PUSH2 0x40BE JUMP JUMPDEST SWAP3 SWAP2 POP POP JUMP JUMPDEST PUSH1 0x0 PUSH1 0x20 DUP3 ADD SWAP1 POP DUP2 DUP2 SUB PUSH1 0x0 DUP4 ADD MSTORE PUSH2 0x46F8 DUP2 DUP5 PUSH2 0x4115 JUMP JUMPDEST SWAP1 POP SWAP3 SWAP2 POP POP JUMP JUMPDEST PUSH1 0x0 PUSH1 0xA0 DUP3 ADD SWAP1 POP DUP2 DUP2 SUB PUSH1 0x0 DUP4 ADD MSTORE PUSH2 0x471A DUP2 DUP9 PUSH2 0x4115 JUMP JUMPDEST SWAP1 POP PUSH2 0x4729 PUSH1 0x20 DUP4 ADD DUP8 PUSH2 0x40A0 JUMP JUMPDEST DUP2 DUP2 SUB PUSH1 0x40 DUP4 ADD MSTORE PUSH2 0x473B DUP2 DUP7 PUSH2 0x4115 JUMP JUMPDEST SWAP1 POP DUP2 DUP2 SUB PUSH1 0x60 DUP4 ADD MSTORE PUSH2 0x474F DUP2 DUP6 PUSH2 0x4115 JUMP JUMPDEST SWAP1 POP DUP2 DUP2 SUB PUSH1 0x80 DUP4 ADD MSTORE PUSH2 0x4763 DUP2 DUP5 PUSH2 0x4115 JUMP JUMPDEST SWAP1 POP SWAP7 SWAP6 POP POP POP POP POP POP JUMP JUMPDEST PUSH1 0x0 PUSH1 0x80 DUP3 ADD SWAP1 POP DUP2 DUP2 SUB PUSH1 0x0 DUP4 ADD MSTORE PUSH2 0x4789 DUP2 DUP8 PUSH2 0x4115 JUMP JUMPDEST SWAP1 POP DUP2 DUP2 SUB PUSH1 0x20 DUP4 ADD MSTORE PUSH2 0x479D DUP2 DUP7 PUSH2 0x4115 JUMP JUMPDEST SWAP1 POP PUSH2 0x47AC PUSH1 0x40 DUP4 ADD DUP6 PUSH2 0x40A0 JUMP JUMPDEST PUSH2 0x47B9 PUSH1 0x60 DUP4 ADD DUP5 PUSH2 0x40BE JUMP JUMPDEST SWAP6 SWAP5 POP POP POP POP POP JUMP JUMPDEST PUSH1 0x0 PUSH1 0xC0 DUP3 ADD SWAP1 POP DUP2 DUP2 SUB PUSH1 0x0 DUP4 ADD MSTORE PUSH2 0x47DC DUP2 DUP10 PUSH2 0x4115 JUMP JUMPDEST SWAP1 POP DUP2 DUP2 SUB PUSH1 0x20 DUP4 ADD MSTORE PUSH2 0x47F0 DUP2 DUP9 PUSH2 0x4115 JUMP JUMPDEST SWAP1 POP DUP2 DUP2 SUB PUSH1 0x40 DUP4 ADD MSTORE PUSH2 0x4804 DUP2 DUP8 PUSH2 0x4115 JUMP JUMPDEST SWAP1 POP PUSH2 0x4813 PUSH1 0x60 DUP4 ADD DUP7 PUSH2 0x4605 JUMP JUMPDEST DUP2 DUP2 SUB PUSH1 0x80 DUP4 ADD MSTORE PUSH2 0x4825 DUP2 DUP6 PUSH2 0x4115 JUMP JUMPDEST SWAP1 POP PUSH2 0x4834 PUSH1 0xA0 DUP4 ADD DUP5 PUSH2 0x4605 JUMP JUMPDEST SWAP8 SWAP7 POP POP POP POP POP POP POP JUMP JUMPDEST PUSH1 0x0 PUSH1 0x40 DUP3 ADD SWAP1 POP DUP2 DUP2 SUB PUSH1 0x0 DUP4 ADD MSTORE PUSH2 0x4859 DUP2 DUP6 PUSH2 0x4115 JUMP JUMPDEST SWAP1 POP PUSH2 0x4868 PUSH1 0x20 DUP4 ADD DUP5 PUSH2 0x4605 JUMP JUMPDEST SWAP4 SWAP3 POP POP POP JUMP JUMPDEST PUSH1 0x0 PUSH1 0x20 DUP3 ADD SWAP1 POP DUP2 DUP2 SUB PUSH1 0x0 DUP4 ADD MSTORE PUSH2 0x4888 DUP2 PUSH2 0x417F JUMP JUMPDEST SWAP1 POP SWAP2 SWAP1 POP JUMP JUMPDEST PUSH1 0x0 PUSH1 0x20 DUP3 ADD SWAP1 POP DUP2 DUP2 SUB PUSH1 0x0 DUP4 ADD MSTORE PUSH2 0x48A8 DUP2 PUSH2 0x41BF JUMP JUMPDEST SWAP1 POP SWAP2 SWAP1 POP JUMP JUMPDEST PUSH1 0x0 PUSH1 0x20 DUP3 ADD SWAP1 POP DUP2 DUP2 SUB PUSH1 0x0 DUP4 ADD MSTORE PUSH2 0x48C8 DUP2 PUSH2 0x4225 JUMP JUMPDEST SWAP1 POP SWAP2 SWAP1 POP JUMP JUMPDEST PUSH1 0x0 PUSH1 0x20 DUP3 ADD SWAP1 POP DUP2 DUP2 SUB PUSH1 0x0 DUP4 ADD MSTORE PUSH2 0x48E8 DUP2 PUSH2 0x4265 JUMP JUMPDEST SWAP1 POP SWAP2 SWAP1 POP JUMP JUMPDEST PUSH1 0x0 PUSH1 0x20 DUP3 ADD SWAP1 POP DUP2 DUP2 SUB PUSH1 0x0 DUP4 ADD MSTORE PUSH2 0x4908 DUP2 PUSH2 0x42A5 JUMP JUMPDEST SWAP1 POP SWAP2 SWAP1 POP JUMP JUMPDEST PUSH1 0x0 PUSH1 0x20 DUP3 ADD SWAP1 POP DUP2 DUP2 SUB PUSH1 0x0 DUP4 ADD MSTORE PUSH2 0x4928 DUP2 PUSH2 0x42E5 JUMP JUMPDEST SWAP1 POP SWAP2 SWAP1 POP JUMP JUMPDEST PUSH1 0x0 PUSH1 0x20 DUP3 ADD SWAP1 POP DUP2 DUP2 SUB PUSH1 0x0 DUP4 ADD MSTORE PUSH2 0x4948 DUP2 PUSH2 0x434B JUMP JUMPDEST SWAP1 POP SWAP2 SWAP1 POP JUMP JUMPDEST PUSH1 0x0 PUSH1 0x20 DUP3 ADD SWAP1 POP DUP2 DUP2 SUB PUSH1 0x0 DUP4 ADD MSTORE PUSH2 0x4968 DUP2 PUSH2 0x43B1 JUMP JUMPDEST SWAP1 POP SWAP2 SWAP1 POP JUMP JUMPDEST PUSH1 0x0 PUSH1 0x20 DUP3 ADD SWAP1 POP DUP2 DUP2 SUB PUSH1 0x0 DUP4 ADD MSTORE PUSH2 0x4988 DUP2 PUSH2 0x4417 JUMP JUMPDEST SWAP1 POP SWAP2 SWAP1 POP JUMP JUMPDEST PUSH1 0x0 PUSH1 0x20 DUP3 ADD SWAP1 POP DUP2 DUP2 SUB PUSH1 0x0 DUP4 ADD MSTORE PUSH2 0x49A8 DUP2 PUSH2 0x4457 JUMP JUMPDEST SWAP1 POP SWAP2 SWAP1 POP JUMP JUMPDEST PUSH1 0x0 PUSH1 0x20 DUP3 ADD SWAP1 POP DUP2 DUP2 SUB PUSH1 0x0 DUP4 ADD MSTORE PUSH2 0x49C8 DUP2 PUSH2 0x4497 JUMP JUMPDEST SWAP1 POP SWAP2 SWAP1 POP JUMP JUMPDEST PUSH1 0x0 PUSH1 0x20 DUP3 ADD SWAP1 POP DUP2 DUP2 SUB PUSH1 0x0 DUP4 ADD MSTORE PUSH2 0x49E8 DUP2 PUSH2 0x44D7 JUMP JUMPDEST SWAP1 POP SWAP2 SWAP1 POP JUMP JUMPDEST PUSH1 0x0 PUSH1 0x80 DUP3 ADD SWAP1 POP PUSH2 0x4A04 PUSH1 0x0 DUP4 ADD DUP5 PUSH2 0x4517 JUMP JUMPDEST SWAP3 SWAP2 POP POP JUMP JUMPDEST PUSH1 0x0 PUSH1 0x20 DUP3 ADD SWAP1 POP DUP2 DUP2 SUB PUSH1 0x0 DUP4 ADD MSTORE PUSH2 0x4A24 DUP2 DUP5 PUSH2 0x456C JUMP JUMPDEST SWAP1 POP SWAP3 SWAP2 POP POP JUMP JUMPDEST PUSH1 0x0 PUSH1 0x80 DUP3 ADD SWAP1 POP PUSH2 0x4A41 PUSH1 0x0 DUP4 ADD DUP5 PUSH2 0x45B0 JUMP JUMPDEST SWAP3 SWAP2 POP POP JUMP JUMPDEST PUSH1 0x0 PUSH1 0x20 DUP3 ADD SWAP1 POP PUSH2 0x4A5C PUSH1 0x0 DUP4 ADD DUP5 PUSH2 0x4605 JUMP JUMPDEST SWAP3 SWAP2 POP POP JUMP JUMPDEST PUSH1 0x0 PUSH2 0x120 DUP3 ADD SWAP1 POP PUSH2 0x4A78 PUSH1 0x0 DUP4 ADD DUP13 PUSH2 0x4605 JUMP JUMPDEST DUP2 DUP2 SUB PUSH1 0x20 DUP4 ADD MSTORE PUSH2 0x4A8A DUP2 DUP12 PUSH2 0x4115 JUMP JUMPDEST SWAP1 POP PUSH2 0x4A99 PUSH1 0x40 DUP4 ADD DUP11 PUSH2 0x40A0 JUMP JUMPDEST DUP2 DUP2 SUB PUSH1 0x60 DUP4 ADD MSTORE PUSH2 0x4AAB DUP2 DUP10 PUSH2 0x4115 JUMP JUMPDEST SWAP1 POP DUP2 DUP2 SUB PUSH1 0x80 DUP4 ADD MSTORE PUSH2 0x4ABF DUP2 DUP9 PUSH2 0x4115 JUMP JUMPDEST SWAP1 POP PUSH2 0x4ACE PUSH1 0xA0 DUP4 ADD DUP8 PUSH2 0x4605 JUMP JUMPDEST DUP2 DUP2 SUB PUSH1 0xC0 DUP4 ADD MSTORE PUSH2 0x4AE0 DUP2 DUP7 PUSH2 0x4115 JUMP JUMPDEST SWAP1 POP DUP2 DUP2 SUB PUSH1 0xE0 DUP4 ADD MSTORE PUSH2 0x4AF4 DUP2 DUP6 PUSH2 0x4115 JUMP JUMPDEST SWAP1 POP DUP2 DUP2 SUB PUSH2 0x100 DUP4 ADD MSTORE PUSH2 0x4B09 DUP2 DUP5 PUSH2 0x4115 JUMP JUMPDEST SWAP1 POP SWAP11 SWAP10 POP POP POP POP POP POP POP POP POP POP JUMP JUMPDEST PUSH1 0x0 PUSH1 0x80 DUP3 ADD SWAP1 POP PUSH2 0x4B2E PUSH1 0x0 DUP4 ADD DUP8 PUSH2 0x4605 JUMP JUMPDEST DUP2 DUP2 SUB PUSH1 0x20 DUP4 ADD MSTORE PUSH2 0x4B40 DUP2 DUP7 PUSH2 0x4115 JUMP JUMPDEST SWAP1 POP PUSH2 0x4B4F PUSH1 0x40 DUP4 ADD DUP6 PUSH2 0x4605 JUMP JUMPDEST PUSH2 0x4B5C PUSH1 0x60 DUP4 ADD DUP5 PUSH2 0x40A0 JUMP JUMPDEST SWAP6 SWAP5 POP POP POP POP POP JUMP JUMPDEST PUSH1 0x0 PUSH2 0x140 DUP3 ADD SWAP1 POP PUSH2 0x4B7B PUSH1 0x0 DUP4 ADD DUP14 PUSH2 0x4605 JUMP JUMPDEST DUP2 DUP2 SUB PUSH1 0x20 DUP4 ADD MSTORE PUSH2 0x4B8D DUP2 DUP13 PUSH2 0x4115 JUMP JUMPDEST SWAP1 POP PUSH2 0x4B9C PUSH1 0x40 DUP4 ADD DUP12 PUSH2 0x4605 JUMP JUMPDEST PUSH2 0x4BA9 PUSH1 0x60 DUP4 ADD DUP11 PUSH2 0x40A0 JUMP JUMPDEST DUP2 DUP2 SUB PUSH1 0x80 DUP4 ADD MSTORE PUSH2 0x4BBB DUP2 DUP10 PUSH2 0x4115 JUMP JUMPDEST SWAP1 POP DUP2 DUP2 SUB PUSH1 0xA0 DUP4 ADD MSTORE PUSH2 0x4BCF DUP2 DUP9 PUSH2 0x4115 JUMP JUMPDEST SWAP1 POP PUSH2 0x4BDE PUSH1 0xC0 DUP4 ADD DUP8 PUSH2 0x4605 JUMP JUMPDEST DUP2 DUP2 SUB PUSH1 0xE0 DUP4 ADD MSTORE PUSH2 0x4BF0 DUP2 DUP7 PUSH2 0x4115 JUMP JUMPDEST SWAP1 POP DUP2 DUP2 SUB PUSH2 0x100 DUP4 ADD MSTORE PUSH2 0x4C05 DUP2 DUP6 PUSH2 0x4115 JUMP JUMPDEST SWAP1 POP DUP2 DUP2 SUB PUSH2 0x120 DUP4 ADD MSTORE PUSH2 0x4C1A DUP2 DUP5 PUSH2 0x4115 JUMP JUMPDEST SWAP1 POP SWAP12 SWAP11 POP POP POP POP POP POP POP POP POP POP POP JUMP JUMPDEST PUSH1 0x0 PUSH1 0x40 MLOAD SWAP1 POP DUP2 DUP2 ADD DUP2 DUP2 LT PUSH8 0xFFFFFFFFFFFFFFFF DUP3 GT OR ISZERO PUSH2 0x4C52 JUMPI PUSH2 0x4C51 PUSH2 0x4EBB JUMP JUMPDEST JUMPDEST DUP1 PUSH1 0x40 MSTORE POP SWAP2 SWAP1 POP JUMP JUMPDEST PUSH1 0x0 PUSH8 0xFFFFFFFFFFFFFFFF DUP3 GT ISZERO PUSH2 0x4C77 JUMPI PUSH2 0x4C76 PUSH2 0x4EBB JUMP JUMPDEST JUMPDEST PUSH1 0x1F NOT PUSH1 0x1F DUP4 ADD AND SWAP1 POP PUSH1 0x20 DUP2 ADD SWAP1 POP SWAP2 SWAP1 POP JUMP JUMPDEST PUSH1 0x0 DUP2 MLOAD SWAP1 POP SWAP2 SWAP1 POP JUMP JUMPDEST PUSH1 0x0 DUP3 DUP3 MSTORE PUSH1 0x20 DUP3 ADD SWAP1 POP SWAP3 SWAP2 POP POP JUMP JUMPDEST PUSH1 0x0 DUP3 DUP3 MSTORE PUSH1 0x20 DUP3 ADD SWAP1 POP SWAP3 SWAP2 POP POP JUMP JUMPDEST PUSH1 0x0 DUP2 SWAP1 POP SWAP3 SWAP2 POP POP JUMP JUMPDEST PUSH1 0x0 PUSH2 0x4CCF DUP3 PUSH2 0x4D96 JUMP JUMPDEST SWAP2 POP PUSH2 0x4CDA DUP4 PUSH2 0x4D96 JUMP JUMPDEST SWAP3 POP DUP3 PUSH32 0xFFFFFFFFFFFFFFFFFFFFFFFFFFFFFFFFFFFFFFFFFFFFFFFFFFFFFFFFFFFFFFFF SUB DUP3 GT ISZERO PUSH2 0x4D0F JUMPI PUSH2 0x4D0E PUSH2 0x4E5D JUMP JUMPDEST JUMPDEST DUP3 DUP3 ADD SWAP1 POP SWAP3 SWAP2 POP POP JUMP JUMPDEST PUSH1 0x0 PUSH2 0x4D25 DUP3 PUSH2 0x4D96 JUMP JUMPDEST SWAP2 POP PUSH2 0x4D30 DUP4 PUSH2 0x4D96 JUMP JUMPDEST SWAP3 POP DUP3 DUP3 LT ISZERO PUSH2 0x4D43 JUMPI PUSH2 0x4D42 PUSH2 0x4E5D JUMP JUMPDEST JUMPDEST DUP3 DUP3 SUB SWAP1 POP SWAP3 SWAP2 POP POP JUMP JUMPDEST PUSH1 0x0 PUSH2 0x4D59 DUP3 PUSH2 0x4D76 JUMP JUMPDEST SWAP1 POP SWAP2 SWAP1 POP JUMP JUMPDEST PUSH1 0x0 DUP2 ISZERO ISZERO SWAP1 POP SWAP2 SWAP1 POP JUMP JUMPDEST PUSH1 0x0 DUP2 SWAP1 POP SWAP2 SWAP1 POP JUMP JUMPDEST PUSH1 0x0 PUSH20 0xFFFFFFFFFFFFFFFFFFFFFFFFFFFFFFFFFFFFFFFF DUP3 AND SWAP1 POP SWAP2 SWAP1 POP JUMP JUMPDEST PUSH1 0x0 DUP2 SWAP1 POP SWAP2 SWAP1 POP JUMP JUMPDEST DUP3 DUP2 DUP4 CALLDATACOPY PUSH1 0x0 DUP4 DUP4 ADD MSTORE POP POP POP JUMP JUMPDEST PUSH1 0x0 JUMPDEST DUP4 DUP2 LT ISZERO PUSH2 0x4DCD JUMPI DUP1 DUP3 ADD MLOAD DUP2 DUP5 ADD MSTORE PUSH1 0x20 DUP2 ADD SWAP1 POP PUSH2 0x4DB2 JUMP JUMPDEST DUP4 DUP2 GT ISZERO PUSH2 0x4DDC JUMPI PUSH1 0x0 DUP5 DUP5 ADD MSTORE JUMPDEST POP POP POP POP JUMP JUMPDEST PUSH1 0x0 PUSH1 0x2 DUP3 DIV SWAP1 POP PUSH1 0x1 DUP3 AND DUP1 PUSH2 0x4DFA JUMPI PUSH1 0x7F DUP3 AND SWAP2 POP JUMPDEST PUSH1 0x20 DUP3 LT DUP2 EQ ISZERO PUSH2 0x4E0E JUMPI PUSH2 0x4E0D PUSH2 0x4E8C JUMP JUMPDEST JUMPDEST POP SWAP2 SWAP1 POP JUMP JUMPDEST PUSH1 0x0 PUSH2 0x4E1F DUP3 PUSH2 0x4D96 JUMP JUMPDEST SWAP2 POP PUSH32 0xFFFFFFFFFFFFFFFFFFFFFFFFFFFFFFFFFFFFFFFFFFFFFFFFFFFFFFFFFFFFFFFF DUP3 EQ ISZERO PUSH2 0x4E52 JUMPI PUSH2 0x4E51 PUSH2 0x4E5D JUMP JUMPDEST JUMPDEST PUSH1 0x1 DUP3 ADD SWAP1 POP SWAP2 SWAP1 POP JUMP JUMPDEST PUSH32 0x4E487B7100000000000000000000000000000000000000000000000000000000 PUSH1 0x0 MSTORE PUSH1 0x11 PUSH1 0x4 MSTORE PUSH1 0x24 PUSH1 0x0 REVERT JUMPDEST PUSH32 0x4E487B7100000000000000000000000000000000000000000000000000000000 PUSH1 0x0 MSTORE PUSH1 0x22 PUSH1 0x4 MSTORE PUSH1 0x24 PUSH1 0x0 REVERT JUMPDEST PUSH32 0x4E487B7100000000000000000000000000000000000000000000000000000000 PUSH1 0x0 MSTORE PUSH1 0x41 PUSH1 0x4 MSTORE PUSH1 0x24 PUSH1 0x0 REVERT JUMPDEST PUSH1 0x0 PUSH1 0x1F NOT PUSH1 0x1F DUP4 ADD AND SWAP1 POP SWAP2 SWAP1 POP JUMP JUMPDEST PUSH2 0x4F04 DUP2 PUSH2 0x4D4E JUMP JUMPDEST DUP2 EQ PUSH2 0x4F0F JUMPI PUSH1 0x0 DUP1 REVERT JUMPDEST POP JUMP JUMPDEST PUSH2 0x4F1B DUP2 PUSH2 0x4D96 JUMP JUMPDEST DUP2 EQ PUSH2 0x4F26 JUMPI PUSH1 0x0 DUP1 REVERT JUMPDEST POP JUMP INVALID LOG2 PUSH5 0x6970667358 0x22 SLT KECCAK256 CALLER 0xDB DUP3 XOR SAR PUSH23 0x4BAB437903EC3B5A32D8CD729BB6D516C9ECF30AB79C20 0xCA SAR 0xD6 PUSH5 0x736F6C6343 STOP ADDMOD STOP STOP CALLER "},"gasEstimates":{"creation":{"codeDepositCost":"4063800","executionCost":"67348","totalCost":"4131148"},"external":{"addAdmin(address,string,string)":"infinite","addCandidate(string,address,string,string,uint256,string,string,string)":"infinite","adminAccounts(uint256)":"2490","admins(address)":"infinite","candidates(uint256)":"infinite","candidatesRegistered(address)":"1591","checkHasVoted(address)":"1649","closeElection()":"22794","declareElectionResult()":"infinite","getCandidate(uint256)":"infinite","getCandidateInfo(address)":"infinite","getCandidateIpfsHash(address)":"infinite","getCandidatesCount()":"1278","getIsVotingOpen()":"1275","getOwner()":"1377","getResultsDeclared()":"1297","getVoterInfo(address)":"infinite","getVoterIpfsHash(address)":"infinite","getWinnerId()":"2162","getWinnerName()":"infinite","getWinnerVoteCount()":"2159","hasVoted(address)":"1636","isVoterRegistered(address)":"1727","isVotingOpen()":"1375","loginVoter(string,string,address)":"infinite","openElection()":"22772","owner()":"1279","registerVoter(string,address,string,string,string,string)":"infinite","registeredVoters(uint256)":"2491","resultsDeclared()":"1311","setCandidateBasic(address)":"84463","setCandidateFace(address)":"42526","setCandidateIpfsHash(address,string,string)":"infinite","setCandidateOtp(address)":"21557","setVoterBasic(address)":"84485","setVoterFace(address)":"42526","setVoterIpfsHash(address,string,string)":"infinite","setVoterOtp(address)":"21535","userVote(address)":"1646","vote(uint256,address)":"infinite","voters(address)":"infinite","winner()":"infinite"},"internal":{"hashPassword(string memory)":"infinite"}},"methodIdentifiers":{"addAdmin(address,string,string)":"5babf5ef","addCandidate(string,address,string,string,uint256,string,string,string)":"5f50e9f4","adminAccounts(uint256)":"a2addd68","admins(address)":"429b62e5","candidates(uint256)":"3477ee2e","candidatesRegistered(address)":"3fa85856","checkHasVoted(address)":"e35f8cef","closeElection()":"6c6c32d0","declareElectionResult()":"6c28fdb1","getCandidate(uint256)":"35b8e820","getCandidateInfo(address)":"28bde1e1","getCandidateIpfsHash(address)":"cf01723a","getCandidatesCount()":"bb9aa28f","getIsVotingOpen()":"8b55c27a","getOwner()":"893d20e8","getResultsDeclared()":"40bcb769","getVoterInfo(address)":"9ed1f255","getVoterIpfsHash(address)":"86fe13d4","getWinnerId()":"0aea6806","getWinnerName()":"2bfda515","getWinnerVoteCount()":"f31adac3","hasVoted(address)":"09eef43e","isVoterRegistered(address)":"eb2119db","isVotingOpen()":"fa7f1bae","loginVoter(string,string,address)":"d0b7c7ff","openElection()":"c5d00f5d","owner()":"8da5cb5b","registerVoter(string,address,string,string,string,string)":"040ca3bf","registeredVoters(uint256)":"2436e06b","resultsDeclared()":"965473bd","setCandidateBasic(address)":"6f75af6a","setCandidateFace(address)":"c0e1353e","setCandidateIpfsHash(address,string,string)":"3a7d77e0","setCandidateOtp(address)":"af5b2cc1","setVoterBasic(address)":"dcd2aa91","setVoterFace(address)":"66b54449","setVoterIpfsHash(address,string,string)":"b3fe99e5","setVoterOtp(address)":"a959f756","userVote(address)":"f5ba1c87","vote(uint256,address)":"02d947ef","voters(address)":"a3ec138d","winner()":"dfbf53ae"}},"storageLayout":{"storage":[{"astId":319,"contract":"contracts/Election.sol:Election","label":"owner","offset":0,"slot":"0","type":"t_address"},{"astId":321,"contract":"contracts/Election.sol:Election","label":"isVotingOpen","offset":20,"slot":"0","type":"t_bool"},{"astId":323,"contract":"contracts/Election.sol:Election","label":"resultsDeclared","offset":21,"slot":"0","type":"t_bool"},{"astId":335,"contract":"contracts/Election.sol:Election","label":"winner","offset":0,"slot":"1","type":"t_struct(Winner)332_storage"},{"astId":405,"contract":"contracts/Election.sol:Election","label":"candidates","offset":0,"slot":"5","type":"t_array(t_struct(Candidate)356_storage)dyn_storage"},{"astId":409,"contract":"contracts/Election.sol:Election","label":"hasVoted","offset":0,"slot":"6","type":"t_mapping(t_address,t_bool)"},{"astId":413,"contract":"contracts/Election.sol:Election","label":"userVote","offset":0,"slot":"7","type":"t_mapping(t_address,t_uint256)"},{"astId":418,"contract":"contracts/Election.sol:Election","label":"voters","offset":0,"slot":"8","type":"t_mapping(t_address,t_struct(Voter)369_storage)"},{"astId":421,"contract":"contracts/Election.sol:Election","label":"registeredVoters","offset":0,"slot":"9","type":"t_array(t_address)dyn_storage"},{"astId":426,"contract":"contracts/Election.sol:Election","label":"voterIpfsHash","offset":0,"slot":"10","type":"t_mapping(t_address,t_struct(IpfsHash)383_storage)"},{"astId":431,"contract":"contracts/Election.sol:Election","label":"voterInfo","offset":0,"slot":"11","type":"t_mapping(t_address,t_struct(VoterRegistrationInfo)392_storage)"},{"astId":435,"contract":"contracts/Election.sol:Election","label":"candidatesRegistered","offset":0,"slot":"12","type":"t_mapping(t_address,t_bool)"},{"astId":440,"contract":"contracts/Election.sol:Election","label":"candidateIpfsHash","offset":0,"slot":"13","type":"t_mapping(t_address,t_struct(IpfsHash)383_storage)"},{"astId":445,"contract":"contracts/Election.sol:Election","label":"candidateInfo","offset":0,"slot":"14","type":"t_mapping(t_address,t_struct(CandidateRegistrationInfo)401_storage)"},{"astId":450,"contract":"contracts/Election.sol:Election","label":"admins","offset":0,"slot":"15","type":"t_mapping(t_address,t_struct(Admin)378_storage)"},{"astId":453,"contract":"contracts/Election.sol:Election","label":"adminAccounts","offset":0,"slot":"16","type":"t_array(t_address)dyn_storage"}],"types":{"t_address":{"encoding":"inplace","label":"address","numberOfBytes":"20"},"t_array(t_address)dyn_storage":{"base":"t_address","encoding":"dynamic_array","label":"address[]","numberOfBytes":"32"},"t_array(t_struct(Candidate)356_storage)dyn_storage":{"base":"t_struct(Candidate)356_storage","encoding":"dynamic_array","label":"struct Election.Candidate[]","numberOfBytes":"32"},"t_bool":{"encoding":"inplace","label":"bool","numberOfBytes":"1"},"t_bytes32":{"encoding":"inplace","label":"bytes32","numberOfBytes":"32"},"t_mapping(t_address,t_bool)":{"encoding":"mapping","key":"t_address","label":"mapping(address => bool)","numberOfBytes":"32","value":"t_bool"},"t_mapping(t_address,t_struct(Admin)378_storage)":{"encoding":"mapping","key":"t_address","label":"mapping(address => struct Election.Admin)","numberOfBytes":"32","value":"t_struct(Admin)378_storage"},"t_mapping(t_address,t_struct(CandidateRegistrationInfo)401_storage)":{"encoding":"mapping","key":"t_address","label":"mapping(address => struct Election.CandidateRegistrationInfo)","numberOfBytes":"32","value":"t_struct(CandidateRegistrationInfo)401_storage"},"t_mapping(t_address,t_struct(IpfsHash)383_storage)":{"encoding":"mapping","key":"t_address","label":"mapping(address => struct Election.IpfsHash)","numberOfBytes":"32","value":"t_struct(IpfsHash)383_storage"},"t_mapping(t_address,t_struct(Voter)369_storage)":{"encoding":"mapping","key":"t_address","label":"mapping(address => struct Election.Voter)","numberOfBytes":"32","value":"t_struct(Voter)369_storage"},"t_mapping(t_address,t_struct(VoterRegistrationInfo)392_storage)":{"encoding":"mapping","key":"t_address","label":"mapping(address => struct Election.VoterRegistrationInfo)","numberOfBytes":"32","value":"t_struct(VoterRegistrationInfo)392_storage"},"t_mapping(t_address,t_uint256)":{"encoding":"mapping","key":"t_address","label":"mapping(address => uint256)","numberOfBytes":"32","value":"t_uint256"},"t_string_storage":{"encoding":"bytes","label":"string","numberOfBytes":"32"},"t_struct(Admin)378_storage":{"encoding":"inplace","label":"struct Election.Admin","members":[{"astId":371,"contract":"contracts/Election.sol:Election","label":"name","offset":0,"slot":"0","type":"t_string_storage"},{"astId":373,"contract":"contracts/Election.sol:Election","label":"email","offset":0,"slot":"1","type":"t_string_storage"},{"astId":375,"contract":"contracts/Election.sol:Election","label":"ethereumAddress","offset":0,"slot":"2","type":"t_address"},{"astId":377,"contract":"contracts/Election.sol:Election","label":"isAdmin","offset":20,"slot":"2","type":"t_bool"}],"numberOfBytes":"96"},"t_struct(Candidate)356_storage":{"encoding":"inplace","label":"struct Election.Candidate","members":[{"astId":337,"contract":"contracts/Election.sol:Election","label":"id","offset":0,"slot":"0","type":"t_uint256"},{"astId":339,"contract":"contracts/Election.sol:Election","label":"name","offset":0,"slot":"1","type":"t_string_storage"},{"astId":341,"contract":"contracts/Election.sol:Election","label":"voteCount","offset":0,"slot":"2","type":"t_uint256"},{"astId":343,"contract":"contracts/Election.sol:Election","label":"ethereumAddress","offset":0,"slot":"3","type":"t_address"},{"astId":345,"contract":"contracts/Election.sol:Election","label":"email","offset":0,"slot":"4","type":"t_string_storage"},{"astId":347,"contract":"contracts/Election.sol:Election","label":"mobileNumber","offset":0,"slot":"5","type":"t_string_storage"},{"astId":349,"contract":"contracts/Election.sol:Election","label":"dateOfBirth","offset":0,"slot":"6","type":"t_uint256"},{"astId":351,"contract":"contracts/Election.sol:Election","label":"aadharNumber","offset":0,"slot":"7","type":"t_string_storage"},{"astId":353,"contract":"contracts/Election.sol:Election","label":"voterId","offset":0,"slot":"8","type":"t_string_storage"},{"astId":355,"contract":"contracts/Election.sol:Election","label":"homeAddress","offset":0,"slot":"9","type":"t_string_storage"}],"numberOfBytes":"320"},"t_struct(CandidateRegistrationInfo)401_storage":{"encoding":"inplace","label":"struct Election.CandidateRegistrationInfo","members":[{"astId":394,"contract":"contracts/Election.sol:Election","label":"profileFilled","offset":0,"slot":"0","type":"t_bool"},{"astId":396,"contract":"contracts/Election.sol:Election","label":"otpVerified","offset":1,"slot":"0","type":"t_bool"},{"astId":398,"contract":"contracts/Election.sol:Election","label":"faceRegistered","offset":2,"slot":"0","type":"t_bool"},{"astId":400,"contract":"contracts/Election.sol:Election","label":"fullyRegistered","offset":3,"slot":"0","type":"t_bool"}],"numberOfBytes":"32"},"t_struct(IpfsHash)383_storage":{"encoding":"inplace","label":"struct Election.IpfsHash","members":[{"astId":380,"contract":"contracts/Election.sol:Election","label":"faceHash","offset":0,"slot":"0","type":"t_string_storage"},{"astId":382,"contract":"contracts/Election.sol:Election","label":"documentHash","offset":0,"slot":"1","type":"t_string_storage"}],"numberOfBytes":"64"},"t_struct(Voter)369_storage":{"encoding":"inplace","label":"struct Election.Voter","members":[{"astId":358,"contract":"contracts/Election.sol:Election","label":"ethereumAddress","offset":0,"slot":"0","type":"t_address"},{"astId":360,"contract":"contracts/Election.sol:Election","label":"name","offset":0,"slot":"1","type":"t_string_storage"},{"astId":362,"contract":"contracts/Election.sol:Election","label":"email","offset":0,"slot":"2","type":"t_string_storage"},{"astId":364,"contract":"contracts/Election.sol:Election","label":"mobileNumber","offset":0,"slot":"3","type":"t_string_storage"},{"astId":366,"contract":"contracts/Election.sol:Election","label":"voterId","offset":0,"slot":"4","type":"t_string_storage"},{"astId":368,"contract":"contracts/Election.sol:Election","label":"passwordHash","offset":0,"slot":"5","type":"t_bytes32"}],"numberOfBytes":"192"},"t_struct(VoterRegistrationInfo)392_storage":{"encoding":"inplace","label":"struct Election.VoterRegistrationInfo","members":[{"astId":385,"contract":"contracts/Election.sol:Election","label":"profileFilled","offset":0,"slot":"0","type":"t_bool"},{"astId":387,"contract":"contracts/Election.sol:Election","label":"otpVerified","offset":1,"slot":"0","type":"t_bool"},{"astId":389,"contract":"contracts/Election.sol:Election","label":"faceRegistered","offset":2,"slot":"0","type":"t_bool"},{"astId":391,"contract":"contracts/Election.sol:Election","label":"fullyRegistered","offset":3,"slot":"0","type":"t_bool"}],"numberOfBytes":"32"},"t_struct(Winner)332_storage":{"encoding":"inplace","label":"struct Election.Winner","members":[{"astId":325,"contract":"contracts/Election.sol:Election","label":"id","offset":0,"slot":"0","type":"t_uint256"},{"astId":327,"contract":"contracts/Election.sol:Election","label":"name","offset":0,"slot":"1","type":"t_string_storage"},{"astId":329,"contract":"contracts/Election.sol:Election","label":"voteCount","offset":0,"slot":"2","type":"t_uint256"},{"astId":331,"contract":"contracts/Election.sol:Election","label":"ethereumAddress","offset":0,"slot":"3","type":"t_address"}],"numberOfBytes":"128"},"t_uint256":{"encoding":"inplace","label":"uint256","numberOfBytes":"32"}}},"userdoc":{"kind":"user","methods":{},"version":1}}}}