{"contracts/Election.sol":{"Election":{"abi":[{"inputs":[],"stateMutability":"nonpayable","type":"constructor"},{"anonymous":false,"inputs":[],"name":"ElectionClosed","type":"event"},{"anonymous":false,"inputs":[],"name":"ElectionOpen","type":"event"},{"anonymous":false,"inputs":[{"indexed":false,"internalType":"string","name":"winnerName","type":"string"},{"indexed":false,"internalType":"uint256","name":"winnerVoteCount","type":"uint256"}],"name":"ElectionResultDeclared","type":"event"},{"anonymous":false,"inputs":[{"indexed":false,"internalType":"uint256","name":"candidateId","type":"uint256"},{"indexed":false,"internalType":"string","name":"name","type":"string"},{"indexed":false,"internalType":"address","name":"ethereumAddress","type":"address"},{"indexed":false,"internalType":"string","name":"email","type":"string"},{"indexed":false,"internalType":"string","name":"mobileNumber","type":"string"},{"indexed":false,"internalType":"uint256","name":"dateOfBirth","type":"uint256"},{"indexed":false,"internalType":"string","name":"aadharNumber","type":"string"},{"indexed":false,"internalType":"string","name":"voterId","type":"string"},{"indexed":false,"internalType":"string","name":"homeAddress","type":"string"},{"indexed":false,"internalType":"string","name":"ipfsImageHash","type":"string"}],"name":"NewCandidate","type":"event"},{"anonymous":false,"inputs":[{"indexed":true,"internalType":"address","name":"voter","type":"address"},{"indexed":false,"internalType":"uint256","name":"candidateId","type":"uint256"}],"name":"Voted","type":"event"},{"anonymous":false,"inputs":[{"indexed":true,"internalType":"address","name":"voterAddress","type":"address"}],"name":"VoterLoggedIn","type":"event"},{"anonymous":false,"inputs":[{"indexed":false,"internalType":"string","name":"name","type":"string"},{"indexed":false,"internalType":"address","name":"voterAddress","type":"address"},{"indexed":false,"internalType":"string","name":"email","type":"string"},{"indexed":false,"internalType":"string","name":"mobileNumber","type":"string"},{"indexed":false,"internalType":"string","name":"voterId","type":"string"},{"indexed":false,"internalType":"string","name":"ipfsImageHash","type":"string"}],"name":"VoterRegistered","type":"event"},{"inputs":[{"internalType":"address","name":"_adminAddress","type":"address"},{"internalType":"string","name":"_name","type":"string"},{"internalType":"string","name":"_email","type":"string"}],"name":"addAdmin","outputs":[],"stateMutability":"nonpayable","type":"function"},{"inputs":[{"internalType":"string","name":"_name","type":"string"},{"internalType":"address","name":"_ethereumAddress","type":"address"},{"internalType":"string","name":"_email","type":"string"},{"internalType":"string","name":"_mobileNumber","type":"string"},{"internalType":"uint256","name":"_dateOfBirth","type":"uint256"},{"internalType":"string","name":"_aadharNumber","type":"string"},{"internalType":"string","name":"_voterId","type":"string"},{"internalType":"string","name":"_homeAddress","type":"string"},{"internalType":"string","name":"_ipfsImageHash","type":"string"}],"name":"addCandidate","outputs":[],"stateMutability":"nonpayable","type":"function"},{"inputs":[{"internalType":"uint256","name":"","type":"uint256"}],"name":"adminAccounts","outputs":[{"internalType":"address","name":"","type":"address"}],"stateMutability":"view","type":"function"},{"inputs":[{"internalType":"address","name":"","type":"address"}],"name":"admins","outputs":[{"internalType":"string","name":"name","type":"string"},{"internalType":"string","name":"email","type":"string"},{"internalType":"address","name":"ethereumAddress","type":"address"},{"internalType":"bool","name":"isAdmin","type":"bool"}],"stateMutability":"view","type":"function"},{"inputs":[{"internalType":"uint256","name":"","type":"uint256"}],"name":"candidates","outputs":[{"internalType":"uint256","name":"id","type":"uint256"},{"internalType":"string","name":"name","type":"string"},{"internalType":"uint256","name":"voteCount","type":"uint256"},{"internalType":"address","name":"ethereumAddress","type":"address"},{"internalType":"string","name":"email","type":"string"},{"internalType":"string","name":"mobileNumber","type":"string"},{"internalType":"uint256","name":"dateOfBirth","type":"uint256"},{"internalType":"string","name":"aadharNumber","type":"string"},{"internalType":"string","name":"voterId","type":"string"},{"internalType":"string","name":"homeAddress","type":"string"},{"internalType":"string","name":"ipfsImageHash","type":"string"}],"stateMutability":"view","type":"function"},{"inputs":[{"internalType":"address","name":"","type":"address"}],"name":"candidatesRegistered","outputs":[{"internalType":"bool","name":"","type":"bool"}],"stateMutability":"view","type":"function"},{"inputs":[{"internalType":"address","name":"_voterEthAddress","type":"address"}],"name":"checkHasVoted","outputs":[{"internalType":"bool","name":"","type":"bool"}],"stateMutability":"view","type":"function"},{"inputs":[],"name":"closeElection","outputs":[],"stateMutability":"nonpayable","type":"function"},{"inputs":[],"name":"declareElectionResult","outputs":[],"stateMutability":"nonpayable","type":"function"},{"inputs":[{"internalType":"uint256","name":"_candidateId","type":"uint256"}],"name":"getCandidate","outputs":[{"internalType":"string","name":"name","type":"string"},{"internalType":"string","name":"email","type":"string"},{"internalType":"string","name":"mobileNumber","type":"string"},{"internalType":"uint256","name":"dateOfBirth","type":"uint256"},{"internalType":"string","name":"homeAddress","type":"string"},{"internalType":"uint256","name":"candidateId","type":"uint256"}],"stateMutability":"view","type":"function"},{"inputs":[],"name":"getCandidatesCount","outputs":[{"internalType":"uint256","name":"","type":"uint256"}],"stateMutability":"view","type":"function"},{"inputs":[],"name":"getIsVotingOpen","outputs":[{"internalType":"bool","name":"","type":"bool"}],"stateMutability":"view","type":"function"},{"inputs":[],"name":"getOwner","outputs":[{"internalType":"address","name":"tempOwner","type":"address"}],"stateMutability":"view","type":"function"},{"inputs":[],"name":"getResultsDeclared","outputs":[{"internalType":"bool","name":"","type":"bool"}],"stateMutability":"view","type":"function"},{"inputs":[],"name":"getWinnerId","outputs":[{"internalType":"uint256","name":"id","type":"uint256"}],"stateMutability":"view","type":"function"},{"inputs":[],"name":"getWinnerName","outputs":[{"internalType":"string","name":"name","type":"string"}],"stateMutability":"view","type":"function"},{"inputs":[],"name":"getWinnerVoteCount","outputs":[{"internalType":"uint256","name":"voteCount","type":"uint256"}],"stateMutability":"view","type":"function"},{"inputs":[{"internalType":"address","name":"","type":"address"}],"name":"hasVoted","outputs":[{"internalType":"bool","name":"","type":"bool"}],"stateMutability":"view","type":"function"},{"inputs":[{"internalType":"address","name":"_ethereumAddress","type":"address"}],"name":"isVoterRegistered","outputs":[{"internalType":"bool","name":"","type":"bool"}],"stateMutability":"view","type":"function"},{"inputs":[],"name":"isVotingOpen","outputs":[{"internalType":"bool","name":"","type":"bool"}],"stateMutability":"view","type":"function"},{"inputs":[{"internalType":"string","name":"_email","type":"string"},{"internalType":"string","name":"_password","type":"string"},{"internalType":"address","name":"_ethereumAddress","type":"address"}],"name":"loginVoter","outputs":[],"stateMutability":"nonpayable","type":"function"},{"inputs":[],"name":"openElection","outputs":[],"stateMutability":"nonpayable","type":"function"},{"inputs":[],"name":"owner","outputs":[{"internalType":"address","name":"","type":"address"}],"stateMutability":"view","type":"function"},{"inputs":[{"internalType":"string","name":"_name","type":"string"},{"internalType":"address","name":"_ethereumAddress","type":"address"},{"internalType":"string","name":"_email","type":"string"},{"internalType":"string","name":"_mobileNumber","type":"string"},{"internalType":"string","name":"_voterId","type":"string"},{"internalType":"string","name":"_ipfsImageHash","type":"string"},{"internalType":"string","name":"_password","type":"string"}],"name":"registerVoter","outputs":[],"stateMutability":"nonpayable","type":"function"},{"inputs":[{"internalType":"uint256","name":"","type":"uint256"}],"name":"registeredVoters","outputs":[{"internalType":"address","name":"","type":"address"}],"stateMutability":"view","type":"function"},{"inputs":[],"name":"resultsDeclared","outputs":[{"internalType":"bool","name":"","type":"bool"}],"stateMutability":"view","type":"function"},{"inputs":[{"internalType":"address","name":"","type":"address"}],"name":"userVote","outputs":[{"internalType":"uint256","name":"","type":"uint256"}],"stateMutability":"view","type":"function"},{"inputs":[{"internalType":"uint256","name":"_candidateId","type":"uint256"},{"internalType":"address","name":"_ethereumAddress","type":"address"}],"name":"vote","outputs":[],"stateMutability":"nonpayable","type":"function"},{"inputs":[{"internalType":"address","name":"","type":"address"}],"name":"voters","outputs":[{"internalType":"address","name":"ethereumAddress","type":"address"},{"internalType":"string","name":"name","type":"string"},{"internalType":"string","name":"email","type":"string"},{"internalType":"string","name":"mobileNumber","type":"string"},{"internalType":"string","name":"voterId","type":"string"},{"internalType":"string","name":"ipfsImageHash","type":"string"},{"internalType":"bytes32","name":"passwordHash","type":"bytes32"},{"internalType":"bool","name":"isRegistered","type":"bool"}],"stateMutability":"view","type":"function"},{"inputs":[],"name":"winner","outputs":[{"internalType":"uint256","name":"id","type":"uint256"},{"internalType":"string","name":"name","type":"string"},{"internalType":"uint256","name":"voteCount","type":"uint256"},{"internalType":"address","name":"ethereumAddress","type":"address"}],"stateMutability":"view","type":"function"}],"devdoc":{"kind":"dev","methods":{},"version":1},"evm":{"bytecode":{"linkReferences":{},"object":"608060405234801561001057600080fd5b50336000806101000a81548173ffffffffffffffffffffffffffffffffffffffff021916908373ffffffffffffffffffffffffffffffffffffffff16021790555060008060146101000a81548160ff02191690831515021790555060008060156101000a81548160ff0219169083151502179055506142e4806100946000396000f3fe608060405234801561001057600080fd5b50600436106101da5760003560e01c80638b55c27a11610104578063d0b7c7ff116100a2578063ec8f807611610071578063ec8f807614610577578063f31adac314610593578063f5ba1c87146105b1578063fa7f1bae146105e1576101da565b8063d0b7c7ff146104da578063dfbf53ae146104f6578063e35f8cef14610517578063eb2119db14610547576101da565b8063a2addd68116100de578063a2addd681461044b578063a3ec138d1461047b578063bb9aa28f146104b2578063c5d00f5d146104d0576101da565b80638b55c27a146103f15780638da5cb5b1461040f578063965473bd1461042d576101da565b80633fa858561161017c5780636c28fdb11161014b5780636c28fdb1146103a35780636c6c32d0146103ad5780636ec0176d146103b7578063893d20e8146103d3576101da565b80633fa858561461030657806340bcb76914610336578063429b62e5146103545780635babf5ef14610387576101da565b80632436e06b116101b85780632436e06b146102495780632bfda515146102795780633477ee2e1461029757806335b8e820146102d1576101da565b806302d947ef146101df57806309eef43e146101fb5780630aea68061461022b575b600080fd5b6101f960048036038101906101f49190613523565b6105ff565b005b61021560048036038101906102109190613137565b61088a565b6040516102229190613a70565b60405180910390f35b6102336108aa565b6040516102409190613db1565b60405180910390f35b610263600480360381019061025e91906134fa565b610906565b60405161027091906139b4565b60405180910390f35b610281610945565b60405161028e9190613a8b565b60405180910390f35b6102b160048036038101906102ac91906134fa565b610a29565b6040516102c89b9a99989796959493929190613ee5565b60405180910390f35b6102eb60048036038101906102e691906134fa565b610e6b565b6040516102fd96959493929190613b84565b60405180910390f35b610320600480360381019061031b9190613137565b6113d0565b60405161032d9190613a70565b60405180910390f35b61033e6113f0565b60405161034b9190613a70565b60405180910390f35b61036e60048036038101906103699190613137565b611406565b60405161037e9493929190613b31565b60405180910390f35b6103a1600480360381019061039c9190613160565b611573565b005b6103ab611816565b005b6103b5611cbd565b005b6103d160048036038101906103cc91906131df565b611d93565b005b6103db612075565b6040516103e891906139b4565b60405180910390f35b6103f961209e565b6040516104069190613a70565b60405180910390f35b6104176120b4565b60405161042491906139b4565b60405180910390f35b6104356120d8565b6040516104429190613a70565b60405180910390f35b610465600480360381019061046091906134fa565b6120eb565b60405161047291906139b4565b60405180910390f35b61049560048036038101906104909190613137565b61212a565b6040516104a99897969594939291906139cf565b60405180910390f35b6104ba612447565b6040516104c79190613db1565b60405180910390f35b6104d8612454565b005b6104f460048036038101906104ef919061347b565b61252b565b005b6104fe612a6e565b60405161050e9493929190613e99565b60405180910390f35b610531600480360381019061052c9190613137565b612b34565b60405161053e9190613a70565b60405180910390f35b610561600480360381019061055c9190613137565b612b8a565b60405161056e9190613a70565b60405180910390f35b610591600480360381019061058c919061330d565b612be3565b005b61059b612f46565b6040516105a89190613db1565b60405180910390f35b6105cb60048036038101906105c69190613137565b612fa2565b6040516105d89190613db1565b60405180910390f35b6105e9612fba565b6040516105f69190613a70565b60405180910390f35b600060149054906101000a900460ff1661064e576040517f08c379a000000000000000000000000000000000000000000000000000000000815260040161064590613d71565b60405180910390fd5b600760008273ffffffffffffffffffffffffffffffffffffffff1673ffffffffffffffffffffffffffffffffffffffff16815260200190815260200160002060009054906101000a900460ff16156106db576040517f08c379a00000000000000000000000000000000000000000000000000000000081526004016106d290613c31565b60405180910390fd5b6000821180156106f057506005805490508211155b61072f576040517f08c379a000000000000000000000000000000000000000000000000000000000815260040161072690613d91565b60405180910390fd5b6001600760008373ffffffffffffffffffffffffffffffffffffffff1673ffffffffffffffffffffffffffffffffffffffff16815260200190815260200160002060006101000a81548160ff02191690831515021790555081600860008373ffffffffffffffffffffffffffffffffffffffff1673ffffffffffffffffffffffffffffffffffffffff1681526020019081526020016000208190555060056001836107da919061409f565b81548110610811577f4e487b7100000000000000000000000000000000000000000000000000000000600052603260045260246000fd5b90600052602060002090600b0201600201600081548092919061083390614199565b91905055508073ffffffffffffffffffffffffffffffffffffffff167f4d99b957a2bc29a30ebd96a7be8e68fe50a3c701db28a91436490b7d53870ca48360405161087e9190613db1565b60405180910390a25050565b60076020528060005260406000206000915054906101000a900460ff1681565b60008060149054906101000a900460ff16156108fb576040517f08c379a00000000000000000000000000000000000000000000000000000000081526004016108f290613c91565b60405180910390fd5b600160000154905090565b600a818154811061091657600080fd5b906000526020600020016000915054906101000a900473ffffffffffffffffffffffffffffffffffffffff1681565b6060600060149054906101000a900460ff1615610997576040517f08c379a000000000000000000000000000000000000000000000000000000000815260040161098e90613c91565b60405180910390fd5b6001800180546109a690614167565b80601f01602080910402602001604051908101604052809291908181526020018280546109d290614167565b8015610a1f5780601f106109f457610100808354040283529160200191610a1f565b820191906000526020600020905b815481529060010190602001808311610a0257829003601f168201915b5050505050905090565b60058181548110610a3957600080fd5b90600052602060002090600b0201600091509050806000015490806001018054610a6290614167565b80601f0160208091040260200160405190810160405280929190818152602001828054610a8e90614167565b8015610adb5780601f10610ab057610100808354040283529160200191610adb565b820191906000526020600020905b815481529060010190602001808311610abe57829003601f168201915b5050505050908060020154908060030160009054906101000a900473ffffffffffffffffffffffffffffffffffffffff1690806004018054610b1c90614167565b80601f0160208091040260200160405190810160405280929190818152602001828054610b4890614167565b8015610b955780601f10610b6a57610100808354040283529160200191610b95565b820191906000526020600020905b815481529060010190602001808311610b7857829003601f168201915b505050505090806005018054610baa90614167565b80601f0160208091040260200160405190810160405280929190818152602001828054610bd690614167565b8015610c235780601f10610bf857610100808354040283529160200191610c23565b820191906000526020600020905b815481529060010190602001808311610c0657829003601f168201915b505050505090806006015490806007018054610c3e90614167565b80601f0160208091040260200160405190810160405280929190818152602001828054610c6a90614167565b8015610cb75780601f10610c8c57610100808354040283529160200191610cb7565b820191906000526020600020905b815481529060010190602001808311610c9a57829003601f168201915b505050505090806008018054610ccc90614167565b80601f0160208091040260200160405190810160405280929190818152602001828054610cf890614167565b8015610d455780601f10610d1a57610100808354040283529160200191610d45565b820191906000526020600020905b815481529060010190602001808311610d2857829003601f168201915b505050505090806009018054610d5a90614167565b80601f0160208091040260200160405190810160405280929190818152602001828054610d8690614167565b8015610dd35780601f10610da857610100808354040283529160200191610dd3565b820191906000526020600020905b815481529060010190602001808311610db657829003601f168201915b50505050509080600a018054610de890614167565b80601f0160208091040260200160405190810160405280929190818152602001828054610e1490614167565b8015610e615780601f10610e3657610100808354040283529160200191610e61565b820191906000526020600020905b815481529060010190602001808311610e4457829003601f168201915b505050505090508b565b60608060606000606060008087118015610e8a57506005805490508711155b610ec9576040517f08c379a0000000000000000000000000000000000000000000000000000000008152600401610ec090613d91565b60405180910390fd5b60006005600189610eda919061409f565b81548110610f11577f4e487b7100000000000000000000000000000000000000000000000000000000600052603260045260246000fd5b90600052602060002090600b02016040518061016001604052908160008201548152602001600182018054610f4590614167565b80601f0160208091040260200160405190810160405280929190818152602001828054610f7190614167565b8015610fbe5780601f10610f9357610100808354040283529160200191610fbe565b820191906000526020600020905b815481529060010190602001808311610fa157829003601f168201915b50505050508152602001600282015481526020016003820160009054906101000a900473ffffffffffffffffffffffffffffffffffffffff1673ffffffffffffffffffffffffffffffffffffffff1673ffffffffffffffffffffffffffffffffffffffff16815260200160048201805461103790614167565b80601f016020809104026020016040519081016040528092919081815260200182805461106390614167565b80156110b05780601f10611085576101008083540402835291602001916110b0565b820191906000526020600020905b81548152906001019060200180831161109357829003601f168201915b505050505081526020016005820180546110c990614167565b80601f01602080910402602001604051908101604052809291908181526020018280546110f590614167565b80156111425780601f1061111757610100808354040283529160200191611142565b820191906000526020600020905b81548152906001019060200180831161112557829003601f168201915b505050505081526020016006820154815260200160078201805461116590614167565b80601f016020809104026020016040519081016040528092919081815260200182805461119190614167565b80156111de5780601f106111b3576101008083540402835291602001916111de565b820191906000526020600020905b8154815290600101906020018083116111c157829003601f168201915b505050505081526020016008820180546111f790614167565b80601f016020809104026020016040519081016040528092919081815260200182805461122390614167565b80156112705780601f1061124557610100808354040283529160200191611270565b820191906000526020600020905b81548152906001019060200180831161125357829003601f168201915b5050505050815260200160098201805461128990614167565b80601f01602080910402602001604051908101604052809291908181526020018280546112b590614167565b80156113025780601f106112d757610100808354040283529160200191611302565b820191906000526020600020905b8154815290600101906020018083116112e557829003601f168201915b50505050508152602001600a8201805461131b90614167565b80601f016020809104026020016040519081016040528092919081815260200182805461134790614167565b80156113945780601f1061136957610100808354040283529160200191611394565b820191906000526020600020905b81548152906001019060200180831161137757829003601f168201915b5050505050815250509050806020015181608001518260a001518360c001518461012001518c9650965096509650965096505091939550919395565b60066020528060005260406000206000915054906101000a900460ff1681565b60008060159054906101000a900460ff16905090565b600b60205280600052604060002060009150905080600001805461142990614167565b80601f016020809104026020016040519081016040528092919081815260200182805461145590614167565b80156114a25780601f10611477576101008083540402835291602001916114a2565b820191906000526020600020905b81548152906001019060200180831161148557829003601f168201915b5050505050908060010180546114b790614167565b80601f01602080910402602001604051908101604052809291908181526020018280546114e390614167565b80156115305780601f1061150557610100808354040283529160200191611530565b820191906000526020600020905b81548152906001019060200180831161151357829003601f168201915b5050505050908060020160009054906101000a900473ffffffffffffffffffffffffffffffffffffffff16908060020160149054906101000a900460ff16905084565b60008054906101000a900473ffffffffffffffffffffffffffffffffffffffff1673ffffffffffffffffffffffffffffffffffffffff163373ffffffffffffffffffffffffffffffffffffffff1614611601576040517f08c379a00000000000000000000000000000000000000000000000000000000081526004016115f890613d11565b60405180910390fd5b600b60008473ffffffffffffffffffffffffffffffffffffffff1673ffffffffffffffffffffffffffffffffffffffff16815260200190815260200160002060020160149054906101000a900460ff1615611691576040517f08c379a000000000000000000000000000000000000000000000000000000000815260040161168890613d31565b60405180910390fd5b60405180608001604052808381526020018281526020018473ffffffffffffffffffffffffffffffffffffffff16815260200160011515815250600b60008573ffffffffffffffffffffffffffffffffffffffff1673ffffffffffffffffffffffffffffffffffffffff1681526020019081526020016000206000820151816000019080519060200190611726929190613002565b506020820151816001019080519060200190611743929190613002565b5060408201518160020160006101000a81548173ffffffffffffffffffffffffffffffffffffffff021916908373ffffffffffffffffffffffffffffffffffffffff16021790555060608201518160020160146101000a81548160ff021916908315150217905550905050600c839080600181540180825580915050600190039060005260206000200160009091909190916101000a81548173ffffffffffffffffffffffffffffffffffffffff021916908373ffffffffffffffffffffffffffffffffffffffff160217905550505050565b60008054906101000a900473ffffffffffffffffffffffffffffffffffffffff1673ffffffffffffffffffffffffffffffffffffffff163373ffffffffffffffffffffffffffffffffffffffff16146118a4576040517f08c379a000000000000000000000000000000000000000000000000000000000815260040161189b90613d11565b60405180910390fd5b600060149054906101000a900460ff16156118f4576040517f08c379a00000000000000000000000000000000000000000000000000000000081526004016118eb90613c51565b60405180910390fd5b60006005805490501161193c576040517f08c379a000000000000000000000000000000000000000000000000000000000815260040161193390613cd1565b60405180910390fd5b6000806001600060156101000a81548160ff02191690831515021790555060005b600580549050811015611a1b5782600582815481106119a5577f4e487b7100000000000000000000000000000000000000000000000000000000600052603260045260246000fd5b90600052602060002090600b02016002015410611a1657600581815481106119f6577f4e487b7100000000000000000000000000000000000000000000000000000000600052603260045260246000fd5b90600052602060002090600b020160020154925080915080806001019150505b61195d565b5060008110611cb957600060058281548110611a60577f4e487b7100000000000000000000000000000000000000000000000000000000600052603260045260246000fd5b90600052602060002090600b02016001018054611a7c90614167565b80601f0160208091040260200160405190810160405280929190818152602001828054611aa890614167565b8015611af55780601f10611aca57610100808354040283529160200191611af5565b820191906000526020600020905b815481529060010190602001808311611ad857829003601f168201915b50505050509050600060058381548110611b38577f4e487b7100000000000000000000000000000000000000000000000000000000600052603260045260246000fd5b90600052602060002090600b0201600201549050600060058481548110611b88577f4e487b7100000000000000000000000000000000000000000000000000000000600052603260045260246000fd5b90600052602060002090600b020160030160009054906101000a900473ffffffffffffffffffffffffffffffffffffffff1690506040518060800160405280600186611bd49190614049565b81526020018481526020018381526020018273ffffffffffffffffffffffffffffffffffffffff168152506001600082015181600001556020820151816001019080519060200190611c27929190613002565b506040820151816002015560608201518160030160006101000a81548173ffffffffffffffffffffffffffffffffffffffff021916908373ffffffffffffffffffffffffffffffffffffffff1602179055509050507f1aaa99e411a940104e7b7866d6fc9317a3e67e76472e8d2776a9a8943112c3908383604051611cad929190613c01565b60405180910390a15050505b5050565b60008054906101000a900473ffffffffffffffffffffffffffffffffffffffff1673ffffffffffffffffffffffffffffffffffffffff163373ffffffffffffffffffffffffffffffffffffffff1614611d4b576040517f08c379a0000000000000000000000000000000000000000000000000000000008152600401611d4290613d11565b60405180910390fd5b60008060146101000a81548160ff0219169083151502179055507fa549b9addfc3693a1863ac5b0b13c42960d78df554c01ea6ac72a7db985df0cf60405160405180910390a1565b600960008773ffffffffffffffffffffffffffffffffffffffff1673ffffffffffffffffffffffffffffffffffffffff16815260200190815260200160002060070160009054906101000a900460ff1615611e23576040517f08c379a0000000000000000000000000000000000000000000000000000000008152600401611e1a90613d51565b60405180910390fd5b6000611e2e82612fcd565b90506040518061010001604052808873ffffffffffffffffffffffffffffffffffffffff16815260200189815260200187815260200186815260200185815260200184815260200182815260200160011515815250600960008973ffffffffffffffffffffffffffffffffffffffff1673ffffffffffffffffffffffffffffffffffffffff16815260200190815260200160002060008201518160000160006101000a81548173ffffffffffffffffffffffffffffffffffffffff021916908373ffffffffffffffffffffffffffffffffffffffff1602179055506020820151816001019080519060200190611f25929190613002565b506040820151816002019080519060200190611f42929190613002565b506060820151816003019080519060200190611f5f929190613002565b506080820151816004019080519060200190611f7c929190613002565b5060a0820151816005019080519060200190611f99929190613002565b5060c0820151816006015560e08201518160070160006101000a81548160ff021916908315150217905550905050600a879080600181540180825580915050600190039060005260206000200160009091909190916101000a81548173ffffffffffffffffffffffffffffffffffffffff021916908373ffffffffffffffffffffffffffffffffffffffff1602179055507f8233a1016d0e0c56cc3a1e7454caa9df82be4406ad9fd67a8f79c8bdca15f36388888888888860405161206396959493929190613aad565b60405180910390a15050505050505050565b60008060009054906101000a900473ffffffffffffffffffffffffffffffffffffffff16905090565b60008060149054906101000a900460ff16905090565b60008054906101000a900473ffffffffffffffffffffffffffffffffffffffff1681565b600060159054906101000a900460ff1681565b600c81815481106120fb57600080fd5b906000526020600020016000915054906101000a900473ffffffffffffffffffffffffffffffffffffffff1681565b60096020528060005260406000206000915090508060000160009054906101000a900473ffffffffffffffffffffffffffffffffffffffff169080600101805461217390614167565b80601f016020809104026020016040519081016040528092919081815260200182805461219f90614167565b80156121ec5780601f106121c1576101008083540402835291602001916121ec565b820191906000526020600020905b8154815290600101906020018083116121cf57829003601f168201915b50505050509080600201805461220190614167565b80601f016020809104026020016040519081016040528092919081815260200182805461222d90614167565b801561227a5780601f1061224f5761010080835404028352916020019161227a565b820191906000526020600020905b81548152906001019060200180831161225d57829003601f168201915b50505050509080600301805461228f90614167565b80601f01602080910402602001604051908101604052809291908181526020018280546122bb90614167565b80156123085780601f106122dd57610100808354040283529160200191612308565b820191906000526020600020905b8154815290600101906020018083116122eb57829003601f168201915b50505050509080600401805461231d90614167565b80601f016020809104026020016040519081016040528092919081815260200182805461234990614167565b80156123965780601f1061236b57610100808354040283529160200191612396565b820191906000526020600020905b81548152906001019060200180831161237957829003601f168201915b5050505050908060050180546123ab90614167565b80601f01602080910402602001604051908101604052809291908181526020018280546123d790614167565b80156124245780601f106123f957610100808354040283529160200191612424565b820191906000526020600020905b81548152906001019060200180831161240757829003601f168201915b5050505050908060060154908060070160009054906101000a900460ff16905088565b6000600580549050905090565b60008054906101000a900473ffffffffffffffffffffffffffffffffffffffff1673ffffffffffffffffffffffffffffffffffffffff163373ffffffffffffffffffffffffffffffffffffffff16146124e2576040517f08c379a00000000000000000000000000000000000000000000000000000000081526004016124d990613d11565b60405180910390fd5b6001600060146101000a81548160ff0219169083151502179055507f258a7c8a176359d1dd4b5872009764b97f6228ed4dfc610540018b756f6f22bd60405160405180910390a1565b600960008273ffffffffffffffffffffffffffffffffffffffff1673ffffffffffffffffffffffffffffffffffffffff16815260200190815260200160002060070160009054906101000a900460ff166125ba576040517f08c379a00000000000000000000000000000000000000000000000000000000081526004016125b190613cb1565b60405180910390fd5b6000600960008373ffffffffffffffffffffffffffffffffffffffff1673ffffffffffffffffffffffffffffffffffffffff168152602001908152602001600020604051806101000160405290816000820160009054906101000a900473ffffffffffffffffffffffffffffffffffffffff1673ffffffffffffffffffffffffffffffffffffffff1673ffffffffffffffffffffffffffffffffffffffff16815260200160018201805461266d90614167565b80601f016020809104026020016040519081016040528092919081815260200182805461269990614167565b80156126e65780601f106126bb576101008083540402835291602001916126e6565b820191906000526020600020905b8154815290600101906020018083116126c957829003601f168201915b505050505081526020016002820180546126ff90614167565b80601f016020809104026020016040519081016040528092919081815260200182805461272b90614167565b80156127785780601f1061274d57610100808354040283529160200191612778565b820191906000526020600020905b81548152906001019060200180831161275b57829003601f168201915b5050505050815260200160038201805461279190614167565b80601f01602080910402602001604051908101604052809291908181526020018280546127bd90614167565b801561280a5780601f106127df5761010080835404028352916020019161280a565b820191906000526020600020905b8154815290600101906020018083116127ed57829003601f168201915b5050505050815260200160048201805461282390614167565b80601f016020809104026020016040519081016040528092919081815260200182805461284f90614167565b801561289c5780601f106128715761010080835404028352916020019161289c565b820191906000526020600020905b81548152906001019060200180831161287f57829003601f168201915b505050505081526020016005820180546128b590614167565b80601f01602080910402602001604051908101604052809291908181526020018280546128e190614167565b801561292e5780601f106129035761010080835404028352916020019161292e565b820191906000526020600020905b81548152906001019060200180831161291157829003601f168201915b50505050508152602001600682015481526020016007820160009054906101000a900460ff16151515158152505090508060c0015183604051602001612974919061399d565b604051602081830303815290604052805190602001201480156129e6575080604001516040516020016129a7919061399d565b60405160208183030381529060405280519060200120846040516020016129ce919061399d565b60405160208183030381529060405280519060200120145b612a25576040517f08c379a0000000000000000000000000000000000000000000000000000000008152600401612a1c90613c71565b60405180910390fd5b8173ffffffffffffffffffffffffffffffffffffffff167f048e252d5e4f0eb06f35f4b2d35d1c46d725d11d87b685253169fa84a995e14160405160405180910390a250505050565b6001806000015490806001018054612a8590614167565b80601f0160208091040260200160405190810160405280929190818152602001828054612ab190614167565b8015612afe5780601f10612ad357610100808354040283529160200191612afe565b820191906000526020600020905b815481529060010190602001808311612ae157829003601f168201915b5050505050908060020154908060030160009054906101000a900473ffffffffffffffffffffffffffffffffffffffff16905084565b6000600760008373ffffffffffffffffffffffffffffffffffffffff1673ffffffffffffffffffffffffffffffffffffffff16815260200190815260200160002060009054906101000a900460ff169050919050565b6000600960008373ffffffffffffffffffffffffffffffffffffffff1673ffffffffffffffffffffffffffffffffffffffff16815260200190815260200160002060070160009054906101000a900460ff169050919050565b600060149054906101000a900460ff1615612c33576040517f08c379a0000000000000000000000000000000000000000000000000000000008152600401612c2a90613cf1565b60405180910390fd5b600660008973ffffffffffffffffffffffffffffffffffffffff1673ffffffffffffffffffffffffffffffffffffffff16815260200190815260200160002060009054906101000a900460ff1615612cc0576040517f08c379a0000000000000000000000000000000000000000000000000000000008152600401612cb790613d51565b60405180910390fd5b60006001600580549050612cd49190614049565b905060056040518061016001604052808381526020018c8152602001600081526020018b73ffffffffffffffffffffffffffffffffffffffff1681526020018a81526020018981526020018881526020018781526020018681526020018581526020018481525090806001815401808255809150506001900390600052602060002090600b0201600090919091909150600082015181600001556020820151816001019080519060200190612d8a929190613002565b506040820151816002015560608201518160030160006101000a81548173ffffffffffffffffffffffffffffffffffffffff021916908373ffffffffffffffffffffffffffffffffffffffff1602179055506080820151816004019080519060200190612df8929190613002565b5060a0820151816005019080519060200190612e15929190613002565b5060c0820151816006015560e0820151816007019080519060200190612e3c929190613002565b50610100820151816008019080519060200190612e5a929190613002565b50610120820151816009019080519060200190612e78929190613002565b5061014082015181600a019080519060200190612e96929190613002565b5050506001600660008b73ffffffffffffffffffffffffffffffffffffffff1673ffffffffffffffffffffffffffffffffffffffff16815260200190815260200160002060006101000a81548160ff0219169083151502179055507f5a022fc2e48a23651bbc4855c873bb1efcf861de8e23fe86fccc875d71b32fd2818b8b8b8b8b8b8b8b8b604051612f329a99989796959493929190613dcc565b60405180910390a150505050505050505050565b60008060149054906101000a900460ff1615612f97576040517f08c379a0000000000000000000000000000000000000000000000000000000008152600401612f8e90613c91565b60405180910390fd5b600160020154905090565b60086020528060005260406000206000915090505481565b600060149054906101000a900460ff1681565b60008082604051602001612fe1919061399d565b60405160208183030381529060405280519060200120905080915050919050565b82805461300e90614167565b90600052602060002090601f0160209004810192826130305760008555613077565b82601f1061304957805160ff1916838001178555613077565b82800160010185558215613077579182015b8281111561307657825182559160200191906001019061305b565b5b5090506130849190613088565b5090565b5b808211156130a1576000816000905550600101613089565b5090565b60006130b86130b384613ff2565b613fc1565b9050828152602081018484840111156130d057600080fd5b6130db848285614125565b509392505050565b6000813590506130f281614280565b92915050565b600082601f83011261310957600080fd5b81356131198482602086016130a5565b91505092915050565b60008135905061313181614297565b92915050565b60006020828403121561314957600080fd5b6000613157848285016130e3565b91505092915050565b60008060006060848603121561317557600080fd5b6000613183868287016130e3565b935050602084013567ffffffffffffffff8111156131a057600080fd5b6131ac868287016130f8565b925050604084013567ffffffffffffffff8111156131c957600080fd5b6131d5868287016130f8565b9150509250925092565b600080600080600080600060e0888a0312156131fa57600080fd5b600088013567ffffffffffffffff81111561321457600080fd5b6132208a828b016130f8565b97505060206132318a828b016130e3565b965050604088013567ffffffffffffffff81111561324e57600080fd5b61325a8a828b016130f8565b955050606088013567ffffffffffffffff81111561327757600080fd5b6132838a828b016130f8565b945050608088013567ffffffffffffffff8111156132a057600080fd5b6132ac8a828b016130f8565b93505060a088013567ffffffffffffffff8111156132c957600080fd5b6132d58a828b016130f8565b92505060c088013567ffffffffffffffff8111156132f257600080fd5b6132fe8a828b016130f8565b91505092959891949750929550565b60008060008060008060008060006101208a8c03121561332c57600080fd5b60008a013567ffffffffffffffff81111561334657600080fd5b6133528c828d016130f8565b99505060206133638c828d016130e3565b98505060408a013567ffffffffffffffff81111561338057600080fd5b61338c8c828d016130f8565b97505060608a013567ffffffffffffffff8111156133a957600080fd5b6133b58c828d016130f8565b96505060806133c68c828d01613122565b95505060a08a013567ffffffffffffffff8111156133e357600080fd5b6133ef8c828d016130f8565b94505060c08a013567ffffffffffffffff81111561340c57600080fd5b6134188c828d016130f8565b93505060e08a013567ffffffffffffffff81111561343557600080fd5b6134418c828d016130f8565b9250506101008a013567ffffffffffffffff81111561345f57600080fd5b61346b8c828d016130f8565b9150509295985092959850929598565b60008060006060848603121561349057600080fd5b600084013567ffffffffffffffff8111156134aa57600080fd5b6134b6868287016130f8565b935050602084013567ffffffffffffffff8111156134d357600080fd5b6134df868287016130f8565b92505060406134f0868287016130e3565b9150509250925092565b60006020828403121561350c57600080fd5b600061351a84828501613122565b91505092915050565b6000806040838503121561353657600080fd5b600061354485828601613122565b9250506020613555858286016130e3565b9150509250929050565b613568816140d3565b82525050565b613577816140e5565b82525050565b613586816140f1565b82525050565b600061359782614022565b6135a1818561402d565b93506135b1818560208601614134565b6135ba8161426f565b840191505092915050565b60006135d082614022565b6135da818561403e565b93506135ea818560208601614134565b80840191505092915050565b600061360360178361402d565b91507f596f75206861766520616c726561647920766f7465642e0000000000000000006000830152602082019050919050565b6000613643602b8361402d565b91507f43616e6e6f74206465636c61726520726573756c74207768696c6520766f746960008301527f6e67206973206f70656e2e0000000000000000000000000000000000000000006020830152604082019050919050565b60006136a960128361402d565b91507f496e636f72726563742070617373776f726400000000000000000000000000006000830152602082019050919050565b60006136e960178361402d565b91507f456c656374696f6e206973207374696c6c206f70656e2e0000000000000000006000830152602082019050919050565b600061372960188361402d565b91507f566f746572206973206e6f7420726567697374657265642e00000000000000006000830152602082019050919050565b600061376960278361402d565b91507f4e6f2063616e6469646174657320746f206465636c617265206173207468652060008301527f77696e6e65722e000000000000000000000000000000000000000000000000006020830152604082019050919050565b60006137cf60298361402d565b91507f43616e206e6f74207265676973746572207768656e20456c656374696f6e206960008301527f732072756e6e696e6700000000000000000000000000000000000000000000006020830152604082019050919050565b600061383560278361402d565b91507f4f6e6c7920746865206f776e65722063616e20706572666f726d20746869732060008301527f616374696f6e2e000000000000000000000000000000000000000000000000006020830152604082019050919050565b600061389b60158361402d565b91507f41646d696e20616c7265616479206578697374732e00000000000000000000006000830152602082019050919050565b60006138db601c8361402d565b91507f566f74657220697320616c726561647920726567697374657265642e000000006000830152602082019050919050565b600061391b60118361402d565b91507f566f74696e6720697320636c6f7365642e0000000000000000000000000000006000830152602082019050919050565b600061395b60158361402d565b91507f496e76616c69642063616e6469646174652049442e00000000000000000000006000830152602082019050919050565b6139978161411b565b82525050565b60006139a982846135c5565b915081905092915050565b60006020820190506139c9600083018461355f565b92915050565b6000610100820190506139e5600083018b61355f565b81810360208301526139f7818a61358c565b90508181036040830152613a0b818961358c565b90508181036060830152613a1f818861358c565b90508181036080830152613a33818761358c565b905081810360a0830152613a47818661358c565b9050613a5660c083018561357d565b613a6360e083018461356e565b9998505050505050505050565b6000602082019050613a85600083018461356e565b92915050565b60006020820190508181036000830152613aa5818461358c565b905092915050565b600060c0820190508181036000830152613ac7818961358c565b9050613ad6602083018861355f565b8181036040830152613ae8818761358c565b90508181036060830152613afc818661358c565b90508181036080830152613b10818561358c565b905081810360a0830152613b24818461358c565b9050979650505050505050565b60006080820190508181036000830152613b4b818761358c565b90508181036020830152613b5f818661358c565b9050613b6e604083018561355f565b613b7b606083018461356e565b95945050505050565b600060c0820190508181036000830152613b9e818961358c565b90508181036020830152613bb2818861358c565b90508181036040830152613bc6818761358c565b9050613bd5606083018661398e565b8181036080830152613be7818561358c565b9050613bf660a083018461398e565b979650505050505050565b60006040820190508181036000830152613c1b818561358c565b9050613c2a602083018461398e565b9392505050565b60006020820190508181036000830152613c4a816135f6565b9050919050565b60006020820190508181036000830152613c6a81613636565b9050919050565b60006020820190508181036000830152613c8a8161369c565b9050919050565b60006020820190508181036000830152613caa816136dc565b9050919050565b60006020820190508181036000830152613cca8161371c565b9050919050565b60006020820190508181036000830152613cea8161375c565b9050919050565b60006020820190508181036000830152613d0a816137c2565b9050919050565b60006020820190508181036000830152613d2a81613828565b9050919050565b60006020820190508181036000830152613d4a8161388e565b9050919050565b60006020820190508181036000830152613d6a816138ce565b9050919050565b60006020820190508181036000830152613d8a8161390e565b9050919050565b60006020820190508181036000830152613daa8161394e565b9050919050565b6000602082019050613dc6600083018461398e565b92915050565b600061014082019050613de2600083018d61398e565b8181036020830152613df4818c61358c565b9050613e03604083018b61355f565b8181036060830152613e15818a61358c565b90508181036080830152613e29818961358c565b9050613e3860a083018861398e565b81810360c0830152613e4a818761358c565b905081810360e0830152613e5e818661358c565b9050818103610100830152613e73818561358c565b9050818103610120830152613e88818461358c565b90509b9a5050505050505050505050565b6000608082019050613eae600083018761398e565b8181036020830152613ec0818661358c565b9050613ecf604083018561398e565b613edc606083018461355f565b95945050505050565b600061016082019050613efb600083018e61398e565b8181036020830152613f0d818d61358c565b9050613f1c604083018c61398e565b613f29606083018b61355f565b8181036080830152613f3b818a61358c565b905081810360a0830152613f4f818961358c565b9050613f5e60c083018861398e565b81810360e0830152613f70818761358c565b9050818103610100830152613f85818661358c565b9050818103610120830152613f9a818561358c565b9050818103610140830152613faf818461358c565b90509c9b505050505050505050505050565b6000604051905081810181811067ffffffffffffffff82111715613fe857613fe7614240565b5b8060405250919050565b600067ffffffffffffffff82111561400d5761400c614240565b5b601f19601f8301169050602081019050919050565b600081519050919050565b600082825260208201905092915050565b600081905092915050565b60006140548261411b565b915061405f8361411b565b9250827fffffffffffffffffffffffffffffffffffffffffffffffffffffffffffffffff03821115614094576140936141e2565b5b828201905092915050565b60006140aa8261411b565b91506140b58361411b565b9250828210156140c8576140c76141e2565b5b828203905092915050565b60006140de826140fb565b9050919050565b60008115159050919050565b6000819050919050565b600073ffffffffffffffffffffffffffffffffffffffff82169050919050565b6000819050919050565b82818337600083830152505050565b60005b83811015614152578082015181840152602081019050614137565b83811115614161576000848401525b50505050565b6000600282049050600182168061417f57607f821691505b6020821081141561419357614192614211565b5b50919050565b60006141a48261411b565b91507fffffffffffffffffffffffffffffffffffffffffffffffffffffffffffffffff8214156141d7576141d66141e2565b5b600182019050919050565b7f4e487b7100000000000000000000000000000000000000000000000000000000600052601160045260246000fd5b7f4e487b7100000000000000000000000000000000000000000000000000000000600052602260045260246000fd5b7f4e487b7100000000000000000000000000000000000000000000000000000000600052604160045260246000fd5b6000601f19601f8301169050919050565b614289816140d3565b811461429457600080fd5b50565b6142a08161411b565b81146142ab57600080fd5b5056fea2646970667358221220d69545db6f1f9fb475aa1cd98fd41800f94b7bc455c1a6d1e594bc70278a3bd964736f6c63430008000033","opcodes":"PUSH1 0x80 PUSH1 0x40 MSTORE CALLVALUE DUP1 ISZERO PUSH2 0x10 JUMPI PUSH1 0x0 DUP1 REVERT JUMPDEST POP CALLER PUSH1 0x0 DUP1 PUSH2 0x100 EXP DUP2 SLOAD DUP2 PUSH20 0xFFFFFFFFFFFFFFFFFFFFFFFFFFFFFFFFFFFFFFFF MUL NOT AND SWAP1 DUP4 PUSH20 0xFFFFFFFFFFFFFFFFFFFFFFFFFFFFFFFFFFFFFFFF AND MUL OR SWAP1 SSTORE POP PUSH1 0x0 DUP1 PUSH1 0x14 PUSH2 0x100 EXP DUP2 SLOAD DUP2 PUSH1 0xFF MUL NOT AND SWAP1 DUP4 ISZERO ISZERO MUL OR SWAP1 SSTORE POP PUSH1 0x0 DUP1 PUSH1 0x15 PUSH2 0x100 EXP DUP2 SLOAD DUP2 PUSH1 0xFF MUL NOT AND SWAP1 DUP4 ISZERO ISZERO MUL OR SWAP1 SSTORE POP PUSH2 0x42E4 DUP1 PUSH2 0x94 PUSH1 0x0 CODECOPY PUSH1 0x0 RETURN INVALID PUSH1 0x80 PUSH1 0x40 MSTORE CALLVALUE DUP1 ISZERO PUSH2 0x10 JUMPI PUSH1 0x0 DUP1 REVERT JUMPDEST POP PUSH1 0x4 CALLDATASIZE LT PUSH2 0x1DA JUMPI PUSH1 0x0 CALLDATALOAD PUSH1 0xE0 SHR DUP1 PUSH4 0x8B55C27A GT PUSH2 0x104 JUMPI DUP1 PUSH4 0xD0B7C7FF GT PUSH2 0xA2 JUMPI DUP1 PUSH4 0xEC8F8076 GT PUSH2 0x71 JUMPI DUP1 PUSH4 0xEC8F8076 EQ PUSH2 0x577 JUMPI DUP1 PUSH4 0xF31ADAC3 EQ PUSH2 0x593 JUMPI DUP1 PUSH4 0xF5BA1C87 EQ PUSH2 0x5B1 JUMPI DUP1 PUSH4 0xFA7F1BAE EQ PUSH2 0x5E1 JUMPI PUSH2 0x1DA JUMP JUMPDEST DUP1 PUSH4 0xD0B7C7FF EQ PUSH2 0x4DA JUMPI DUP1 PUSH4 0xDFBF53AE EQ PUSH2 0x4F6 JUMPI DUP1 PUSH4 0xE35F8CEF EQ PUSH2 0x517 JUMPI DUP1 PUSH4 0xEB2119DB EQ PUSH2 0x547 JUMPI PUSH2 0x1DA JUMP JUMPDEST DUP1 PUSH4 0xA2ADDD68 GT PUSH2 0xDE JUMPI DUP1 PUSH4 0xA2ADDD68 EQ PUSH2 0x44B JUMPI DUP1 PUSH4 0xA3EC138D EQ PUSH2 0x47B JUMPI DUP1 PUSH4 0xBB9AA28F EQ PUSH2 0x4B2 JUMPI DUP1 PUSH4 0xC5D00F5D EQ PUSH2 0x4D0 JUMPI PUSH2 0x1DA JUMP JUMPDEST DUP1 PUSH4 0x8B55C27A EQ PUSH2 0x3F1 JUMPI DUP1 PUSH4 0x8DA5CB5B EQ PUSH2 0x40F JUMPI DUP1 PUSH4 0x965473BD EQ PUSH2 0x42D JUMPI PUSH2 0x1DA JUMP JUMPDEST DUP1 PUSH4 0x3FA85856 GT PUSH2 0x17C JUMPI DUP1 PUSH4 0x6C28FDB1 GT PUSH2 0x14B JUMPI DUP1 PUSH4 0x6C28FDB1 EQ PUSH2 0x3A3 JUMPI DUP1 PUSH4 0x6C6C32D0 EQ PUSH2 0x3AD JUMPI DUP1 PUSH4 0x6EC0176D EQ PUSH2 0x3B7 JUMPI DUP1 PUSH4 0x893D20E8 EQ PUSH2 0x3D3 JUMPI PUSH2 0x1DA JUMP JUMPDEST DUP1 PUSH4 0x3FA85856 EQ PUSH2 0x306 JUMPI DUP1 PUSH4 0x40BCB769 EQ PUSH2 0x336 JUMPI DUP1 PUSH4 0x429B62E5 EQ PUSH2 0x354 JUMPI DUP1 PUSH4 0x5BABF5EF EQ PUSH2 0x387 JUMPI PUSH2 0x1DA JUMP JUMPDEST DUP1 PUSH4 0x2436E06B GT PUSH2 0x1B8 JUMPI DUP1 PUSH4 0x2436E06B EQ PUSH2 0x249 JUMPI DUP1 PUSH4 0x2BFDA515 EQ PUSH2 0x279 JUMPI DUP1 PUSH4 0x3477EE2E EQ PUSH2 0x297 JUMPI DUP1 PUSH4 0x35B8E820 EQ PUSH2 0x2D1 JUMPI PUSH2 0x1DA JUMP JUMPDEST DUP1 PUSH4 0x2D947EF EQ PUSH2 0x1DF JUMPI DUP1 PUSH4 0x9EEF43E EQ PUSH2 0x1FB JUMPI DUP1 PUSH4 0xAEA6806 EQ PUSH2 0x22B JUMPI JUMPDEST PUSH1 0x0 DUP1 REVERT JUMPDEST PUSH2 0x1F9 PUSH1 0x4 DUP1 CALLDATASIZE SUB DUP2 ADD SWAP1 PUSH2 0x1F4 SWAP2 SWAP1 PUSH2 0x3523 JUMP JUMPDEST PUSH2 0x5FF JUMP JUMPDEST STOP JUMPDEST PUSH2 0x215 PUSH1 0x4 DUP1 CALLDATASIZE SUB DUP2 ADD SWAP1 PUSH2 0x210 SWAP2 SWAP1 PUSH2 0x3137 JUMP JUMPDEST PUSH2 0x88A JUMP JUMPDEST PUSH1 0x40 MLOAD PUSH2 0x222 SWAP2 SWAP1 PUSH2 0x3A70 JUMP JUMPDEST PUSH1 0x40 MLOAD DUP1 SWAP2 SUB SWAP1 RETURN JUMPDEST PUSH2 0x233 PUSH2 0x8AA JUMP JUMPDEST PUSH1 0x40 MLOAD PUSH2 0x240 SWAP2 SWAP1 PUSH2 0x3DB1 JUMP JUMPDEST PUSH1 0x40 MLOAD DUP1 SWAP2 SUB SWAP1 RETURN JUMPDEST PUSH2 0x263 PUSH1 0x4 DUP1 CALLDATASIZE SUB DUP2 ADD SWAP1 PUSH2 0x25E SWAP2 SWAP1 PUSH2 0x34FA JUMP JUMPDEST PUSH2 0x906 JUMP JUMPDEST PUSH1 0x40 MLOAD PUSH2 0x270 SWAP2 SWAP1 PUSH2 0x39B4 JUMP JUMPDEST PUSH1 0x40 MLOAD DUP1 SWAP2 SUB SWAP1 RETURN JUMPDEST PUSH2 0x281 PUSH2 0x945 JUMP JUMPDEST PUSH1 0x40 MLOAD PUSH2 0x28E SWAP2 SWAP1 PUSH2 0x3A8B JUMP JUMPDEST PUSH1 0x40 MLOAD DUP1 SWAP2 SUB SWAP1 RETURN JUMPDEST PUSH2 0x2B1 PUSH1 0x4 DUP1 CALLDATASIZE SUB DUP2 ADD SWAP1 PUSH2 0x2AC SWAP2 SWAP1 PUSH2 0x34FA JUMP JUMPDEST PUSH2 0xA29 JUMP JUMPDEST PUSH1 0x40 MLOAD PUSH2 0x2C8 SWAP12 SWAP11 SWAP10 SWAP9 SWAP8 SWAP7 SWAP6 SWAP5 SWAP4 SWAP3 SWAP2 SWAP1 PUSH2 0x3EE5 JUMP JUMPDEST PUSH1 0x40 MLOAD DUP1 SWAP2 SUB SWAP1 RETURN JUMPDEST PUSH2 0x2EB PUSH1 0x4 DUP1 CALLDATASIZE SUB DUP2 ADD SWAP1 PUSH2 0x2E6 SWAP2 SWAP1 PUSH2 0x34FA JUMP JUMPDEST PUSH2 0xE6B JUMP JUMPDEST PUSH1 0x40 MLOAD PUSH2 0x2FD SWAP7 SWAP6 SWAP5 SWAP4 SWAP3 SWAP2 SWAP1 PUSH2 0x3B84 JUMP JUMPDEST PUSH1 0x40 MLOAD DUP1 SWAP2 SUB SWAP1 RETURN JUMPDEST PUSH2 0x320 PUSH1 0x4 DUP1 CALLDATASIZE SUB DUP2 ADD SWAP1 PUSH2 0x31B SWAP2 SWAP1 PUSH2 0x3137 JUMP JUMPDEST PUSH2 0x13D0 JUMP JUMPDEST PUSH1 0x40 MLOAD PUSH2 0x32D SWAP2 SWAP1 PUSH2 0x3A70 JUMP JUMPDEST PUSH1 0x40 MLOAD DUP1 SWAP2 SUB SWAP1 RETURN JUMPDEST PUSH2 0x33E PUSH2 0x13F0 JUMP JUMPDEST PUSH1 0x40 MLOAD PUSH2 0x34B SWAP2 SWAP1 PUSH2 0x3A70 JUMP JUMPDEST PUSH1 0x40 MLOAD DUP1 SWAP2 SUB SWAP1 RETURN JUMPDEST PUSH2 0x36E PUSH1 0x4 DUP1 CALLDATASIZE SUB DUP2 ADD SWAP1 PUSH2 0x369 SWAP2 SWAP1 PUSH2 0x3137 JUMP JUMPDEST PUSH2 0x1406 JUMP JUMPDEST PUSH1 0x40 MLOAD PUSH2 0x37E SWAP5 SWAP4 SWAP3 SWAP2 SWAP1 PUSH2 0x3B31 JUMP JUMPDEST PUSH1 0x40 MLOAD DUP1 SWAP2 SUB SWAP1 RETURN JUMPDEST PUSH2 0x3A1 PUSH1 0x4 DUP1 CALLDATASIZE SUB DUP2 ADD SWAP1 PUSH2 0x39C SWAP2 SWAP1 PUSH2 0x3160 JUMP JUMPDEST PUSH2 0x1573 JUMP JUMPDEST STOP JUMPDEST PUSH2 0x3AB PUSH2 0x1816 JUMP JUMPDEST STOP JUMPDEST PUSH2 0x3B5 PUSH2 0x1CBD JUMP JUMPDEST STOP JUMPDEST PUSH2 0x3D1 PUSH1 0x4 DUP1 CALLDATASIZE SUB DUP2 ADD SWAP1 PUSH2 0x3CC SWAP2 SWAP1 PUSH2 0x31DF JUMP JUMPDEST PUSH2 0x1D93 JUMP JUMPDEST STOP JUMPDEST PUSH2 0x3DB PUSH2 0x2075 JUMP JUMPDEST PUSH1 0x40 MLOAD PUSH2 0x3E8 SWAP2 SWAP1 PUSH2 0x39B4 JUMP JUMPDEST PUSH1 0x40 MLOAD DUP1 SWAP2 SUB SWAP1 RETURN JUMPDEST PUSH2 0x3F9 PUSH2 0x209E JUMP JUMPDEST PUSH1 0x40 MLOAD PUSH2 0x406 SWAP2 SWAP1 PUSH2 0x3A70 JUMP JUMPDEST PUSH1 0x40 MLOAD DUP1 SWAP2 SUB SWAP1 RETURN JUMPDEST PUSH2 0x417 PUSH2 0x20B4 JUMP JUMPDEST PUSH1 0x40 MLOAD PUSH2 0x424 SWAP2 SWAP1 PUSH2 0x39B4 JUMP JUMPDEST PUSH1 0x40 MLOAD DUP1 SWAP2 SUB SWAP1 RETURN JUMPDEST PUSH2 0x435 PUSH2 0x20D8 JUMP JUMPDEST PUSH1 0x40 MLOAD PUSH2 0x442 SWAP2 SWAP1 PUSH2 0x3A70 JUMP JUMPDEST PUSH1 0x40 MLOAD DUP1 SWAP2 SUB SWAP1 RETURN JUMPDEST PUSH2 0x465 PUSH1 0x4 DUP1 CALLDATASIZE SUB DUP2 ADD SWAP1 PUSH2 0x460 SWAP2 SWAP1 PUSH2 0x34FA JUMP JUMPDEST PUSH2 0x20EB JUMP JUMPDEST PUSH1 0x40 MLOAD PUSH2 0x472 SWAP2 SWAP1 PUSH2 0x39B4 JUMP JUMPDEST PUSH1 0x40 MLOAD DUP1 SWAP2 SUB SWAP1 RETURN JUMPDEST PUSH2 0x495 PUSH1 0x4 DUP1 CALLDATASIZE SUB DUP2 ADD SWAP1 PUSH2 0x490 SWAP2 SWAP1 PUSH2 0x3137 JUMP JUMPDEST PUSH2 0x212A JUMP JUMPDEST PUSH1 0x40 MLOAD PUSH2 0x4A9 SWAP9 SWAP8 SWAP7 SWAP6 SWAP5 SWAP4 SWAP3 SWAP2 SWAP1 PUSH2 0x39CF JUMP JUMPDEST PUSH1 0x40 MLOAD DUP1 SWAP2 SUB SWAP1 RETURN JUMPDEST PUSH2 0x4BA PUSH2 0x2447 JUMP JUMPDEST PUSH1 0x40 MLOAD PUSH2 0x4C7 SWAP2 SWAP1 PUSH2 0x3DB1 JUMP JUMPDEST PUSH1 0x40 MLOAD DUP1 SWAP2 SUB SWAP1 RETURN JUMPDEST PUSH2 0x4D8 PUSH2 0x2454 JUMP JUMPDEST STOP JUMPDEST PUSH2 0x4F4 PUSH1 0x4 DUP1 CALLDATASIZE SUB DUP2 ADD SWAP1 PUSH2 0x4EF SWAP2 SWAP1 PUSH2 0x347B JUMP JUMPDEST PUSH2 0x252B JUMP JUMPDEST STOP JUMPDEST PUSH2 0x4FE PUSH2 0x2A6E JUMP JUMPDEST PUSH1 0x40 MLOAD PUSH2 0x50E SWAP5 SWAP4 SWAP3 SWAP2 SWAP1 PUSH2 0x3E99 JUMP JUMPDEST PUSH1 0x40 MLOAD DUP1 SWAP2 SUB SWAP1 RETURN JUMPDEST PUSH2 0x531 PUSH1 0x4 DUP1 CALLDATASIZE SUB DUP2 ADD SWAP1 PUSH2 0x52C SWAP2 SWAP1 PUSH2 0x3137 JUMP JUMPDEST PUSH2 0x2B34 JUMP JUMPDEST PUSH1 0x40 MLOAD PUSH2 0x53E SWAP2 SWAP1 PUSH2 0x3A70 JUMP JUMPDEST PUSH1 0x40 MLOAD DUP1 SWAP2 SUB SWAP1 RETURN JUMPDEST PUSH2 0x561 PUSH1 0x4 DUP1 CALLDATASIZE SUB DUP2 ADD SWAP1 PUSH2 0x55C SWAP2 SWAP1 PUSH2 0x3137 JUMP JUMPDEST PUSH2 0x2B8A JUMP JUMPDEST PUSH1 0x40 MLOAD PUSH2 0x56E SWAP2 SWAP1 PUSH2 0x3A70 JUMP JUMPDEST PUSH1 0x40 MLOAD DUP1 SWAP2 SUB SWAP1 RETURN JUMPDEST PUSH2 0x591 PUSH1 0x4 DUP1 CALLDATASIZE SUB DUP2 ADD SWAP1 PUSH2 0x58C SWAP2 SWAP1 PUSH2 0x330D JUMP JUMPDEST PUSH2 0x2BE3 JUMP JUMPDEST STOP JUMPDEST PUSH2 0x59B PUSH2 0x2F46 JUMP JUMPDEST PUSH1 0x40 MLOAD PUSH2 0x5A8 SWAP2 SWAP1 PUSH2 0x3DB1 JUMP JUMPDEST PUSH1 0x40 MLOAD DUP1 SWAP2 SUB SWAP1 RETURN JUMPDEST PUSH2 0x5CB PUSH1 0x4 DUP1 CALLDATASIZE SUB DUP2 ADD SWAP1 PUSH2 0x5C6 SWAP2 SWAP1 PUSH2 0x3137 JUMP JUMPDEST PUSH2 0x2FA2 JUMP JUMPDEST PUSH1 0x40 MLOAD PUSH2 0x5D8 SWAP2 SWAP1 PUSH2 0x3DB1 JUMP JUMPDEST PUSH1 0x40 MLOAD DUP1 SWAP2 SUB SWAP1 RETURN JUMPDEST PUSH2 0x5E9 PUSH2 0x2FBA JUMP JUMPDEST PUSH1 0x40 MLOAD PUSH2 0x5F6 SWAP2 SWAP1 PUSH2 0x3A70 JUMP JUMPDEST PUSH1 0x40 MLOAD DUP1 SWAP2 SUB SWAP1 RETURN JUMPDEST PUSH1 0x0 PUSH1 0x14 SWAP1 SLOAD SWAP1 PUSH2 0x100 EXP SWAP1 DIV PUSH1 0xFF AND PUSH2 0x64E JUMPI PUSH1 0x40 MLOAD PUSH32 0x8C379A000000000000000000000000000000000000000000000000000000000 DUP2 MSTORE PUSH1 0x4 ADD PUSH2 0x645 SWAP1 PUSH2 0x3D71 JUMP JUMPDEST PUSH1 0x40 MLOAD DUP1 SWAP2 SUB SWAP1 REVERT JUMPDEST PUSH1 0x7 PUSH1 0x0 DUP3 PUSH20 0xFFFFFFFFFFFFFFFFFFFFFFFFFFFFFFFFFFFFFFFF AND PUSH20 0xFFFFFFFFFFFFFFFFFFFFFFFFFFFFFFFFFFFFFFFF AND DUP2 MSTORE PUSH1 0x20 ADD SWAP1 DUP2 MSTORE PUSH1 0x20 ADD PUSH1 0x0 KECCAK256 PUSH1 0x0 SWAP1 SLOAD SWAP1 PUSH2 0x100 EXP SWAP1 DIV PUSH1 0xFF AND ISZERO PUSH2 0x6DB JUMPI PUSH1 0x40 MLOAD PUSH32 0x8C379A000000000000000000000000000000000000000000000000000000000 DUP2 MSTORE PUSH1 0x4 ADD PUSH2 0x6D2 SWAP1 PUSH2 0x3C31 JUMP JUMPDEST PUSH1 0x40 MLOAD DUP1 SWAP2 SUB SWAP1 REVERT JUMPDEST PUSH1 0x0 DUP3 GT DUP1 ISZERO PUSH2 0x6F0 JUMPI POP PUSH1 0x5 DUP1 SLOAD SWAP1 POP DUP3 GT ISZERO JUMPDEST PUSH2 0x72F JUMPI PUSH1 0x40 MLOAD PUSH32 0x8C379A000000000000000000000000000000000000000000000000000000000 DUP2 MSTORE PUSH1 0x4 ADD PUSH2 0x726 SWAP1 PUSH2 0x3D91 JUMP JUMPDEST PUSH1 0x40 MLOAD DUP1 SWAP2 SUB SWAP1 REVERT JUMPDEST PUSH1 0x1 PUSH1 0x7 PUSH1 0x0 DUP4 PUSH20 0xFFFFFFFFFFFFFFFFFFFFFFFFFFFFFFFFFFFFFFFF AND PUSH20 0xFFFFFFFFFFFFFFFFFFFFFFFFFFFFFFFFFFFFFFFF AND DUP2 MSTORE PUSH1 0x20 ADD SWAP1 DUP2 MSTORE PUSH1 0x20 ADD PUSH1 0x0 KECCAK256 PUSH1 0x0 PUSH2 0x100 EXP DUP2 SLOAD DUP2 PUSH1 0xFF MUL NOT AND SWAP1 DUP4 ISZERO ISZERO MUL OR SWAP1 SSTORE POP DUP2 PUSH1 0x8 PUSH1 0x0 DUP4 PUSH20 0xFFFFFFFFFFFFFFFFFFFFFFFFFFFFFFFFFFFFFFFF AND PUSH20 0xFFFFFFFFFFFFFFFFFFFFFFFFFFFFFFFFFFFFFFFF AND DUP2 MSTORE PUSH1 0x20 ADD SWAP1 DUP2 MSTORE PUSH1 0x20 ADD PUSH1 0x0 KECCAK256 DUP2 SWAP1 SSTORE POP PUSH1 0x5 PUSH1 0x1 DUP4 PUSH2 0x7DA SWAP2 SWAP1 PUSH2 0x409F JUMP JUMPDEST DUP2 SLOAD DUP2 LT PUSH2 0x811 JUMPI PUSH32 0x4E487B7100000000000000000000000000000000000000000000000000000000 PUSH1 0x0 MSTORE PUSH1 0x32 PUSH1 0x4 MSTORE PUSH1 0x24 PUSH1 0x0 REVERT JUMPDEST SWAP1 PUSH1 0x0 MSTORE PUSH1 0x20 PUSH1 0x0 KECCAK256 SWAP1 PUSH1 0xB MUL ADD PUSH1 0x2 ADD PUSH1 0x0 DUP2 SLOAD DUP1 SWAP3 SWAP2 SWAP1 PUSH2 0x833 SWAP1 PUSH2 0x4199 JUMP JUMPDEST SWAP2 SWAP1 POP SSTORE POP DUP1 PUSH20 0xFFFFFFFFFFFFFFFFFFFFFFFFFFFFFFFFFFFFFFFF AND PUSH32 0x4D99B957A2BC29A30EBD96A7BE8E68FE50A3C701DB28A91436490B7D53870CA4 DUP4 PUSH1 0x40 MLOAD PUSH2 0x87E SWAP2 SWAP1 PUSH2 0x3DB1 JUMP JUMPDEST PUSH1 0x40 MLOAD DUP1 SWAP2 SUB SWAP1 LOG2 POP POP JUMP JUMPDEST PUSH1 0x7 PUSH1 0x20 MSTORE DUP1 PUSH1 0x0 MSTORE PUSH1 0x40 PUSH1 0x0 KECCAK256 PUSH1 0x0 SWAP2 POP SLOAD SWAP1 PUSH2 0x100 EXP SWAP1 DIV PUSH1 0xFF AND DUP2 JUMP JUMPDEST PUSH1 0x0 DUP1 PUSH1 0x14 SWAP1 SLOAD SWAP1 PUSH2 0x100 EXP SWAP1 DIV PUSH1 0xFF AND ISZERO PUSH2 0x8FB JUMPI PUSH1 0x40 MLOAD PUSH32 0x8C379A000000000000000000000000000000000000000000000000000000000 DUP2 MSTORE PUSH1 0x4 ADD PUSH2 0x8F2 SWAP1 PUSH2 0x3C91 JUMP JUMPDEST PUSH1 0x40 MLOAD DUP1 SWAP2 SUB SWAP1 REVERT JUMPDEST PUSH1 0x1 PUSH1 0x0 ADD SLOAD SWAP1 POP SWAP1 JUMP JUMPDEST PUSH1 0xA DUP2 DUP2 SLOAD DUP2 LT PUSH2 0x916 JUMPI PUSH1 0x0 DUP1 REVERT JUMPDEST SWAP1 PUSH1 0x0 MSTORE PUSH1 0x20 PUSH1 0x0 KECCAK256 ADD PUSH1 0x0 SWAP2 POP SLOAD SWAP1 PUSH2 0x100 EXP SWAP1 DIV PUSH20 0xFFFFFFFFFFFFFFFFFFFFFFFFFFFFFFFFFFFFFFFF AND DUP2 JUMP JUMPDEST PUSH1 0x60 PUSH1 0x0 PUSH1 0x14 SWAP1 SLOAD SWAP1 PUSH2 0x100 EXP SWAP1 DIV PUSH1 0xFF AND ISZERO PUSH2 0x997 JUMPI PUSH1 0x40 MLOAD PUSH32 0x8C379A000000000000000000000000000000000000000000000000000000000 DUP2 MSTORE PUSH1 0x4 ADD PUSH2 0x98E SWAP1 PUSH2 0x3C91 JUMP JUMPDEST PUSH1 0x40 MLOAD DUP1 SWAP2 SUB SWAP1 REVERT JUMPDEST PUSH1 0x1 DUP1 ADD DUP1 SLOAD PUSH2 0x9A6 SWAP1 PUSH2 0x4167 JUMP JUMPDEST DUP1 PUSH1 0x1F ADD PUSH1 0x20 DUP1 SWAP2 DIV MUL PUSH1 0x20 ADD PUSH1 0x40 MLOAD SWAP1 DUP2 ADD PUSH1 0x40 MSTORE DUP1 SWAP3 SWAP2 SWAP1 DUP2 DUP2 MSTORE PUSH1 0x20 ADD DUP3 DUP1 SLOAD PUSH2 0x9D2 SWAP1 PUSH2 0x4167 JUMP JUMPDEST DUP1 ISZERO PUSH2 0xA1F JUMPI DUP1 PUSH1 0x1F LT PUSH2 0x9F4 JUMPI PUSH2 0x100 DUP1 DUP4 SLOAD DIV MUL DUP4 MSTORE SWAP2 PUSH1 0x20 ADD SWAP2 PUSH2 0xA1F JUMP JUMPDEST DUP3 ADD SWAP2 SWAP1 PUSH1 0x0 MSTORE PUSH1 0x20 PUSH1 0x0 KECCAK256 SWAP1 JUMPDEST DUP2 SLOAD DUP2 MSTORE SWAP1 PUSH1 0x1 ADD SWAP1 PUSH1 0x20 ADD DUP1 DUP4 GT PUSH2 0xA02 JUMPI DUP3 SWAP1 SUB PUSH1 0x1F AND DUP3 ADD SWAP2 JUMPDEST POP POP POP POP POP SWAP1 POP SWAP1 JUMP JUMPDEST PUSH1 0x5 DUP2 DUP2 SLOAD DUP2 LT PUSH2 0xA39 JUMPI PUSH1 0x0 DUP1 REVERT JUMPDEST SWAP1 PUSH1 0x0 MSTORE PUSH1 0x20 PUSH1 0x0 KECCAK256 SWAP1 PUSH1 0xB MUL ADD PUSH1 0x0 SWAP2 POP SWAP1 POP DUP1 PUSH1 0x0 ADD SLOAD SWAP1 DUP1 PUSH1 0x1 ADD DUP1 SLOAD PUSH2 0xA62 SWAP1 PUSH2 0x4167 JUMP JUMPDEST DUP1 PUSH1 0x1F ADD PUSH1 0x20 DUP1 SWAP2 DIV MUL PUSH1 0x20 ADD PUSH1 0x40 MLOAD SWAP1 DUP2 ADD PUSH1 0x40 MSTORE DUP1 SWAP3 SWAP2 SWAP1 DUP2 DUP2 MSTORE PUSH1 0x20 ADD DUP3 DUP1 SLOAD PUSH2 0xA8E SWAP1 PUSH2 0x4167 JUMP JUMPDEST DUP1 ISZERO PUSH2 0xADB JUMPI DUP1 PUSH1 0x1F LT PUSH2 0xAB0 JUMPI PUSH2 0x100 DUP1 DUP4 SLOAD DIV MUL DUP4 MSTORE SWAP2 PUSH1 0x20 ADD SWAP2 PUSH2 0xADB JUMP JUMPDEST DUP3 ADD SWAP2 SWAP1 PUSH1 0x0 MSTORE PUSH1 0x20 PUSH1 0x0 KECCAK256 SWAP1 JUMPDEST DUP2 SLOAD DUP2 MSTORE SWAP1 PUSH1 0x1 ADD SWAP1 PUSH1 0x20 ADD DUP1 DUP4 GT PUSH2 0xABE JUMPI DUP3 SWAP1 SUB PUSH1 0x1F AND DUP3 ADD SWAP2 JUMPDEST POP POP POP POP POP SWAP1 DUP1 PUSH1 0x2 ADD SLOAD SWAP1 DUP1 PUSH1 0x3 ADD PUSH1 0x0 SWAP1 SLOAD SWAP1 PUSH2 0x100 EXP SWAP1 DIV PUSH20 0xFFFFFFFFFFFFFFFFFFFFFFFFFFFFFFFFFFFFFFFF AND SWAP1 DUP1 PUSH1 0x4 ADD DUP1 SLOAD PUSH2 0xB1C SWAP1 PUSH2 0x4167 JUMP JUMPDEST DUP1 PUSH1 0x1F ADD PUSH1 0x20 DUP1 SWAP2 DIV MUL PUSH1 0x20 ADD PUSH1 0x40 MLOAD SWAP1 DUP2 ADD PUSH1 0x40 MSTORE DUP1 SWAP3 SWAP2 SWAP1 DUP2 DUP2 MSTORE PUSH1 0x20 ADD DUP3 DUP1 SLOAD PUSH2 0xB48 SWAP1 PUSH2 0x4167 JUMP JUMPDEST DUP1 ISZERO PUSH2 0xB95 JUMPI DUP1 PUSH1 0x1F LT PUSH2 0xB6A JUMPI PUSH2 0x100 DUP1 DUP4 SLOAD DIV MUL DUP4 MSTORE SWAP2 PUSH1 0x20 ADD SWAP2 PUSH2 0xB95 JUMP JUMPDEST DUP3 ADD SWAP2 SWAP1 PUSH1 0x0 MSTORE PUSH1 0x20 PUSH1 0x0 KECCAK256 SWAP1 JUMPDEST DUP2 SLOAD DUP2 MSTORE SWAP1 PUSH1 0x1 ADD SWAP1 PUSH1 0x20 ADD DUP1 DUP4 GT PUSH2 0xB78 JUMPI DUP3 SWAP1 SUB PUSH1 0x1F AND DUP3 ADD SWAP2 JUMPDEST POP POP POP POP POP SWAP1 DUP1 PUSH1 0x5 ADD DUP1 SLOAD PUSH2 0xBAA SWAP1 PUSH2 0x4167 JUMP JUMPDEST DUP1 PUSH1 0x1F ADD PUSH1 0x20 DUP1 SWAP2 DIV MUL PUSH1 0x20 ADD PUSH1 0x40 MLOAD SWAP1 DUP2 ADD PUSH1 0x40 MSTORE DUP1 SWAP3 SWAP2 SWAP1 DUP2 DUP2 MSTORE PUSH1 0x20 ADD DUP3 DUP1 SLOAD PUSH2 0xBD6 SWAP1 PUSH2 0x4167 JUMP JUMPDEST DUP1 ISZERO PUSH2 0xC23 JUMPI DUP1 PUSH1 0x1F LT PUSH2 0xBF8 JUMPI PUSH2 0x100 DUP1 DUP4 SLOAD DIV MUL DUP4 MSTORE SWAP2 PUSH1 0x20 ADD SWAP2 PUSH2 0xC23 JUMP JUMPDEST DUP3 ADD SWAP2 SWAP1 PUSH1 0x0 MSTORE PUSH1 0x20 PUSH1 0x0 KECCAK256 SWAP1 JUMPDEST DUP2 SLOAD DUP2 MSTORE SWAP1 PUSH1 0x1 ADD SWAP1 PUSH1 0x20 ADD DUP1 DUP4 GT PUSH2 0xC06 JUMPI DUP3 SWAP1 SUB PUSH1 0x1F AND DUP3 ADD SWAP2 JUMPDEST POP POP POP POP POP SWAP1 DUP1 PUSH1 0x6 ADD SLOAD SWAP1 DUP1 PUSH1 0x7 ADD DUP1 SLOAD PUSH2 0xC3E SWAP1 PUSH2 0x4167 JUMP JUMPDEST DUP1 PUSH1 0x1F ADD PUSH1 0x20 DUP1 SWAP2 DIV MUL PUSH1 0x20 ADD PUSH1 0x40 MLOAD SWAP1 DUP2 ADD PUSH1 0x40 MSTORE DUP1 SWAP3 SWAP2 SWAP1 DUP2 DUP2 MSTORE PUSH1 0x20 ADD DUP3 DUP1 SLOAD PUSH2 0xC6A SWAP1 PUSH2 0x4167 JUMP JUMPDEST DUP1 ISZERO PUSH2 0xCB7 JUMPI DUP1 PUSH1 0x1F LT PUSH2 0xC8C JUMPI PUSH2 0x100 DUP1 DUP4 SLOAD DIV MUL DUP4 MSTORE SWAP2 PUSH1 0x20 ADD SWAP2 PUSH2 0xCB7 JUMP JUMPDEST DUP3 ADD SWAP2 SWAP1 PUSH1 0x0 MSTORE PUSH1 0x20 PUSH1 0x0 KECCAK256 SWAP1 JUMPDEST DUP2 SLOAD DUP2 MSTORE SWAP1 PUSH1 0x1 ADD SWAP1 PUSH1 0x20 ADD DUP1 DUP4 GT PUSH2 0xC9A JUMPI DUP3 SWAP1 SUB PUSH1 0x1F AND DUP3 ADD SWAP2 JUMPDEST POP POP POP POP POP SWAP1 DUP1 PUSH1 0x8 ADD DUP1 SLOAD PUSH2 0xCCC SWAP1 PUSH2 0x4167 JUMP JUMPDEST DUP1 PUSH1 0x1F ADD PUSH1 0x20 DUP1 SWAP2 DIV MUL PUSH1 0x20 ADD PUSH1 0x40 MLOAD SWAP1 DUP2 ADD PUSH1 0x40 MSTORE DUP1 SWAP3 SWAP2 SWAP1 DUP2 DUP2 MSTORE PUSH1 0x20 ADD DUP3 DUP1 SLOAD PUSH2 0xCF8 SWAP1 PUSH2 0x4167 JUMP JUMPDEST DUP1 ISZERO PUSH2 0xD45 JUMPI DUP1 PUSH1 0x1F LT PUSH2 0xD1A JUMPI PUSH2 0x100 DUP1 DUP4 SLOAD DIV MUL DUP4 MSTORE SWAP2 PUSH1 0x20 ADD SWAP2 PUSH2 0xD45 JUMP JUMPDEST DUP3 ADD SWAP2 SWAP1 PUSH1 0x0 MSTORE PUSH1 0x20 PUSH1 0x0 KECCAK256 SWAP1 JUMPDEST DUP2 SLOAD DUP2 MSTORE SWAP1 PUSH1 0x1 ADD SWAP1 PUSH1 0x20 ADD DUP1 DUP4 GT PUSH2 0xD28 JUMPI DUP3 SWAP1 SUB PUSH1 0x1F AND DUP3 ADD SWAP2 JUMPDEST POP POP POP POP POP SWAP1 DUP1 PUSH1 0x9 ADD DUP1 SLOAD PUSH2 0xD5A SWAP1 PUSH2 0x4167 JUMP JUMPDEST DUP1 PUSH1 0x1F ADD PUSH1 0x20 DUP1 SWAP2 DIV MUL PUSH1 0x20 ADD PUSH1 0x40 MLOAD SWAP1 DUP2 ADD PUSH1 0x40 MSTORE DUP1 SWAP3 SWAP2 SWAP1 DUP2 DUP2 MSTORE PUSH1 0x20 ADD DUP3 DUP1 SLOAD PUSH2 0xD86 SWAP1 PUSH2 0x4167 JUMP JUMPDEST DUP1 ISZERO PUSH2 0xDD3 JUMPI DUP1 PUSH1 0x1F LT PUSH2 0xDA8 JUMPI PUSH2 0x100 DUP1 DUP4 SLOAD DIV MUL DUP4 MSTORE SWAP2 PUSH1 0x20 ADD SWAP2 PUSH2 0xDD3 JUMP JUMPDEST DUP3 ADD SWAP2 SWAP1 PUSH1 0x0 MSTORE PUSH1 0x20 PUSH1 0x0 KECCAK256 SWAP1 JUMPDEST DUP2 SLOAD DUP2 MSTORE SWAP1 PUSH1 0x1 ADD SWAP1 PUSH1 0x20 ADD DUP1 DUP4 GT PUSH2 0xDB6 JUMPI DUP3 SWAP1 SUB PUSH1 0x1F AND DUP3 ADD SWAP2 JUMPDEST POP POP POP POP POP SWAP1 DUP1 PUSH1 0xA ADD DUP1 SLOAD PUSH2 0xDE8 SWAP1 PUSH2 0x4167 JUMP JUMPDEST DUP1 PUSH1 0x1F ADD PUSH1 0x20 DUP1 SWAP2 DIV MUL PUSH1 0x20 ADD PUSH1 0x40 MLOAD SWAP1 DUP2 ADD PUSH1 0x40 MSTORE DUP1 SWAP3 SWAP2 SWAP1 DUP2 DUP2 MSTORE PUSH1 0x20 ADD DUP3 DUP1 SLOAD PUSH2 0xE14 SWAP1 PUSH2 0x4167 JUMP JUMPDEST DUP1 ISZERO PUSH2 0xE61 JUMPI DUP1 PUSH1 0x1F LT PUSH2 0xE36 JUMPI PUSH2 0x100 DUP1 DUP4 SLOAD DIV MUL DUP4 MSTORE SWAP2 PUSH1 0x20 ADD SWAP2 PUSH2 0xE61 JUMP JUMPDEST DUP3 ADD SWAP2 SWAP1 PUSH1 0x0 MSTORE PUSH1 0x20 PUSH1 0x0 KECCAK256 SWAP1 JUMPDEST DUP2 SLOAD DUP2 MSTORE SWAP1 PUSH1 0x1 ADD SWAP1 PUSH1 0x20 ADD DUP1 DUP4 GT PUSH2 0xE44 JUMPI DUP3 SWAP1 SUB PUSH1 0x1F AND DUP3 ADD SWAP2 JUMPDEST POP POP POP POP POP SWAP1 POP DUP12 JUMP JUMPDEST PUSH1 0x60 DUP1 PUSH1 0x60 PUSH1 0x0 PUSH1 0x60 PUSH1 0x0 DUP1 DUP8 GT DUP1 ISZERO PUSH2 0xE8A JUMPI POP PUSH1 0x5 DUP1 SLOAD SWAP1 POP DUP8 GT ISZERO JUMPDEST PUSH2 0xEC9 JUMPI PUSH1 0x40 MLOAD PUSH32 0x8C379A000000000000000000000000000000000000000000000000000000000 DUP2 MSTORE PUSH1 0x4 ADD PUSH2 0xEC0 SWAP1 PUSH2 0x3D91 JUMP JUMPDEST PUSH1 0x40 MLOAD DUP1 SWAP2 SUB SWAP1 REVERT JUMPDEST PUSH1 0x0 PUSH1 0x5 PUSH1 0x1 DUP10 PUSH2 0xEDA SWAP2 SWAP1 PUSH2 0x409F JUMP JUMPDEST DUP2 SLOAD DUP2 LT PUSH2 0xF11 JUMPI PUSH32 0x4E487B7100000000000000000000000000000000000000000000000000000000 PUSH1 0x0 MSTORE PUSH1 0x32 PUSH1 0x4 MSTORE PUSH1 0x24 PUSH1 0x0 REVERT JUMPDEST SWAP1 PUSH1 0x0 MSTORE PUSH1 0x20 PUSH1 0x0 KECCAK256 SWAP1 PUSH1 0xB MUL ADD PUSH1 0x40 MLOAD DUP1 PUSH2 0x160 ADD PUSH1 0x40 MSTORE SWAP1 DUP2 PUSH1 0x0 DUP3 ADD SLOAD DUP2 MSTORE PUSH1 0x20 ADD PUSH1 0x1 DUP3 ADD DUP1 SLOAD PUSH2 0xF45 SWAP1 PUSH2 0x4167 JUMP JUMPDEST DUP1 PUSH1 0x1F ADD PUSH1 0x20 DUP1 SWAP2 DIV MUL PUSH1 0x20 ADD PUSH1 0x40 MLOAD SWAP1 DUP2 ADD PUSH1 0x40 MSTORE DUP1 SWAP3 SWAP2 SWAP1 DUP2 DUP2 MSTORE PUSH1 0x20 ADD DUP3 DUP1 SLOAD PUSH2 0xF71 SWAP1 PUSH2 0x4167 JUMP JUMPDEST DUP1 ISZERO PUSH2 0xFBE JUMPI DUP1 PUSH1 0x1F LT PUSH2 0xF93 JUMPI PUSH2 0x100 DUP1 DUP4 SLOAD DIV MUL DUP4 MSTORE SWAP2 PUSH1 0x20 ADD SWAP2 PUSH2 0xFBE JUMP JUMPDEST DUP3 ADD SWAP2 SWAP1 PUSH1 0x0 MSTORE PUSH1 0x20 PUSH1 0x0 KECCAK256 SWAP1 JUMPDEST DUP2 SLOAD DUP2 MSTORE SWAP1 PUSH1 0x1 ADD SWAP1 PUSH1 0x20 ADD DUP1 DUP4 GT PUSH2 0xFA1 JUMPI DUP3 SWAP1 SUB PUSH1 0x1F AND DUP3 ADD SWAP2 JUMPDEST POP POP POP POP POP DUP2 MSTORE PUSH1 0x20 ADD PUSH1 0x2 DUP3 ADD SLOAD DUP2 MSTORE PUSH1 0x20 ADD PUSH1 0x3 DUP3 ADD PUSH1 0x0 SWAP1 SLOAD SWAP1 PUSH2 0x100 EXP SWAP1 DIV PUSH20 0xFFFFFFFFFFFFFFFFFFFFFFFFFFFFFFFFFFFFFFFF AND PUSH20 0xFFFFFFFFFFFFFFFFFFFFFFFFFFFFFFFFFFFFFFFF AND PUSH20 0xFFFFFFFFFFFFFFFFFFFFFFFFFFFFFFFFFFFFFFFF AND DUP2 MSTORE PUSH1 0x20 ADD PUSH1 0x4 DUP3 ADD DUP1 SLOAD PUSH2 0x1037 SWAP1 PUSH2 0x4167 JUMP JUMPDEST DUP1 PUSH1 0x1F ADD PUSH1 0x20 DUP1 SWAP2 DIV MUL PUSH1 0x20 ADD PUSH1 0x40 MLOAD SWAP1 DUP2 ADD PUSH1 0x40 MSTORE DUP1 SWAP3 SWAP2 SWAP1 DUP2 DUP2 MSTORE PUSH1 0x20 ADD DUP3 DUP1 SLOAD PUSH2 0x1063 SWAP1 PUSH2 0x4167 JUMP JUMPDEST DUP1 ISZERO PUSH2 0x10B0 JUMPI DUP1 PUSH1 0x1F LT PUSH2 0x1085 JUMPI PUSH2 0x100 DUP1 DUP4 SLOAD DIV MUL DUP4 MSTORE SWAP2 PUSH1 0x20 ADD SWAP2 PUSH2 0x10B0 JUMP JUMPDEST DUP3 ADD SWAP2 SWAP1 PUSH1 0x0 MSTORE PUSH1 0x20 PUSH1 0x0 KECCAK256 SWAP1 JUMPDEST DUP2 SLOAD DUP2 MSTORE SWAP1 PUSH1 0x1 ADD SWAP1 PUSH1 0x20 ADD DUP1 DUP4 GT PUSH2 0x1093 JUMPI DUP3 SWAP1 SUB PUSH1 0x1F AND DUP3 ADD SWAP2 JUMPDEST POP POP POP POP POP DUP2 MSTORE PUSH1 0x20 ADD PUSH1 0x5 DUP3 ADD DUP1 SLOAD PUSH2 0x10C9 SWAP1 PUSH2 0x4167 JUMP JUMPDEST DUP1 PUSH1 0x1F ADD PUSH1 0x20 DUP1 SWAP2 DIV MUL PUSH1 0x20 ADD PUSH1 0x40 MLOAD SWAP1 DUP2 ADD PUSH1 0x40 MSTORE DUP1 SWAP3 SWAP2 SWAP1 DUP2 DUP2 MSTORE PUSH1 0x20 ADD DUP3 DUP1 SLOAD PUSH2 0x10F5 SWAP1 PUSH2 0x4167 JUMP JUMPDEST DUP1 ISZERO PUSH2 0x1142 JUMPI DUP1 PUSH1 0x1F LT PUSH2 0x1117 JUMPI PUSH2 0x100 DUP1 DUP4 SLOAD DIV MUL DUP4 MSTORE SWAP2 PUSH1 0x20 ADD SWAP2 PUSH2 0x1142 JUMP JUMPDEST DUP3 ADD SWAP2 SWAP1 PUSH1 0x0 MSTORE PUSH1 0x20 PUSH1 0x0 KECCAK256 SWAP1 JUMPDEST DUP2 SLOAD DUP2 MSTORE SWAP1 PUSH1 0x1 ADD SWAP1 PUSH1 0x20 ADD DUP1 DUP4 GT PUSH2 0x1125 JUMPI DUP3 SWAP1 SUB PUSH1 0x1F AND DUP3 ADD SWAP2 JUMPDEST POP POP POP POP POP DUP2 MSTORE PUSH1 0x20 ADD PUSH1 0x6 DUP3 ADD SLOAD DUP2 MSTORE PUSH1 0x20 ADD PUSH1 0x7 DUP3 ADD DUP1 SLOAD PUSH2 0x1165 SWAP1 PUSH2 0x4167 JUMP JUMPDEST DUP1 PUSH1 0x1F ADD PUSH1 0x20 DUP1 SWAP2 DIV MUL PUSH1 0x20 ADD PUSH1 0x40 MLOAD SWAP1 DUP2 ADD PUSH1 0x40 MSTORE DUP1 SWAP3 SWAP2 SWAP1 DUP2 DUP2 MSTORE PUSH1 0x20 ADD DUP3 DUP1 SLOAD PUSH2 0x1191 SWAP1 PUSH2 0x4167 JUMP JUMPDEST DUP1 ISZERO PUSH2 0x11DE JUMPI DUP1 PUSH1 0x1F LT PUSH2 0x11B3 JUMPI PUSH2 0x100 DUP1 DUP4 SLOAD DIV MUL DUP4 MSTORE SWAP2 PUSH1 0x20 ADD SWAP2 PUSH2 0x11DE JUMP JUMPDEST DUP3 ADD SWAP2 SWAP1 PUSH1 0x0 MSTORE PUSH1 0x20 PUSH1 0x0 KECCAK256 SWAP1 JUMPDEST DUP2 SLOAD DUP2 MSTORE SWAP1 PUSH1 0x1 ADD SWAP1 PUSH1 0x20 ADD DUP1 DUP4 GT PUSH2 0x11C1 JUMPI DUP3 SWAP1 SUB PUSH1 0x1F AND DUP3 ADD SWAP2 JUMPDEST POP POP POP POP POP DUP2 MSTORE PUSH1 0x20 ADD PUSH1 0x8 DUP3 ADD DUP1 SLOAD PUSH2 0x11F7 SWAP1 PUSH2 0x4167 JUMP JUMPDEST DUP1 PUSH1 0x1F ADD PUSH1 0x20 DUP1 SWAP2 DIV MUL PUSH1 0x20 ADD PUSH1 0x40 MLOAD SWAP1 DUP2 ADD PUSH1 0x40 MSTORE DUP1 SWAP3 SWAP2 SWAP1 DUP2 DUP2 MSTORE PUSH1 0x20 ADD DUP3 DUP1 SLOAD PUSH2 0x1223 SWAP1 PUSH2 0x4167 JUMP JUMPDEST DUP1 ISZERO PUSH2 0x1270 JUMPI DUP1 PUSH1 0x1F LT PUSH2 0x1245 JUMPI PUSH2 0x100 DUP1 DUP4 SLOAD DIV MUL DUP4 MSTORE SWAP2 PUSH1 0x20 ADD SWAP2 PUSH2 0x1270 JUMP JUMPDEST DUP3 ADD SWAP2 SWAP1 PUSH1 0x0 MSTORE PUSH1 0x20 PUSH1 0x0 KECCAK256 SWAP1 JUMPDEST DUP2 SLOAD DUP2 MSTORE SWAP1 PUSH1 0x1 ADD SWAP1 PUSH1 0x20 ADD DUP1 DUP4 GT PUSH2 0x1253 JUMPI DUP3 SWAP1 SUB PUSH1 0x1F AND DUP3 ADD SWAP2 JUMPDEST POP POP POP POP POP DUP2 MSTORE PUSH1 0x20 ADD PUSH1 0x9 DUP3 ADD DUP1 SLOAD PUSH2 0x1289 SWAP1 PUSH2 0x4167 JUMP JUMPDEST DUP1 PUSH1 0x1F ADD PUSH1 0x20 DUP1 SWAP2 DIV MUL PUSH1 0x20 ADD PUSH1 0x40 MLOAD SWAP1 DUP2 ADD PUSH1 0x40 MSTORE DUP1 SWAP3 SWAP2 SWAP1 DUP2 DUP2 MSTORE PUSH1 0x20 ADD DUP3 DUP1 SLOAD PUSH2 0x12B5 SWAP1 PUSH2 0x4167 JUMP JUMPDEST DUP1 ISZERO PUSH2 0x1302 JUMPI DUP1 PUSH1 0x1F LT PUSH2 0x12D7 JUMPI PUSH2 0x100 DUP1 DUP4 SLOAD DIV MUL DUP4 MSTORE SWAP2 PUSH1 0x20 ADD SWAP2 PUSH2 0x1302 JUMP JUMPDEST DUP3 ADD SWAP2 SWAP1 PUSH1 0x0 MSTORE PUSH1 0x20 PUSH1 0x0 KECCAK256 SWAP1 JUMPDEST DUP2 SLOAD DUP2 MSTORE SWAP1 PUSH1 0x1 ADD SWAP1 PUSH1 0x20 ADD DUP1 DUP4 GT PUSH2 0x12E5 JUMPI DUP3 SWAP1 SUB PUSH1 0x1F AND DUP3 ADD SWAP2 JUMPDEST POP POP POP POP POP DUP2 MSTORE PUSH1 0x20 ADD PUSH1 0xA DUP3 ADD DUP1 SLOAD PUSH2 0x131B SWAP1 PUSH2 0x4167 JUMP JUMPDEST DUP1 PUSH1 0x1F ADD PUSH1 0x20 DUP1 SWAP2 DIV MUL PUSH1 0x20 ADD PUSH1 0x40 MLOAD SWAP1 DUP2 ADD PUSH1 0x40 MSTORE DUP1 SWAP3 SWAP2 SWAP1 DUP2 DUP2 MSTORE PUSH1 0x20 ADD DUP3 DUP1 SLOAD PUSH2 0x1347 SWAP1 PUSH2 0x4167 JUMP JUMPDEST DUP1 ISZERO PUSH2 0x1394 JUMPI DUP1 PUSH1 0x1F LT PUSH2 0x1369 JUMPI PUSH2 0x100 DUP1 DUP4 SLOAD DIV MUL DUP4 MSTORE SWAP2 PUSH1 0x20 ADD SWAP2 PUSH2 0x1394 JUMP JUMPDEST DUP3 ADD SWAP2 SWAP1 PUSH1 0x0 MSTORE PUSH1 0x20 PUSH1 0x0 KECCAK256 SWAP1 JUMPDEST DUP2 SLOAD DUP2 MSTORE SWAP1 PUSH1 0x1 ADD SWAP1 PUSH1 0x20 ADD DUP1 DUP4 GT PUSH2 0x1377 JUMPI DUP3 SWAP1 SUB PUSH1 0x1F AND DUP3 ADD SWAP2 JUMPDEST POP POP POP POP POP DUP2 MSTORE POP POP SWAP1 POP DUP1 PUSH1 0x20 ADD MLOAD DUP2 PUSH1 0x80 ADD MLOAD DUP3 PUSH1 0xA0 ADD MLOAD DUP4 PUSH1 0xC0 ADD MLOAD DUP5 PUSH2 0x120 ADD MLOAD DUP13 SWAP7 POP SWAP7 POP SWAP7 POP SWAP7 POP SWAP7 POP SWAP7 POP POP SWAP2 SWAP4 SWAP6 POP SWAP2 SWAP4 SWAP6 JUMP JUMPDEST PUSH1 0x6 PUSH1 0x20 MSTORE DUP1 PUSH1 0x0 MSTORE PUSH1 0x40 PUSH1 0x0 KECCAK256 PUSH1 0x0 SWAP2 POP SLOAD SWAP1 PUSH2 0x100 EXP SWAP1 DIV PUSH1 0xFF AND DUP2 JUMP JUMPDEST PUSH1 0x0 DUP1 PUSH1 0x15 SWAP1 SLOAD SWAP1 PUSH2 0x100 EXP SWAP1 DIV PUSH1 0xFF AND SWAP1 POP SWAP1 JUMP JUMPDEST PUSH1 0xB PUSH1 0x20 MSTORE DUP1 PUSH1 0x0 MSTORE PUSH1 0x40 PUSH1 0x0 KECCAK256 PUSH1 0x0 SWAP2 POP SWAP1 POP DUP1 PUSH1 0x0 ADD DUP1 SLOAD PUSH2 0x1429 SWAP1 PUSH2 0x4167 JUMP JUMPDEST DUP1 PUSH1 0x1F ADD PUSH1 0x20 DUP1 SWAP2 DIV MUL PUSH1 0x20 ADD PUSH1 0x40 MLOAD SWAP1 DUP2 ADD PUSH1 0x40 MSTORE DUP1 SWAP3 SWAP2 SWAP1 DUP2 DUP2 MSTORE PUSH1 0x20 ADD DUP3 DUP1 SLOAD PUSH2 0x1455 SWAP1 PUSH2 0x4167 JUMP JUMPDEST DUP1 ISZERO PUSH2 0x14A2 JUMPI DUP1 PUSH1 0x1F LT PUSH2 0x1477 JUMPI PUSH2 0x100 DUP1 DUP4 SLOAD DIV MUL DUP4 MSTORE SWAP2 PUSH1 0x20 ADD SWAP2 PUSH2 0x14A2 JUMP JUMPDEST DUP3 ADD SWAP2 SWAP1 PUSH1 0x0 MSTORE PUSH1 0x20 PUSH1 0x0 KECCAK256 SWAP1 JUMPDEST DUP2 SLOAD DUP2 MSTORE SWAP1 PUSH1 0x1 ADD SWAP1 PUSH1 0x20 ADD DUP1 DUP4 GT PUSH2 0x1485 JUMPI DUP3 SWAP1 SUB PUSH1 0x1F AND DUP3 ADD SWAP2 JUMPDEST POP POP POP POP POP SWAP1 DUP1 PUSH1 0x1 ADD DUP1 SLOAD PUSH2 0x14B7 SWAP1 PUSH2 0x4167 JUMP JUMPDEST DUP1 PUSH1 0x1F ADD PUSH1 0x20 DUP1 SWAP2 DIV MUL PUSH1 0x20 ADD PUSH1 0x40 MLOAD SWAP1 DUP2 ADD PUSH1 0x40 MSTORE DUP1 SWAP3 SWAP2 SWAP1 DUP2 DUP2 MSTORE PUSH1 0x20 ADD DUP3 DUP1 SLOAD PUSH2 0x14E3 SWAP1 PUSH2 0x4167 JUMP JUMPDEST DUP1 ISZERO PUSH2 0x1530 JUMPI DUP1 PUSH1 0x1F LT PUSH2 0x1505 JUMPI PUSH2 0x100 DUP1 DUP4 SLOAD DIV MUL DUP4 MSTORE SWAP2 PUSH1 0x20 ADD SWAP2 PUSH2 0x1530 JUMP JUMPDEST DUP3 ADD SWAP2 SWAP1 PUSH1 0x0 MSTORE PUSH1 0x20 PUSH1 0x0 KECCAK256 SWAP1 JUMPDEST DUP2 SLOAD DUP2 MSTORE SWAP1 PUSH1 0x1 ADD SWAP1 PUSH1 0x20 ADD DUP1 DUP4 GT PUSH2 0x1513 JUMPI DUP3 SWAP1 SUB PUSH1 0x1F AND DUP3 ADD SWAP2 JUMPDEST POP POP POP POP POP SWAP1 DUP1 PUSH1 0x2 ADD PUSH1 0x0 SWAP1 SLOAD SWAP1 PUSH2 0x100 EXP SWAP1 DIV PUSH20 0xFFFFFFFFFFFFFFFFFFFFFFFFFFFFFFFFFFFFFFFF AND SWAP1 DUP1 PUSH1 0x2 ADD PUSH1 0x14 SWAP1 SLOAD SWAP1 PUSH2 0x100 EXP SWAP1 DIV PUSH1 0xFF AND SWAP1 POP DUP5 JUMP JUMPDEST PUSH1 0x0 DUP1 SLOAD SWAP1 PUSH2 0x100 EXP SWAP1 DIV PUSH20 0xFFFFFFFFFFFFFFFFFFFFFFFFFFFFFFFFFFFFFFFF AND PUSH20 0xFFFFFFFFFFFFFFFFFFFFFFFFFFFFFFFFFFFFFFFF AND CALLER PUSH20 0xFFFFFFFFFFFFFFFFFFFFFFFFFFFFFFFFFFFFFFFF AND EQ PUSH2 0x1601 JUMPI PUSH1 0x40 MLOAD PUSH32 0x8C379A000000000000000000000000000000000000000000000000000000000 DUP2 MSTORE PUSH1 0x4 ADD PUSH2 0x15F8 SWAP1 PUSH2 0x3D11 JUMP JUMPDEST PUSH1 0x40 MLOAD DUP1 SWAP2 SUB SWAP1 REVERT JUMPDEST PUSH1 0xB PUSH1 0x0 DUP5 PUSH20 0xFFFFFFFFFFFFFFFFFFFFFFFFFFFFFFFFFFFFFFFF AND PUSH20 0xFFFFFFFFFFFFFFFFFFFFFFFFFFFFFFFFFFFFFFFF AND DUP2 MSTORE PUSH1 0x20 ADD SWAP1 DUP2 MSTORE PUSH1 0x20 ADD PUSH1 0x0 KECCAK256 PUSH1 0x2 ADD PUSH1 0x14 SWAP1 SLOAD SWAP1 PUSH2 0x100 EXP SWAP1 DIV PUSH1 0xFF AND ISZERO PUSH2 0x1691 JUMPI PUSH1 0x40 MLOAD PUSH32 0x8C379A000000000000000000000000000000000000000000000000000000000 DUP2 MSTORE PUSH1 0x4 ADD PUSH2 0x1688 SWAP1 PUSH2 0x3D31 JUMP JUMPDEST PUSH1 0x40 MLOAD DUP1 SWAP2 SUB SWAP1 REVERT JUMPDEST PUSH1 0x40 MLOAD DUP1 PUSH1 0x80 ADD PUSH1 0x40 MSTORE DUP1 DUP4 DUP2 MSTORE PUSH1 0x20 ADD DUP3 DUP2 MSTORE PUSH1 0x20 ADD DUP5 PUSH20 0xFFFFFFFFFFFFFFFFFFFFFFFFFFFFFFFFFFFFFFFF AND DUP2 MSTORE PUSH1 0x20 ADD PUSH1 0x1 ISZERO ISZERO DUP2 MSTORE POP PUSH1 0xB PUSH1 0x0 DUP6 PUSH20 0xFFFFFFFFFFFFFFFFFFFFFFFFFFFFFFFFFFFFFFFF AND PUSH20 0xFFFFFFFFFFFFFFFFFFFFFFFFFFFFFFFFFFFFFFFF AND DUP2 MSTORE PUSH1 0x20 ADD SWAP1 DUP2 MSTORE PUSH1 0x20 ADD PUSH1 0x0 KECCAK256 PUSH1 0x0 DUP3 ADD MLOAD DUP2 PUSH1 0x0 ADD SWAP1 DUP1 MLOAD SWAP1 PUSH1 0x20 ADD SWAP1 PUSH2 0x1726 SWAP3 SWAP2 SWAP1 PUSH2 0x3002 JUMP JUMPDEST POP PUSH1 0x20 DUP3 ADD MLOAD DUP2 PUSH1 0x1 ADD SWAP1 DUP1 MLOAD SWAP1 PUSH1 0x20 ADD SWAP1 PUSH2 0x1743 SWAP3 SWAP2 SWAP1 PUSH2 0x3002 JUMP JUMPDEST POP PUSH1 0x40 DUP3 ADD MLOAD DUP2 PUSH1 0x2 ADD PUSH1 0x0 PUSH2 0x100 EXP DUP2 SLOAD DUP2 PUSH20 0xFFFFFFFFFFFFFFFFFFFFFFFFFFFFFFFFFFFFFFFF MUL NOT AND SWAP1 DUP4 PUSH20 0xFFFFFFFFFFFFFFFFFFFFFFFFFFFFFFFFFFFFFFFF AND MUL OR SWAP1 SSTORE POP PUSH1 0x60 DUP3 ADD MLOAD DUP2 PUSH1 0x2 ADD PUSH1 0x14 PUSH2 0x100 EXP DUP2 SLOAD DUP2 PUSH1 0xFF MUL NOT AND SWAP1 DUP4 ISZERO ISZERO MUL OR SWAP1 SSTORE POP SWAP1 POP POP PUSH1 0xC DUP4 SWAP1 DUP1 PUSH1 0x1 DUP2 SLOAD ADD DUP1 DUP3 SSTORE DUP1 SWAP2 POP POP PUSH1 0x1 SWAP1 SUB SWAP1 PUSH1 0x0 MSTORE PUSH1 0x20 PUSH1 0x0 KECCAK256 ADD PUSH1 0x0 SWAP1 SWAP2 SWAP1 SWAP2 SWAP1 SWAP2 PUSH2 0x100 EXP DUP2 SLOAD DUP2 PUSH20 0xFFFFFFFFFFFFFFFFFFFFFFFFFFFFFFFFFFFFFFFF MUL NOT AND SWAP1 DUP4 PUSH20 0xFFFFFFFFFFFFFFFFFFFFFFFFFFFFFFFFFFFFFFFF AND MUL OR SWAP1 SSTORE POP POP POP POP JUMP JUMPDEST PUSH1 0x0 DUP1 SLOAD SWAP1 PUSH2 0x100 EXP SWAP1 DIV PUSH20 0xFFFFFFFFFFFFFFFFFFFFFFFFFFFFFFFFFFFFFFFF AND PUSH20 0xFFFFFFFFFFFFFFFFFFFFFFFFFFFFFFFFFFFFFFFF AND CALLER PUSH20 0xFFFFFFFFFFFFFFFFFFFFFFFFFFFFFFFFFFFFFFFF AND EQ PUSH2 0x18A4 JUMPI PUSH1 0x40 MLOAD PUSH32 0x8C379A000000000000000000000000000000000000000000000000000000000 DUP2 MSTORE PUSH1 0x4 ADD PUSH2 0x189B SWAP1 PUSH2 0x3D11 JUMP JUMPDEST PUSH1 0x40 MLOAD DUP1 SWAP2 SUB SWAP1 REVERT JUMPDEST PUSH1 0x0 PUSH1 0x14 SWAP1 SLOAD SWAP1 PUSH2 0x100 EXP SWAP1 DIV PUSH1 0xFF AND ISZERO PUSH2 0x18F4 JUMPI PUSH1 0x40 MLOAD PUSH32 0x8C379A000000000000000000000000000000000000000000000000000000000 DUP2 MSTORE PUSH1 0x4 ADD PUSH2 0x18EB SWAP1 PUSH2 0x3C51 JUMP JUMPDEST PUSH1 0x40 MLOAD DUP1 SWAP2 SUB SWAP1 REVERT JUMPDEST PUSH1 0x0 PUSH1 0x5 DUP1 SLOAD SWAP1 POP GT PUSH2 0x193C JUMPI PUSH1 0x40 MLOAD PUSH32 0x8C379A000000000000000000000000000000000000000000000000000000000 DUP2 MSTORE PUSH1 0x4 ADD PUSH2 0x1933 SWAP1 PUSH2 0x3CD1 JUMP JUMPDEST PUSH1 0x40 MLOAD DUP1 SWAP2 SUB SWAP1 REVERT JUMPDEST PUSH1 0x0 DUP1 PUSH1 0x1 PUSH1 0x0 PUSH1 0x15 PUSH2 0x100 EXP DUP2 SLOAD DUP2 PUSH1 0xFF MUL NOT AND SWAP1 DUP4 ISZERO ISZERO MUL OR SWAP1 SSTORE POP PUSH1 0x0 JUMPDEST PUSH1 0x5 DUP1 SLOAD SWAP1 POP DUP2 LT ISZERO PUSH2 0x1A1B JUMPI DUP3 PUSH1 0x5 DUP3 DUP2 SLOAD DUP2 LT PUSH2 0x19A5 JUMPI PUSH32 0x4E487B7100000000000000000000000000000000000000000000000000000000 PUSH1 0x0 MSTORE PUSH1 0x32 PUSH1 0x4 MSTORE PUSH1 0x24 PUSH1 0x0 REVERT JUMPDEST SWAP1 PUSH1 0x0 MSTORE PUSH1 0x20 PUSH1 0x0 KECCAK256 SWAP1 PUSH1 0xB MUL ADD PUSH1 0x2 ADD SLOAD LT PUSH2 0x1A16 JUMPI PUSH1 0x5 DUP2 DUP2 SLOAD DUP2 LT PUSH2 0x19F6 JUMPI PUSH32 0x4E487B7100000000000000000000000000000000000000000000000000000000 PUSH1 0x0 MSTORE PUSH1 0x32 PUSH1 0x4 MSTORE PUSH1 0x24 PUSH1 0x0 REVERT JUMPDEST SWAP1 PUSH1 0x0 MSTORE PUSH1 0x20 PUSH1 0x0 KECCAK256 SWAP1 PUSH1 0xB MUL ADD PUSH1 0x2 ADD SLOAD SWAP3 POP DUP1 SWAP2 POP DUP1 DUP1 PUSH1 0x1 ADD SWAP2 POP POP JUMPDEST PUSH2 0x195D JUMP JUMPDEST POP PUSH1 0x0 DUP2 LT PUSH2 0x1CB9 JUMPI PUSH1 0x0 PUSH1 0x5 DUP3 DUP2 SLOAD DUP2 LT PUSH2 0x1A60 JUMPI PUSH32 0x4E487B7100000000000000000000000000000000000000000000000000000000 PUSH1 0x0 MSTORE PUSH1 0x32 PUSH1 0x4 MSTORE PUSH1 0x24 PUSH1 0x0 REVERT JUMPDEST SWAP1 PUSH1 0x0 MSTORE PUSH1 0x20 PUSH1 0x0 KECCAK256 SWAP1 PUSH1 0xB MUL ADD PUSH1 0x1 ADD DUP1 SLOAD PUSH2 0x1A7C SWAP1 PUSH2 0x4167 JUMP JUMPDEST DUP1 PUSH1 0x1F ADD PUSH1 0x20 DUP1 SWAP2 DIV MUL PUSH1 0x20 ADD PUSH1 0x40 MLOAD SWAP1 DUP2 ADD PUSH1 0x40 MSTORE DUP1 SWAP3 SWAP2 SWAP1 DUP2 DUP2 MSTORE PUSH1 0x20 ADD DUP3 DUP1 SLOAD PUSH2 0x1AA8 SWAP1 PUSH2 0x4167 JUMP JUMPDEST DUP1 ISZERO PUSH2 0x1AF5 JUMPI DUP1 PUSH1 0x1F LT PUSH2 0x1ACA JUMPI PUSH2 0x100 DUP1 DUP4 SLOAD DIV MUL DUP4 MSTORE SWAP2 PUSH1 0x20 ADD SWAP2 PUSH2 0x1AF5 JUMP JUMPDEST DUP3 ADD SWAP2 SWAP1 PUSH1 0x0 MSTORE PUSH1 0x20 PUSH1 0x0 KECCAK256 SWAP1 JUMPDEST DUP2 SLOAD DUP2 MSTORE SWAP1 PUSH1 0x1 ADD SWAP1 PUSH1 0x20 ADD DUP1 DUP4 GT PUSH2 0x1AD8 JUMPI DUP3 SWAP1 SUB PUSH1 0x1F AND DUP3 ADD SWAP2 JUMPDEST POP POP POP POP POP SWAP1 POP PUSH1 0x0 PUSH1 0x5 DUP4 DUP2 SLOAD DUP2 LT PUSH2 0x1B38 JUMPI PUSH32 0x4E487B7100000000000000000000000000000000000000000000000000000000 PUSH1 0x0 MSTORE PUSH1 0x32 PUSH1 0x4 MSTORE PUSH1 0x24 PUSH1 0x0 REVERT JUMPDEST SWAP1 PUSH1 0x0 MSTORE PUSH1 0x20 PUSH1 0x0 KECCAK256 SWAP1 PUSH1 0xB MUL ADD PUSH1 0x2 ADD SLOAD SWAP1 POP PUSH1 0x0 PUSH1 0x5 DUP5 DUP2 SLOAD DUP2 LT PUSH2 0x1B88 JUMPI PUSH32 0x4E487B7100000000000000000000000000000000000000000000000000000000 PUSH1 0x0 MSTORE PUSH1 0x32 PUSH1 0x4 MSTORE PUSH1 0x24 PUSH1 0x0 REVERT JUMPDEST SWAP1 PUSH1 0x0 MSTORE PUSH1 0x20 PUSH1 0x0 KECCAK256 SWAP1 PUSH1 0xB MUL ADD PUSH1 0x3 ADD PUSH1 0x0 SWAP1 SLOAD SWAP1 PUSH2 0x100 EXP SWAP1 DIV PUSH20 0xFFFFFFFFFFFFFFFFFFFFFFFFFFFFFFFFFFFFFFFF AND SWAP1 POP PUSH1 0x40 MLOAD DUP1 PUSH1 0x80 ADD PUSH1 0x40 MSTORE DUP1 PUSH1 0x1 DUP7 PUSH2 0x1BD4 SWAP2 SWAP1 PUSH2 0x4049 JUMP JUMPDEST DUP2 MSTORE PUSH1 0x20 ADD DUP5 DUP2 MSTORE PUSH1 0x20 ADD DUP4 DUP2 MSTORE PUSH1 0x20 ADD DUP3 PUSH20 0xFFFFFFFFFFFFFFFFFFFFFFFFFFFFFFFFFFFFFFFF AND DUP2 MSTORE POP PUSH1 0x1 PUSH1 0x0 DUP3 ADD MLOAD DUP2 PUSH1 0x0 ADD SSTORE PUSH1 0x20 DUP3 ADD MLOAD DUP2 PUSH1 0x1 ADD SWAP1 DUP1 MLOAD SWAP1 PUSH1 0x20 ADD SWAP1 PUSH2 0x1C27 SWAP3 SWAP2 SWAP1 PUSH2 0x3002 JUMP JUMPDEST POP PUSH1 0x40 DUP3 ADD MLOAD DUP2 PUSH1 0x2 ADD SSTORE PUSH1 0x60 DUP3 ADD MLOAD DUP2 PUSH1 0x3 ADD PUSH1 0x0 PUSH2 0x100 EXP DUP2 SLOAD DUP2 PUSH20 0xFFFFFFFFFFFFFFFFFFFFFFFFFFFFFFFFFFFFFFFF MUL NOT AND SWAP1 DUP4 PUSH20 0xFFFFFFFFFFFFFFFFFFFFFFFFFFFFFFFFFFFFFFFF AND MUL OR SWAP1 SSTORE POP SWAP1 POP POP PUSH32 0x1AAA99E411A940104E7B7866D6FC9317A3E67E76472E8D2776A9A8943112C390 DUP4 DUP4 PUSH1 0x40 MLOAD PUSH2 0x1CAD SWAP3 SWAP2 SWAP1 PUSH2 0x3C01 JUMP JUMPDEST PUSH1 0x40 MLOAD DUP1 SWAP2 SUB SWAP1 LOG1 POP POP POP JUMPDEST POP POP JUMP JUMPDEST PUSH1 0x0 DUP1 SLOAD SWAP1 PUSH2 0x100 EXP SWAP1 DIV PUSH20 0xFFFFFFFFFFFFFFFFFFFFFFFFFFFFFFFFFFFFFFFF AND PUSH20 0xFFFFFFFFFFFFFFFFFFFFFFFFFFFFFFFFFFFFFFFF AND CALLER PUSH20 0xFFFFFFFFFFFFFFFFFFFFFFFFFFFFFFFFFFFFFFFF AND EQ PUSH2 0x1D4B JUMPI PUSH1 0x40 MLOAD PUSH32 0x8C379A000000000000000000000000000000000000000000000000000000000 DUP2 MSTORE PUSH1 0x4 ADD PUSH2 0x1D42 SWAP1 PUSH2 0x3D11 JUMP JUMPDEST PUSH1 0x40 MLOAD DUP1 SWAP2 SUB SWAP1 REVERT JUMPDEST PUSH1 0x0 DUP1 PUSH1 0x14 PUSH2 0x100 EXP DUP2 SLOAD DUP2 PUSH1 0xFF MUL NOT AND SWAP1 DUP4 ISZERO ISZERO MUL OR SWAP1 SSTORE POP PUSH32 0xA549B9ADDFC3693A1863AC5B0B13C42960D78DF554C01EA6AC72A7DB985DF0CF PUSH1 0x40 MLOAD PUSH1 0x40 MLOAD DUP1 SWAP2 SUB SWAP1 LOG1 JUMP JUMPDEST PUSH1 0x9 PUSH1 0x0 DUP8 PUSH20 0xFFFFFFFFFFFFFFFFFFFFFFFFFFFFFFFFFFFFFFFF AND PUSH20 0xFFFFFFFFFFFFFFFFFFFFFFFFFFFFFFFFFFFFFFFF AND DUP2 MSTORE PUSH1 0x20 ADD SWAP1 DUP2 MSTORE PUSH1 0x20 ADD PUSH1 0x0 KECCAK256 PUSH1 0x7 ADD PUSH1 0x0 SWAP1 SLOAD SWAP1 PUSH2 0x100 EXP SWAP1 DIV PUSH1 0xFF AND ISZERO PUSH2 0x1E23 JUMPI PUSH1 0x40 MLOAD PUSH32 0x8C379A000000000000000000000000000000000000000000000000000000000 DUP2 MSTORE PUSH1 0x4 ADD PUSH2 0x1E1A SWAP1 PUSH2 0x3D51 JUMP JUMPDEST PUSH1 0x40 MLOAD DUP1 SWAP2 SUB SWAP1 REVERT JUMPDEST PUSH1 0x0 PUSH2 0x1E2E DUP3 PUSH2 0x2FCD JUMP JUMPDEST SWAP1 POP PUSH1 0x40 MLOAD DUP1 PUSH2 0x100 ADD PUSH1 0x40 MSTORE DUP1 DUP9 PUSH20 0xFFFFFFFFFFFFFFFFFFFFFFFFFFFFFFFFFFFFFFFF AND DUP2 MSTORE PUSH1 0x20 ADD DUP10 DUP2 MSTORE PUSH1 0x20 ADD DUP8 DUP2 MSTORE PUSH1 0x20 ADD DUP7 DUP2 MSTORE PUSH1 0x20 ADD DUP6 DUP2 MSTORE PUSH1 0x20 ADD DUP5 DUP2 MSTORE PUSH1 0x20 ADD DUP3 DUP2 MSTORE PUSH1 0x20 ADD PUSH1 0x1 ISZERO ISZERO DUP2 MSTORE POP PUSH1 0x9 PUSH1 0x0 DUP10 PUSH20 0xFFFFFFFFFFFFFFFFFFFFFFFFFFFFFFFFFFFFFFFF AND PUSH20 0xFFFFFFFFFFFFFFFFFFFFFFFFFFFFFFFFFFFFFFFF AND DUP2 MSTORE PUSH1 0x20 ADD SWAP1 DUP2 MSTORE PUSH1 0x20 ADD PUSH1 0x0 KECCAK256 PUSH1 0x0 DUP3 ADD MLOAD DUP2 PUSH1 0x0 ADD PUSH1 0x0 PUSH2 0x100 EXP DUP2 SLOAD DUP2 PUSH20 0xFFFFFFFFFFFFFFFFFFFFFFFFFFFFFFFFFFFFFFFF MUL NOT AND SWAP1 DUP4 PUSH20 0xFFFFFFFFFFFFFFFFFFFFFFFFFFFFFFFFFFFFFFFF AND MUL OR SWAP1 SSTORE POP PUSH1 0x20 DUP3 ADD MLOAD DUP2 PUSH1 0x1 ADD SWAP1 DUP1 MLOAD SWAP1 PUSH1 0x20 ADD SWAP1 PUSH2 0x1F25 SWAP3 SWAP2 SWAP1 PUSH2 0x3002 JUMP JUMPDEST POP PUSH1 0x40 DUP3 ADD MLOAD DUP2 PUSH1 0x2 ADD SWAP1 DUP1 MLOAD SWAP1 PUSH1 0x20 ADD SWAP1 PUSH2 0x1F42 SWAP3 SWAP2 SWAP1 PUSH2 0x3002 JUMP JUMPDEST POP PUSH1 0x60 DUP3 ADD MLOAD DUP2 PUSH1 0x3 ADD SWAP1 DUP1 MLOAD SWAP1 PUSH1 0x20 ADD SWAP1 PUSH2 0x1F5F SWAP3 SWAP2 SWAP1 PUSH2 0x3002 JUMP JUMPDEST POP PUSH1 0x80 DUP3 ADD MLOAD DUP2 PUSH1 0x4 ADD SWAP1 DUP1 MLOAD SWAP1 PUSH1 0x20 ADD SWAP1 PUSH2 0x1F7C SWAP3 SWAP2 SWAP1 PUSH2 0x3002 JUMP JUMPDEST POP PUSH1 0xA0 DUP3 ADD MLOAD DUP2 PUSH1 0x5 ADD SWAP1 DUP1 MLOAD SWAP1 PUSH1 0x20 ADD SWAP1 PUSH2 0x1F99 SWAP3 SWAP2 SWAP1 PUSH2 0x3002 JUMP JUMPDEST POP PUSH1 0xC0 DUP3 ADD MLOAD DUP2 PUSH1 0x6 ADD SSTORE PUSH1 0xE0 DUP3 ADD MLOAD DUP2 PUSH1 0x7 ADD PUSH1 0x0 PUSH2 0x100 EXP DUP2 SLOAD DUP2 PUSH1 0xFF MUL NOT AND SWAP1 DUP4 ISZERO ISZERO MUL OR SWAP1 SSTORE POP SWAP1 POP POP PUSH1 0xA DUP8 SWAP1 DUP1 PUSH1 0x1 DUP2 SLOAD ADD DUP1 DUP3 SSTORE DUP1 SWAP2 POP POP PUSH1 0x1 SWAP1 SUB SWAP1 PUSH1 0x0 MSTORE PUSH1 0x20 PUSH1 0x0 KECCAK256 ADD PUSH1 0x0 SWAP1 SWAP2 SWAP1 SWAP2 SWAP1 SWAP2 PUSH2 0x100 EXP DUP2 SLOAD DUP2 PUSH20 0xFFFFFFFFFFFFFFFFFFFFFFFFFFFFFFFFFFFFFFFF MUL NOT AND SWAP1 DUP4 PUSH20 0xFFFFFFFFFFFFFFFFFFFFFFFFFFFFFFFFFFFFFFFF AND MUL OR SWAP1 SSTORE POP PUSH32 0x8233A1016D0E0C56CC3A1E7454CAA9DF82BE4406AD9FD67A8F79C8BDCA15F363 DUP9 DUP9 DUP9 DUP9 DUP9 DUP9 PUSH1 0x40 MLOAD PUSH2 0x2063 SWAP7 SWAP6 SWAP5 SWAP4 SWAP3 SWAP2 SWAP1 PUSH2 0x3AAD JUMP JUMPDEST PUSH1 0x40 MLOAD DUP1 SWAP2 SUB SWAP1 LOG1 POP POP POP POP POP POP POP POP JUMP JUMPDEST PUSH1 0x0 DUP1 PUSH1 0x0 SWAP1 SLOAD SWAP1 PUSH2 0x100 EXP SWAP1 DIV PUSH20 0xFFFFFFFFFFFFFFFFFFFFFFFFFFFFFFFFFFFFFFFF AND SWAP1 POP SWAP1 JUMP JUMPDEST PUSH1 0x0 DUP1 PUSH1 0x14 SWAP1 SLOAD SWAP1 PUSH2 0x100 EXP SWAP1 DIV PUSH1 0xFF AND SWAP1 POP SWAP1 JUMP JUMPDEST PUSH1 0x0 DUP1 SLOAD SWAP1 PUSH2 0x100 EXP SWAP1 DIV PUSH20 0xFFFFFFFFFFFFFFFFFFFFFFFFFFFFFFFFFFFFFFFF AND DUP2 JUMP JUMPDEST PUSH1 0x0 PUSH1 0x15 SWAP1 SLOAD SWAP1 PUSH2 0x100 EXP SWAP1 DIV PUSH1 0xFF AND DUP2 JUMP JUMPDEST PUSH1 0xC DUP2 DUP2 SLOAD DUP2 LT PUSH2 0x20FB JUMPI PUSH1 0x0 DUP1 REVERT JUMPDEST SWAP1 PUSH1 0x0 MSTORE PUSH1 0x20 PUSH1 0x0 KECCAK256 ADD PUSH1 0x0 SWAP2 POP SLOAD SWAP1 PUSH2 0x100 EXP SWAP1 DIV PUSH20 0xFFFFFFFFFFFFFFFFFFFFFFFFFFFFFFFFFFFFFFFF AND DUP2 JUMP JUMPDEST PUSH1 0x9 PUSH1 0x20 MSTORE DUP1 PUSH1 0x0 MSTORE PUSH1 0x40 PUSH1 0x0 KECCAK256 PUSH1 0x0 SWAP2 POP SWAP1 POP DUP1 PUSH1 0x0 ADD PUSH1 0x0 SWAP1 SLOAD SWAP1 PUSH2 0x100 EXP SWAP1 DIV PUSH20 0xFFFFFFFFFFFFFFFFFFFFFFFFFFFFFFFFFFFFFFFF AND SWAP1 DUP1 PUSH1 0x1 ADD DUP1 SLOAD PUSH2 0x2173 SWAP1 PUSH2 0x4167 JUMP JUMPDEST DUP1 PUSH1 0x1F ADD PUSH1 0x20 DUP1 SWAP2 DIV MUL PUSH1 0x20 ADD PUSH1 0x40 MLOAD SWAP1 DUP2 ADD PUSH1 0x40 MSTORE DUP1 SWAP3 SWAP2 SWAP1 DUP2 DUP2 MSTORE PUSH1 0x20 ADD DUP3 DUP1 SLOAD PUSH2 0x219F SWAP1 PUSH2 0x4167 JUMP JUMPDEST DUP1 ISZERO PUSH2 0x21EC JUMPI DUP1 PUSH1 0x1F LT PUSH2 0x21C1 JUMPI PUSH2 0x100 DUP1 DUP4 SLOAD DIV MUL DUP4 MSTORE SWAP2 PUSH1 0x20 ADD SWAP2 PUSH2 0x21EC JUMP JUMPDEST DUP3 ADD SWAP2 SWAP1 PUSH1 0x0 MSTORE PUSH1 0x20 PUSH1 0x0 KECCAK256 SWAP1 JUMPDEST DUP2 SLOAD DUP2 MSTORE SWAP1 PUSH1 0x1 ADD SWAP1 PUSH1 0x20 ADD DUP1 DUP4 GT PUSH2 0x21CF JUMPI DUP3 SWAP1 SUB PUSH1 0x1F AND DUP3 ADD SWAP2 JUMPDEST POP POP POP POP POP SWAP1 DUP1 PUSH1 0x2 ADD DUP1 SLOAD PUSH2 0x2201 SWAP1 PUSH2 0x4167 JUMP JUMPDEST DUP1 PUSH1 0x1F ADD PUSH1 0x20 DUP1 SWAP2 DIV MUL PUSH1 0x20 ADD PUSH1 0x40 MLOAD SWAP1 DUP2 ADD PUSH1 0x40 MSTORE DUP1 SWAP3 SWAP2 SWAP1 DUP2 DUP2 MSTORE PUSH1 0x20 ADD DUP3 DUP1 SLOAD PUSH2 0x222D SWAP1 PUSH2 0x4167 JUMP JUMPDEST DUP1 ISZERO PUSH2 0x227A JUMPI DUP1 PUSH1 0x1F LT PUSH2 0x224F JUMPI PUSH2 0x100 DUP1 DUP4 SLOAD DIV MUL DUP4 MSTORE SWAP2 PUSH1 0x20 ADD SWAP2 PUSH2 0x227A JUMP JUMPDEST DUP3 ADD SWAP2 SWAP1 PUSH1 0x0 MSTORE PUSH1 0x20 PUSH1 0x0 KECCAK256 SWAP1 JUMPDEST DUP2 SLOAD DUP2 MSTORE SWAP1 PUSH1 0x1 ADD SWAP1 PUSH1 0x20 ADD DUP1 DUP4 GT PUSH2 0x225D JUMPI DUP3 SWAP1 SUB PUSH1 0x1F AND DUP3 ADD SWAP2 JUMPDEST POP POP POP POP POP SWAP1 DUP1 PUSH1 0x3 ADD DUP1 SLOAD PUSH2 0x228F SWAP1 PUSH2 0x4167 JUMP JUMPDEST DUP1 PUSH1 0x1F ADD PUSH1 0x20 DUP1 SWAP2 DIV MUL PUSH1 0x20 ADD PUSH1 0x40 MLOAD SWAP1 DUP2 ADD PUSH1 0x40 MSTORE DUP1 SWAP3 SWAP2 SWAP1 DUP2 DUP2 MSTORE PUSH1 0x20 ADD DUP3 DUP1 SLOAD PUSH2 0x22BB SWAP1 PUSH2 0x4167 JUMP JUMPDEST DUP1 ISZERO PUSH2 0x2308 JUMPI DUP1 PUSH1 0x1F LT PUSH2 0x22DD JUMPI PUSH2 0x100 DUP1 DUP4 SLOAD DIV MUL DUP4 MSTORE SWAP2 PUSH1 0x20 ADD SWAP2 PUSH2 0x2308 JUMP JUMPDEST DUP3 ADD SWAP2 SWAP1 PUSH1 0x0 MSTORE PUSH1 0x20 PUSH1 0x0 KECCAK256 SWAP1 JUMPDEST DUP2 SLOAD DUP2 MSTORE SWAP1 PUSH1 0x1 ADD SWAP1 PUSH1 0x20 ADD DUP1 DUP4 GT PUSH2 0x22EB JUMPI DUP3 SWAP1 SUB PUSH1 0x1F AND DUP3 ADD SWAP2 JUMPDEST POP POP POP POP POP SWAP1 DUP1 PUSH1 0x4 ADD DUP1 SLOAD PUSH2 0x231D SWAP1 PUSH2 0x4167 JUMP JUMPDEST DUP1 PUSH1 0x1F ADD PUSH1 0x20 DUP1 SWAP2 DIV MUL PUSH1 0x20 ADD PUSH1 0x40 MLOAD SWAP1 DUP2 ADD PUSH1 0x40 MSTORE DUP1 SWAP3 SWAP2 SWAP1 DUP2 DUP2 MSTORE PUSH1 0x20 ADD DUP3 DUP1 SLOAD PUSH2 0x2349 SWAP1 PUSH2 0x4167 JUMP JUMPDEST DUP1 ISZERO PUSH2 0x2396 JUMPI DUP1 PUSH1 0x1F LT PUSH2 0x236B JUMPI PUSH2 0x100 DUP1 DUP4 SLOAD DIV MUL DUP4 MSTORE SWAP2 PUSH1 0x20 ADD SWAP2 PUSH2 0x2396 JUMP JUMPDEST DUP3 ADD SWAP2 SWAP1 PUSH1 0x0 MSTORE PUSH1 0x20 PUSH1 0x0 KECCAK256 SWAP1 JUMPDEST DUP2 SLOAD DUP2 MSTORE SWAP1 PUSH1 0x1 ADD SWAP1 PUSH1 0x20 ADD DUP1 DUP4 GT PUSH2 0x2379 JUMPI DUP3 SWAP1 SUB PUSH1 0x1F AND DUP3 ADD SWAP2 JUMPDEST POP POP POP POP POP SWAP1 DUP1 PUSH1 0x5 ADD DUP1 SLOAD PUSH2 0x23AB SWAP1 PUSH2 0x4167 JUMP JUMPDEST DUP1 PUSH1 0x1F ADD PUSH1 0x20 DUP1 SWAP2 DIV MUL PUSH1 0x20 ADD PUSH1 0x40 MLOAD SWAP1 DUP2 ADD PUSH1 0x40 MSTORE DUP1 SWAP3 SWAP2 SWAP1 DUP2 DUP2 MSTORE PUSH1 0x20 ADD DUP3 DUP1 SLOAD PUSH2 0x23D7 SWAP1 PUSH2 0x4167 JUMP JUMPDEST DUP1 ISZERO PUSH2 0x2424 JUMPI DUP1 PUSH1 0x1F LT PUSH2 0x23F9 JUMPI PUSH2 0x100 DUP1 DUP4 SLOAD DIV MUL DUP4 MSTORE SWAP2 PUSH1 0x20 ADD SWAP2 PUSH2 0x2424 JUMP JUMPDEST DUP3 ADD SWAP2 SWAP1 PUSH1 0x0 MSTORE PUSH1 0x20 PUSH1 0x0 KECCAK256 SWAP1 JUMPDEST DUP2 SLOAD DUP2 MSTORE SWAP1 PUSH1 0x1 ADD SWAP1 PUSH1 0x20 ADD DUP1 DUP4 GT PUSH2 0x2407 JUMPI DUP3 SWAP1 SUB PUSH1 0x1F AND DUP3 ADD SWAP2 JUMPDEST POP POP POP POP POP SWAP1 DUP1 PUSH1 0x6 ADD SLOAD SWAP1 DUP1 PUSH1 0x7 ADD PUSH1 0x0 SWAP1 SLOAD SWAP1 PUSH2 0x100 EXP SWAP1 DIV PUSH1 0xFF AND SWAP1 POP DUP9 JUMP JUMPDEST PUSH1 0x0 PUSH1 0x5 DUP1 SLOAD SWAP1 POP SWAP1 POP SWAP1 JUMP JUMPDEST PUSH1 0x0 DUP1 SLOAD SWAP1 PUSH2 0x100 EXP SWAP1 DIV PUSH20 0xFFFFFFFFFFFFFFFFFFFFFFFFFFFFFFFFFFFFFFFF AND PUSH20 0xFFFFFFFFFFFFFFFFFFFFFFFFFFFFFFFFFFFFFFFF AND CALLER PUSH20 0xFFFFFFFFFFFFFFFFFFFFFFFFFFFFFFFFFFFFFFFF AND EQ PUSH2 0x24E2 JUMPI PUSH1 0x40 MLOAD PUSH32 0x8C379A000000000000000000000000000000000000000000000000000000000 DUP2 MSTORE PUSH1 0x4 ADD PUSH2 0x24D9 SWAP1 PUSH2 0x3D11 JUMP JUMPDEST PUSH1 0x40 MLOAD DUP1 SWAP2 SUB SWAP1 REVERT JUMPDEST PUSH1 0x1 PUSH1 0x0 PUSH1 0x14 PUSH2 0x100 EXP DUP2 SLOAD DUP2 PUSH1 0xFF MUL NOT AND SWAP1 DUP4 ISZERO ISZERO MUL OR SWAP1 SSTORE POP PUSH32 0x258A7C8A176359D1DD4B5872009764B97F6228ED4DFC610540018B756F6F22BD PUSH1 0x40 MLOAD PUSH1 0x40 MLOAD DUP1 SWAP2 SUB SWAP1 LOG1 JUMP JUMPDEST PUSH1 0x9 PUSH1 0x0 DUP3 PUSH20 0xFFFFFFFFFFFFFFFFFFFFFFFFFFFFFFFFFFFFFFFF AND PUSH20 0xFFFFFFFFFFFFFFFFFFFFFFFFFFFFFFFFFFFFFFFF AND DUP2 MSTORE PUSH1 0x20 ADD SWAP1 DUP2 MSTORE PUSH1 0x20 ADD PUSH1 0x0 KECCAK256 PUSH1 0x7 ADD PUSH1 0x0 SWAP1 SLOAD SWAP1 PUSH2 0x100 EXP SWAP1 DIV PUSH1 0xFF AND PUSH2 0x25BA JUMPI PUSH1 0x40 MLOAD PUSH32 0x8C379A000000000000000000000000000000000000000000000000000000000 DUP2 MSTORE PUSH1 0x4 ADD PUSH2 0x25B1 SWAP1 PUSH2 0x3CB1 JUMP JUMPDEST PUSH1 0x40 MLOAD DUP1 SWAP2 SUB SWAP1 REVERT JUMPDEST PUSH1 0x0 PUSH1 0x9 PUSH1 0x0 DUP4 PUSH20 0xFFFFFFFFFFFFFFFFFFFFFFFFFFFFFFFFFFFFFFFF AND PUSH20 0xFFFFFFFFFFFFFFFFFFFFFFFFFFFFFFFFFFFFFFFF AND DUP2 MSTORE PUSH1 0x20 ADD SWAP1 DUP2 MSTORE PUSH1 0x20 ADD PUSH1 0x0 KECCAK256 PUSH1 0x40 MLOAD DUP1 PUSH2 0x100 ADD PUSH1 0x40 MSTORE SWAP1 DUP2 PUSH1 0x0 DUP3 ADD PUSH1 0x0 SWAP1 SLOAD SWAP1 PUSH2 0x100 EXP SWAP1 DIV PUSH20 0xFFFFFFFFFFFFFFFFFFFFFFFFFFFFFFFFFFFFFFFF AND PUSH20 0xFFFFFFFFFFFFFFFFFFFFFFFFFFFFFFFFFFFFFFFF AND PUSH20 0xFFFFFFFFFFFFFFFFFFFFFFFFFFFFFFFFFFFFFFFF AND DUP2 MSTORE PUSH1 0x20 ADD PUSH1 0x1 DUP3 ADD DUP1 SLOAD PUSH2 0x266D SWAP1 PUSH2 0x4167 JUMP JUMPDEST DUP1 PUSH1 0x1F ADD PUSH1 0x20 DUP1 SWAP2 DIV MUL PUSH1 0x20 ADD PUSH1 0x40 MLOAD SWAP1 DUP2 ADD PUSH1 0x40 MSTORE DUP1 SWAP3 SWAP2 SWAP1 DUP2 DUP2 MSTORE PUSH1 0x20 ADD DUP3 DUP1 SLOAD PUSH2 0x2699 SWAP1 PUSH2 0x4167 JUMP JUMPDEST DUP1 ISZERO PUSH2 0x26E6 JUMPI DUP1 PUSH1 0x1F LT PUSH2 0x26BB JUMPI PUSH2 0x100 DUP1 DUP4 SLOAD DIV MUL DUP4 MSTORE SWAP2 PUSH1 0x20 ADD SWAP2 PUSH2 0x26E6 JUMP JUMPDEST DUP3 ADD SWAP2 SWAP1 PUSH1 0x0 MSTORE PUSH1 0x20 PUSH1 0x0 KECCAK256 SWAP1 JUMPDEST DUP2 SLOAD DUP2 MSTORE SWAP1 PUSH1 0x1 ADD SWAP1 PUSH1 0x20 ADD DUP1 DUP4 GT PUSH2 0x26C9 JUMPI DUP3 SWAP1 SUB PUSH1 0x1F AND DUP3 ADD SWAP2 JUMPDEST POP POP POP POP POP DUP2 MSTORE PUSH1 0x20 ADD PUSH1 0x2 DUP3 ADD DUP1 SLOAD PUSH2 0x26FF SWAP1 PUSH2 0x4167 JUMP JUMPDEST DUP1 PUSH1 0x1F ADD PUSH1 0x20 DUP1 SWAP2 DIV MUL PUSH1 0x20 ADD PUSH1 0x40 MLOAD SWAP1 DUP2 ADD PUSH1 0x40 MSTORE DUP1 SWAP3 SWAP2 SWAP1 DUP2 DUP2 MSTORE PUSH1 0x20 ADD DUP3 DUP1 SLOAD PUSH2 0x272B SWAP1 PUSH2 0x4167 JUMP JUMPDEST DUP1 ISZERO PUSH2 0x2778 JUMPI DUP1 PUSH1 0x1F LT PUSH2 0x274D JUMPI PUSH2 0x100 DUP1 DUP4 SLOAD DIV MUL DUP4 MSTORE SWAP2 PUSH1 0x20 ADD SWAP2 PUSH2 0x2778 JUMP JUMPDEST DUP3 ADD SWAP2 SWAP1 PUSH1 0x0 MSTORE PUSH1 0x20 PUSH1 0x0 KECCAK256 SWAP1 JUMPDEST DUP2 SLOAD DUP2 MSTORE SWAP1 PUSH1 0x1 ADD SWAP1 PUSH1 0x20 ADD DUP1 DUP4 GT PUSH2 0x275B JUMPI DUP3 SWAP1 SUB PUSH1 0x1F AND DUP3 ADD SWAP2 JUMPDEST POP POP POP POP POP DUP2 MSTORE PUSH1 0x20 ADD PUSH1 0x3 DUP3 ADD DUP1 SLOAD PUSH2 0x2791 SWAP1 PUSH2 0x4167 JUMP JUMPDEST DUP1 PUSH1 0x1F ADD PUSH1 0x20 DUP1 SWAP2 DIV MUL PUSH1 0x20 ADD PUSH1 0x40 MLOAD SWAP1 DUP2 ADD PUSH1 0x40 MSTORE DUP1 SWAP3 SWAP2 SWAP1 DUP2 DUP2 MSTORE PUSH1 0x20 ADD DUP3 DUP1 SLOAD PUSH2 0x27BD SWAP1 PUSH2 0x4167 JUMP JUMPDEST DUP1 ISZERO PUSH2 0x280A JUMPI DUP1 PUSH1 0x1F LT PUSH2 0x27DF JUMPI PUSH2 0x100 DUP1 DUP4 SLOAD DIV MUL DUP4 MSTORE SWAP2 PUSH1 0x20 ADD SWAP2 PUSH2 0x280A JUMP JUMPDEST DUP3 ADD SWAP2 SWAP1 PUSH1 0x0 MSTORE PUSH1 0x20 PUSH1 0x0 KECCAK256 SWAP1 JUMPDEST DUP2 SLOAD DUP2 MSTORE SWAP1 PUSH1 0x1 ADD SWAP1 PUSH1 0x20 ADD DUP1 DUP4 GT PUSH2 0x27ED JUMPI DUP3 SWAP1 SUB PUSH1 0x1F AND DUP3 ADD SWAP2 JUMPDEST POP POP POP POP POP DUP2 MSTORE PUSH1 0x20 ADD PUSH1 0x4 DUP3 ADD DUP1 SLOAD PUSH2 0x2823 SWAP1 PUSH2 0x4167 JUMP JUMPDEST DUP1 PUSH1 0x1F ADD PUSH1 0x20 DUP1 SWAP2 DIV MUL PUSH1 0x20 ADD PUSH1 0x40 MLOAD SWAP1 DUP2 ADD PUSH1 0x40 MSTORE DUP1 SWAP3 SWAP2 SWAP1 DUP2 DUP2 MSTORE PUSH1 0x20 ADD DUP3 DUP1 SLOAD PUSH2 0x284F SWAP1 PUSH2 0x4167 JUMP JUMPDEST DUP1 ISZERO PUSH2 0x289C JUMPI DUP1 PUSH1 0x1F LT PUSH2 0x2871 JUMPI PUSH2 0x100 DUP1 DUP4 SLOAD DIV MUL DUP4 MSTORE SWAP2 PUSH1 0x20 ADD SWAP2 PUSH2 0x289C JUMP JUMPDEST DUP3 ADD SWAP2 SWAP1 PUSH1 0x0 MSTORE PUSH1 0x20 PUSH1 0x0 KECCAK256 SWAP1 JUMPDEST DUP2 SLOAD DUP2 MSTORE SWAP1 PUSH1 0x1 ADD SWAP1 PUSH1 0x20 ADD DUP1 DUP4 GT PUSH2 0x287F JUMPI DUP3 SWAP1 SUB PUSH1 0x1F AND DUP3 ADD SWAP2 JUMPDEST POP POP POP POP POP DUP2 MSTORE PUSH1 0x20 ADD PUSH1 0x5 DUP3 ADD DUP1 SLOAD PUSH2 0x28B5 SWAP1 PUSH2 0x4167 JUMP JUMPDEST DUP1 PUSH1 0x1F ADD PUSH1 0x20 DUP1 SWAP2 DIV MUL PUSH1 0x20 ADD PUSH1 0x40 MLOAD SWAP1 DUP2 ADD PUSH1 0x40 MSTORE DUP1 SWAP3 SWAP2 SWAP1 DUP2 DUP2 MSTORE PUSH1 0x20 ADD DUP3 DUP1 SLOAD PUSH2 0x28E1 SWAP1 PUSH2 0x4167 JUMP JUMPDEST DUP1 ISZERO PUSH2 0x292E JUMPI DUP1 PUSH1 0x1F LT PUSH2 0x2903 JUMPI PUSH2 0x100 DUP1 DUP4 SLOAD DIV MUL DUP4 MSTORE SWAP2 PUSH1 0x20 ADD SWAP2 PUSH2 0x292E JUMP JUMPDEST DUP3 ADD SWAP2 SWAP1 PUSH1 0x0 MSTORE PUSH1 0x20 PUSH1 0x0 KECCAK256 SWAP1 JUMPDEST DUP2 SLOAD DUP2 MSTORE SWAP1 PUSH1 0x1 ADD SWAP1 PUSH1 0x20 ADD DUP1 DUP4 GT PUSH2 0x2911 JUMPI DUP3 SWAP1 SUB PUSH1 0x1F AND DUP3 ADD SWAP2 JUMPDEST POP POP POP POP POP DUP2 MSTORE PUSH1 0x20 ADD PUSH1 0x6 DUP3 ADD SLOAD DUP2 MSTORE PUSH1 0x20 ADD PUSH1 0x7 DUP3 ADD PUSH1 0x0 SWAP1 SLOAD SWAP1 PUSH2 0x100 EXP SWAP1 DIV PUSH1 0xFF AND ISZERO ISZERO ISZERO ISZERO DUP2 MSTORE POP POP SWAP1 POP DUP1 PUSH1 0xC0 ADD MLOAD DUP4 PUSH1 0x40 MLOAD PUSH1 0x20 ADD PUSH2 0x2974 SWAP2 SWAP1 PUSH2 0x399D JUMP JUMPDEST PUSH1 0x40 MLOAD PUSH1 0x20 DUP2 DUP4 SUB SUB DUP2 MSTORE SWAP1 PUSH1 0x40 MSTORE DUP1 MLOAD SWAP1 PUSH1 0x20 ADD KECCAK256 EQ DUP1 ISZERO PUSH2 0x29E6 JUMPI POP DUP1 PUSH1 0x40 ADD MLOAD PUSH1 0x40 MLOAD PUSH1 0x20 ADD PUSH2 0x29A7 SWAP2 SWAP1 PUSH2 0x399D JUMP JUMPDEST PUSH1 0x40 MLOAD PUSH1 0x20 DUP2 DUP4 SUB SUB DUP2 MSTORE SWAP1 PUSH1 0x40 MSTORE DUP1 MLOAD SWAP1 PUSH1 0x20 ADD KECCAK256 DUP5 PUSH1 0x40 MLOAD PUSH1 0x20 ADD PUSH2 0x29CE SWAP2 SWAP1 PUSH2 0x399D JUMP JUMPDEST PUSH1 0x40 MLOAD PUSH1 0x20 DUP2 DUP4 SUB SUB DUP2 MSTORE SWAP1 PUSH1 0x40 MSTORE DUP1 MLOAD SWAP1 PUSH1 0x20 ADD KECCAK256 EQ JUMPDEST PUSH2 0x2A25 JUMPI PUSH1 0x40 MLOAD PUSH32 0x8C379A000000000000000000000000000000000000000000000000000000000 DUP2 MSTORE PUSH1 0x4 ADD PUSH2 0x2A1C SWAP1 PUSH2 0x3C71 JUMP JUMPDEST PUSH1 0x40 MLOAD DUP1 SWAP2 SUB SWAP1 REVERT JUMPDEST DUP2 PUSH20 0xFFFFFFFFFFFFFFFFFFFFFFFFFFFFFFFFFFFFFFFF AND PUSH32 0x48E252D5E4F0EB06F35F4B2D35D1C46D725D11D87B685253169FA84A995E141 PUSH1 0x40 MLOAD PUSH1 0x40 MLOAD DUP1 SWAP2 SUB SWAP1 LOG2 POP POP POP POP JUMP JUMPDEST PUSH1 0x1 DUP1 PUSH1 0x0 ADD SLOAD SWAP1 DUP1 PUSH1 0x1 ADD DUP1 SLOAD PUSH2 0x2A85 SWAP1 PUSH2 0x4167 JUMP JUMPDEST DUP1 PUSH1 0x1F ADD PUSH1 0x20 DUP1 SWAP2 DIV MUL PUSH1 0x20 ADD PUSH1 0x40 MLOAD SWAP1 DUP2 ADD PUSH1 0x40 MSTORE DUP1 SWAP3 SWAP2 SWAP1 DUP2 DUP2 MSTORE PUSH1 0x20 ADD DUP3 DUP1 SLOAD PUSH2 0x2AB1 SWAP1 PUSH2 0x4167 JUMP JUMPDEST DUP1 ISZERO PUSH2 0x2AFE JUMPI DUP1 PUSH1 0x1F LT PUSH2 0x2AD3 JUMPI PUSH2 0x100 DUP1 DUP4 SLOAD DIV MUL DUP4 MSTORE SWAP2 PUSH1 0x20 ADD SWAP2 PUSH2 0x2AFE JUMP JUMPDEST DUP3 ADD SWAP2 SWAP1 PUSH1 0x0 MSTORE PUSH1 0x20 PUSH1 0x0 KECCAK256 SWAP1 JUMPDEST DUP2 SLOAD DUP2 MSTORE SWAP1 PUSH1 0x1 ADD SWAP1 PUSH1 0x20 ADD DUP1 DUP4 GT PUSH2 0x2AE1 JUMPI DUP3 SWAP1 SUB PUSH1 0x1F AND DUP3 ADD SWAP2 JUMPDEST POP POP POP POP POP SWAP1 DUP1 PUSH1 0x2 ADD SLOAD SWAP1 DUP1 PUSH1 0x3 ADD PUSH1 0x0 SWAP1 SLOAD SWAP1 PUSH2 0x100 EXP SWAP1 DIV PUSH20 0xFFFFFFFFFFFFFFFFFFFFFFFFFFFFFFFFFFFFFFFF AND SWAP1 POP DUP5 JUMP JUMPDEST PUSH1 0x0 PUSH1 0x7 PUSH1 0x0 DUP4 PUSH20 0xFFFFFFFFFFFFFFFFFFFFFFFFFFFFFFFFFFFFFFFF AND PUSH20 0xFFFFFFFFFFFFFFFFFFFFFFFFFFFFFFFFFFFFFFFF AND DUP2 MSTORE PUSH1 0x20 ADD SWAP1 DUP2 MSTORE PUSH1 0x20 ADD PUSH1 0x0 KECCAK256 PUSH1 0x0 SWAP1 SLOAD SWAP1 PUSH2 0x100 EXP SWAP1 DIV PUSH1 0xFF AND SWAP1 POP SWAP2 SWAP1 POP JUMP JUMPDEST PUSH1 0x0 PUSH1 0x9 PUSH1 0x0 DUP4 PUSH20 0xFFFFFFFFFFFFFFFFFFFFFFFFFFFFFFFFFFFFFFFF AND PUSH20 0xFFFFFFFFFFFFFFFFFFFFFFFFFFFFFFFFFFFFFFFF AND DUP2 MSTORE PUSH1 0x20 ADD SWAP1 DUP2 MSTORE PUSH1 0x20 ADD PUSH1 0x0 KECCAK256 PUSH1 0x7 ADD PUSH1 0x0 SWAP1 SLOAD SWAP1 PUSH2 0x100 EXP SWAP1 DIV PUSH1 0xFF AND SWAP1 POP SWAP2 SWAP1 POP JUMP JUMPDEST PUSH1 0x0 PUSH1 0x14 SWAP1 SLOAD SWAP1 PUSH2 0x100 EXP SWAP1 DIV PUSH1 0xFF AND ISZERO PUSH2 0x2C33 JUMPI PUSH1 0x40 MLOAD PUSH32 0x8C379A000000000000000000000000000000000000000000000000000000000 DUP2 MSTORE PUSH1 0x4 ADD PUSH2 0x2C2A SWAP1 PUSH2 0x3CF1 JUMP JUMPDEST PUSH1 0x40 MLOAD DUP1 SWAP2 SUB SWAP1 REVERT JUMPDEST PUSH1 0x6 PUSH1 0x0 DUP10 PUSH20 0xFFFFFFFFFFFFFFFFFFFFFFFFFFFFFFFFFFFFFFFF AND PUSH20 0xFFFFFFFFFFFFFFFFFFFFFFFFFFFFFFFFFFFFFFFF AND DUP2 MSTORE PUSH1 0x20 ADD SWAP1 DUP2 MSTORE PUSH1 0x20 ADD PUSH1 0x0 KECCAK256 PUSH1 0x0 SWAP1 SLOAD SWAP1 PUSH2 0x100 EXP SWAP1 DIV PUSH1 0xFF AND ISZERO PUSH2 0x2CC0 JUMPI PUSH1 0x40 MLOAD PUSH32 0x8C379A000000000000000000000000000000000000000000000000000000000 DUP2 MSTORE PUSH1 0x4 ADD PUSH2 0x2CB7 SWAP1 PUSH2 0x3D51 JUMP JUMPDEST PUSH1 0x40 MLOAD DUP1 SWAP2 SUB SWAP1 REVERT JUMPDEST PUSH1 0x0 PUSH1 0x1 PUSH1 0x5 DUP1 SLOAD SWAP1 POP PUSH2 0x2CD4 SWAP2 SWAP1 PUSH2 0x4049 JUMP JUMPDEST SWAP1 POP PUSH1 0x5 PUSH1 0x40 MLOAD DUP1 PUSH2 0x160 ADD PUSH1 0x40 MSTORE DUP1 DUP4 DUP2 MSTORE PUSH1 0x20 ADD DUP13 DUP2 MSTORE PUSH1 0x20 ADD PUSH1 0x0 DUP2 MSTORE PUSH1 0x20 ADD DUP12 PUSH20 0xFFFFFFFFFFFFFFFFFFFFFFFFFFFFFFFFFFFFFFFF AND DUP2 MSTORE PUSH1 0x20 ADD DUP11 DUP2 MSTORE PUSH1 0x20 ADD DUP10 DUP2 MSTORE PUSH1 0x20 ADD DUP9 DUP2 MSTORE PUSH1 0x20 ADD DUP8 DUP2 MSTORE PUSH1 0x20 ADD DUP7 DUP2 MSTORE PUSH1 0x20 ADD DUP6 DUP2 MSTORE PUSH1 0x20 ADD DUP5 DUP2 MSTORE POP SWAP1 DUP1 PUSH1 0x1 DUP2 SLOAD ADD DUP1 DUP3 SSTORE DUP1 SWAP2 POP POP PUSH1 0x1 SWAP1 SUB SWAP1 PUSH1 0x0 MSTORE PUSH1 0x20 PUSH1 0x0 KECCAK256 SWAP1 PUSH1 0xB MUL ADD PUSH1 0x0 SWAP1 SWAP2 SWAP1 SWAP2 SWAP1 SWAP2 POP PUSH1 0x0 DUP3 ADD MLOAD DUP2 PUSH1 0x0 ADD SSTORE PUSH1 0x20 DUP3 ADD MLOAD DUP2 PUSH1 0x1 ADD SWAP1 DUP1 MLOAD SWAP1 PUSH1 0x20 ADD SWAP1 PUSH2 0x2D8A SWAP3 SWAP2 SWAP1 PUSH2 0x3002 JUMP JUMPDEST POP PUSH1 0x40 DUP3 ADD MLOAD DUP2 PUSH1 0x2 ADD SSTORE PUSH1 0x60 DUP3 ADD MLOAD DUP2 PUSH1 0x3 ADD PUSH1 0x0 PUSH2 0x100 EXP DUP2 SLOAD DUP2 PUSH20 0xFFFFFFFFFFFFFFFFFFFFFFFFFFFFFFFFFFFFFFFF MUL NOT AND SWAP1 DUP4 PUSH20 0xFFFFFFFFFFFFFFFFFFFFFFFFFFFFFFFFFFFFFFFF AND MUL OR SWAP1 SSTORE POP PUSH1 0x80 DUP3 ADD MLOAD DUP2 PUSH1 0x4 ADD SWAP1 DUP1 MLOAD SWAP1 PUSH1 0x20 ADD SWAP1 PUSH2 0x2DF8 SWAP3 SWAP2 SWAP1 PUSH2 0x3002 JUMP JUMPDEST POP PUSH1 0xA0 DUP3 ADD MLOAD DUP2 PUSH1 0x5 ADD SWAP1 DUP1 MLOAD SWAP1 PUSH1 0x20 ADD SWAP1 PUSH2 0x2E15 SWAP3 SWAP2 SWAP1 PUSH2 0x3002 JUMP JUMPDEST POP PUSH1 0xC0 DUP3 ADD MLOAD DUP2 PUSH1 0x6 ADD SSTORE PUSH1 0xE0 DUP3 ADD MLOAD DUP2 PUSH1 0x7 ADD SWAP1 DUP1 MLOAD SWAP1 PUSH1 0x20 ADD SWAP1 PUSH2 0x2E3C SWAP3 SWAP2 SWAP1 PUSH2 0x3002 JUMP JUMPDEST POP PUSH2 0x100 DUP3 ADD MLOAD DUP2 PUSH1 0x8 ADD SWAP1 DUP1 MLOAD SWAP1 PUSH1 0x20 ADD SWAP1 PUSH2 0x2E5A SWAP3 SWAP2 SWAP1 PUSH2 0x3002 JUMP JUMPDEST POP PUSH2 0x120 DUP3 ADD MLOAD DUP2 PUSH1 0x9 ADD SWAP1 DUP1 MLOAD SWAP1 PUSH1 0x20 ADD SWAP1 PUSH2 0x2E78 SWAP3 SWAP2 SWAP1 PUSH2 0x3002 JUMP JUMPDEST POP PUSH2 0x140 DUP3 ADD MLOAD DUP2 PUSH1 0xA ADD SWAP1 DUP1 MLOAD SWAP1 PUSH1 0x20 ADD SWAP1 PUSH2 0x2E96 SWAP3 SWAP2 SWAP1 PUSH2 0x3002 JUMP JUMPDEST POP POP POP PUSH1 0x1 PUSH1 0x6 PUSH1 0x0 DUP12 PUSH20 0xFFFFFFFFFFFFFFFFFFFFFFFFFFFFFFFFFFFFFFFF AND PUSH20 0xFFFFFFFFFFFFFFFFFFFFFFFFFFFFFFFFFFFFFFFF AND DUP2 MSTORE PUSH1 0x20 ADD SWAP1 DUP2 MSTORE PUSH1 0x20 ADD PUSH1 0x0 KECCAK256 PUSH1 0x0 PUSH2 0x100 EXP DUP2 SLOAD DUP2 PUSH1 0xFF MUL NOT AND SWAP1 DUP4 ISZERO ISZERO MUL OR SWAP1 SSTORE POP PUSH32 0x5A022FC2E48A23651BBC4855C873BB1EFCF861DE8E23FE86FCCC875D71B32FD2 DUP2 DUP12 DUP12 DUP12 DUP12 DUP12 DUP12 DUP12 DUP12 DUP12 PUSH1 0x40 MLOAD PUSH2 0x2F32 SWAP11 SWAP10 SWAP9 SWAP8 SWAP7 SWAP6 SWAP5 SWAP4 SWAP3 SWAP2 SWAP1 PUSH2 0x3DCC JUMP JUMPDEST PUSH1 0x40 MLOAD DUP1 SWAP2 SUB SWAP1 LOG1 POP POP POP POP POP POP POP POP POP POP JUMP JUMPDEST PUSH1 0x0 DUP1 PUSH1 0x14 SWAP1 SLOAD SWAP1 PUSH2 0x100 EXP SWAP1 DIV PUSH1 0xFF AND ISZERO PUSH2 0x2F97 JUMPI PUSH1 0x40 MLOAD PUSH32 0x8C379A000000000000000000000000000000000000000000000000000000000 DUP2 MSTORE PUSH1 0x4 ADD PUSH2 0x2F8E SWAP1 PUSH2 0x3C91 JUMP JUMPDEST PUSH1 0x40 MLOAD DUP1 SWAP2 SUB SWAP1 REVERT JUMPDEST PUSH1 0x1 PUSH1 0x2 ADD SLOAD SWAP1 POP SWAP1 JUMP JUMPDEST PUSH1 0x8 PUSH1 0x20 MSTORE DUP1 PUSH1 0x0 MSTORE PUSH1 0x40 PUSH1 0x0 KECCAK256 PUSH1 0x0 SWAP2 POP SWAP1 POP SLOAD DUP2 JUMP JUMPDEST PUSH1 0x0 PUSH1 0x14 SWAP1 SLOAD SWAP1 PUSH2 0x100 EXP SWAP1 DIV PUSH1 0xFF AND DUP2 JUMP JUMPDEST PUSH1 0x0 DUP1 DUP3 PUSH1 0x40 MLOAD PUSH1 0x20 ADD PUSH2 0x2FE1 SWAP2 SWAP1 PUSH2 0x399D JUMP JUMPDEST PUSH1 0x40 MLOAD PUSH1 0x20 DUP2 DUP4 SUB SUB DUP2 MSTORE SWAP1 PUSH1 0x40 MSTORE DUP1 MLOAD SWAP1 PUSH1 0x20 ADD KECCAK256 SWAP1 POP DUP1 SWAP2 POP POP SWAP2 SWAP1 POP JUMP JUMPDEST DUP3 DUP1 SLOAD PUSH2 0x300E SWAP1 PUSH2 0x4167 JUMP JUMPDEST SWAP1 PUSH1 0x0 MSTORE PUSH1 0x20 PUSH1 0x0 KECCAK256 SWAP1 PUSH1 0x1F ADD PUSH1 0x20 SWAP1 DIV DUP2 ADD SWAP3 DUP3 PUSH2 0x3030 JUMPI PUSH1 0x0 DUP6 SSTORE PUSH2 0x3077 JUMP JUMPDEST DUP3 PUSH1 0x1F LT PUSH2 0x3049 JUMPI DUP1 MLOAD PUSH1 0xFF NOT AND DUP4 DUP1 ADD OR DUP6 SSTORE PUSH2 0x3077 JUMP JUMPDEST DUP3 DUP1 ADD PUSH1 0x1 ADD DUP6 SSTORE DUP3 ISZERO PUSH2 0x3077 JUMPI SWAP2 DUP3 ADD JUMPDEST DUP3 DUP2 GT ISZERO PUSH2 0x3076 JUMPI DUP3 MLOAD DUP3 SSTORE SWAP2 PUSH1 0x20 ADD SWAP2 SWAP1 PUSH1 0x1 ADD SWAP1 PUSH2 0x305B JUMP JUMPDEST JUMPDEST POP SWAP1 POP PUSH2 0x3084 SWAP2 SWAP1 PUSH2 0x3088 JUMP JUMPDEST POP SWAP1 JUMP JUMPDEST JUMPDEST DUP1 DUP3 GT ISZERO PUSH2 0x30A1 JUMPI PUSH1 0x0 DUP2 PUSH1 0x0 SWAP1 SSTORE POP PUSH1 0x1 ADD PUSH2 0x3089 JUMP JUMPDEST POP SWAP1 JUMP JUMPDEST PUSH1 0x0 PUSH2 0x30B8 PUSH2 0x30B3 DUP5 PUSH2 0x3FF2 JUMP JUMPDEST PUSH2 0x3FC1 JUMP JUMPDEST SWAP1 POP DUP3 DUP2 MSTORE PUSH1 0x20 DUP2 ADD DUP5 DUP5 DUP5 ADD GT ISZERO PUSH2 0x30D0 JUMPI PUSH1 0x0 DUP1 REVERT JUMPDEST PUSH2 0x30DB DUP5 DUP3 DUP6 PUSH2 0x4125 JUMP JUMPDEST POP SWAP4 SWAP3 POP POP POP JUMP JUMPDEST PUSH1 0x0 DUP2 CALLDATALOAD SWAP1 POP PUSH2 0x30F2 DUP2 PUSH2 0x4280 JUMP JUMPDEST SWAP3 SWAP2 POP POP JUMP JUMPDEST PUSH1 0x0 DUP3 PUSH1 0x1F DUP4 ADD SLT PUSH2 0x3109 JUMPI PUSH1 0x0 DUP1 REVERT JUMPDEST DUP2 CALLDATALOAD PUSH2 0x3119 DUP5 DUP3 PUSH1 0x20 DUP7 ADD PUSH2 0x30A5 JUMP JUMPDEST SWAP2 POP POP SWAP3 SWAP2 POP POP JUMP JUMPDEST PUSH1 0x0 DUP2 CALLDATALOAD SWAP1 POP PUSH2 0x3131 DUP2 PUSH2 0x4297 JUMP JUMPDEST SWAP3 SWAP2 POP POP JUMP JUMPDEST PUSH1 0x0 PUSH1 0x20 DUP3 DUP5 SUB SLT ISZERO PUSH2 0x3149 JUMPI PUSH1 0x0 DUP1 REVERT JUMPDEST PUSH1 0x0 PUSH2 0x3157 DUP5 DUP3 DUP6 ADD PUSH2 0x30E3 JUMP JUMPDEST SWAP2 POP POP SWAP3 SWAP2 POP POP JUMP JUMPDEST PUSH1 0x0 DUP1 PUSH1 0x0 PUSH1 0x60 DUP5 DUP7 SUB SLT ISZERO PUSH2 0x3175 JUMPI PUSH1 0x0 DUP1 REVERT JUMPDEST PUSH1 0x0 PUSH2 0x3183 DUP7 DUP3 DUP8 ADD PUSH2 0x30E3 JUMP JUMPDEST SWAP4 POP POP PUSH1 0x20 DUP5 ADD CALLDATALOAD PUSH8 0xFFFFFFFFFFFFFFFF DUP2 GT ISZERO PUSH2 0x31A0 JUMPI PUSH1 0x0 DUP1 REVERT JUMPDEST PUSH2 0x31AC DUP7 DUP3 DUP8 ADD PUSH2 0x30F8 JUMP JUMPDEST SWAP3 POP POP PUSH1 0x40 DUP5 ADD CALLDATALOAD PUSH8 0xFFFFFFFFFFFFFFFF DUP2 GT ISZERO PUSH2 0x31C9 JUMPI PUSH1 0x0 DUP1 REVERT JUMPDEST PUSH2 0x31D5 DUP7 DUP3 DUP8 ADD PUSH2 0x30F8 JUMP JUMPDEST SWAP2 POP POP SWAP3 POP SWAP3 POP SWAP3 JUMP JUMPDEST PUSH1 0x0 DUP1 PUSH1 0x0 DUP1 PUSH1 0x0 DUP1 PUSH1 0x0 PUSH1 0xE0 DUP9 DUP11 SUB SLT ISZERO PUSH2 0x31FA JUMPI PUSH1 0x0 DUP1 REVERT JUMPDEST PUSH1 0x0 DUP9 ADD CALLDATALOAD PUSH8 0xFFFFFFFFFFFFFFFF DUP2 GT ISZERO PUSH2 0x3214 JUMPI PUSH1 0x0 DUP1 REVERT JUMPDEST PUSH2 0x3220 DUP11 DUP3 DUP12 ADD PUSH2 0x30F8 JUMP JUMPDEST SWAP8 POP POP PUSH1 0x20 PUSH2 0x3231 DUP11 DUP3 DUP12 ADD PUSH2 0x30E3 JUMP JUMPDEST SWAP7 POP POP PUSH1 0x40 DUP9 ADD CALLDATALOAD PUSH8 0xFFFFFFFFFFFFFFFF DUP2 GT ISZERO PUSH2 0x324E JUMPI PUSH1 0x0 DUP1 REVERT JUMPDEST PUSH2 0x325A DUP11 DUP3 DUP12 ADD PUSH2 0x30F8 JUMP JUMPDEST SWAP6 POP POP PUSH1 0x60 DUP9 ADD CALLDATALOAD PUSH8 0xFFFFFFFFFFFFFFFF DUP2 GT ISZERO PUSH2 0x3277 JUMPI PUSH1 0x0 DUP1 REVERT JUMPDEST PUSH2 0x3283 DUP11 DUP3 DUP12 ADD PUSH2 0x30F8 JUMP JUMPDEST SWAP5 POP POP PUSH1 0x80 DUP9 ADD CALLDATALOAD PUSH8 0xFFFFFFFFFFFFFFFF DUP2 GT ISZERO PUSH2 0x32A0 JUMPI PUSH1 0x0 DUP1 REVERT JUMPDEST PUSH2 0x32AC DUP11 DUP3 DUP12 ADD PUSH2 0x30F8 JUMP JUMPDEST SWAP4 POP POP PUSH1 0xA0 DUP9 ADD CALLDATALOAD PUSH8 0xFFFFFFFFFFFFFFFF DUP2 GT ISZERO PUSH2 0x32C9 JUMPI PUSH1 0x0 DUP1 REVERT JUMPDEST PUSH2 0x32D5 DUP11 DUP3 DUP12 ADD PUSH2 0x30F8 JUMP JUMPDEST SWAP3 POP POP PUSH1 0xC0 DUP9 ADD CALLDATALOAD PUSH8 0xFFFFFFFFFFFFFFFF DUP2 GT ISZERO PUSH2 0x32F2 JUMPI PUSH1 0x0 DUP1 REVERT JUMPDEST PUSH2 0x32FE DUP11 DUP3 DUP12 ADD PUSH2 0x30F8 JUMP JUMPDEST SWAP2 POP POP SWAP3 SWAP6 SWAP9 SWAP2 SWAP5 SWAP8 POP SWAP3 SWAP6 POP JUMP JUMPDEST PUSH1 0x0 DUP1 PUSH1 0x0 DUP1 PUSH1 0x0 DUP1 PUSH1 0x0 DUP1 PUSH1 0x0 PUSH2 0x120 DUP11 DUP13 SUB SLT ISZERO PUSH2 0x332C JUMPI PUSH1 0x0 DUP1 REVERT JUMPDEST PUSH1 0x0 DUP11 ADD CALLDATALOAD PUSH8 0xFFFFFFFFFFFFFFFF DUP2 GT ISZERO PUSH2 0x3346 JUMPI PUSH1 0x0 DUP1 REVERT JUMPDEST PUSH2 0x3352 DUP13 DUP3 DUP14 ADD PUSH2 0x30F8 JUMP JUMPDEST SWAP10 POP POP PUSH1 0x20 PUSH2 0x3363 DUP13 DUP3 DUP14 ADD PUSH2 0x30E3 JUMP JUMPDEST SWAP9 POP POP PUSH1 0x40 DUP11 ADD CALLDATALOAD PUSH8 0xFFFFFFFFFFFFFFFF DUP2 GT ISZERO PUSH2 0x3380 JUMPI PUSH1 0x0 DUP1 REVERT JUMPDEST PUSH2 0x338C DUP13 DUP3 DUP14 ADD PUSH2 0x30F8 JUMP JUMPDEST SWAP8 POP POP PUSH1 0x60 DUP11 ADD CALLDATALOAD PUSH8 0xFFFFFFFFFFFFFFFF DUP2 GT ISZERO PUSH2 0x33A9 JUMPI PUSH1 0x0 DUP1 REVERT JUMPDEST PUSH2 0x33B5 DUP13 DUP3 DUP14 ADD PUSH2 0x30F8 JUMP JUMPDEST SWAP7 POP POP PUSH1 0x80 PUSH2 0x33C6 DUP13 DUP3 DUP14 ADD PUSH2 0x3122 JUMP JUMPDEST SWAP6 POP POP PUSH1 0xA0 DUP11 ADD CALLDATALOAD PUSH8 0xFFFFFFFFFFFFFFFF DUP2 GT ISZERO PUSH2 0x33E3 JUMPI PUSH1 0x0 DUP1 REVERT JUMPDEST PUSH2 0x33EF DUP13 DUP3 DUP14 ADD PUSH2 0x30F8 JUMP JUMPDEST SWAP5 POP POP PUSH1 0xC0 DUP11 ADD CALLDATALOAD PUSH8 0xFFFFFFFFFFFFFFFF DUP2 GT ISZERO PUSH2 0x340C JUMPI PUSH1 0x0 DUP1 REVERT JUMPDEST PUSH2 0x3418 DUP13 DUP3 DUP14 ADD PUSH2 0x30F8 JUMP JUMPDEST SWAP4 POP POP PUSH1 0xE0 DUP11 ADD CALLDATALOAD PUSH8 0xFFFFFFFFFFFFFFFF DUP2 GT ISZERO PUSH2 0x3435 JUMPI PUSH1 0x0 DUP1 REVERT JUMPDEST PUSH2 0x3441 DUP13 DUP3 DUP14 ADD PUSH2 0x30F8 JUMP JUMPDEST SWAP3 POP POP PUSH2 0x100 DUP11 ADD CALLDATALOAD PUSH8 0xFFFFFFFFFFFFFFFF DUP2 GT ISZERO PUSH2 0x345F JUMPI PUSH1 0x0 DUP1 REVERT JUMPDEST PUSH2 0x346B DUP13 DUP3 DUP14 ADD PUSH2 0x30F8 JUMP JUMPDEST SWAP2 POP POP SWAP3 SWAP6 SWAP9 POP SWAP3 SWAP6 SWAP9 POP SWAP3 SWAP6 SWAP9 JUMP JUMPDEST PUSH1 0x0 DUP1 PUSH1 0x0 PUSH1 0x60 DUP5 DUP7 SUB SLT ISZERO PUSH2 0x3490 JUMPI PUSH1 0x0 DUP1 REVERT JUMPDEST PUSH1 0x0 DUP5 ADD CALLDATALOAD PUSH8 0xFFFFFFFFFFFFFFFF DUP2 GT ISZERO PUSH2 0x34AA JUMPI PUSH1 0x0 DUP1 REVERT JUMPDEST PUSH2 0x34B6 DUP7 DUP3 DUP8 ADD PUSH2 0x30F8 JUMP JUMPDEST SWAP4 POP POP PUSH1 0x20 DUP5 ADD CALLDATALOAD PUSH8 0xFFFFFFFFFFFFFFFF DUP2 GT ISZERO PUSH2 0x34D3 JUMPI PUSH1 0x0 DUP1 REVERT JUMPDEST PUSH2 0x34DF DUP7 DUP3 DUP8 ADD PUSH2 0x30F8 JUMP JUMPDEST SWAP3 POP POP PUSH1 0x40 PUSH2 0x34F0 DUP7 DUP3 DUP8 ADD PUSH2 0x30E3 JUMP JUMPDEST SWAP2 POP POP SWAP3 POP SWAP3 POP SWAP3 JUMP JUMPDEST PUSH1 0x0 PUSH1 0x20 DUP3 DUP5 SUB SLT ISZERO PUSH2 0x350C JUMPI PUSH1 0x0 DUP1 REVERT JUMPDEST PUSH1 0x0 PUSH2 0x351A DUP5 DUP3 DUP6 ADD PUSH2 0x3122 JUMP JUMPDEST SWAP2 POP POP SWAP3 SWAP2 POP POP JUMP JUMPDEST PUSH1 0x0 DUP1 PUSH1 0x40 DUP4 DUP6 SUB SLT ISZERO PUSH2 0x3536 JUMPI PUSH1 0x0 DUP1 REVERT JUMPDEST PUSH1 0x0 PUSH2 0x3544 DUP6 DUP3 DUP7 ADD PUSH2 0x3122 JUMP JUMPDEST SWAP3 POP POP PUSH1 0x20 PUSH2 0x3555 DUP6 DUP3 DUP7 ADD PUSH2 0x30E3 JUMP JUMPDEST SWAP2 POP POP SWAP3 POP SWAP3 SWAP1 POP JUMP JUMPDEST PUSH2 0x3568 DUP2 PUSH2 0x40D3 JUMP JUMPDEST DUP3 MSTORE POP POP JUMP JUMPDEST PUSH2 0x3577 DUP2 PUSH2 0x40E5 JUMP JUMPDEST DUP3 MSTORE POP POP JUMP JUMPDEST PUSH2 0x3586 DUP2 PUSH2 0x40F1 JUMP JUMPDEST DUP3 MSTORE POP POP JUMP JUMPDEST PUSH1 0x0 PUSH2 0x3597 DUP3 PUSH2 0x4022 JUMP JUMPDEST PUSH2 0x35A1 DUP2 DUP6 PUSH2 0x402D JUMP JUMPDEST SWAP4 POP PUSH2 0x35B1 DUP2 DUP6 PUSH1 0x20 DUP7 ADD PUSH2 0x4134 JUMP JUMPDEST PUSH2 0x35BA DUP2 PUSH2 0x426F JUMP JUMPDEST DUP5 ADD SWAP2 POP POP SWAP3 SWAP2 POP POP JUMP JUMPDEST PUSH1 0x0 PUSH2 0x35D0 DUP3 PUSH2 0x4022 JUMP JUMPDEST PUSH2 0x35DA DUP2 DUP6 PUSH2 0x403E JUMP JUMPDEST SWAP4 POP PUSH2 0x35EA DUP2 DUP6 PUSH1 0x20 DUP7 ADD PUSH2 0x4134 JUMP JUMPDEST DUP1 DUP5 ADD SWAP2 POP POP SWAP3 SWAP2 POP POP JUMP JUMPDEST PUSH1 0x0 PUSH2 0x3603 PUSH1 0x17 DUP4 PUSH2 0x402D JUMP JUMPDEST SWAP2 POP PUSH32 0x596F75206861766520616C726561647920766F7465642E000000000000000000 PUSH1 0x0 DUP4 ADD MSTORE PUSH1 0x20 DUP3 ADD SWAP1 POP SWAP2 SWAP1 POP JUMP JUMPDEST PUSH1 0x0 PUSH2 0x3643 PUSH1 0x2B DUP4 PUSH2 0x402D JUMP JUMPDEST SWAP2 POP PUSH32 0x43616E6E6F74206465636C61726520726573756C74207768696C6520766F7469 PUSH1 0x0 DUP4 ADD MSTORE PUSH32 0x6E67206973206F70656E2E000000000000000000000000000000000000000000 PUSH1 0x20 DUP4 ADD MSTORE PUSH1 0x40 DUP3 ADD SWAP1 POP SWAP2 SWAP1 POP JUMP JUMPDEST PUSH1 0x0 PUSH2 0x36A9 PUSH1 0x12 DUP4 PUSH2 0x402D JUMP JUMPDEST SWAP2 POP PUSH32 0x496E636F72726563742070617373776F72640000000000000000000000000000 PUSH1 0x0 DUP4 ADD MSTORE PUSH1 0x20 DUP3 ADD SWAP1 POP SWAP2 SWAP1 POP JUMP JUMPDEST PUSH1 0x0 PUSH2 0x36E9 PUSH1 0x17 DUP4 PUSH2 0x402D JUMP JUMPDEST SWAP2 POP PUSH32 0x456C656374696F6E206973207374696C6C206F70656E2E000000000000000000 PUSH1 0x0 DUP4 ADD MSTORE PUSH1 0x20 DUP3 ADD SWAP1 POP SWAP2 SWAP1 POP JUMP JUMPDEST PUSH1 0x0 PUSH2 0x3729 PUSH1 0x18 DUP4 PUSH2 0x402D JUMP JUMPDEST SWAP2 POP PUSH32 0x566F746572206973206E6F7420726567697374657265642E0000000000000000 PUSH1 0x0 DUP4 ADD MSTORE PUSH1 0x20 DUP3 ADD SWAP1 POP SWAP2 SWAP1 POP JUMP JUMPDEST PUSH1 0x0 PUSH2 0x3769 PUSH1 0x27 DUP4 PUSH2 0x402D JUMP JUMPDEST SWAP2 POP PUSH32 0x4E6F2063616E6469646174657320746F206465636C6172652061732074686520 PUSH1 0x0 DUP4 ADD MSTORE PUSH32 0x77696E6E65722E00000000000000000000000000000000000000000000000000 PUSH1 0x20 DUP4 ADD MSTORE PUSH1 0x40 DUP3 ADD SWAP1 POP SWAP2 SWAP1 POP JUMP JUMPDEST PUSH1 0x0 PUSH2 0x37CF PUSH1 0x29 DUP4 PUSH2 0x402D JUMP JUMPDEST SWAP2 POP PUSH32 0x43616E206E6F74207265676973746572207768656E20456C656374696F6E2069 PUSH1 0x0 DUP4 ADD MSTORE PUSH32 0x732072756E6E696E670000000000000000000000000000000000000000000000 PUSH1 0x20 DUP4 ADD MSTORE PUSH1 0x40 DUP3 ADD SWAP1 POP SWAP2 SWAP1 POP JUMP JUMPDEST PUSH1 0x0 PUSH2 0x3835 PUSH1 0x27 DUP4 PUSH2 0x402D JUMP JUMPDEST SWAP2 POP PUSH32 0x4F6E6C7920746865206F776E65722063616E20706572666F726D207468697320 PUSH1 0x0 DUP4 ADD MSTORE PUSH32 0x616374696F6E2E00000000000000000000000000000000000000000000000000 PUSH1 0x20 DUP4 ADD MSTORE PUSH1 0x40 DUP3 ADD SWAP1 POP SWAP2 SWAP1 POP JUMP JUMPDEST PUSH1 0x0 PUSH2 0x389B PUSH1 0x15 DUP4 PUSH2 0x402D JUMP JUMPDEST SWAP2 POP PUSH32 0x41646D696E20616C7265616479206578697374732E0000000000000000000000 PUSH1 0x0 DUP4 ADD MSTORE PUSH1 0x20 DUP3 ADD SWAP1 POP SWAP2 SWAP1 POP JUMP JUMPDEST PUSH1 0x0 PUSH2 0x38DB PUSH1 0x1C DUP4 PUSH2 0x402D JUMP JUMPDEST SWAP2 POP PUSH32 0x566F74657220697320616C726561647920726567697374657265642E00000000 PUSH1 0x0 DUP4 ADD MSTORE PUSH1 0x20 DUP3 ADD SWAP1 POP SWAP2 SWAP1 POP JUMP JUMPDEST PUSH1 0x0 PUSH2 0x391B PUSH1 0x11 DUP4 PUSH2 0x402D JUMP JUMPDEST SWAP2 POP PUSH32 0x566F74696E6720697320636C6F7365642E000000000000000000000000000000 PUSH1 0x0 DUP4 ADD MSTORE PUSH1 0x20 DUP3 ADD SWAP1 POP SWAP2 SWAP1 POP JUMP JUMPDEST PUSH1 0x0 PUSH2 0x395B PUSH1 0x15 DUP4 PUSH2 0x402D JUMP JUMPDEST SWAP2 POP PUSH32 0x496E76616C69642063616E6469646174652049442E0000000000000000000000 PUSH1 0x0 DUP4 ADD MSTORE PUSH1 0x20 DUP3 ADD SWAP1 POP SWAP2 SWAP1 POP JUMP JUMPDEST PUSH2 0x3997 DUP2 PUSH2 0x411B JUMP JUMPDEST DUP3 MSTORE POP POP JUMP JUMPDEST PUSH1 0x0 PUSH2 0x39A9 DUP3 DUP5 PUSH2 0x35C5 JUMP JUMPDEST SWAP2 POP DUP2 SWAP1 POP SWAP3 SWAP2 POP POP JUMP JUMPDEST PUSH1 0x0 PUSH1 0x20 DUP3 ADD SWAP1 POP PUSH2 0x39C9 PUSH1 0x0 DUP4 ADD DUP5 PUSH2 0x355F JUMP JUMPDEST SWAP3 SWAP2 POP POP JUMP JUMPDEST PUSH1 0x0 PUSH2 0x100 DUP3 ADD SWAP1 POP PUSH2 0x39E5 PUSH1 0x0 DUP4 ADD DUP12 PUSH2 0x355F JUMP JUMPDEST DUP2 DUP2 SUB PUSH1 0x20 DUP4 ADD MSTORE PUSH2 0x39F7 DUP2 DUP11 PUSH2 0x358C JUMP JUMPDEST SWAP1 POP DUP2 DUP2 SUB PUSH1 0x40 DUP4 ADD MSTORE PUSH2 0x3A0B DUP2 DUP10 PUSH2 0x358C JUMP JUMPDEST SWAP1 POP DUP2 DUP2 SUB PUSH1 0x60 DUP4 ADD MSTORE PUSH2 0x3A1F DUP2 DUP9 PUSH2 0x358C JUMP JUMPDEST SWAP1 POP DUP2 DUP2 SUB PUSH1 0x80 DUP4 ADD MSTORE PUSH2 0x3A33 DUP2 DUP8 PUSH2 0x358C JUMP JUMPDEST SWAP1 POP DUP2 DUP2 SUB PUSH1 0xA0 DUP4 ADD MSTORE PUSH2 0x3A47 DUP2 DUP7 PUSH2 0x358C JUMP JUMPDEST SWAP1 POP PUSH2 0x3A56 PUSH1 0xC0 DUP4 ADD DUP6 PUSH2 0x357D JUMP JUMPDEST PUSH2 0x3A63 PUSH1 0xE0 DUP4 ADD DUP5 PUSH2 0x356E JUMP JUMPDEST SWAP10 SWAP9 POP POP POP POP POP POP POP POP POP JUMP JUMPDEST PUSH1 0x0 PUSH1 0x20 DUP3 ADD SWAP1 POP PUSH2 0x3A85 PUSH1 0x0 DUP4 ADD DUP5 PUSH2 0x356E JUMP JUMPDEST SWAP3 SWAP2 POP POP JUMP JUMPDEST PUSH1 0x0 PUSH1 0x20 DUP3 ADD SWAP1 POP DUP2 DUP2 SUB PUSH1 0x0 DUP4 ADD MSTORE PUSH2 0x3AA5 DUP2 DUP5 PUSH2 0x358C JUMP JUMPDEST SWAP1 POP SWAP3 SWAP2 POP POP JUMP JUMPDEST PUSH1 0x0 PUSH1 0xC0 DUP3 ADD SWAP1 POP DUP2 DUP2 SUB PUSH1 0x0 DUP4 ADD MSTORE PUSH2 0x3AC7 DUP2 DUP10 PUSH2 0x358C JUMP JUMPDEST SWAP1 POP PUSH2 0x3AD6 PUSH1 0x20 DUP4 ADD DUP9 PUSH2 0x355F JUMP JUMPDEST DUP2 DUP2 SUB PUSH1 0x40 DUP4 ADD MSTORE PUSH2 0x3AE8 DUP2 DUP8 PUSH2 0x358C JUMP JUMPDEST SWAP1 POP DUP2 DUP2 SUB PUSH1 0x60 DUP4 ADD MSTORE PUSH2 0x3AFC DUP2 DUP7 PUSH2 0x358C JUMP JUMPDEST SWAP1 POP DUP2 DUP2 SUB PUSH1 0x80 DUP4 ADD MSTORE PUSH2 0x3B10 DUP2 DUP6 PUSH2 0x358C JUMP JUMPDEST SWAP1 POP DUP2 DUP2 SUB PUSH1 0xA0 DUP4 ADD MSTORE PUSH2 0x3B24 DUP2 DUP5 PUSH2 0x358C JUMP JUMPDEST SWAP1 POP SWAP8 SWAP7 POP POP POP POP POP POP POP JUMP JUMPDEST PUSH1 0x0 PUSH1 0x80 DUP3 ADD SWAP1 POP DUP2 DUP2 SUB PUSH1 0x0 DUP4 ADD MSTORE PUSH2 0x3B4B DUP2 DUP8 PUSH2 0x358C JUMP JUMPDEST SWAP1 POP DUP2 DUP2 SUB PUSH1 0x20 DUP4 ADD MSTORE PUSH2 0x3B5F DUP2 DUP7 PUSH2 0x358C JUMP JUMPDEST SWAP1 POP PUSH2 0x3B6E PUSH1 0x40 DUP4 ADD DUP6 PUSH2 0x355F JUMP JUMPDEST PUSH2 0x3B7B PUSH1 0x60 DUP4 ADD DUP5 PUSH2 0x356E JUMP JUMPDEST SWAP6 SWAP5 POP POP POP POP POP JUMP JUMPDEST PUSH1 0x0 PUSH1 0xC0 DUP3 ADD SWAP1 POP DUP2 DUP2 SUB PUSH1 0x0 DUP4 ADD MSTORE PUSH2 0x3B9E DUP2 DUP10 PUSH2 0x358C JUMP JUMPDEST SWAP1 POP DUP2 DUP2 SUB PUSH1 0x20 DUP4 ADD MSTORE PUSH2 0x3BB2 DUP2 DUP9 PUSH2 0x358C JUMP JUMPDEST SWAP1 POP DUP2 DUP2 SUB PUSH1 0x40 DUP4 ADD MSTORE PUSH2 0x3BC6 DUP2 DUP8 PUSH2 0x358C JUMP JUMPDEST SWAP1 POP PUSH2 0x3BD5 PUSH1 0x60 DUP4 ADD DUP7 PUSH2 0x398E JUMP JUMPDEST DUP2 DUP2 SUB PUSH1 0x80 DUP4 ADD MSTORE PUSH2 0x3BE7 DUP2 DUP6 PUSH2 0x358C JUMP JUMPDEST SWAP1 POP PUSH2 0x3BF6 PUSH1 0xA0 DUP4 ADD DUP5 PUSH2 0x398E JUMP JUMPDEST SWAP8 SWAP7 POP POP POP POP POP POP POP JUMP JUMPDEST PUSH1 0x0 PUSH1 0x40 DUP3 ADD SWAP1 POP DUP2 DUP2 SUB PUSH1 0x0 DUP4 ADD MSTORE PUSH2 0x3C1B DUP2 DUP6 PUSH2 0x358C JUMP JUMPDEST SWAP1 POP PUSH2 0x3C2A PUSH1 0x20 DUP4 ADD DUP5 PUSH2 0x398E JUMP JUMPDEST SWAP4 SWAP3 POP POP POP JUMP JUMPDEST PUSH1 0x0 PUSH1 0x20 DUP3 ADD SWAP1 POP DUP2 DUP2 SUB PUSH1 0x0 DUP4 ADD MSTORE PUSH2 0x3C4A DUP2 PUSH2 0x35F6 JUMP JUMPDEST SWAP1 POP SWAP2 SWAP1 POP JUMP JUMPDEST PUSH1 0x0 PUSH1 0x20 DUP3 ADD SWAP1 POP DUP2 DUP2 SUB PUSH1 0x0 DUP4 ADD MSTORE PUSH2 0x3C6A DUP2 PUSH2 0x3636 JUMP JUMPDEST SWAP1 POP SWAP2 SWAP1 POP JUMP JUMPDEST PUSH1 0x0 PUSH1 0x20 DUP3 ADD SWAP1 POP DUP2 DUP2 SUB PUSH1 0x0 DUP4 ADD MSTORE PUSH2 0x3C8A DUP2 PUSH2 0x369C JUMP JUMPDEST SWAP1 POP SWAP2 SWAP1 POP JUMP JUMPDEST PUSH1 0x0 PUSH1 0x20 DUP3 ADD SWAP1 POP DUP2 DUP2 SUB PUSH1 0x0 DUP4 ADD MSTORE PUSH2 0x3CAA DUP2 PUSH2 0x36DC JUMP JUMPDEST SWAP1 POP SWAP2 SWAP1 POP JUMP JUMPDEST PUSH1 0x0 PUSH1 0x20 DUP3 ADD SWAP1 POP DUP2 DUP2 SUB PUSH1 0x0 DUP4 ADD MSTORE PUSH2 0x3CCA DUP2 PUSH2 0x371C JUMP JUMPDEST SWAP1 POP SWAP2 SWAP1 POP JUMP JUMPDEST PUSH1 0x0 PUSH1 0x20 DUP3 ADD SWAP1 POP DUP2 DUP2 SUB PUSH1 0x0 DUP4 ADD MSTORE PUSH2 0x3CEA DUP2 PUSH2 0x375C JUMP JUMPDEST SWAP1 POP SWAP2 SWAP1 POP JUMP JUMPDEST PUSH1 0x0 PUSH1 0x20 DUP3 ADD SWAP1 POP DUP2 DUP2 SUB PUSH1 0x0 DUP4 ADD MSTORE PUSH2 0x3D0A DUP2 PUSH2 0x37C2 JUMP JUMPDEST SWAP1 POP SWAP2 SWAP1 POP JUMP JUMPDEST PUSH1 0x0 PUSH1 0x20 DUP3 ADD SWAP1 POP DUP2 DUP2 SUB PUSH1 0x0 DUP4 ADD MSTORE PUSH2 0x3D2A DUP2 PUSH2 0x3828 JUMP JUMPDEST SWAP1 POP SWAP2 SWAP1 POP JUMP JUMPDEST PUSH1 0x0 PUSH1 0x20 DUP3 ADD SWAP1 POP DUP2 DUP2 SUB PUSH1 0x0 DUP4 ADD MSTORE PUSH2 0x3D4A DUP2 PUSH2 0x388E JUMP JUMPDEST SWAP1 POP SWAP2 SWAP1 POP JUMP JUMPDEST PUSH1 0x0 PUSH1 0x20 DUP3 ADD SWAP1 POP DUP2 DUP2 SUB PUSH1 0x0 DUP4 ADD MSTORE PUSH2 0x3D6A DUP2 PUSH2 0x38CE JUMP JUMPDEST SWAP1 POP SWAP2 SWAP1 POP JUMP JUMPDEST PUSH1 0x0 PUSH1 0x20 DUP3 ADD SWAP1 POP DUP2 DUP2 SUB PUSH1 0x0 DUP4 ADD MSTORE PUSH2 0x3D8A DUP2 PUSH2 0x390E JUMP JUMPDEST SWAP1 POP SWAP2 SWAP1 POP JUMP JUMPDEST PUSH1 0x0 PUSH1 0x20 DUP3 ADD SWAP1 POP DUP2 DUP2 SUB PUSH1 0x0 DUP4 ADD MSTORE PUSH2 0x3DAA DUP2 PUSH2 0x394E JUMP JUMPDEST SWAP1 POP SWAP2 SWAP1 POP JUMP JUMPDEST PUSH1 0x0 PUSH1 0x20 DUP3 ADD SWAP1 POP PUSH2 0x3DC6 PUSH1 0x0 DUP4 ADD DUP5 PUSH2 0x398E JUMP JUMPDEST SWAP3 SWAP2 POP POP JUMP JUMPDEST PUSH1 0x0 PUSH2 0x140 DUP3 ADD SWAP1 POP PUSH2 0x3DE2 PUSH1 0x0 DUP4 ADD DUP14 PUSH2 0x398E JUMP JUMPDEST DUP2 DUP2 SUB PUSH1 0x20 DUP4 ADD MSTORE PUSH2 0x3DF4 DUP2 DUP13 PUSH2 0x358C JUMP JUMPDEST SWAP1 POP PUSH2 0x3E03 PUSH1 0x40 DUP4 ADD DUP12 PUSH2 0x355F JUMP JUMPDEST DUP2 DUP2 SUB PUSH1 0x60 DUP4 ADD MSTORE PUSH2 0x3E15 DUP2 DUP11 PUSH2 0x358C JUMP JUMPDEST SWAP1 POP DUP2 DUP2 SUB PUSH1 0x80 DUP4 ADD MSTORE PUSH2 0x3E29 DUP2 DUP10 PUSH2 0x358C JUMP JUMPDEST SWAP1 POP PUSH2 0x3E38 PUSH1 0xA0 DUP4 ADD DUP9 PUSH2 0x398E JUMP JUMPDEST DUP2 DUP2 SUB PUSH1 0xC0 DUP4 ADD MSTORE PUSH2 0x3E4A DUP2 DUP8 PUSH2 0x358C JUMP JUMPDEST SWAP1 POP DUP2 DUP2 SUB PUSH1 0xE0 DUP4 ADD MSTORE PUSH2 0x3E5E DUP2 DUP7 PUSH2 0x358C JUMP JUMPDEST SWAP1 POP DUP2 DUP2 SUB PUSH2 0x100 DUP4 ADD MSTORE PUSH2 0x3E73 DUP2 DUP6 PUSH2 0x358C JUMP JUMPDEST SWAP1 POP DUP2 DUP2 SUB PUSH2 0x120 DUP4 ADD MSTORE PUSH2 0x3E88 DUP2 DUP5 PUSH2 0x358C JUMP JUMPDEST SWAP1 POP SWAP12 SWAP11 POP POP POP POP POP POP POP POP POP POP POP JUMP JUMPDEST PUSH1 0x0 PUSH1 0x80 DUP3 ADD SWAP1 POP PUSH2 0x3EAE PUSH1 0x0 DUP4 ADD DUP8 PUSH2 0x398E JUMP JUMPDEST DUP2 DUP2 SUB PUSH1 0x20 DUP4 ADD MSTORE PUSH2 0x3EC0 DUP2 DUP7 PUSH2 0x358C JUMP JUMPDEST SWAP1 POP PUSH2 0x3ECF PUSH1 0x40 DUP4 ADD DUP6 PUSH2 0x398E JUMP JUMPDEST PUSH2 0x3EDC PUSH1 0x60 DUP4 ADD DUP5 PUSH2 0x355F JUMP JUMPDEST SWAP6 SWAP5 POP POP POP POP POP JUMP JUMPDEST PUSH1 0x0 PUSH2 0x160 DUP3 ADD SWAP1 POP PUSH2 0x3EFB PUSH1 0x0 DUP4 ADD DUP15 PUSH2 0x398E JUMP JUMPDEST DUP2 DUP2 SUB PUSH1 0x20 DUP4 ADD MSTORE PUSH2 0x3F0D DUP2 DUP14 PUSH2 0x358C JUMP JUMPDEST SWAP1 POP PUSH2 0x3F1C PUSH1 0x40 DUP4 ADD DUP13 PUSH2 0x398E JUMP JUMPDEST PUSH2 0x3F29 PUSH1 0x60 DUP4 ADD DUP12 PUSH2 0x355F JUMP JUMPDEST DUP2 DUP2 SUB PUSH1 0x80 DUP4 ADD MSTORE PUSH2 0x3F3B DUP2 DUP11 PUSH2 0x358C JUMP JUMPDEST SWAP1 POP DUP2 DUP2 SUB PUSH1 0xA0 DUP4 ADD MSTORE PUSH2 0x3F4F DUP2 DUP10 PUSH2 0x358C JUMP JUMPDEST SWAP1 POP PUSH2 0x3F5E PUSH1 0xC0 DUP4 ADD DUP9 PUSH2 0x398E JUMP JUMPDEST DUP2 DUP2 SUB PUSH1 0xE0 DUP4 ADD MSTORE PUSH2 0x3F70 DUP2 DUP8 PUSH2 0x358C JUMP JUMPDEST SWAP1 POP DUP2 DUP2 SUB PUSH2 0x100 DUP4 ADD MSTORE PUSH2 0x3F85 DUP2 DUP7 PUSH2 0x358C JUMP JUMPDEST SWAP1 POP DUP2 DUP2 SUB PUSH2 0x120 DUP4 ADD MSTORE PUSH2 0x3F9A DUP2 DUP6 PUSH2 0x358C JUMP JUMPDEST SWAP1 POP DUP2 DUP2 SUB PUSH2 0x140 DUP4 ADD MSTORE PUSH2 0x3FAF DUP2 DUP5 PUSH2 0x358C JUMP JUMPDEST SWAP1 POP SWAP13 SWAP12 POP POP POP POP POP POP POP POP POP POP POP POP JUMP JUMPDEST PUSH1 0x0 PUSH1 0x40 MLOAD SWAP1 POP DUP2 DUP2 ADD DUP2 DUP2 LT PUSH8 0xFFFFFFFFFFFFFFFF DUP3 GT OR ISZERO PUSH2 0x3FE8 JUMPI PUSH2 0x3FE7 PUSH2 0x4240 JUMP JUMPDEST JUMPDEST DUP1 PUSH1 0x40 MSTORE POP SWAP2 SWAP1 POP JUMP JUMPDEST PUSH1 0x0 PUSH8 0xFFFFFFFFFFFFFFFF DUP3 GT ISZERO PUSH2 0x400D JUMPI PUSH2 0x400C PUSH2 0x4240 JUMP JUMPDEST JUMPDEST PUSH1 0x1F NOT PUSH1 0x1F DUP4 ADD AND SWAP1 POP PUSH1 0x20 DUP2 ADD SWAP1 POP SWAP2 SWAP1 POP JUMP JUMPDEST PUSH1 0x0 DUP2 MLOAD SWAP1 POP SWAP2 SWAP1 POP JUMP JUMPDEST PUSH1 0x0 DUP3 DUP3 MSTORE PUSH1 0x20 DUP3 ADD SWAP1 POP SWAP3 SWAP2 POP POP JUMP JUMPDEST PUSH1 0x0 DUP2 SWAP1 POP SWAP3 SWAP2 POP POP JUMP JUMPDEST PUSH1 0x0 PUSH2 0x4054 DUP3 PUSH2 0x411B JUMP JUMPDEST SWAP2 POP PUSH2 0x405F DUP4 PUSH2 0x411B JUMP JUMPDEST SWAP3 POP DUP3 PUSH32 0xFFFFFFFFFFFFFFFFFFFFFFFFFFFFFFFFFFFFFFFFFFFFFFFFFFFFFFFFFFFFFFFF SUB DUP3 GT ISZERO PUSH2 0x4094 JUMPI PUSH2 0x4093 PUSH2 0x41E2 JUMP JUMPDEST JUMPDEST DUP3 DUP3 ADD SWAP1 POP SWAP3 SWAP2 POP POP JUMP JUMPDEST PUSH1 0x0 PUSH2 0x40AA DUP3 PUSH2 0x411B JUMP JUMPDEST SWAP2 POP PUSH2 0x40B5 DUP4 PUSH2 0x411B JUMP JUMPDEST SWAP3 POP DUP3 DUP3 LT ISZERO PUSH2 0x40C8 JUMPI PUSH2 0x40C7 PUSH2 0x41E2 JUMP JUMPDEST JUMPDEST DUP3 DUP3 SUB SWAP1 POP SWAP3 SWAP2 POP POP JUMP JUMPDEST PUSH1 0x0 PUSH2 0x40DE DUP3 PUSH2 0x40FB JUMP JUMPDEST SWAP1 POP SWAP2 SWAP1 POP JUMP JUMPDEST PUSH1 0x0 DUP2 ISZERO ISZERO SWAP1 POP SWAP2 SWAP1 POP JUMP JUMPDEST PUSH1 0x0 DUP2 SWAP1 POP SWAP2 SWAP1 POP JUMP JUMPDEST PUSH1 0x0 PUSH20 0xFFFFFFFFFFFFFFFFFFFFFFFFFFFFFFFFFFFFFFFF DUP3 AND SWAP1 POP SWAP2 SWAP1 POP JUMP JUMPDEST PUSH1 0x0 DUP2 SWAP1 POP SWAP2 SWAP1 POP JUMP JUMPDEST DUP3 DUP2 DUP4 CALLDATACOPY PUSH1 0x0 DUP4 DUP4 ADD MSTORE POP POP POP JUMP JUMPDEST PUSH1 0x0 JUMPDEST DUP4 DUP2 LT ISZERO PUSH2 0x4152 JUMPI DUP1 DUP3 ADD MLOAD DUP2 DUP5 ADD MSTORE PUSH1 0x20 DUP2 ADD SWAP1 POP PUSH2 0x4137 JUMP JUMPDEST DUP4 DUP2 GT ISZERO PUSH2 0x4161 JUMPI PUSH1 0x0 DUP5 DUP5 ADD MSTORE JUMPDEST POP POP POP POP JUMP JUMPDEST PUSH1 0x0 PUSH1 0x2 DUP3 DIV SWAP1 POP PUSH1 0x1 DUP3 AND DUP1 PUSH2 0x417F JUMPI PUSH1 0x7F DUP3 AND SWAP2 POP JUMPDEST PUSH1 0x20 DUP3 LT DUP2 EQ ISZERO PUSH2 0x4193 JUMPI PUSH2 0x4192 PUSH2 0x4211 JUMP JUMPDEST JUMPDEST POP SWAP2 SWAP1 POP JUMP JUMPDEST PUSH1 0x0 PUSH2 0x41A4 DUP3 PUSH2 0x411B JUMP JUMPDEST SWAP2 POP PUSH32 0xFFFFFFFFFFFFFFFFFFFFFFFFFFFFFFFFFFFFFFFFFFFFFFFFFFFFFFFFFFFFFFFF DUP3 EQ ISZERO PUSH2 0x41D7 JUMPI PUSH2 0x41D6 PUSH2 0x41E2 JUMP JUMPDEST JUMPDEST PUSH1 0x1 DUP3 ADD SWAP1 POP SWAP2 SWAP1 POP JUMP JUMPDEST PUSH32 0x4E487B7100000000000000000000000000000000000000000000000000000000 PUSH1 0x0 MSTORE PUSH1 0x11 PUSH1 0x4 MSTORE PUSH1 0x24 PUSH1 0x0 REVERT JUMPDEST PUSH32 0x4E487B7100000000000000000000000000000000000000000000000000000000 PUSH1 0x0 MSTORE PUSH1 0x22 PUSH1 0x4 MSTORE PUSH1 0x24 PUSH1 0x0 REVERT JUMPDEST PUSH32 0x4E487B7100000000000000000000000000000000000000000000000000000000 PUSH1 0x0 MSTORE PUSH1 0x41 PUSH1 0x4 MSTORE PUSH1 0x24 PUSH1 0x0 REVERT JUMPDEST PUSH1 0x0 PUSH1 0x1F NOT PUSH1 0x1F DUP4 ADD AND SWAP1 POP SWAP2 SWAP1 POP JUMP JUMPDEST PUSH2 0x4289 DUP2 PUSH2 0x40D3 JUMP JUMPDEST DUP2 EQ PUSH2 0x4294 JUMPI PUSH1 0x0 DUP1 REVERT JUMPDEST POP JUMP JUMPDEST PUSH2 0x42A0 DUP2 PUSH2 0x411B JUMP JUMPDEST DUP2 EQ PUSH2 0x42AB JUMPI PUSH1 0x0 DUP1 REVERT JUMPDEST POP JUMP INVALID LOG2 PUSH5 0x6970667358 0x22 SLT KECCAK256 0xD6 SWAP6 GASLIMIT 0xDB PUSH16 0x1F9FB475AA1CD98FD41800F94B7BC455 0xC1 0xA6 0xD1 0xE5 SWAP5 0xBC PUSH17 0x278A3BD964736F6C634300080000330000 "},"gasEstimates":{"creation":{"codeDepositCost":"3424800","executionCost":"66528","totalCost":"3491328"},"external":{"addAdmin(address,string,string)":"infinite","addCandidate(string,address,string,string,uint256,string,string,string,string)":"infinite","adminAccounts(uint256)":"2401","admins(address)":"infinite","candidates(uint256)":"infinite","candidatesRegistered(address)":"1591","checkHasVoted(address)":"1672","closeElection()":"22772","declareElectionResult()":"infinite","getCandidate(uint256)":"infinite","getCandidatesCount()":"1234","getIsVotingOpen()":"1275","getOwner()":"1333","getResultsDeclared()":"1297","getWinnerId()":"2140","getWinnerName()":"infinite","getWinnerVoteCount()":"2115","hasVoted(address)":"1614","isVoterRegistered(address)":"1700","isVotingOpen()":"1331","loginVoter(string,string,address)":"infinite","openElection()":"22816","owner()":"1279","registerVoter(string,address,string,string,string,string,string)":"infinite","registeredVoters(uint256)":"2402","resultsDeclared()":"1311","userVote(address)":"1602","vote(uint256,address)":"infinite","voters(address)":"infinite","winner()":"infinite"},"internal":{"hashPassword(string memory)":"infinite"}},"methodIdentifiers":{"addAdmin(address,string,string)":"5babf5ef","addCandidate(string,address,string,string,uint256,string,string,string,string)":"ec8f8076","adminAccounts(uint256)":"a2addd68","admins(address)":"429b62e5","candidates(uint256)":"3477ee2e","candidatesRegistered(address)":"3fa85856","checkHasVoted(address)":"e35f8cef","closeElection()":"6c6c32d0","declareElectionResult()":"6c28fdb1","getCandidate(uint256)":"35b8e820","getCandidatesCount()":"bb9aa28f","getIsVotingOpen()":"8b55c27a","getOwner()":"893d20e8","getResultsDeclared()":"40bcb769","getWinnerId()":"0aea6806","getWinnerName()":"2bfda515","getWinnerVoteCount()":"f31adac3","hasVoted(address)":"09eef43e","isVoterRegistered(address)":"eb2119db","isVotingOpen()":"fa7f1bae","loginVoter(string,string,address)":"d0b7c7ff","openElection()":"c5d00f5d","owner()":"8da5cb5b","registerVoter(string,address,string,string,string,string,string)":"6ec0176d","registeredVoters(uint256)":"2436e06b","resultsDeclared()":"965473bd","userVote(address)":"f5ba1c87","vote(uint256,address)":"02d947ef","voters(address)":"a3ec138d","winner()":"dfbf53ae"}},"storageLayout":{"storage":[{"astId":319,"contract":"contracts/Election.sol:Election","label":"owner","offset":0,"slot":"0","type":"t_address"},{"astId":321,"contract":"contracts/Election.sol:Election","label":"isVotingOpen","offset":20,"slot":"0","type":"t_bool"},{"astId":323,"contract":"contracts/Election.sol:Election","label":"resultsDeclared","offset":21,"slot":"0","type":"t_bool"},{"astId":335,"contract":"contracts/Election.sol:Election","label":"winner","offset":0,"slot":"1","type":"t_struct(Winner)332_storage"},{"astId":388,"contract":"contracts/Election.sol:Election","label":"candidates","offset":0,"slot":"5","type":"t_array(t_struct(Candidate)358_storage)dyn_storage"},{"astId":392,"contract":"contracts/Election.sol:Election","label":"candidatesRegistered","offset":0,"slot":"6","type":"t_mapping(t_address,t_bool)"},{"astId":396,"contract":"contracts/Election.sol:Election","label":"hasVoted","offset":0,"slot":"7","type":"t_mapping(t_address,t_bool)"},{"astId":400,"contract":"contracts/Election.sol:Election","label":"userVote","offset":0,"slot":"8","type":"t_mapping(t_address,t_uint256)"},{"astId":405,"contract":"contracts/Election.sol:Election","label":"voters","offset":0,"slot":"9","type":"t_mapping(t_address,t_struct(Voter)375_storage)"},{"astId":408,"contract":"contracts/Election.sol:Election","label":"registeredVoters","offset":0,"slot":"10","type":"t_array(t_address)dyn_storage"},{"astId":413,"contract":"contracts/Election.sol:Election","label":"admins","offset":0,"slot":"11","type":"t_mapping(t_address,t_struct(Admin)384_storage)"},{"astId":416,"contract":"contracts/Election.sol:Election","label":"adminAccounts","offset":0,"slot":"12","type":"t_array(t_address)dyn_storage"}],"types":{"t_address":{"encoding":"inplace","label":"address","numberOfBytes":"20"},"t_array(t_address)dyn_storage":{"base":"t_address","encoding":"dynamic_array","label":"address[]","numberOfBytes":"32"},"t_array(t_struct(Candidate)358_storage)dyn_storage":{"base":"t_struct(Candidate)358_storage","encoding":"dynamic_array","label":"struct Election.Candidate[]","numberOfBytes":"32"},"t_bool":{"encoding":"inplace","label":"bool","numberOfBytes":"1"},"t_bytes32":{"encoding":"inplace","label":"bytes32","numberOfBytes":"32"},"t_mapping(t_address,t_bool)":{"encoding":"mapping","key":"t_address","label":"mapping(address => bool)","numberOfBytes":"32","value":"t_bool"},"t_mapping(t_address,t_struct(Admin)384_storage)":{"encoding":"mapping","key":"t_address","label":"mapping(address => struct Election.Admin)","numberOfBytes":"32","value":"t_struct(Admin)384_storage"},"t_mapping(t_address,t_struct(Voter)375_storage)":{"encoding":"mapping","key":"t_address","label":"mapping(address => struct Election.Voter)","numberOfBytes":"32","value":"t_struct(Voter)375_storage"},"t_mapping(t_address,t_uint256)":{"encoding":"mapping","key":"t_address","label":"mapping(address => uint256)","numberOfBytes":"32","value":"t_uint256"},"t_string_storage":{"encoding":"bytes","label":"string","numberOfBytes":"32"},"t_struct(Admin)384_storage":{"encoding":"inplace","label":"struct Election.Admin","members":[{"astId":377,"contract":"contracts/Election.sol:Election","label":"name","offset":0,"slot":"0","type":"t_string_storage"},{"astId":379,"contract":"contracts/Election.sol:Election","label":"email","offset":0,"slot":"1","type":"t_string_storage"},{"astId":381,"contract":"contracts/Election.sol:Election","label":"ethereumAddress","offset":0,"slot":"2","type":"t_address"},{"astId":383,"contract":"contracts/Election.sol:Election","label":"isAdmin","offset":20,"slot":"2","type":"t_bool"}],"numberOfBytes":"96"},"t_struct(Candidate)358_storage":{"encoding":"inplace","label":"struct Election.Candidate","members":[{"astId":337,"contract":"contracts/Election.sol:Election","label":"id","offset":0,"slot":"0","type":"t_uint256"},{"astId":339,"contract":"contracts/Election.sol:Election","label":"name","offset":0,"slot":"1","type":"t_string_storage"},{"astId":341,"contract":"contracts/Election.sol:Election","label":"voteCount","offset":0,"slot":"2","type":"t_uint256"},{"astId":343,"contract":"contracts/Election.sol:Election","label":"ethereumAddress","offset":0,"slot":"3","type":"t_address"},{"astId":345,"contract":"contracts/Election.sol:Election","label":"email","offset":0,"slot":"4","type":"t_string_storage"},{"astId":347,"contract":"contracts/Election.sol:Election","label":"mobileNumber","offset":0,"slot":"5","type":"t_string_storage"},{"astId":349,"contract":"contracts/Election.sol:Election","label":"dateOfBirth","offset":0,"slot":"6","type":"t_uint256"},{"astId":351,"contract":"contracts/Election.sol:Election","label":"aadharNumber","offset":0,"slot":"7","type":"t_string_storage"},{"astId":353,"contract":"contracts/Election.sol:Election","label":"voterId","offset":0,"slot":"8","type":"t_string_storage"},{"astId":355,"contract":"contracts/Election.sol:Election","label":"homeAddress","offset":0,"slot":"9","type":"t_string_storage"},{"astId":357,"contract":"contracts/Election.sol:Election","label":"ipfsImageHash","offset":0,"slot":"10","type":"t_string_storage"}],"numberOfBytes":"352"},"t_struct(Voter)375_storage":{"encoding":"inplace","label":"struct Election.Voter","members":[{"astId":360,"contract":"contracts/Election.sol:Election","label":"ethereumAddress","offset":0,"slot":"0","type":"t_address"},{"astId":362,"contract":"contracts/Election.sol:Election","label":"name","offset":0,"slot":"1","type":"t_string_storage"},{"astId":364,"contract":"contracts/Election.sol:Election","label":"email","offset":0,"slot":"2","type":"t_string_storage"},{"astId":366,"contract":"contracts/Election.sol:Election","label":"mobileNumber","offset":0,"slot":"3","type":"t_string_storage"},{"astId":368,"contract":"contracts/Election.sol:Election","label":"voterId","offset":0,"slot":"4","type":"t_string_storage"},{"astId":370,"contract":"contracts/Election.sol:Election","label":"ipfsImageHash","offset":0,"slot":"5","type":"t_string_storage"},{"astId":372,"contract":"contracts/Election.sol:Election","label":"passwordHash","offset":0,"slot":"6","type":"t_bytes32"},{"astId":374,"contract":"contracts/Election.sol:Election","label":"isRegistered","offset":0,"slot":"7","type":"t_bool"}],"numberOfBytes":"256"},"t_struct(Winner)332_storage":{"encoding":"inplace","label":"struct Election.Winner","members":[{"astId":325,"contract":"contracts/Election.sol:Election","label":"id","offset":0,"slot":"0","type":"t_uint256"},{"astId":327,"contract":"contracts/Election.sol:Election","label":"name","offset":0,"slot":"1","type":"t_string_storage"},{"astId":329,"contract":"contracts/Election.sol:Election","label":"voteCount","offset":0,"slot":"2","type":"t_uint256"},{"astId":331,"contract":"contracts/Election.sol:Election","label":"ethereumAddress","offset":0,"slot":"3","type":"t_address"}],"numberOfBytes":"128"},"t_uint256":{"encoding":"inplace","label":"uint256","numberOfBytes":"32"}}},"userdoc":{"kind":"user","methods":{},"version":1}}}}