{
  "_format": "hh-sol-artifact-1",
  "contractName": "Election",
  "sourceName": "contracts/Election.sol",
  "abi": [
    {
      "inputs": [],
      "stateMutability": "nonpayable",
      "type": "constructor"
    },
    {
      "anonymous": false,
      "inputs": [],
      "name": "ElectionClosed",
      "type": "event"
    },
    {
      "anonymous": false,
      "inputs": [],
      "name": "ElectionOpen",
      "type": "event"
    },
    {
      "anonymous": false,
      "inputs": [
        {
          "indexed": false,
          "internalType": "string",
          "name": "winnerName",
          "type": "string"
        },
        {
          "indexed": false,
          "internalType": "uint256",
          "name": "winnerVoteCount",
          "type": "uint256"
        }
      ],
      "name": "ElectionResultDeclared",
      "type": "event"
    },
    {
      "anonymous": false,
      "inputs": [
        {
          "indexed": false,
          "internalType": "uint256",
          "name": "candidateId",
          "type": "uint256"
        },
        {
          "indexed": false,
          "internalType": "string",
          "name": "name",
          "type": "string"
        },
        {
          "indexed": false,
          "internalType": "address",
          "name": "ethereumAddress",
          "type": "address"
        },
        {
          "indexed": false,
          "internalType": "string",
          "name": "email",
          "type": "string"
        },
        {
          "indexed": false,
          "internalType": "string",
          "name": "mobileNumber",
          "type": "string"
        },
        {
          "indexed": false,
          "internalType": "uint256",
          "name": "dateOfBirth",
          "type": "uint256"
        },
        {
          "indexed": false,
          "internalType": "string",
          "name": "aadharNumber",
          "type": "string"
        },
        {
          "indexed": false,
          "internalType": "string",
          "name": "voterId",
          "type": "string"
        },
        {
          "indexed": false,
          "internalType": "string",
          "name": "homeAddress",
          "type": "string"
        },
        {
          "indexed": false,
          "internalType": "string",
          "name": "ipfsImageHash",
          "type": "string"
        }
      ],
      "name": "NewCandidate",
      "type": "event"
    },
    {
      "anonymous": false,
      "inputs": [
        {
          "indexed": true,
          "internalType": "address",
          "name": "voter",
          "type": "address"
        },
        {
          "indexed": false,
          "internalType": "uint256",
          "name": "candidateId",
          "type": "uint256"
        }
      ],
      "name": "Voted",
      "type": "event"
    },
    {
      "anonymous": false,
      "inputs": [
        {
          "indexed": true,
          "internalType": "address",
          "name": "voterAddress",
          "type": "address"
        }
      ],
      "name": "VoterLoggedIn",
      "type": "event"
    },
    {
      "anonymous": false,
      "inputs": [
        {
          "indexed": false,
          "internalType": "uint256",
          "name": "id",
          "type": "uint256"
        },
        {
          "indexed": true,
          "internalType": "address",
          "name": "voterAddress",
          "type": "address"
        },
        {
          "indexed": false,
          "internalType": "string",
          "name": "name",
          "type": "string"
        },
        {
          "indexed": false,
          "internalType": "string",
          "name": "email",
          "type": "string"
        },
        {
          "indexed": false,
          "internalType": "string",
          "name": "mobileNumber",
          "type": "string"
        },
        {
          "indexed": false,
          "internalType": "string",
          "name": "voterId",
          "type": "string"
        },
        {
          "indexed": false,
          "internalType": "string",
          "name": "ipfsImageHash",
          "type": "string"
        }
      ],
      "name": "VoterRegistered",
      "type": "event"
    },
    {
      "inputs": [
        {
          "internalType": "address",
          "name": "_adminAddress",
          "type": "address"
        },
        {
          "internalType": "string",
          "name": "_name",
          "type": "string"
        },
        {
          "internalType": "string",
          "name": "_email",
          "type": "string"
        }
      ],
      "name": "addAdmin",
      "outputs": [],
      "stateMutability": "nonpayable",
      "type": "function"
    },
    {
      "inputs": [
        {
          "internalType": "string",
          "name": "_name",
          "type": "string"
        },
        {
          "internalType": "address",
          "name": "_ethereumAddress",
          "type": "address"
        },
        {
          "internalType": "string",
          "name": "_email",
          "type": "string"
        },
        {
          "internalType": "string",
          "name": "_mobileNumber",
          "type": "string"
        },
        {
          "internalType": "uint256",
          "name": "_dateOfBirth",
          "type": "uint256"
        },
        {
          "internalType": "string",
          "name": "_aadharNumber",
          "type": "string"
        },
        {
          "internalType": "string",
          "name": "_voterId",
          "type": "string"
        },
        {
          "internalType": "string",
          "name": "_homeAddress",
          "type": "string"
        },
        {
          "internalType": "string",
          "name": "_ipfsImageHash",
          "type": "string"
        }
      ],
      "name": "addCandidate",
      "outputs": [],
      "stateMutability": "nonpayable",
      "type": "function"
    },
    {
      "inputs": [
        {
          "internalType": "uint256",
          "name": "",
          "type": "uint256"
        }
      ],
      "name": "adminAccounts",
      "outputs": [
        {
          "internalType": "address",
          "name": "",
          "type": "address"
        }
      ],
      "stateMutability": "view",
      "type": "function"
    },
    {
      "inputs": [
        {
          "internalType": "address",
          "name": "",
          "type": "address"
        }
      ],
      "name": "admins",
      "outputs": [
        {
          "internalType": "string",
          "name": "name",
          "type": "string"
        },
        {
          "internalType": "string",
          "name": "email",
          "type": "string"
        },
        {
          "internalType": "address",
          "name": "ethereumAddress",
          "type": "address"
        },
        {
          "internalType": "bool",
          "name": "isAdmin",
          "type": "bool"
        }
      ],
      "stateMutability": "view",
      "type": "function"
    },
    {
      "inputs": [
        {
          "internalType": "uint256",
          "name": "",
          "type": "uint256"
        }
      ],
      "name": "candidates",
      "outputs": [
        {
          "internalType": "uint256",
          "name": "id",
          "type": "uint256"
        },
        {
          "internalType": "string",
          "name": "name",
          "type": "string"
        },
        {
          "internalType": "uint256",
          "name": "voteCount",
          "type": "uint256"
        },
        {
          "internalType": "address",
          "name": "ethereumAddress",
          "type": "address"
        },
        {
          "internalType": "string",
          "name": "email",
          "type": "string"
        },
        {
          "internalType": "string",
          "name": "mobileNumber",
          "type": "string"
        },
        {
          "internalType": "uint256",
          "name": "dateOfBirth",
          "type": "uint256"
        },
        {
          "internalType": "string",
          "name": "aadharNumber",
          "type": "string"
        },
        {
          "internalType": "string",
          "name": "voterId",
          "type": "string"
        },
        {
          "internalType": "string",
          "name": "homeAddress",
          "type": "string"
        },
        {
          "internalType": "string",
          "name": "ipfsImageHash",
          "type": "string"
        }
      ],
      "stateMutability": "view",
      "type": "function"
    },
    {
      "inputs": [],
      "name": "closeElection",
      "outputs": [],
      "stateMutability": "nonpayable",
      "type": "function"
    },
    {
      "inputs": [],
      "name": "declareElectionResult",
      "outputs": [],
      "stateMutability": "nonpayable",
      "type": "function"
    },
    {
      "inputs": [
        {
          "internalType": "uint256",
          "name": "_candidateId",
          "type": "uint256"
        }
      ],
      "name": "getCandidate",
      "outputs": [
        {
          "internalType": "string",
          "name": "name",
          "type": "string"
        },
        {
          "internalType": "string",
          "name": "email",
          "type": "string"
        },
        {
          "internalType": "string",
          "name": "mobileNumber",
          "type": "string"
        },
        {
          "internalType": "uint256",
          "name": "dateOfBirth",
          "type": "uint256"
        },
        {
          "internalType": "string",
          "name": "homeAddress",
          "type": "string"
        }
      ],
      "stateMutability": "view",
      "type": "function"
    },
    {
      "inputs": [],
      "name": "getCandidatesCount",
      "outputs": [
        {
          "internalType": "uint256",
          "name": "",
          "type": "uint256"
        }
      ],
      "stateMutability": "view",
      "type": "function"
    },
    {
      "inputs": [],
      "name": "getWinner",
      "outputs": [
        {
          "components": [
            {
              "internalType": "uint256",
              "name": "id",
              "type": "uint256"
            },
            {
              "internalType": "string",
              "name": "name",
              "type": "string"
            },
            {
              "internalType": "uint256",
              "name": "voteCount",
              "type": "uint256"
            },
            {
              "internalType": "address",
              "name": "ethereumAddress",
              "type": "address"
            },
            {
              "internalType": "string",
              "name": "email",
              "type": "string"
            },
            {
              "internalType": "string",
              "name": "mobileNumber",
              "type": "string"
            },
            {
              "internalType": "uint256",
              "name": "dateOfBirth",
              "type": "uint256"
            },
            {
              "internalType": "string",
              "name": "aadharNumber",
              "type": "string"
            },
            {
              "internalType": "string",
              "name": "voterId",
              "type": "string"
            },
            {
              "internalType": "string",
              "name": "homeAddress",
              "type": "string"
            },
            {
              "internalType": "string",
              "name": "ipfsImageHash",
              "type": "string"
            }
          ],
          "internalType": "struct Election.Candidate",
          "name": "winner",
          "type": "tuple"
        }
      ],
      "stateMutability": "view",
      "type": "function"
    },
    {
      "inputs": [
        {
          "internalType": "address",
          "name": "",
          "type": "address"
        }
      ],
      "name": "hasVoted",
      "outputs": [
        {
          "internalType": "bool",
          "name": "",
          "type": "bool"
        }
      ],
      "stateMutability": "view",
      "type": "function"
    },
    {
      "inputs": [],
      "name": "isVoterRegistered",
      "outputs": [
        {
          "internalType": "bool",
          "name": "",
          "type": "bool"
        }
      ],
      "stateMutability": "view",
      "type": "function"
    },
    {
      "inputs": [],
      "name": "isVotingOpen",
      "outputs": [
        {
          "internalType": "bool",
          "name": "",
          "type": "bool"
        }
      ],
      "stateMutability": "view",
      "type": "function"
    },
    {
      "inputs": [],
      "name": "loginVoter",
      "outputs": [],
      "stateMutability": "nonpayable",
      "type": "function"
    },
    {
      "inputs": [],
      "name": "openElection",
      "outputs": [],
      "stateMutability": "nonpayable",
      "type": "function"
    },
    {
      "inputs": [],
      "name": "owner",
      "outputs": [
        {
          "internalType": "address",
          "name": "",
          "type": "address"
        }
      ],
      "stateMutability": "view",
      "type": "function"
    },
    {
      "inputs": [
        {
          "internalType": "uint256",
          "name": "_id",
          "type": "uint256"
        },
        {
          "internalType": "string",
          "name": "_name",
          "type": "string"
        },
        {
          "internalType": "string",
          "name": "_email",
          "type": "string"
        },
        {
          "internalType": "string",
          "name": "_mobileNumber",
          "type": "string"
        },
        {
          "internalType": "string",
          "name": "_voterId",
          "type": "string"
        },
        {
          "internalType": "string",
          "name": "_ipfsImageHash",
          "type": "string"
        }
      ],
      "name": "registerVoter",
      "outputs": [],
      "stateMutability": "nonpayable",
      "type": "function"
    },
    {
      "inputs": [
        {
          "internalType": "uint256",
          "name": "",
          "type": "uint256"
        }
      ],
      "name": "registeredVoters",
      "outputs": [
        {
          "internalType": "address",
          "name": "",
          "type": "address"
        }
      ],
      "stateMutability": "view",
      "type": "function"
    },
    {
      "inputs": [
        {
          "internalType": "address",
          "name": "",
          "type": "address"
        }
      ],
      "name": "userVote",
      "outputs": [
        {
          "internalType": "uint256",
          "name": "",
          "type": "uint256"
        }
      ],
      "stateMutability": "view",
      "type": "function"
    },
    {
      "inputs": [
        {
          "internalType": "uint256",
          "name": "_candidateId",
          "type": "uint256"
        }
      ],
      "name": "vote",
      "outputs": [],
      "stateMutability": "nonpayable",
      "type": "function"
    },
    {
      "inputs": [
        {
          "internalType": "address",
          "name": "",
          "type": "address"
        }
      ],
      "name": "voters",
      "outputs": [
        {
          "internalType": "uint256",
          "name": "id",
          "type": "uint256"
        },
        {
          "internalType": "address",
          "name": "ethereumAddress",
          "type": "address"
        },
        {
          "internalType": "string",
          "name": "name",
          "type": "string"
        },
        {
          "internalType": "string",
          "name": "email",
          "type": "string"
        },
        {
          "internalType": "string",
          "name": "mobileNumber",
          "type": "string"
        },
        {
          "internalType": "string",
          "name": "voterId",
          "type": "string"
        },
        {
          "internalType": "string",
          "name": "ipfsImageHash",
          "type": "string"
        },
        {
          "internalType": "bool",
          "name": "isRegistered",
          "type": "bool"
        }
      ],
      "stateMutability": "view",
      "type": "function"
    }
  ],
  "bytecode": "0x608060405234801561001057600080fd5b50336000806101000a81548173ffffffffffffffffffffffffffffffffffffffff021916908373ffffffffffffffffffffffffffffffffffffffff16021790555060008060146101000a81548160ff021916908315150217905550613a638061007a6000396000f3fe608060405234801561001057600080fd5b50600436106101375760003560e01c80636c6c32d0116100b8578063a3ec138d1161007c578063a3ec138d14610339578063bb9aa28f14610370578063c5d00f5d1461038e578063ec8f807614610398578063f5ba1c87146103b4578063fa7f1bae146103e457610137565b80636c6c32d0146102a75780638da5cb5b146102b15780638e7ea5b2146102cf57806391e5a8ec146102ed578063a2addd681461030957610137565b806335b8e820116100ff57806335b8e820146101fc578063429b62e5146102305780635babf5ef1461026357806360dc22ee1461027f5780636c28fdb11461029d57610137565b80630121b93f1461013c57806309eef43e146101585780630b5713ef146101885780632436e06b146101925780633477ee2e146101c2575b600080fd5b610156600480360381019061015191906128de565b610402565b005b610172600480360381019061016d9190612969565b610665565b60405161017f91906129b1565b60405180910390f35b610190610685565b005b6101ac60048036038101906101a791906128de565b610759565b6040516101b991906129db565b60405180910390f35b6101dc60048036038101906101d791906128de565b610798565b6040516101f39b9a99989796959493929190612a9e565b60405180910390f35b610216600480360381019061021191906128de565b610bda565b604051610227959493929190612b7a565b60405180910390f35b61024a60048036038101906102459190612969565b611114565b60405161025a9493929190612be9565b60405180910390f35b61027d60048036038101906102789190612d71565b611281565b005b610287611524565b60405161029491906129b1565b60405180910390f35b6102a561157b565b005b6102af611753565b005b6102b9611829565b6040516102c691906129db565b60405180910390f35b6102d761184d565b6040516102e49190612f7d565b60405180910390f35b61030760048036038101906103029190612f9f565b611dff565b005b610323600480360381019061031e91906128de565b6120e9565b60405161033091906129db565b60405180910390f35b610353600480360381019061034e9190612969565b612128565b6040516103679897969594939291906130b8565b60405180910390f35b610378612445565b6040516103859190613159565b60405180910390f35b610396612452565b005b6103b260048036038101906103ad9190613174565b612529565b005b6103ce60048036038101906103c99190612969565b612756565b6040516103db9190613159565b60405180910390f35b6103ec61276e565b6040516103f991906129b1565b60405180910390f35b600060149054906101000a900460ff16610451576040517f08c379a00000000000000000000000000000000000000000000000000000000081526004016104489061334e565b60405180910390fd5b600260003373ffffffffffffffffffffffffffffffffffffffff1673ffffffffffffffffffffffffffffffffffffffff16815260200190815260200160002060009054906101000a900460ff16156104de576040517f08c379a00000000000000000000000000000000000000000000000000000000081526004016104d5906133ba565b60405180910390fd5b6000811180156104f357506001805490508111155b610532576040517f08c379a000000000000000000000000000000000000000000000000000000000815260040161052990613426565b60405180910390fd5b6001600260003373ffffffffffffffffffffffffffffffffffffffff1673ffffffffffffffffffffffffffffffffffffffff16815260200190815260200160002060006101000a81548160ff02191690831515021790555080600360003373ffffffffffffffffffffffffffffffffffffffff1673ffffffffffffffffffffffffffffffffffffffff16815260200190815260200160002081905550600180826105dc9190613475565b815481106105ed576105ec6134a9565b5b90600052602060002090600b0201600201600081548092919061060f906134d8565b91905055503373ffffffffffffffffffffffffffffffffffffffff167f4d99b957a2bc29a30ebd96a7be8e68fe50a3c701db28a91436490b7d53870ca48260405161065a9190613159565b60405180910390a250565b60026020528060005260406000206000915054906101000a900460ff1681565b600460003373ffffffffffffffffffffffffffffffffffffffff1673ffffffffffffffffffffffffffffffffffffffff16815260200190815260200160002060070160009054906101000a900460ff16610714576040517f08c379a000000000000000000000000000000000000000000000000000000000815260040161070b9061356d565b60405180910390fd5b3373ffffffffffffffffffffffffffffffffffffffff167f048e252d5e4f0eb06f35f4b2d35d1c46d725d11d87b685253169fa84a995e14160405160405180910390a2565b6005818154811061076957600080fd5b906000526020600020016000915054906101000a900473ffffffffffffffffffffffffffffffffffffffff1681565b600181815481106107a857600080fd5b90600052602060002090600b02016000915090508060000154908060010180546107d1906135bc565b80601f01602080910402602001604051908101604052809291908181526020018280546107fd906135bc565b801561084a5780601f1061081f5761010080835404028352916020019161084a565b820191906000526020600020905b81548152906001019060200180831161082d57829003601f168201915b5050505050908060020154908060030160009054906101000a900473ffffffffffffffffffffffffffffffffffffffff169080600401805461088b906135bc565b80601f01602080910402602001604051908101604052809291908181526020018280546108b7906135bc565b80156109045780601f106108d957610100808354040283529160200191610904565b820191906000526020600020905b8154815290600101906020018083116108e757829003601f168201915b505050505090806005018054610919906135bc565b80601f0160208091040260200160405190810160405280929190818152602001828054610945906135bc565b80156109925780601f1061096757610100808354040283529160200191610992565b820191906000526020600020905b81548152906001019060200180831161097557829003601f168201915b5050505050908060060154908060070180546109ad906135bc565b80601f01602080910402602001604051908101604052809291908181526020018280546109d9906135bc565b8015610a265780601f106109fb57610100808354040283529160200191610a26565b820191906000526020600020905b815481529060010190602001808311610a0957829003601f168201915b505050505090806008018054610a3b906135bc565b80601f0160208091040260200160405190810160405280929190818152602001828054610a67906135bc565b8015610ab45780601f10610a8957610100808354040283529160200191610ab4565b820191906000526020600020905b815481529060010190602001808311610a9757829003601f168201915b505050505090806009018054610ac9906135bc565b80601f0160208091040260200160405190810160405280929190818152602001828054610af5906135bc565b8015610b425780601f10610b1757610100808354040283529160200191610b42565b820191906000526020600020905b815481529060010190602001808311610b2557829003601f168201915b50505050509080600a018054610b57906135bc565b80601f0160208091040260200160405190810160405280929190818152602001828054610b83906135bc565b8015610bd05780601f10610ba557610100808354040283529160200191610bd0565b820191906000526020600020905b815481529060010190602001808311610bb357829003601f168201915b505050505090508b565b606080606060006060600086118015610bf857506001805490508611155b610c37576040517f08c379a0000000000000000000000000000000000000000000000000000000008152600401610c2e90613426565b60405180910390fd5b600060018088610c479190613475565b81548110610c5857610c576134a9565b5b90600052602060002090600b02016040518061016001604052908160008201548152602001600182018054610c8c906135bc565b80601f0160208091040260200160405190810160405280929190818152602001828054610cb8906135bc565b8015610d055780601f10610cda57610100808354040283529160200191610d05565b820191906000526020600020905b815481529060010190602001808311610ce857829003601f168201915b50505050508152602001600282015481526020016003820160009054906101000a900473ffffffffffffffffffffffffffffffffffffffff1673ffffffffffffffffffffffffffffffffffffffff1673ffffffffffffffffffffffffffffffffffffffff168152602001600482018054610d7e906135bc565b80601f0160208091040260200160405190810160405280929190818152602001828054610daa906135bc565b8015610df75780601f10610dcc57610100808354040283529160200191610df7565b820191906000526020600020905b815481529060010190602001808311610dda57829003601f168201915b50505050508152602001600582018054610e10906135bc565b80601f0160208091040260200160405190810160405280929190818152602001828054610e3c906135bc565b8015610e895780601f10610e5e57610100808354040283529160200191610e89565b820191906000526020600020905b815481529060010190602001808311610e6c57829003601f168201915b5050505050815260200160068201548152602001600782018054610eac906135bc565b80601f0160208091040260200160405190810160405280929190818152602001828054610ed8906135bc565b8015610f255780601f10610efa57610100808354040283529160200191610f25565b820191906000526020600020905b815481529060010190602001808311610f0857829003601f168201915b50505050508152602001600882018054610f3e906135bc565b80601f0160208091040260200160405190810160405280929190818152602001828054610f6a906135bc565b8015610fb75780601f10610f8c57610100808354040283529160200191610fb7565b820191906000526020600020905b815481529060010190602001808311610f9a57829003601f168201915b50505050508152602001600982018054610fd0906135bc565b80601f0160208091040260200160405190810160405280929190818152602001828054610ffc906135bc565b80156110495780601f1061101e57610100808354040283529160200191611049565b820191906000526020600020905b81548152906001019060200180831161102c57829003601f168201915b50505050508152602001600a82018054611062906135bc565b80601f016020809104026020016040519081016040528092919081815260200182805461108e906135bc565b80156110db5780601f106110b0576101008083540402835291602001916110db565b820191906000526020600020905b8154815290600101906020018083116110be57829003601f168201915b5050505050815250509050806020015181608001518260a001518360c00151846101200151955095509550955095505091939590929450565b6006602052806000526040600020600091509050806000018054611137906135bc565b80601f0160208091040260200160405190810160405280929190818152602001828054611163906135bc565b80156111b05780601f10611185576101008083540402835291602001916111b0565b820191906000526020600020905b81548152906001019060200180831161119357829003601f168201915b5050505050908060010180546111c5906135bc565b80601f01602080910402602001604051908101604052809291908181526020018280546111f1906135bc565b801561123e5780601f106112135761010080835404028352916020019161123e565b820191906000526020600020905b81548152906001019060200180831161122157829003601f168201915b5050505050908060020160009054906101000a900473ffffffffffffffffffffffffffffffffffffffff16908060020160149054906101000a900460ff16905084565b60008054906101000a900473ffffffffffffffffffffffffffffffffffffffff1673ffffffffffffffffffffffffffffffffffffffff163373ffffffffffffffffffffffffffffffffffffffff161461130f576040517f08c379a000000000000000000000000000000000000000000000000000000000815260040161130690613660565b60405180910390fd5b600660008473ffffffffffffffffffffffffffffffffffffffff1673ffffffffffffffffffffffffffffffffffffffff16815260200190815260200160002060020160149054906101000a900460ff161561139f576040517f08c379a0000000000000000000000000000000000000000000000000000000008152600401611396906136cc565b60405180910390fd5b60405180608001604052808381526020018281526020018473ffffffffffffffffffffffffffffffffffffffff16815260200160011515815250600660008573ffffffffffffffffffffffffffffffffffffffff1673ffffffffffffffffffffffffffffffffffffffff1681526020019081526020016000206000820151816000019080519060200190611434929190612781565b506020820151816001019080519060200190611451929190612781565b5060408201518160020160006101000a81548173ffffffffffffffffffffffffffffffffffffffff021916908373ffffffffffffffffffffffffffffffffffffffff16021790555060608201518160020160146101000a81548160ff0219169083151502179055509050506007839080600181540180825580915050600190039060005260206000200160009091909190916101000a81548173ffffffffffffffffffffffffffffffffffffffff021916908373ffffffffffffffffffffffffffffffffffffffff160217905550505050565b6000600460003373ffffffffffffffffffffffffffffffffffffffff1673ffffffffffffffffffffffffffffffffffffffff16815260200190815260200160002060070160009054906101000a900460ff16905090565b60008054906101000a900473ffffffffffffffffffffffffffffffffffffffff1673ffffffffffffffffffffffffffffffffffffffff163373ffffffffffffffffffffffffffffffffffffffff1614611609576040517f08c379a000000000000000000000000000000000000000000000000000000000815260040161160090613660565b60405180910390fd5b600060149054906101000a900460ff1615611659576040517f08c379a00000000000000000000000000000000000000000000000000000000081526004016116509061375e565b60405180910390fd5b60008080600090505b600180549050811015611700578260018281548110611684576116836134a9565b5b90600052602060002090600b02016002015411156116ed57600181815481106116b0576116af6134a9565b5b90600052602060002090600b0201600201549250600181815481106116d8576116d76134a9565b5b90600052602060002090600b02016000015491505b80806116f8906134d8565b915050611662565b50600061170b61184d565b90507f1aaa99e411a940104e7b7866d6fc9317a3e67e76472e8d2776a9a8943112c3908160200151826040015160405161174692919061377e565b60405180910390a1505050565b60008054906101000a900473ffffffffffffffffffffffffffffffffffffffff1673ffffffffffffffffffffffffffffffffffffffff163373ffffffffffffffffffffffffffffffffffffffff16146117e1576040517f08c379a00000000000000000000000000000000000000000000000000000000081526004016117d890613660565b60405180910390fd5b60008060146101000a81548160ff0219169083151502179055507fa549b9addfc3693a1863ac5b0b13c42960d78df554c01ea6ac72a7db985df0cf60405160405180910390a1565b60008054906101000a900473ffffffffffffffffffffffffffffffffffffffff1681565b611855612807565b600060149054906101000a900460ff16156118a5576040517f08c379a000000000000000000000000000000000000000000000000000000000815260040161189c906137fa565b60405180910390fd5b60008080600090505b60018054905081101561194c5782600182815481106118d0576118cf6134a9565b5b90600052602060002090600b020160020154111561193957600181815481106118fc576118fb6134a9565b5b90600052602060002090600b020160020154925060018181548110611924576119236134a9565b5b90600052602060002090600b02016000015491505b8080611944906134d8565b9150506118ae565b506001808261195b9190613475565b8154811061196c5761196b6134a9565b5b90600052602060002090600b020160405180610160016040529081600082015481526020016001820180546119a0906135bc565b80601f01602080910402602001604051908101604052809291908181526020018280546119cc906135bc565b8015611a195780601f106119ee57610100808354040283529160200191611a19565b820191906000526020600020905b8154815290600101906020018083116119fc57829003601f168201915b50505050508152602001600282015481526020016003820160009054906101000a900473ffffffffffffffffffffffffffffffffffffffff1673ffffffffffffffffffffffffffffffffffffffff1673ffffffffffffffffffffffffffffffffffffffff168152602001600482018054611a92906135bc565b80601f0160208091040260200160405190810160405280929190818152602001828054611abe906135bc565b8015611b0b5780601f10611ae057610100808354040283529160200191611b0b565b820191906000526020600020905b815481529060010190602001808311611aee57829003601f168201915b50505050508152602001600582018054611b24906135bc565b80601f0160208091040260200160405190810160405280929190818152602001828054611b50906135bc565b8015611b9d5780601f10611b7257610100808354040283529160200191611b9d565b820191906000526020600020905b815481529060010190602001808311611b8057829003601f168201915b5050505050815260200160068201548152602001600782018054611bc0906135bc565b80601f0160208091040260200160405190810160405280929190818152602001828054611bec906135bc565b8015611c395780601f10611c0e57610100808354040283529160200191611c39565b820191906000526020600020905b815481529060010190602001808311611c1c57829003601f168201915b50505050508152602001600882018054611c52906135bc565b80601f0160208091040260200160405190810160405280929190818152602001828054611c7e906135bc565b8015611ccb5780601f10611ca057610100808354040283529160200191611ccb565b820191906000526020600020905b815481529060010190602001808311611cae57829003601f168201915b50505050508152602001600982018054611ce4906135bc565b80601f0160208091040260200160405190810160405280929190818152602001828054611d10906135bc565b8015611d5d5780601f10611d3257610100808354040283529160200191611d5d565b820191906000526020600020905b815481529060010190602001808311611d4057829003601f168201915b50505050508152602001600a82018054611d76906135bc565b80601f0160208091040260200160405190810160405280929190818152602001828054611da2906135bc565b8015611def5780601f10611dc457610100808354040283529160200191611def565b820191906000526020600020905b815481529060010190602001808311611dd257829003601f168201915b5050505050815250509250505090565b600460003373ffffffffffffffffffffffffffffffffffffffff1673ffffffffffffffffffffffffffffffffffffffff16815260200190815260200160002060070160009054906101000a900460ff1615611e8f576040517f08c379a0000000000000000000000000000000000000000000000000000000008152600401611e8690613866565b60405180910390fd5b6040518061010001604052808781526020013373ffffffffffffffffffffffffffffffffffffffff16815260200186815260200185815260200184815260200183815260200182815260200160011515815250600460003373ffffffffffffffffffffffffffffffffffffffff1673ffffffffffffffffffffffffffffffffffffffff1681526020019081526020016000206000820151816000015560208201518160010160006101000a81548173ffffffffffffffffffffffffffffffffffffffff021916908373ffffffffffffffffffffffffffffffffffffffff1602179055506040820151816002019080519060200190611f8e929190612781565b506060820151816003019080519060200190611fab929190612781565b506080820151816004019080519060200190611fc8929190612781565b5060a0820151816005019080519060200190611fe5929190612781565b5060c0820151816006019080519060200190612002929190612781565b5060e08201518160070160006101000a81548160ff0219169083151502179055509050506005339080600181540180825580915050600190039060005260206000200160009091909190916101000a81548173ffffffffffffffffffffffffffffffffffffffff021916908373ffffffffffffffffffffffffffffffffffffffff1602179055503373ffffffffffffffffffffffffffffffffffffffff167f1b2fb4fd41a57cbb64e287295a87452d3f3ae61de5dcb852142dcb35245eeeab8787878787876040516120d996959493929190613886565b60405180910390a2505050505050565b600781815481106120f957600080fd5b906000526020600020016000915054906101000a900473ffffffffffffffffffffffffffffffffffffffff1681565b60046020528060005260406000206000915090508060000154908060010160009054906101000a900473ffffffffffffffffffffffffffffffffffffffff1690806002018054612177906135bc565b80601f01602080910402602001604051908101604052809291908181526020018280546121a3906135bc565b80156121f05780601f106121c5576101008083540402835291602001916121f0565b820191906000526020600020905b8154815290600101906020018083116121d357829003601f168201915b505050505090806003018054612205906135bc565b80601f0160208091040260200160405190810160405280929190818152602001828054612231906135bc565b801561227e5780601f106122535761010080835404028352916020019161227e565b820191906000526020600020905b81548152906001019060200180831161226157829003601f168201915b505050505090806004018054612293906135bc565b80601f01602080910402602001604051908101604052809291908181526020018280546122bf906135bc565b801561230c5780601f106122e15761010080835404028352916020019161230c565b820191906000526020600020905b8154815290600101906020018083116122ef57829003601f168201915b505050505090806005018054612321906135bc565b80601f016020809104026020016040519081016040528092919081815260200182805461234d906135bc565b801561239a5780601f1061236f5761010080835404028352916020019161239a565b820191906000526020600020905b81548152906001019060200180831161237d57829003601f168201915b5050505050908060060180546123af906135bc565b80601f01602080910402602001604051908101604052809291908181526020018280546123db906135bc565b80156124285780601f106123fd57610100808354040283529160200191612428565b820191906000526020600020905b81548152906001019060200180831161240b57829003601f168201915b5050505050908060070160009054906101000a900460ff16905088565b6000600180549050905090565b60008054906101000a900473ffffffffffffffffffffffffffffffffffffffff1673ffffffffffffffffffffffffffffffffffffffff163373ffffffffffffffffffffffffffffffffffffffff16146124e0576040517f08c379a00000000000000000000000000000000000000000000000000000000081526004016124d790613660565b60405180910390fd5b6001600060146101000a81548160ff0219169083151502179055507f258a7c8a176359d1dd4b5872009764b97f6228ed4dfc610540018b756f6f22bd60405160405180910390a1565b60006001808054905061253c919061390a565b905060016040518061016001604052808381526020018c8152602001600081526020018b73ffffffffffffffffffffffffffffffffffffffff1681526020018a81526020018981526020018881526020018781526020018681526020018581526020018481525090806001815401808255809150506001900390600052602060002090600b02016000909190919091506000820151816000015560208201518160010190805190602001906125f2929190612781565b506040820151816002015560608201518160030160006101000a81548173ffffffffffffffffffffffffffffffffffffffff021916908373ffffffffffffffffffffffffffffffffffffffff1602179055506080820151816004019080519060200190612660929190612781565b5060a082015181600501908051906020019061267d929190612781565b5060c0820151816006015560e08201518160070190805190602001906126a4929190612781565b506101008201518160080190805190602001906126c2929190612781565b506101208201518160090190805190602001906126e0929190612781565b5061014082015181600a0190805190602001906126fe929190612781565b5050507f5a022fc2e48a23651bbc4855c873bb1efcf861de8e23fe86fccc875d71b32fd2818b8b8b8b8b8b8b8b8b6040516127429a99989796959493929190613960565b60405180910390a150505050505050505050565b60036020528060005260406000206000915090505481565b600060149054906101000a900460ff1681565b82805461278d906135bc565b90600052602060002090601f0160209004810192826127af57600085556127f6565b82601f106127c857805160ff19168380011785556127f6565b828001600101855582156127f6579182015b828111156127f55782518255916020019190600101906127da565b5b5090506128039190612877565b5090565b604051806101600160405280600081526020016060815260200160008152602001600073ffffffffffffffffffffffffffffffffffffffff168152602001606081526020016060815260200160008152602001606081526020016060815260200160608152602001606081525090565b5b80821115612890576000816000905550600101612878565b5090565b6000604051905090565b600080fd5b600080fd5b6000819050919050565b6128bb816128a8565b81146128c657600080fd5b50565b6000813590506128d8816128b2565b92915050565b6000602082840312156128f4576128f361289e565b5b6000612902848285016128c9565b91505092915050565b600073ffffffffffffffffffffffffffffffffffffffff82169050919050565b60006129368261290b565b9050919050565b6129468161292b565b811461295157600080fd5b50565b6000813590506129638161293d565b92915050565b60006020828403121561297f5761297e61289e565b5b600061298d84828501612954565b91505092915050565b60008115159050919050565b6129ab81612996565b82525050565b60006020820190506129c660008301846129a2565b92915050565b6129d58161292b565b82525050565b60006020820190506129f060008301846129cc565b92915050565b6129ff816128a8565b82525050565b600081519050919050565b600082825260208201905092915050565b60005b83811015612a3f578082015181840152602081019050612a24565b83811115612a4e576000848401525b50505050565b6000601f19601f8301169050919050565b6000612a7082612a05565b612a7a8185612a10565b9350612a8a818560208601612a21565b612a9381612a54565b840191505092915050565b600061016082019050612ab4600083018e6129f6565b8181036020830152612ac6818d612a65565b9050612ad5604083018c6129f6565b612ae2606083018b6129cc565b8181036080830152612af4818a612a65565b905081810360a0830152612b088189612a65565b9050612b1760c08301886129f6565b81810360e0830152612b298187612a65565b9050818103610100830152612b3e8186612a65565b9050818103610120830152612b538185612a65565b9050818103610140830152612b688184612a65565b90509c9b505050505050505050505050565b600060a0820190508181036000830152612b948188612a65565b90508181036020830152612ba88187612a65565b90508181036040830152612bbc8186612a65565b9050612bcb60608301856129f6565b8181036080830152612bdd8184612a65565b90509695505050505050565b60006080820190508181036000830152612c038187612a65565b90508181036020830152612c178186612a65565b9050612c2660408301856129cc565b612c3360608301846129a2565b95945050505050565b600080fd5b600080fd5b7f4e487b7100000000000000000000000000000000000000000000000000000000600052604160045260246000fd5b612c7e82612a54565b810181811067ffffffffffffffff82111715612c9d57612c9c612c46565b5b80604052505050565b6000612cb0612894565b9050612cbc8282612c75565b919050565b600067ffffffffffffffff821115612cdc57612cdb612c46565b5b612ce582612a54565b9050602081019050919050565b82818337600083830152505050565b6000612d14612d0f84612cc1565b612ca6565b905082815260208101848484011115612d3057612d2f612c41565b5b612d3b848285612cf2565b509392505050565b600082601f830112612d5857612d57612c3c565b5b8135612d68848260208601612d01565b91505092915050565b600080600060608486031215612d8a57612d8961289e565b5b6000612d9886828701612954565b935050602084013567ffffffffffffffff811115612db957612db86128a3565b5b612dc586828701612d43565b925050604084013567ffffffffffffffff811115612de657612de56128a3565b5b612df286828701612d43565b9150509250925092565b612e05816128a8565b82525050565b600082825260208201905092915050565b6000612e2782612a05565b612e318185612e0b565b9350612e41818560208601612a21565b612e4a81612a54565b840191505092915050565b612e5e8161292b565b82525050565b600061016083016000830151612e7d6000860182612dfc565b5060208301518482036020860152612e958282612e1c565b9150506040830151612eaa6040860182612dfc565b506060830151612ebd6060860182612e55565b5060808301518482036080860152612ed58282612e1c565b91505060a083015184820360a0860152612eef8282612e1c565b91505060c0830151612f0460c0860182612dfc565b5060e083015184820360e0860152612f1c8282612e1c565b915050610100830151848203610100860152612f388282612e1c565b915050610120830151848203610120860152612f548282612e1c565b915050610140830151848203610140860152612f708282612e1c565b9150508091505092915050565b60006020820190508181036000830152612f978184612e64565b905092915050565b60008060008060008060c08789031215612fbc57612fbb61289e565b5b6000612fca89828a016128c9565b965050602087013567ffffffffffffffff811115612feb57612fea6128a3565b5b612ff789828a01612d43565b955050604087013567ffffffffffffffff811115613018576130176128a3565b5b61302489828a01612d43565b945050606087013567ffffffffffffffff811115613045576130446128a3565b5b61305189828a01612d43565b935050608087013567ffffffffffffffff811115613072576130716128a3565b5b61307e89828a01612d43565b92505060a087013567ffffffffffffffff81111561309f5761309e6128a3565b5b6130ab89828a01612d43565b9150509295509295509295565b6000610100820190506130ce600083018b6129f6565b6130db602083018a6129cc565b81810360408301526130ed8189612a65565b905081810360608301526131018188612a65565b905081810360808301526131158187612a65565b905081810360a08301526131298186612a65565b905081810360c083015261313d8185612a65565b905061314c60e08301846129a2565b9998505050505050505050565b600060208201905061316e60008301846129f6565b92915050565b60008060008060008060008060006101208a8c0312156131975761319661289e565b5b60008a013567ffffffffffffffff8111156131b5576131b46128a3565b5b6131c18c828d01612d43565b99505060206131d28c828d01612954565b98505060408a013567ffffffffffffffff8111156131f3576131f26128a3565b5b6131ff8c828d01612d43565b97505060608a013567ffffffffffffffff8111156132205761321f6128a3565b5b61322c8c828d01612d43565b965050608061323d8c828d016128c9565b95505060a08a013567ffffffffffffffff81111561325e5761325d6128a3565b5b61326a8c828d01612d43565b94505060c08a013567ffffffffffffffff81111561328b5761328a6128a3565b5b6132978c828d01612d43565b93505060e08a013567ffffffffffffffff8111156132b8576132b76128a3565b5b6132c48c828d01612d43565b9250506101008a013567ffffffffffffffff8111156132e6576132e56128a3565b5b6132f28c828d01612d43565b9150509295985092959850929598565b7f566f74696e6720697320636c6f7365642e000000000000000000000000000000600082015250565b6000613338601183612a10565b915061334382613302565b602082019050919050565b600060208201905081810360008301526133678161332b565b9050919050565b7f596f75206861766520616c726561647920766f7465642e000000000000000000600082015250565b60006133a4601783612a10565b91506133af8261336e565b602082019050919050565b600060208201905081810360008301526133d381613397565b9050919050565b7f496e76616c69642063616e6469646174652049442e0000000000000000000000600082015250565b6000613410601583612a10565b915061341b826133da565b602082019050919050565b6000602082019050818103600083015261343f81613403565b9050919050565b7f4e487b7100000000000000000000000000000000000000000000000000000000600052601160045260246000fd5b6000613480826128a8565b915061348b836128a8565b92508282101561349e5761349d613446565b5b828203905092915050565b7f4e487b7100000000000000000000000000000000000000000000000000000000600052603260045260246000fd5b60006134e3826128a8565b91507fffffffffffffffffffffffffffffffffffffffffffffffffffffffffffffffff82141561351657613515613446565b5b600182019050919050565b7f566f746572206973206e6f7420726567697374657265642e0000000000000000600082015250565b6000613557601883612a10565b915061356282613521565b602082019050919050565b600060208201905081810360008301526135868161354a565b9050919050565b7f4e487b7100000000000000000000000000000000000000000000000000000000600052602260045260246000fd5b600060028204905060018216806135d457607f821691505b602082108114156135e8576135e761358d565b5b50919050565b7f4f6e6c7920746865206f776e65722063616e20706572666f726d20746869732060008201527f616374696f6e2e00000000000000000000000000000000000000000000000000602082015250565b600061364a602783612a10565b9150613655826135ee565b604082019050919050565b600060208201905081810360008301526136798161363d565b9050919050565b7f41646d696e20616c7265616479206578697374732e0000000000000000000000600082015250565b60006136b6601583612a10565b91506136c182613680565b602082019050919050565b600060208201905081810360008301526136e5816136a9565b9050919050565b7f43616e6e6f74206465636c61726520726573756c74207768696c6520766f746960008201527f6e67206973206f70656e2e000000000000000000000000000000000000000000602082015250565b6000613748602b83612a10565b9150613753826136ec565b604082019050919050565b600060208201905081810360008301526137778161373b565b9050919050565b600060408201905081810360008301526137988185612a65565b90506137a760208301846129f6565b9392505050565b7f456c656374696f6e206973207374696c6c206f70656e2e000000000000000000600082015250565b60006137e4601783612a10565b91506137ef826137ae565b602082019050919050565b60006020820190508181036000830152613813816137d7565b9050919050565b7f566f74657220697320616c726561647920726567697374657265642e00000000600082015250565b6000613850601c83612a10565b915061385b8261381a565b602082019050919050565b6000602082019050818103600083015261387f81613843565b9050919050565b600060c08201905061389b60008301896129f6565b81810360208301526138ad8188612a65565b905081810360408301526138c18187612a65565b905081810360608301526138d58186612a65565b905081810360808301526138e98185612a65565b905081810360a08301526138fd8184612a65565b9050979650505050505050565b6000613915826128a8565b9150613920836128a8565b9250827fffffffffffffffffffffffffffffffffffffffffffffffffffffffffffffffff0382111561395557613954613446565b5b828201905092915050565b600061014082019050613976600083018d6129f6565b8181036020830152613988818c612a65565b9050613997604083018b6129cc565b81810360608301526139a9818a612a65565b905081810360808301526139bd8189612a65565b90506139cc60a08301886129f6565b81810360c08301526139de8187612a65565b905081810360e08301526139f28186612a65565b9050818103610100830152613a078185612a65565b9050818103610120830152613a1c8184612a65565b90509b9a505050505050505050505056fea264697066735822122098eab633792c3413162f9e8fbcbf6e877e1ac9dcceb721946da4c14d3a724a9b64736f6c63430008090033",
  "linkReferences": {},
  "deployedLinkReferences": {}
}