{
  "_format": "hh-sol-artifact-1",
  "contractName": "Election",
  "sourceName": "contracts/Election.sol",
  "abi": [
    {
      "inputs": [],
      "stateMutability": "nonpayable",
      "type": "constructor"
    },
    {
      "anonymous": false,
      "inputs": [],
      "name": "ElectionClosed",
      "type": "event"
    },
    {
      "anonymous": false,
      "inputs": [],
      "name": "ElectionOpen",
      "type": "event"
    },
    {
      "anonymous": false,
      "inputs": [
        {
          "indexed": false,
          "internalType": "string",
          "name": "winnerName",
          "type": "string"
        },
        {
          "indexed": false,
          "internalType": "uint256",
          "name": "winnerVoteCount",
          "type": "uint256"
        }
      ],
      "name": "ElectionResultDeclared",
      "type": "event"
    },
    {
      "anonymous": false,
      "inputs": [
        {
          "indexed": false,
          "internalType": "uint256",
          "name": "candidateId",
          "type": "uint256"
        },
        {
          "indexed": false,
          "internalType": "string",
          "name": "name",
          "type": "string"
        },
        {
          "indexed": false,
          "internalType": "address",
          "name": "ethereumAddress",
          "type": "address"
        },
        {
          "indexed": false,
          "internalType": "string",
          "name": "email",
          "type": "string"
        },
        {
          "indexed": false,
          "internalType": "string",
          "name": "mobileNumber",
          "type": "string"
        },
        {
          "indexed": false,
          "internalType": "uint256",
          "name": "dateOfBirth",
          "type": "uint256"
        },
        {
          "indexed": false,
          "internalType": "string",
          "name": "aadharNumber",
          "type": "string"
        },
        {
          "indexed": false,
          "internalType": "string",
          "name": "voterId",
          "type": "string"
        },
        {
          "indexed": false,
          "internalType": "string",
          "name": "homeAddress",
          "type": "string"
        },
        {
          "indexed": false,
          "internalType": "string",
          "name": "ipfsImageHash",
          "type": "string"
        }
      ],
      "name": "NewCandidate",
      "type": "event"
    },
    {
      "anonymous": false,
      "inputs": [
        {
          "indexed": true,
          "internalType": "address",
          "name": "voter",
          "type": "address"
        },
        {
          "indexed": false,
          "internalType": "uint256",
          "name": "candidateId",
          "type": "uint256"
        }
      ],
      "name": "Voted",
      "type": "event"
    },
    {
      "anonymous": false,
      "inputs": [
        {
          "indexed": true,
          "internalType": "address",
          "name": "voterAddress",
          "type": "address"
        }
      ],
      "name": "VoterLoggedIn",
      "type": "event"
    },
    {
      "anonymous": false,
      "inputs": [
        {
          "indexed": false,
          "internalType": "string",
          "name": "name",
          "type": "string"
        },
        {
          "indexed": false,
          "internalType": "address",
          "name": "voterAddress",
          "type": "address"
        },
        {
          "indexed": false,
          "internalType": "string",
          "name": "email",
          "type": "string"
        },
        {
          "indexed": false,
          "internalType": "string",
          "name": "mobileNumber",
          "type": "string"
        },
        {
          "indexed": false,
          "internalType": "string",
          "name": "voterId",
          "type": "string"
        },
        {
          "indexed": false,
          "internalType": "string",
          "name": "ipfsImageHash",
          "type": "string"
        }
      ],
      "name": "VoterRegistered",
      "type": "event"
    },
    {
      "inputs": [
        {
          "internalType": "address",
          "name": "_adminAddress",
          "type": "address"
        },
        {
          "internalType": "string",
          "name": "_name",
          "type": "string"
        },
        {
          "internalType": "string",
          "name": "_email",
          "type": "string"
        }
      ],
      "name": "addAdmin",
      "outputs": [],
      "stateMutability": "nonpayable",
      "type": "function"
    },
    {
      "inputs": [
        {
          "internalType": "string",
          "name": "_name",
          "type": "string"
        },
        {
          "internalType": "address",
          "name": "_ethereumAddress",
          "type": "address"
        },
        {
          "internalType": "string",
          "name": "_email",
          "type": "string"
        },
        {
          "internalType": "string",
          "name": "_mobileNumber",
          "type": "string"
        },
        {
          "internalType": "uint256",
          "name": "_dateOfBirth",
          "type": "uint256"
        },
        {
          "internalType": "string",
          "name": "_aadharNumber",
          "type": "string"
        },
        {
          "internalType": "string",
          "name": "_voterId",
          "type": "string"
        },
        {
          "internalType": "string",
          "name": "_homeAddress",
          "type": "string"
        },
        {
          "internalType": "string",
          "name": "_ipfsImageHash",
          "type": "string"
        }
      ],
      "name": "addCandidate",
      "outputs": [],
      "stateMutability": "nonpayable",
      "type": "function"
    },
    {
      "inputs": [
        {
          "internalType": "uint256",
          "name": "",
          "type": "uint256"
        }
      ],
      "name": "adminAccounts",
      "outputs": [
        {
          "internalType": "address",
          "name": "",
          "type": "address"
        }
      ],
      "stateMutability": "view",
      "type": "function"
    },
    {
      "inputs": [
        {
          "internalType": "address",
          "name": "",
          "type": "address"
        }
      ],
      "name": "admins",
      "outputs": [
        {
          "internalType": "string",
          "name": "name",
          "type": "string"
        },
        {
          "internalType": "string",
          "name": "email",
          "type": "string"
        },
        {
          "internalType": "address",
          "name": "ethereumAddress",
          "type": "address"
        },
        {
          "internalType": "bool",
          "name": "isAdmin",
          "type": "bool"
        }
      ],
      "stateMutability": "view",
      "type": "function"
    },
    {
      "inputs": [
        {
          "internalType": "uint256",
          "name": "",
          "type": "uint256"
        }
      ],
      "name": "candidates",
      "outputs": [
        {
          "internalType": "uint256",
          "name": "id",
          "type": "uint256"
        },
        {
          "internalType": "string",
          "name": "name",
          "type": "string"
        },
        {
          "internalType": "uint256",
          "name": "voteCount",
          "type": "uint256"
        },
        {
          "internalType": "address",
          "name": "ethereumAddress",
          "type": "address"
        },
        {
          "internalType": "string",
          "name": "email",
          "type": "string"
        },
        {
          "internalType": "string",
          "name": "mobileNumber",
          "type": "string"
        },
        {
          "internalType": "uint256",
          "name": "dateOfBirth",
          "type": "uint256"
        },
        {
          "internalType": "string",
          "name": "aadharNumber",
          "type": "string"
        },
        {
          "internalType": "string",
          "name": "voterId",
          "type": "string"
        },
        {
          "internalType": "string",
          "name": "homeAddress",
          "type": "string"
        },
        {
          "internalType": "string",
          "name": "ipfsImageHash",
          "type": "string"
        }
      ],
      "stateMutability": "view",
      "type": "function"
    },
    {
      "inputs": [
        {
          "internalType": "address",
          "name": "",
          "type": "address"
        }
      ],
      "name": "candidatesRegistered",
      "outputs": [
        {
          "internalType": "bool",
          "name": "",
          "type": "bool"
        }
      ],
      "stateMutability": "view",
      "type": "function"
    },
    {
      "inputs": [],
      "name": "closeElection",
      "outputs": [],
      "stateMutability": "nonpayable",
      "type": "function"
    },
    {
      "inputs": [],
      "name": "declareElectionResult",
      "outputs": [],
      "stateMutability": "nonpayable",
      "type": "function"
    },
    {
      "inputs": [
        {
          "internalType": "uint256",
          "name": "_candidateId",
          "type": "uint256"
        }
      ],
      "name": "getCandidate",
      "outputs": [
        {
          "internalType": "string",
          "name": "name",
          "type": "string"
        },
        {
          "internalType": "string",
          "name": "email",
          "type": "string"
        },
        {
          "internalType": "string",
          "name": "mobileNumber",
          "type": "string"
        },
        {
          "internalType": "uint256",
          "name": "dateOfBirth",
          "type": "uint256"
        },
        {
          "internalType": "string",
          "name": "homeAddress",
          "type": "string"
        }
      ],
      "stateMutability": "view",
      "type": "function"
    },
    {
      "inputs": [],
      "name": "getCandidatesCount",
      "outputs": [
        {
          "internalType": "uint256",
          "name": "",
          "type": "uint256"
        }
      ],
      "stateMutability": "view",
      "type": "function"
    },
    {
      "inputs": [],
      "name": "getWinner",
      "outputs": [
        {
          "components": [
            {
              "internalType": "uint256",
              "name": "id",
              "type": "uint256"
            },
            {
              "internalType": "string",
              "name": "name",
              "type": "string"
            },
            {
              "internalType": "uint256",
              "name": "voteCount",
              "type": "uint256"
            },
            {
              "internalType": "address",
              "name": "ethereumAddress",
              "type": "address"
            },
            {
              "internalType": "string",
              "name": "email",
              "type": "string"
            },
            {
              "internalType": "string",
              "name": "mobileNumber",
              "type": "string"
            },
            {
              "internalType": "uint256",
              "name": "dateOfBirth",
              "type": "uint256"
            },
            {
              "internalType": "string",
              "name": "aadharNumber",
              "type": "string"
            },
            {
              "internalType": "string",
              "name": "voterId",
              "type": "string"
            },
            {
              "internalType": "string",
              "name": "homeAddress",
              "type": "string"
            },
            {
              "internalType": "string",
              "name": "ipfsImageHash",
              "type": "string"
            }
          ],
          "internalType": "struct Election.Candidate",
          "name": "winner",
          "type": "tuple"
        }
      ],
      "stateMutability": "view",
      "type": "function"
    },
    {
      "inputs": [
        {
          "internalType": "address",
          "name": "",
          "type": "address"
        }
      ],
      "name": "hasVoted",
      "outputs": [
        {
          "internalType": "bool",
          "name": "",
          "type": "bool"
        }
      ],
      "stateMutability": "view",
      "type": "function"
    },
    {
      "inputs": [
        {
          "internalType": "address",
          "name": "_ethereumAddress",
          "type": "address"
        }
      ],
      "name": "isVoterRegistered",
      "outputs": [
        {
          "internalType": "bool",
          "name": "",
          "type": "bool"
        }
      ],
      "stateMutability": "view",
      "type": "function"
    },
    {
      "inputs": [],
      "name": "isVotingOpen",
      "outputs": [
        {
          "internalType": "bool",
          "name": "",
          "type": "bool"
        }
      ],
      "stateMutability": "view",
      "type": "function"
    },
    {
      "inputs": [
        {
          "internalType": "string",
          "name": "_email",
          "type": "string"
        },
        {
          "internalType": "string",
          "name": "_password",
          "type": "string"
        },
        {
          "internalType": "address",
          "name": "_ethereumAddress",
          "type": "address"
        }
      ],
      "name": "loginVoter",
      "outputs": [],
      "stateMutability": "nonpayable",
      "type": "function"
    },
    {
      "inputs": [],
      "name": "openElection",
      "outputs": [],
      "stateMutability": "nonpayable",
      "type": "function"
    },
    {
      "inputs": [],
      "name": "owner",
      "outputs": [
        {
          "internalType": "address",
          "name": "",
          "type": "address"
        }
      ],
      "stateMutability": "view",
      "type": "function"
    },
    {
      "inputs": [
        {
          "internalType": "string",
          "name": "_name",
          "type": "string"
        },
        {
          "internalType": "address",
          "name": "_ethereumAddress",
          "type": "address"
        },
        {
          "internalType": "string",
          "name": "_email",
          "type": "string"
        },
        {
          "internalType": "string",
          "name": "_mobileNumber",
          "type": "string"
        },
        {
          "internalType": "string",
          "name": "_voterId",
          "type": "string"
        },
        {
          "internalType": "string",
          "name": "_ipfsImageHash",
          "type": "string"
        },
        {
          "internalType": "string",
          "name": "_password",
          "type": "string"
        }
      ],
      "name": "registerVoter",
      "outputs": [],
      "stateMutability": "nonpayable",
      "type": "function"
    },
    {
      "inputs": [
        {
          "internalType": "uint256",
          "name": "",
          "type": "uint256"
        }
      ],
      "name": "registeredVoters",
      "outputs": [
        {
          "internalType": "address",
          "name": "",
          "type": "address"
        }
      ],
      "stateMutability": "view",
      "type": "function"
    },
    {
      "inputs": [
        {
          "internalType": "address",
          "name": "",
          "type": "address"
        }
      ],
      "name": "userVote",
      "outputs": [
        {
          "internalType": "uint256",
          "name": "",
          "type": "uint256"
        }
      ],
      "stateMutability": "view",
      "type": "function"
    },
    {
      "inputs": [
        {
          "internalType": "uint256",
          "name": "_candidateId",
          "type": "uint256"
        },
        {
          "internalType": "address",
          "name": "_ethereumAddress",
          "type": "address"
        }
      ],
      "name": "vote",
      "outputs": [],
      "stateMutability": "nonpayable",
      "type": "function"
    },
    {
      "inputs": [
        {
          "internalType": "address",
          "name": "",
          "type": "address"
        }
      ],
      "name": "voters",
      "outputs": [
        {
          "internalType": "address",
          "name": "ethereumAddress",
          "type": "address"
        },
        {
          "internalType": "string",
          "name": "name",
          "type": "string"
        },
        {
          "internalType": "string",
          "name": "email",
          "type": "string"
        },
        {
          "internalType": "string",
          "name": "mobileNumber",
          "type": "string"
        },
        {
          "internalType": "string",
          "name": "voterId",
          "type": "string"
        },
        {
          "internalType": "string",
          "name": "ipfsImageHash",
          "type": "string"
        },
        {
          "internalType": "bytes32",
          "name": "passwordHash",
          "type": "bytes32"
        },
        {
          "internalType": "bool",
          "name": "isRegistered",
          "type": "bool"
        }
      ],
      "stateMutability": "view",
      "type": "function"
    }
  ],
  "bytecode": "0x608060405234801561001057600080fd5b50336000806101000a81548173ffffffffffffffffffffffffffffffffffffffff021916908373ffffffffffffffffffffffffffffffffffffffff16021790555060008060146101000a81548160ff02191690831515021790555061431d8061007a6000396000f3fe608060405234801561001057600080fd5b50600436106101425760003560e01c80638da5cb5b116100b8578063c5d00f5d1161007c578063c5d00f5d146103a1578063d0b7c7ff146103ab578063eb2119db146103c7578063ec8f8076146103f7578063f5ba1c8714610413578063fa7f1bae1461044357610142565b80638da5cb5b146102e05780638e7ea5b2146102fe578063a2addd681461031c578063a3ec138d1461034c578063bb9aa28f1461038357610142565b80633fa858561161010a5780633fa8585614610231578063429b62e5146102615780635babf5ef146102945780636c28fdb1146102b05780636c6c32d0146102ba5780636ec0176d146102c457610142565b806302d947ef1461014757806309eef43e146101635780632436e06b146101935780633477ee2e146101c357806335b8e820146101fd575b600080fd5b610161600480360381019061015c91906134bb565b610461565b005b61017d600480360381019061017891906130cf565b6106eb565b60405161018a9190613b12565b60405180910390f35b6101ad60048036038101906101a89190613492565b61070b565b6040516101ba9190613a56565b60405180910390f35b6101dd60048036038101906101d89190613492565b61074a565b6040516101f49b9a99989796959493929190613f0d565b60405180910390f35b61021760048036038101906102129190613492565b610b8c565b604051610228959493929190613c04565b60405180910390f35b61024b600480360381019061024691906130cf565b6110ec565b6040516102589190613b12565b60405180910390f35b61027b600480360381019061027691906130cf565b61110c565b60405161028b9493929190613bb1565b60405180910390f35b6102ae60048036038101906102a991906130f8565b611279565b005b6102b861151c565b005b6102c2611766565b005b6102de60048036038101906102d99190613177565b61183c565b005b6102e8611b1e565b6040516102f59190613a56565b60405180910390f35b610306611b42565b6040516103139190613e03565b60405180910390f35b61033660048036038101906103319190613492565b61218c565b6040516103439190613a56565b60405180910390f35b610366600480360381019061036191906130cf565b6121cb565b60405161037a989796959493929190613a71565b60405180910390f35b61038b6124e8565b6040516103989190613e25565b60405180910390f35b6103a96124f5565b005b6103c560048036038101906103c09190613413565b6125cc565b005b6103e160048036038101906103dc91906130cf565b612b0f565b6040516103ee9190613b12565b60405180910390f35b610411600480360381019061040c91906132a5565b612b68565b005b61042d600480360381019061042891906130cf565b612eca565b60405161043a9190613e25565b60405180910390f35b61044b612ee2565b6040516104589190613b12565b60405180910390f35b600060149054906101000a900460ff166104b0576040517f08c379a00000000000000000000000000000000000000000000000000000000081526004016104a790613dc3565b60405180910390fd5b600360008273ffffffffffffffffffffffffffffffffffffffff1673ffffffffffffffffffffffffffffffffffffffff16815260200190815260200160002060009054906101000a900460ff161561053d576040517f08c379a000000000000000000000000000000000000000000000000000000000815260040161053490613ca3565b60405180910390fd5b60008211801561055257506001805490508211155b610591576040517f08c379a000000000000000000000000000000000000000000000000000000000815260040161058890613de3565b60405180910390fd5b6001600360008373ffffffffffffffffffffffffffffffffffffffff1673ffffffffffffffffffffffffffffffffffffffff16815260200190815260200160002060006101000a81548160ff02191690831515021790555081600460008373ffffffffffffffffffffffffffffffffffffffff1673ffffffffffffffffffffffffffffffffffffffff168152602001908152602001600020819055506001808361063b91906140d8565b81548110610672577f4e487b7100000000000000000000000000000000000000000000000000000000600052603260045260246000fd5b90600052602060002090600b02016002016000815480929190610694906141d2565b91905055508073ffffffffffffffffffffffffffffffffffffffff167f4d99b957a2bc29a30ebd96a7be8e68fe50a3c701db28a91436490b7d53870ca4836040516106df9190613e25565b60405180910390a25050565b60036020528060005260406000206000915054906101000a900460ff1681565b6006818154811061071b57600080fd5b906000526020600020016000915054906101000a900473ffffffffffffffffffffffffffffffffffffffff1681565b6001818154811061075a57600080fd5b90600052602060002090600b0201600091509050806000015490806001018054610783906141a0565b80601f01602080910402602001604051908101604052809291908181526020018280546107af906141a0565b80156107fc5780601f106107d1576101008083540402835291602001916107fc565b820191906000526020600020905b8154815290600101906020018083116107df57829003601f168201915b5050505050908060020154908060030160009054906101000a900473ffffffffffffffffffffffffffffffffffffffff169080600401805461083d906141a0565b80601f0160208091040260200160405190810160405280929190818152602001828054610869906141a0565b80156108b65780601f1061088b576101008083540402835291602001916108b6565b820191906000526020600020905b81548152906001019060200180831161089957829003601f168201915b5050505050908060050180546108cb906141a0565b80601f01602080910402602001604051908101604052809291908181526020018280546108f7906141a0565b80156109445780601f1061091957610100808354040283529160200191610944565b820191906000526020600020905b81548152906001019060200180831161092757829003601f168201915b50505050509080600601549080600701805461095f906141a0565b80601f016020809104026020016040519081016040528092919081815260200182805461098b906141a0565b80156109d85780601f106109ad576101008083540402835291602001916109d8565b820191906000526020600020905b8154815290600101906020018083116109bb57829003601f168201915b5050505050908060080180546109ed906141a0565b80601f0160208091040260200160405190810160405280929190818152602001828054610a19906141a0565b8015610a665780601f10610a3b57610100808354040283529160200191610a66565b820191906000526020600020905b815481529060010190602001808311610a4957829003601f168201915b505050505090806009018054610a7b906141a0565b80601f0160208091040260200160405190810160405280929190818152602001828054610aa7906141a0565b8015610af45780601f10610ac957610100808354040283529160200191610af4565b820191906000526020600020905b815481529060010190602001808311610ad757829003601f168201915b50505050509080600a018054610b09906141a0565b80601f0160208091040260200160405190810160405280929190818152602001828054610b35906141a0565b8015610b825780601f10610b5757610100808354040283529160200191610b82565b820191906000526020600020905b815481529060010190602001808311610b6557829003601f168201915b505050505090508b565b606080606060006060600086118015610baa57506001805490508611155b610be9576040517f08c379a0000000000000000000000000000000000000000000000000000000008152600401610be090613de3565b60405180910390fd5b600060018088610bf991906140d8565b81548110610c30577f4e487b7100000000000000000000000000000000000000000000000000000000600052603260045260246000fd5b90600052602060002090600b02016040518061016001604052908160008201548152602001600182018054610c64906141a0565b80601f0160208091040260200160405190810160405280929190818152602001828054610c90906141a0565b8015610cdd5780601f10610cb257610100808354040283529160200191610cdd565b820191906000526020600020905b815481529060010190602001808311610cc057829003601f168201915b50505050508152602001600282015481526020016003820160009054906101000a900473ffffffffffffffffffffffffffffffffffffffff1673ffffffffffffffffffffffffffffffffffffffff1673ffffffffffffffffffffffffffffffffffffffff168152602001600482018054610d56906141a0565b80601f0160208091040260200160405190810160405280929190818152602001828054610d82906141a0565b8015610dcf5780601f10610da457610100808354040283529160200191610dcf565b820191906000526020600020905b815481529060010190602001808311610db257829003601f168201915b50505050508152602001600582018054610de8906141a0565b80601f0160208091040260200160405190810160405280929190818152602001828054610e14906141a0565b8015610e615780601f10610e3657610100808354040283529160200191610e61565b820191906000526020600020905b815481529060010190602001808311610e4457829003601f168201915b5050505050815260200160068201548152602001600782018054610e84906141a0565b80601f0160208091040260200160405190810160405280929190818152602001828054610eb0906141a0565b8015610efd5780601f10610ed257610100808354040283529160200191610efd565b820191906000526020600020905b815481529060010190602001808311610ee057829003601f168201915b50505050508152602001600882018054610f16906141a0565b80601f0160208091040260200160405190810160405280929190818152602001828054610f42906141a0565b8015610f8f5780601f10610f6457610100808354040283529160200191610f8f565b820191906000526020600020905b815481529060010190602001808311610f7257829003601f168201915b50505050508152602001600982018054610fa8906141a0565b80601f0160208091040260200160405190810160405280929190818152602001828054610fd4906141a0565b80156110215780601f10610ff657610100808354040283529160200191611021565b820191906000526020600020905b81548152906001019060200180831161100457829003601f168201915b50505050508152602001600a8201805461103a906141a0565b80601f0160208091040260200160405190810160405280929190818152602001828054611066906141a0565b80156110b35780601f10611088576101008083540402835291602001916110b3565b820191906000526020600020905b81548152906001019060200180831161109657829003601f168201915b5050505050815250509050806020015181608001518260a001518360c00151846101200151955095509550955095505091939590929450565b60026020528060005260406000206000915054906101000a900460ff1681565b600760205280600052604060002060009150905080600001805461112f906141a0565b80601f016020809104026020016040519081016040528092919081815260200182805461115b906141a0565b80156111a85780601f1061117d576101008083540402835291602001916111a8565b820191906000526020600020905b81548152906001019060200180831161118b57829003601f168201915b5050505050908060010180546111bd906141a0565b80601f01602080910402602001604051908101604052809291908181526020018280546111e9906141a0565b80156112365780601f1061120b57610100808354040283529160200191611236565b820191906000526020600020905b81548152906001019060200180831161121957829003601f168201915b5050505050908060020160009054906101000a900473ffffffffffffffffffffffffffffffffffffffff16908060020160149054906101000a900460ff16905084565b60008054906101000a900473ffffffffffffffffffffffffffffffffffffffff1673ffffffffffffffffffffffffffffffffffffffff163373ffffffffffffffffffffffffffffffffffffffff1614611307576040517f08c379a00000000000000000000000000000000000000000000000000000000081526004016112fe90613d63565b60405180910390fd5b600760008473ffffffffffffffffffffffffffffffffffffffff1673ffffffffffffffffffffffffffffffffffffffff16815260200190815260200160002060020160149054906101000a900460ff1615611397576040517f08c379a000000000000000000000000000000000000000000000000000000000815260040161138e90613d83565b60405180910390fd5b60405180608001604052808381526020018281526020018473ffffffffffffffffffffffffffffffffffffffff16815260200160011515815250600760008573ffffffffffffffffffffffffffffffffffffffff1673ffffffffffffffffffffffffffffffffffffffff168152602001908152602001600020600082015181600001908051906020019061142c929190612f2a565b506020820151816001019080519060200190611449929190612f2a565b5060408201518160020160006101000a81548173ffffffffffffffffffffffffffffffffffffffff021916908373ffffffffffffffffffffffffffffffffffffffff16021790555060608201518160020160146101000a81548160ff0219169083151502179055509050506008839080600181540180825580915050600190039060005260206000200160009091909190916101000a81548173ffffffffffffffffffffffffffffffffffffffff021916908373ffffffffffffffffffffffffffffffffffffffff160217905550505050565b60008054906101000a900473ffffffffffffffffffffffffffffffffffffffff1673ffffffffffffffffffffffffffffffffffffffff163373ffffffffffffffffffffffffffffffffffffffff16146115aa576040517f08c379a00000000000000000000000000000000000000000000000000000000081526004016115a190613d63565b60405180910390fd5b600060149054906101000a900460ff16156115fa576040517f08c379a00000000000000000000000000000000000000000000000000000000081526004016115f190613cc3565b60405180910390fd5b60008080600090505b60018054905081101561171357826001828154811061164b577f4e487b7100000000000000000000000000000000000000000000000000000000600052603260045260246000fd5b90600052602060002090600b0201600201541115611700576001818154811061169d577f4e487b7100000000000000000000000000000000000000000000000000000000600052603260045260246000fd5b90600052602060002090600b0201600201549250600181815481106116eb577f4e487b7100000000000000000000000000000000000000000000000000000000600052603260045260246000fd5b90600052602060002090600b02016000015491505b808061170b906141d2565b915050611603565b50600061171e611b42565b90507f1aaa99e411a940104e7b7866d6fc9317a3e67e76472e8d2776a9a8943112c39081602001518260400151604051611759929190613c73565b60405180910390a1505050565b60008054906101000a900473ffffffffffffffffffffffffffffffffffffffff1673ffffffffffffffffffffffffffffffffffffffff163373ffffffffffffffffffffffffffffffffffffffff16146117f4576040517f08c379a00000000000000000000000000000000000000000000000000000000081526004016117eb90613d63565b60405180910390fd5b60008060146101000a81548160ff0219169083151502179055507fa549b9addfc3693a1863ac5b0b13c42960d78df554c01ea6ac72a7db985df0cf60405160405180910390a1565b600560008773ffffffffffffffffffffffffffffffffffffffff1673ffffffffffffffffffffffffffffffffffffffff16815260200190815260200160002060070160009054906101000a900460ff16156118cc576040517f08c379a00000000000000000000000000000000000000000000000000000000081526004016118c390613da3565b60405180910390fd5b60006118d782612ef5565b90506040518061010001604052808873ffffffffffffffffffffffffffffffffffffffff16815260200189815260200187815260200186815260200185815260200184815260200182815260200160011515815250600560008973ffffffffffffffffffffffffffffffffffffffff1673ffffffffffffffffffffffffffffffffffffffff16815260200190815260200160002060008201518160000160006101000a81548173ffffffffffffffffffffffffffffffffffffffff021916908373ffffffffffffffffffffffffffffffffffffffff16021790555060208201518160010190805190602001906119ce929190612f2a565b5060408201518160020190805190602001906119eb929190612f2a565b506060820151816003019080519060200190611a08929190612f2a565b506080820151816004019080519060200190611a25929190612f2a565b5060a0820151816005019080519060200190611a42929190612f2a565b5060c0820151816006015560e08201518160070160006101000a81548160ff0219169083151502179055509050506006879080600181540180825580915050600190039060005260206000200160009091909190916101000a81548173ffffffffffffffffffffffffffffffffffffffff021916908373ffffffffffffffffffffffffffffffffffffffff1602179055507f8233a1016d0e0c56cc3a1e7454caa9df82be4406ad9fd67a8f79c8bdca15f363888888888888604051611b0c96959493929190613b2d565b60405180910390a15050505050505050565b60008054906101000a900473ffffffffffffffffffffffffffffffffffffffff1681565b611b4a612fb0565b600060149054906101000a900460ff1615611b9a576040517f08c379a0000000000000000000000000000000000000000000000000000000008152600401611b9190613d03565b60405180910390fd5b60008080600090505b600180549050811015611cb3578260018281548110611beb577f4e487b7100000000000000000000000000000000000000000000000000000000600052603260045260246000fd5b90600052602060002090600b0201600201541115611ca05760018181548110611c3d577f4e487b7100000000000000000000000000000000000000000000000000000000600052603260045260246000fd5b90600052602060002090600b020160020154925060018181548110611c8b577f4e487b7100000000000000000000000000000000000000000000000000000000600052603260045260246000fd5b90600052602060002090600b02016000015491505b8080611cab906141d2565b915050611ba3565b5060018082611cc291906140d8565b81548110611cf9577f4e487b7100000000000000000000000000000000000000000000000000000000600052603260045260246000fd5b90600052602060002090600b02016040518061016001604052908160008201548152602001600182018054611d2d906141a0565b80601f0160208091040260200160405190810160405280929190818152602001828054611d59906141a0565b8015611da65780601f10611d7b57610100808354040283529160200191611da6565b820191906000526020600020905b815481529060010190602001808311611d8957829003601f168201915b50505050508152602001600282015481526020016003820160009054906101000a900473ffffffffffffffffffffffffffffffffffffffff1673ffffffffffffffffffffffffffffffffffffffff1673ffffffffffffffffffffffffffffffffffffffff168152602001600482018054611e1f906141a0565b80601f0160208091040260200160405190810160405280929190818152602001828054611e4b906141a0565b8015611e985780601f10611e6d57610100808354040283529160200191611e98565b820191906000526020600020905b815481529060010190602001808311611e7b57829003601f168201915b50505050508152602001600582018054611eb1906141a0565b80601f0160208091040260200160405190810160405280929190818152602001828054611edd906141a0565b8015611f2a5780601f10611eff57610100808354040283529160200191611f2a565b820191906000526020600020905b815481529060010190602001808311611f0d57829003601f168201915b5050505050815260200160068201548152602001600782018054611f4d906141a0565b80601f0160208091040260200160405190810160405280929190818152602001828054611f79906141a0565b8015611fc65780601f10611f9b57610100808354040283529160200191611fc6565b820191906000526020600020905b815481529060010190602001808311611fa957829003601f168201915b50505050508152602001600882018054611fdf906141a0565b80601f016020809104026020016040519081016040528092919081815260200182805461200b906141a0565b80156120585780601f1061202d57610100808354040283529160200191612058565b820191906000526020600020905b81548152906001019060200180831161203b57829003601f168201915b50505050508152602001600982018054612071906141a0565b80601f016020809104026020016040519081016040528092919081815260200182805461209d906141a0565b80156120ea5780601f106120bf576101008083540402835291602001916120ea565b820191906000526020600020905b8154815290600101906020018083116120cd57829003601f168201915b50505050508152602001600a82018054612103906141a0565b80601f016020809104026020016040519081016040528092919081815260200182805461212f906141a0565b801561217c5780601f106121515761010080835404028352916020019161217c565b820191906000526020600020905b81548152906001019060200180831161215f57829003601f168201915b5050505050815250509250505090565b6008818154811061219c57600080fd5b906000526020600020016000915054906101000a900473ffffffffffffffffffffffffffffffffffffffff1681565b60056020528060005260406000206000915090508060000160009054906101000a900473ffffffffffffffffffffffffffffffffffffffff1690806001018054612214906141a0565b80601f0160208091040260200160405190810160405280929190818152602001828054612240906141a0565b801561228d5780601f106122625761010080835404028352916020019161228d565b820191906000526020600020905b81548152906001019060200180831161227057829003601f168201915b5050505050908060020180546122a2906141a0565b80601f01602080910402602001604051908101604052809291908181526020018280546122ce906141a0565b801561231b5780601f106122f05761010080835404028352916020019161231b565b820191906000526020600020905b8154815290600101906020018083116122fe57829003601f168201915b505050505090806003018054612330906141a0565b80601f016020809104026020016040519081016040528092919081815260200182805461235c906141a0565b80156123a95780601f1061237e576101008083540402835291602001916123a9565b820191906000526020600020905b81548152906001019060200180831161238c57829003601f168201915b5050505050908060040180546123be906141a0565b80601f01602080910402602001604051908101604052809291908181526020018280546123ea906141a0565b80156124375780601f1061240c57610100808354040283529160200191612437565b820191906000526020600020905b81548152906001019060200180831161241a57829003601f168201915b50505050509080600501805461244c906141a0565b80601f0160208091040260200160405190810160405280929190818152602001828054612478906141a0565b80156124c55780601f1061249a576101008083540402835291602001916124c5565b820191906000526020600020905b8154815290600101906020018083116124a857829003601f168201915b5050505050908060060154908060070160009054906101000a900460ff16905088565b6000600180549050905090565b60008054906101000a900473ffffffffffffffffffffffffffffffffffffffff1673ffffffffffffffffffffffffffffffffffffffff163373ffffffffffffffffffffffffffffffffffffffff1614612583576040517f08c379a000000000000000000000000000000000000000000000000000000000815260040161257a90613d63565b60405180910390fd5b6001600060146101000a81548160ff0219169083151502179055507f258a7c8a176359d1dd4b5872009764b97f6228ed4dfc610540018b756f6f22bd60405160405180910390a1565b600560008273ffffffffffffffffffffffffffffffffffffffff1673ffffffffffffffffffffffffffffffffffffffff16815260200190815260200160002060070160009054906101000a900460ff1661265b576040517f08c379a000000000000000000000000000000000000000000000000000000000815260040161265290613d23565b60405180910390fd5b6000600560008373ffffffffffffffffffffffffffffffffffffffff1673ffffffffffffffffffffffffffffffffffffffff168152602001908152602001600020604051806101000160405290816000820160009054906101000a900473ffffffffffffffffffffffffffffffffffffffff1673ffffffffffffffffffffffffffffffffffffffff1673ffffffffffffffffffffffffffffffffffffffff16815260200160018201805461270e906141a0565b80601f016020809104026020016040519081016040528092919081815260200182805461273a906141a0565b80156127875780601f1061275c57610100808354040283529160200191612787565b820191906000526020600020905b81548152906001019060200180831161276a57829003601f168201915b505050505081526020016002820180546127a0906141a0565b80601f01602080910402602001604051908101604052809291908181526020018280546127cc906141a0565b80156128195780601f106127ee57610100808354040283529160200191612819565b820191906000526020600020905b8154815290600101906020018083116127fc57829003601f168201915b50505050508152602001600382018054612832906141a0565b80601f016020809104026020016040519081016040528092919081815260200182805461285e906141a0565b80156128ab5780601f10612880576101008083540402835291602001916128ab565b820191906000526020600020905b81548152906001019060200180831161288e57829003601f168201915b505050505081526020016004820180546128c4906141a0565b80601f01602080910402602001604051908101604052809291908181526020018280546128f0906141a0565b801561293d5780601f106129125761010080835404028352916020019161293d565b820191906000526020600020905b81548152906001019060200180831161292057829003601f168201915b50505050508152602001600582018054612956906141a0565b80601f0160208091040260200160405190810160405280929190818152602001828054612982906141a0565b80156129cf5780601f106129a4576101008083540402835291602001916129cf565b820191906000526020600020905b8154815290600101906020018083116129b257829003601f168201915b50505050508152602001600682015481526020016007820160009054906101000a900460ff16151515158152505090508060c0015183604051602001612a159190613a3f565b60405160208183030381529060405280519060200120148015612a8757508060400151604051602001612a489190613a3f565b6040516020818303038152906040528051906020012084604051602001612a6f9190613a3f565b60405160208183030381529060405280519060200120145b612ac6576040517f08c379a0000000000000000000000000000000000000000000000000000000008152600401612abd90613ce3565b60405180910390fd5b8173ffffffffffffffffffffffffffffffffffffffff167f048e252d5e4f0eb06f35f4b2d35d1c46d725d11d87b685253169fa84a995e14160405160405180910390a250505050565b6000600560008373ffffffffffffffffffffffffffffffffffffffff1673ffffffffffffffffffffffffffffffffffffffff16815260200190815260200160002060070160009054906101000a900460ff169050919050565b600060149054906101000a900460ff1615612bb8576040517f08c379a0000000000000000000000000000000000000000000000000000000008152600401612baf90613d43565b60405180910390fd5b600260008973ffffffffffffffffffffffffffffffffffffffff1673ffffffffffffffffffffffffffffffffffffffff16815260200190815260200160002060009054906101000a900460ff1615612c45576040517f08c379a0000000000000000000000000000000000000000000000000000000008152600401612c3c90613da3565b60405180910390fd5b600060018080549050612c589190614082565b905060016040518061016001604052808381526020018c8152602001600081526020018b73ffffffffffffffffffffffffffffffffffffffff1681526020018a81526020018981526020018881526020018781526020018681526020018581526020018481525090806001815401808255809150506001900390600052602060002090600b0201600090919091909150600082015181600001556020820151816001019080519060200190612d0e929190612f2a565b506040820151816002015560608201518160030160006101000a81548173ffffffffffffffffffffffffffffffffffffffff021916908373ffffffffffffffffffffffffffffffffffffffff1602179055506080820151816004019080519060200190612d7c929190612f2a565b5060a0820151816005019080519060200190612d99929190612f2a565b5060c0820151816006015560e0820151816007019080519060200190612dc0929190612f2a565b50610100820151816008019080519060200190612dde929190612f2a565b50610120820151816009019080519060200190612dfc929190612f2a565b5061014082015181600a019080519060200190612e1a929190612f2a565b5050506001600260008b73ffffffffffffffffffffffffffffffffffffffff1673ffffffffffffffffffffffffffffffffffffffff16815260200190815260200160002060006101000a81548160ff0219169083151502179055507f5a022fc2e48a23651bbc4855c873bb1efcf861de8e23fe86fccc875d71b32fd2818b8b8b8b8b8b8b8b8b604051612eb69a99989796959493929190613e40565b60405180910390a150505050505050505050565b60046020528060005260406000206000915090505481565b600060149054906101000a900460ff1681565b60008082604051602001612f099190613a3f565b60405160208183030381529060405280519060200120905080915050919050565b828054612f36906141a0565b90600052602060002090601f016020900481019282612f585760008555612f9f565b82601f10612f7157805160ff1916838001178555612f9f565b82800160010185558215612f9f579182015b82811115612f9e578251825591602001919060010190612f83565b5b509050612fac9190613020565b5090565b604051806101600160405280600081526020016060815260200160008152602001600073ffffffffffffffffffffffffffffffffffffffff168152602001606081526020016060815260200160008152602001606081526020016060815260200160608152602001606081525090565b5b80821115613039576000816000905550600101613021565b5090565b600061305061304b8461401a565b613fe9565b90508281526020810184848401111561306857600080fd5b61307384828561415e565b509392505050565b60008135905061308a816142b9565b92915050565b600082601f8301126130a157600080fd5b81356130b184826020860161303d565b91505092915050565b6000813590506130c9816142d0565b92915050565b6000602082840312156130e157600080fd5b60006130ef8482850161307b565b91505092915050565b60008060006060848603121561310d57600080fd5b600061311b8682870161307b565b935050602084013567ffffffffffffffff81111561313857600080fd5b61314486828701613090565b925050604084013567ffffffffffffffff81111561316157600080fd5b61316d86828701613090565b9150509250925092565b600080600080600080600060e0888a03121561319257600080fd5b600088013567ffffffffffffffff8111156131ac57600080fd5b6131b88a828b01613090565b97505060206131c98a828b0161307b565b965050604088013567ffffffffffffffff8111156131e657600080fd5b6131f28a828b01613090565b955050606088013567ffffffffffffffff81111561320f57600080fd5b61321b8a828b01613090565b945050608088013567ffffffffffffffff81111561323857600080fd5b6132448a828b01613090565b93505060a088013567ffffffffffffffff81111561326157600080fd5b61326d8a828b01613090565b92505060c088013567ffffffffffffffff81111561328a57600080fd5b6132968a828b01613090565b91505092959891949750929550565b60008060008060008060008060006101208a8c0312156132c457600080fd5b60008a013567ffffffffffffffff8111156132de57600080fd5b6132ea8c828d01613090565b99505060206132fb8c828d0161307b565b98505060408a013567ffffffffffffffff81111561331857600080fd5b6133248c828d01613090565b97505060608a013567ffffffffffffffff81111561334157600080fd5b61334d8c828d01613090565b965050608061335e8c828d016130ba565b95505060a08a013567ffffffffffffffff81111561337b57600080fd5b6133878c828d01613090565b94505060c08a013567ffffffffffffffff8111156133a457600080fd5b6133b08c828d01613090565b93505060e08a013567ffffffffffffffff8111156133cd57600080fd5b6133d98c828d01613090565b9250506101008a013567ffffffffffffffff8111156133f757600080fd5b6134038c828d01613090565b9150509295985092959850929598565b60008060006060848603121561342857600080fd5b600084013567ffffffffffffffff81111561344257600080fd5b61344e86828701613090565b935050602084013567ffffffffffffffff81111561346b57600080fd5b61347786828701613090565b92505060406134888682870161307b565b9150509250925092565b6000602082840312156134a457600080fd5b60006134b2848285016130ba565b91505092915050565b600080604083850312156134ce57600080fd5b60006134dc858286016130ba565b92505060206134ed8582860161307b565b9150509250929050565b6135008161410c565b82525050565b61350f8161410c565b82525050565b61351e8161411e565b82525050565b61352d8161412a565b82525050565b600061353e8261404a565b6135488185614055565b935061355881856020860161416d565b613561816142a8565b840191505092915050565b60006135778261404a565b6135818185614066565b935061359181856020860161416d565b61359a816142a8565b840191505092915050565b60006135b08261404a565b6135ba8185614077565b93506135ca81856020860161416d565b80840191505092915050565b60006135e3601783614066565b91507f596f75206861766520616c726561647920766f7465642e0000000000000000006000830152602082019050919050565b6000613623602b83614066565b91507f43616e6e6f74206465636c61726520726573756c74207768696c6520766f746960008301527f6e67206973206f70656e2e0000000000000000000000000000000000000000006020830152604082019050919050565b6000613689601283614066565b91507f496e636f72726563742070617373776f726400000000000000000000000000006000830152602082019050919050565b60006136c9601783614066565b91507f456c656374696f6e206973207374696c6c206f70656e2e0000000000000000006000830152602082019050919050565b6000613709601883614066565b91507f566f746572206973206e6f7420726567697374657265642e00000000000000006000830152602082019050919050565b6000613749602983614066565b91507f43616e206e6f74207265676973746572207768656e20456c656374696f6e206960008301527f732072756e6e696e6700000000000000000000000000000000000000000000006020830152604082019050919050565b60006137af602783614066565b91507f4f6e6c7920746865206f776e65722063616e20706572666f726d20746869732060008301527f616374696f6e2e000000000000000000000000000000000000000000000000006020830152604082019050919050565b6000613815601583614066565b91507f41646d696e20616c7265616479206578697374732e00000000000000000000006000830152602082019050919050565b6000613855601c83614066565b91507f566f74657220697320616c726561647920726567697374657265642e000000006000830152602082019050919050565b6000613895601183614066565b91507f566f74696e6720697320636c6f7365642e0000000000000000000000000000006000830152602082019050919050565b60006138d5601583614066565b91507f496e76616c69642063616e6469646174652049442e00000000000000000000006000830152602082019050919050565b6000610160830160008301516139216000860182613a21565b50602083015184820360208601526139398282613533565b915050604083015161394e6040860182613a21565b50606083015161396160608601826134f7565b50608083015184820360808601526139798282613533565b91505060a083015184820360a08601526139938282613533565b91505060c08301516139a860c0860182613a21565b5060e083015184820360e08601526139c08282613533565b9150506101008301518482036101008601526139dc8282613533565b9150506101208301518482036101208601526139f88282613533565b915050610140830151848203610140860152613a148282613533565b9150508091505092915050565b613a2a81614154565b82525050565b613a3981614154565b82525050565b6000613a4b82846135a5565b915081905092915050565b6000602082019050613a6b6000830184613506565b92915050565b600061010082019050613a87600083018b613506565b8181036020830152613a99818a61356c565b90508181036040830152613aad818961356c565b90508181036060830152613ac1818861356c565b90508181036080830152613ad5818761356c565b905081810360a0830152613ae9818661356c565b9050613af860c0830185613524565b613b0560e0830184613515565b9998505050505050505050565b6000602082019050613b276000830184613515565b92915050565b600060c0820190508181036000830152613b47818961356c565b9050613b566020830188613506565b8181036040830152613b68818761356c565b90508181036060830152613b7c818661356c565b90508181036080830152613b90818561356c565b905081810360a0830152613ba4818461356c565b9050979650505050505050565b60006080820190508181036000830152613bcb818761356c565b90508181036020830152613bdf818661356c565b9050613bee6040830185613506565b613bfb6060830184613515565b95945050505050565b600060a0820190508181036000830152613c1e818861356c565b90508181036020830152613c32818761356c565b90508181036040830152613c46818661356c565b9050613c556060830185613a30565b8181036080830152613c67818461356c565b90509695505050505050565b60006040820190508181036000830152613c8d818561356c565b9050613c9c6020830184613a30565b9392505050565b60006020820190508181036000830152613cbc816135d6565b9050919050565b60006020820190508181036000830152613cdc81613616565b9050919050565b60006020820190508181036000830152613cfc8161367c565b9050919050565b60006020820190508181036000830152613d1c816136bc565b9050919050565b60006020820190508181036000830152613d3c816136fc565b9050919050565b60006020820190508181036000830152613d5c8161373c565b9050919050565b60006020820190508181036000830152613d7c816137a2565b9050919050565b60006020820190508181036000830152613d9c81613808565b9050919050565b60006020820190508181036000830152613dbc81613848565b9050919050565b60006020820190508181036000830152613ddc81613888565b9050919050565b60006020820190508181036000830152613dfc816138c8565b9050919050565b60006020820190508181036000830152613e1d8184613908565b905092915050565b6000602082019050613e3a6000830184613a30565b92915050565b600061014082019050613e56600083018d613a30565b8181036020830152613e68818c61356c565b9050613e77604083018b613506565b8181036060830152613e89818a61356c565b90508181036080830152613e9d818961356c565b9050613eac60a0830188613a30565b81810360c0830152613ebe818761356c565b905081810360e0830152613ed2818661356c565b9050818103610100830152613ee7818561356c565b9050818103610120830152613efc818461356c565b90509b9a5050505050505050505050565b600061016082019050613f23600083018e613a30565b8181036020830152613f35818d61356c565b9050613f44604083018c613a30565b613f51606083018b613506565b8181036080830152613f63818a61356c565b905081810360a0830152613f77818961356c565b9050613f8660c0830188613a30565b81810360e0830152613f98818761356c565b9050818103610100830152613fad818661356c565b9050818103610120830152613fc2818561356c565b9050818103610140830152613fd7818461356c565b90509c9b505050505050505050505050565b6000604051905081810181811067ffffffffffffffff821117156140105761400f614279565b5b8060405250919050565b600067ffffffffffffffff82111561403557614034614279565b5b601f19601f8301169050602081019050919050565b600081519050919050565b600082825260208201905092915050565b600082825260208201905092915050565b600081905092915050565b600061408d82614154565b915061409883614154565b9250827fffffffffffffffffffffffffffffffffffffffffffffffffffffffffffffffff038211156140cd576140cc61421b565b5b828201905092915050565b60006140e382614154565b91506140ee83614154565b9250828210156141015761410061421b565b5b828203905092915050565b600061411782614134565b9050919050565b60008115159050919050565b6000819050919050565b600073ffffffffffffffffffffffffffffffffffffffff82169050919050565b6000819050919050565b82818337600083830152505050565b60005b8381101561418b578082015181840152602081019050614170565b8381111561419a576000848401525b50505050565b600060028204905060018216806141b857607f821691505b602082108114156141cc576141cb61424a565b5b50919050565b60006141dd82614154565b91507fffffffffffffffffffffffffffffffffffffffffffffffffffffffffffffffff8214156142105761420f61421b565b5b600182019050919050565b7f4e487b7100000000000000000000000000000000000000000000000000000000600052601160045260246000fd5b7f4e487b7100000000000000000000000000000000000000000000000000000000600052602260045260246000fd5b7f4e487b7100000000000000000000000000000000000000000000000000000000600052604160045260246000fd5b6000601f19601f8301169050919050565b6142c28161410c565b81146142cd57600080fd5b50565b6142d981614154565b81146142e457600080fd5b5056fea2646970667358221220bd0031919e701bba4dc0d6f7de10ef04ada83c56c92fd654092353efa25768b664736f6c63430008000033",
  "linkReferences": {},
  "deployedLinkReferences": {}
}