{
  "_format": "hh-sol-artifact-1",
  "contractName": "Election",
  "sourceName": "contracts/Election.sol",
  "abi": [
    {
      "inputs": [],
      "stateMutability": "nonpayable",
      "type": "constructor"
    },
    {
      "anonymous": false,
      "inputs": [],
      "name": "ElectionClosed",
      "type": "event"
    },
    {
      "anonymous": false,
      "inputs": [],
      "name": "ElectionOpen",
      "type": "event"
    },
    {
      "anonymous": false,
      "inputs": [
        {
          "indexed": false,
          "internalType": "string",
          "name": "winnerName",
          "type": "string"
        },
        {
          "indexed": false,
          "internalType": "uint256",
          "name": "winnerVoteCount",
          "type": "uint256"
        }
      ],
      "name": "ElectionResultDeclared",
      "type": "event"
    },
    {
      "anonymous": false,
      "inputs": [
        {
          "indexed": false,
          "internalType": "uint256",
          "name": "candidateId",
          "type": "uint256"
        },
        {
          "indexed": false,
          "internalType": "string",
          "name": "name",
          "type": "string"
        },
        {
          "indexed": false,
          "internalType": "address",
          "name": "ethereumAddress",
          "type": "address"
        },
        {
          "indexed": false,
          "internalType": "string",
          "name": "email",
          "type": "string"
        },
        {
          "indexed": false,
          "internalType": "string",
          "name": "mobileNumber",
          "type": "string"
        },
        {
          "indexed": false,
          "internalType": "uint256",
          "name": "dateOfBirth",
          "type": "uint256"
        },
        {
          "indexed": false,
          "internalType": "string",
          "name": "aadharNumber",
          "type": "string"
        },
        {
          "indexed": false,
          "internalType": "string",
          "name": "voterId",
          "type": "string"
        },
        {
          "indexed": false,
          "internalType": "string",
          "name": "homeAddress",
          "type": "string"
        },
        {
          "indexed": false,
          "internalType": "string",
          "name": "ipfsImageHash",
          "type": "string"
        }
      ],
      "name": "NewCandidate",
      "type": "event"
    },
    {
      "anonymous": false,
      "inputs": [
        {
          "indexed": true,
          "internalType": "address",
          "name": "voter",
          "type": "address"
        },
        {
          "indexed": false,
          "internalType": "uint256",
          "name": "candidateId",
          "type": "uint256"
        }
      ],
      "name": "Voted",
      "type": "event"
    },
    {
      "anonymous": false,
      "inputs": [
        {
          "indexed": true,
          "internalType": "address",
          "name": "voterAddress",
          "type": "address"
        }
      ],
      "name": "VoterLoggedIn",
      "type": "event"
    },
    {
      "anonymous": false,
      "inputs": [
        {
          "indexed": false,
          "internalType": "string",
          "name": "name",
          "type": "string"
        },
        {
          "indexed": false,
          "internalType": "address",
          "name": "voterAddress",
          "type": "address"
        },
        {
          "indexed": false,
          "internalType": "string",
          "name": "email",
          "type": "string"
        },
        {
          "indexed": false,
          "internalType": "string",
          "name": "mobileNumber",
          "type": "string"
        },
        {
          "indexed": false,
          "internalType": "string",
          "name": "voterId",
          "type": "string"
        },
        {
          "indexed": false,
          "internalType": "string",
          "name": "ipfsImageHash",
          "type": "string"
        }
      ],
      "name": "VoterRegistered",
      "type": "event"
    },
    {
      "inputs": [
        {
          "internalType": "address",
          "name": "_adminAddress",
          "type": "address"
        },
        {
          "internalType": "string",
          "name": "_name",
          "type": "string"
        },
        {
          "internalType": "string",
          "name": "_email",
          "type": "string"
        }
      ],
      "name": "addAdmin",
      "outputs": [],
      "stateMutability": "nonpayable",
      "type": "function"
    },
    {
      "inputs": [
        {
          "internalType": "string",
          "name": "_name",
          "type": "string"
        },
        {
          "internalType": "address",
          "name": "_ethereumAddress",
          "type": "address"
        },
        {
          "internalType": "string",
          "name": "_email",
          "type": "string"
        },
        {
          "internalType": "string",
          "name": "_mobileNumber",
          "type": "string"
        },
        {
          "internalType": "uint256",
          "name": "_dateOfBirth",
          "type": "uint256"
        },
        {
          "internalType": "string",
          "name": "_aadharNumber",
          "type": "string"
        },
        {
          "internalType": "string",
          "name": "_voterId",
          "type": "string"
        },
        {
          "internalType": "string",
          "name": "_homeAddress",
          "type": "string"
        },
        {
          "internalType": "string",
          "name": "_ipfsImageHash",
          "type": "string"
        }
      ],
      "name": "addCandidate",
      "outputs": [],
      "stateMutability": "nonpayable",
      "type": "function"
    },
    {
      "inputs": [
        {
          "internalType": "uint256",
          "name": "",
          "type": "uint256"
        }
      ],
      "name": "adminAccounts",
      "outputs": [
        {
          "internalType": "address",
          "name": "",
          "type": "address"
        }
      ],
      "stateMutability": "view",
      "type": "function"
    },
    {
      "inputs": [
        {
          "internalType": "address",
          "name": "",
          "type": "address"
        }
      ],
      "name": "admins",
      "outputs": [
        {
          "internalType": "string",
          "name": "name",
          "type": "string"
        },
        {
          "internalType": "string",
          "name": "email",
          "type": "string"
        },
        {
          "internalType": "address",
          "name": "ethereumAddress",
          "type": "address"
        },
        {
          "internalType": "bool",
          "name": "isAdmin",
          "type": "bool"
        }
      ],
      "stateMutability": "view",
      "type": "function"
    },
    {
      "inputs": [
        {
          "internalType": "uint256",
          "name": "",
          "type": "uint256"
        }
      ],
      "name": "candidates",
      "outputs": [
        {
          "internalType": "uint256",
          "name": "id",
          "type": "uint256"
        },
        {
          "internalType": "string",
          "name": "name",
          "type": "string"
        },
        {
          "internalType": "uint256",
          "name": "voteCount",
          "type": "uint256"
        },
        {
          "internalType": "address",
          "name": "ethereumAddress",
          "type": "address"
        },
        {
          "internalType": "string",
          "name": "email",
          "type": "string"
        },
        {
          "internalType": "string",
          "name": "mobileNumber",
          "type": "string"
        },
        {
          "internalType": "uint256",
          "name": "dateOfBirth",
          "type": "uint256"
        },
        {
          "internalType": "string",
          "name": "aadharNumber",
          "type": "string"
        },
        {
          "internalType": "string",
          "name": "voterId",
          "type": "string"
        },
        {
          "internalType": "string",
          "name": "homeAddress",
          "type": "string"
        },
        {
          "internalType": "string",
          "name": "ipfsImageHash",
          "type": "string"
        }
      ],
      "stateMutability": "view",
      "type": "function"
    },
    {
      "inputs": [
        {
          "internalType": "address",
          "name": "",
          "type": "address"
        }
      ],
      "name": "candidatesRegistered",
      "outputs": [
        {
          "internalType": "bool",
          "name": "",
          "type": "bool"
        }
      ],
      "stateMutability": "view",
      "type": "function"
    },
    {
      "inputs": [
        {
          "internalType": "address",
          "name": "_voterEthAddress",
          "type": "address"
        }
      ],
      "name": "checkHasVoted",
      "outputs": [
        {
          "internalType": "bool",
          "name": "",
          "type": "bool"
        }
      ],
      "stateMutability": "view",
      "type": "function"
    },
    {
      "inputs": [],
      "name": "closeElection",
      "outputs": [],
      "stateMutability": "nonpayable",
      "type": "function"
    },
    {
      "inputs": [],
      "name": "declareElectionResult",
      "outputs": [],
      "stateMutability": "nonpayable",
      "type": "function"
    },
    {
      "inputs": [
        {
          "internalType": "uint256",
          "name": "_candidateId",
          "type": "uint256"
        }
      ],
      "name": "getCandidate",
      "outputs": [
        {
          "internalType": "string",
          "name": "name",
          "type": "string"
        },
        {
          "internalType": "string",
          "name": "email",
          "type": "string"
        },
        {
          "internalType": "string",
          "name": "mobileNumber",
          "type": "string"
        },
        {
          "internalType": "uint256",
          "name": "dateOfBirth",
          "type": "uint256"
        },
        {
          "internalType": "string",
          "name": "homeAddress",
          "type": "string"
        },
        {
          "internalType": "uint256",
          "name": "candidateId",
          "type": "uint256"
        }
      ],
      "stateMutability": "view",
      "type": "function"
    },
    {
      "inputs": [],
      "name": "getCandidatesCount",
      "outputs": [
        {
          "internalType": "uint256",
          "name": "",
          "type": "uint256"
        }
      ],
      "stateMutability": "view",
      "type": "function"
    },
    {
      "inputs": [],
      "name": "getIsVotingOpen",
      "outputs": [
        {
          "internalType": "bool",
          "name": "",
          "type": "bool"
        }
      ],
      "stateMutability": "view",
      "type": "function"
    },
    {
      "inputs": [],
      "name": "getOwner",
      "outputs": [
        {
          "internalType": "address",
          "name": "tempOwner",
          "type": "address"
        }
      ],
      "stateMutability": "view",
      "type": "function"
    },
    {
      "inputs": [],
      "name": "getResultsDeclared",
      "outputs": [
        {
          "internalType": "bool",
          "name": "",
          "type": "bool"
        }
      ],
      "stateMutability": "view",
      "type": "function"
    },
    {
      "inputs": [],
      "name": "getWinnerId",
      "outputs": [
        {
          "internalType": "uint256",
          "name": "id",
          "type": "uint256"
        }
      ],
      "stateMutability": "view",
      "type": "function"
    },
    {
      "inputs": [],
      "name": "getWinnerName",
      "outputs": [
        {
          "internalType": "string",
          "name": "name",
          "type": "string"
        }
      ],
      "stateMutability": "view",
      "type": "function"
    },
    {
      "inputs": [],
      "name": "getWinnerVoteCount",
      "outputs": [
        {
          "internalType": "uint256",
          "name": "voteCount",
          "type": "uint256"
        }
      ],
      "stateMutability": "view",
      "type": "function"
    },
    {
      "inputs": [
        {
          "internalType": "address",
          "name": "",
          "type": "address"
        }
      ],
      "name": "hasVoted",
      "outputs": [
        {
          "internalType": "bool",
          "name": "",
          "type": "bool"
        }
      ],
      "stateMutability": "view",
      "type": "function"
    },
    {
      "inputs": [
        {
          "internalType": "address",
          "name": "_ethereumAddress",
          "type": "address"
        }
      ],
      "name": "isVoterRegistered",
      "outputs": [
        {
          "internalType": "bool",
          "name": "",
          "type": "bool"
        }
      ],
      "stateMutability": "view",
      "type": "function"
    },
    {
      "inputs": [],
      "name": "isVotingOpen",
      "outputs": [
        {
          "internalType": "bool",
          "name": "",
          "type": "bool"
        }
      ],
      "stateMutability": "view",
      "type": "function"
    },
    {
      "inputs": [
        {
          "internalType": "string",
          "name": "_email",
          "type": "string"
        },
        {
          "internalType": "string",
          "name": "_password",
          "type": "string"
        },
        {
          "internalType": "address",
          "name": "_ethereumAddress",
          "type": "address"
        }
      ],
      "name": "loginVoter",
      "outputs": [],
      "stateMutability": "nonpayable",
      "type": "function"
    },
    {
      "inputs": [],
      "name": "openElection",
      "outputs": [],
      "stateMutability": "nonpayable",
      "type": "function"
    },
    {
      "inputs": [],
      "name": "owner",
      "outputs": [
        {
          "internalType": "address",
          "name": "",
          "type": "address"
        }
      ],
      "stateMutability": "view",
      "type": "function"
    },
    {
      "inputs": [
        {
          "internalType": "string",
          "name": "_name",
          "type": "string"
        },
        {
          "internalType": "address",
          "name": "_ethereumAddress",
          "type": "address"
        },
        {
          "internalType": "string",
          "name": "_email",
          "type": "string"
        },
        {
          "internalType": "string",
          "name": "_mobileNumber",
          "type": "string"
        },
        {
          "internalType": "string",
          "name": "_voterId",
          "type": "string"
        },
        {
          "internalType": "string",
          "name": "_ipfsImageHash",
          "type": "string"
        },
        {
          "internalType": "string",
          "name": "_password",
          "type": "string"
        }
      ],
      "name": "registerVoter",
      "outputs": [],
      "stateMutability": "nonpayable",
      "type": "function"
    },
    {
      "inputs": [
        {
          "internalType": "uint256",
          "name": "",
          "type": "uint256"
        }
      ],
      "name": "registeredVoters",
      "outputs": [
        {
          "internalType": "address",
          "name": "",
          "type": "address"
        }
      ],
      "stateMutability": "view",
      "type": "function"
    },
    {
      "inputs": [],
      "name": "resultsDeclared",
      "outputs": [
        {
          "internalType": "bool",
          "name": "",
          "type": "bool"
        }
      ],
      "stateMutability": "view",
      "type": "function"
    },
    {
      "inputs": [
        {
          "internalType": "address",
          "name": "",
          "type": "address"
        }
      ],
      "name": "userVote",
      "outputs": [
        {
          "internalType": "uint256",
          "name": "",
          "type": "uint256"
        }
      ],
      "stateMutability": "view",
      "type": "function"
    },
    {
      "inputs": [
        {
          "internalType": "uint256",
          "name": "_candidateId",
          "type": "uint256"
        },
        {
          "internalType": "address",
          "name": "_ethereumAddress",
          "type": "address"
        }
      ],
      "name": "vote",
      "outputs": [],
      "stateMutability": "nonpayable",
      "type": "function"
    },
    {
      "inputs": [
        {
          "internalType": "address",
          "name": "",
          "type": "address"
        }
      ],
      "name": "voters",
      "outputs": [
        {
          "internalType": "address",
          "name": "ethereumAddress",
          "type": "address"
        },
        {
          "internalType": "string",
          "name": "name",
          "type": "string"
        },
        {
          "internalType": "string",
          "name": "email",
          "type": "string"
        },
        {
          "internalType": "string",
          "name": "mobileNumber",
          "type": "string"
        },
        {
          "internalType": "string",
          "name": "voterId",
          "type": "string"
        },
        {
          "internalType": "string",
          "name": "ipfsImageHash",
          "type": "string"
        },
        {
          "internalType": "bytes32",
          "name": "passwordHash",
          "type": "bytes32"
        },
        {
          "internalType": "bool",
          "name": "isRegistered",
          "type": "bool"
        }
      ],
      "stateMutability": "view",
      "type": "function"
    },
    {
      "inputs": [],
      "name": "winner",
      "outputs": [
        {
          "internalType": "uint256",
          "name": "id",
          "type": "uint256"
        },
        {
          "internalType": "string",
          "name": "name",
          "type": "string"
        },
        {
          "internalType": "uint256",
          "name": "voteCount",
          "type": "uint256"
        },
        {
          "internalType": "address",
          "name": "ethereumAddress",
          "type": "address"
        }
      ],
      "stateMutability": "view",
      "type": "function"
    }
  ],
  "bytecode": "0x608060405234801561001057600080fd5b50336000806101000a81548173ffffffffffffffffffffffffffffffffffffffff021916908373ffffffffffffffffffffffffffffffffffffffff16021790555060008060146101000a81548160ff02191690831515021790555060008060156101000a81548160ff0219169083151502179055506142e4806100946000396000f3fe608060405234801561001057600080fd5b50600436106101da5760003560e01c80638b55c27a11610104578063d0b7c7ff116100a2578063ec8f807611610071578063ec8f807614610577578063f31adac314610593578063f5ba1c87146105b1578063fa7f1bae146105e1576101da565b8063d0b7c7ff146104da578063dfbf53ae146104f6578063e35f8cef14610517578063eb2119db14610547576101da565b8063a2addd68116100de578063a2addd681461044b578063a3ec138d1461047b578063bb9aa28f146104b2578063c5d00f5d146104d0576101da565b80638b55c27a146103f15780638da5cb5b1461040f578063965473bd1461042d576101da565b80633fa858561161017c5780636c28fdb11161014b5780636c28fdb1146103a35780636c6c32d0146103ad5780636ec0176d146103b7578063893d20e8146103d3576101da565b80633fa858561461030657806340bcb76914610336578063429b62e5146103545780635babf5ef14610387576101da565b80632436e06b116101b85780632436e06b146102495780632bfda515146102795780633477ee2e1461029757806335b8e820146102d1576101da565b806302d947ef146101df57806309eef43e146101fb5780630aea68061461022b575b600080fd5b6101f960048036038101906101f49190613523565b6105ff565b005b61021560048036038101906102109190613137565b61088a565b6040516102229190613a70565b60405180910390f35b6102336108aa565b6040516102409190613db1565b60405180910390f35b610263600480360381019061025e91906134fa565b610906565b60405161027091906139b4565b60405180910390f35b610281610945565b60405161028e9190613a8b565b60405180910390f35b6102b160048036038101906102ac91906134fa565b610a29565b6040516102c89b9a99989796959493929190613ee5565b60405180910390f35b6102eb60048036038101906102e691906134fa565b610e6b565b6040516102fd96959493929190613b84565b60405180910390f35b610320600480360381019061031b9190613137565b6113d0565b60405161032d9190613a70565b60405180910390f35b61033e6113f0565b60405161034b9190613a70565b60405180910390f35b61036e60048036038101906103699190613137565b611406565b60405161037e9493929190613b31565b60405180910390f35b6103a1600480360381019061039c9190613160565b611573565b005b6103ab611816565b005b6103b5611cbd565b005b6103d160048036038101906103cc91906131df565b611d93565b005b6103db612075565b6040516103e891906139b4565b60405180910390f35b6103f961209e565b6040516104069190613a70565b60405180910390f35b6104176120b4565b60405161042491906139b4565b60405180910390f35b6104356120d8565b6040516104429190613a70565b60405180910390f35b610465600480360381019061046091906134fa565b6120eb565b60405161047291906139b4565b60405180910390f35b61049560048036038101906104909190613137565b61212a565b6040516104a99897969594939291906139cf565b60405180910390f35b6104ba612447565b6040516104c79190613db1565b60405180910390f35b6104d8612454565b005b6104f460048036038101906104ef919061347b565b61252b565b005b6104fe612a6e565b60405161050e9493929190613e99565b60405180910390f35b610531600480360381019061052c9190613137565b612b34565b60405161053e9190613a70565b60405180910390f35b610561600480360381019061055c9190613137565b612b8a565b60405161056e9190613a70565b60405180910390f35b610591600480360381019061058c919061330d565b612be3565b005b61059b612f46565b6040516105a89190613db1565b60405180910390f35b6105cb60048036038101906105c69190613137565b612fa2565b6040516105d89190613db1565b60405180910390f35b6105e9612fba565b6040516105f69190613a70565b60405180910390f35b600060149054906101000a900460ff1661064e576040517f08c379a000000000000000000000000000000000000000000000000000000000815260040161064590613d71565b60405180910390fd5b600760008273ffffffffffffffffffffffffffffffffffffffff1673ffffffffffffffffffffffffffffffffffffffff16815260200190815260200160002060009054906101000a900460ff16156106db576040517f08c379a00000000000000000000000000000000000000000000000000000000081526004016106d290613c31565b60405180910390fd5b6000821180156106f057506005805490508211155b61072f576040517f08c379a000000000000000000000000000000000000000000000000000000000815260040161072690613d91565b60405180910390fd5b6001600760008373ffffffffffffffffffffffffffffffffffffffff1673ffffffffffffffffffffffffffffffffffffffff16815260200190815260200160002060006101000a81548160ff02191690831515021790555081600860008373ffffffffffffffffffffffffffffffffffffffff1673ffffffffffffffffffffffffffffffffffffffff1681526020019081526020016000208190555060056001836107da919061409f565b81548110610811577f4e487b7100000000000000000000000000000000000000000000000000000000600052603260045260246000fd5b90600052602060002090600b0201600201600081548092919061083390614199565b91905055508073ffffffffffffffffffffffffffffffffffffffff167f4d99b957a2bc29a30ebd96a7be8e68fe50a3c701db28a91436490b7d53870ca48360405161087e9190613db1565b60405180910390a25050565b60076020528060005260406000206000915054906101000a900460ff1681565b60008060149054906101000a900460ff16156108fb576040517f08c379a00000000000000000000000000000000000000000000000000000000081526004016108f290613c91565b60405180910390fd5b600160000154905090565b600a818154811061091657600080fd5b906000526020600020016000915054906101000a900473ffffffffffffffffffffffffffffffffffffffff1681565b6060600060149054906101000a900460ff1615610997576040517f08c379a000000000000000000000000000000000000000000000000000000000815260040161098e90613c91565b60405180910390fd5b6001800180546109a690614167565b80601f01602080910402602001604051908101604052809291908181526020018280546109d290614167565b8015610a1f5780601f106109f457610100808354040283529160200191610a1f565b820191906000526020600020905b815481529060010190602001808311610a0257829003601f168201915b5050505050905090565b60058181548110610a3957600080fd5b90600052602060002090600b0201600091509050806000015490806001018054610a6290614167565b80601f0160208091040260200160405190810160405280929190818152602001828054610a8e90614167565b8015610adb5780601f10610ab057610100808354040283529160200191610adb565b820191906000526020600020905b815481529060010190602001808311610abe57829003601f168201915b5050505050908060020154908060030160009054906101000a900473ffffffffffffffffffffffffffffffffffffffff1690806004018054610b1c90614167565b80601f0160208091040260200160405190810160405280929190818152602001828054610b4890614167565b8015610b955780601f10610b6a57610100808354040283529160200191610b95565b820191906000526020600020905b815481529060010190602001808311610b7857829003601f168201915b505050505090806005018054610baa90614167565b80601f0160208091040260200160405190810160405280929190818152602001828054610bd690614167565b8015610c235780601f10610bf857610100808354040283529160200191610c23565b820191906000526020600020905b815481529060010190602001808311610c0657829003601f168201915b505050505090806006015490806007018054610c3e90614167565b80601f0160208091040260200160405190810160405280929190818152602001828054610c6a90614167565b8015610cb75780601f10610c8c57610100808354040283529160200191610cb7565b820191906000526020600020905b815481529060010190602001808311610c9a57829003601f168201915b505050505090806008018054610ccc90614167565b80601f0160208091040260200160405190810160405280929190818152602001828054610cf890614167565b8015610d455780601f10610d1a57610100808354040283529160200191610d45565b820191906000526020600020905b815481529060010190602001808311610d2857829003601f168201915b505050505090806009018054610d5a90614167565b80601f0160208091040260200160405190810160405280929190818152602001828054610d8690614167565b8015610dd35780601f10610da857610100808354040283529160200191610dd3565b820191906000526020600020905b815481529060010190602001808311610db657829003601f168201915b50505050509080600a018054610de890614167565b80601f0160208091040260200160405190810160405280929190818152602001828054610e1490614167565b8015610e615780601f10610e3657610100808354040283529160200191610e61565b820191906000526020600020905b815481529060010190602001808311610e4457829003601f168201915b505050505090508b565b60608060606000606060008087118015610e8a57506005805490508711155b610ec9576040517f08c379a0000000000000000000000000000000000000000000000000000000008152600401610ec090613d91565b60405180910390fd5b60006005600189610eda919061409f565b81548110610f11577f4e487b7100000000000000000000000000000000000000000000000000000000600052603260045260246000fd5b90600052602060002090600b02016040518061016001604052908160008201548152602001600182018054610f4590614167565b80601f0160208091040260200160405190810160405280929190818152602001828054610f7190614167565b8015610fbe5780601f10610f9357610100808354040283529160200191610fbe565b820191906000526020600020905b815481529060010190602001808311610fa157829003601f168201915b50505050508152602001600282015481526020016003820160009054906101000a900473ffffffffffffffffffffffffffffffffffffffff1673ffffffffffffffffffffffffffffffffffffffff1673ffffffffffffffffffffffffffffffffffffffff16815260200160048201805461103790614167565b80601f016020809104026020016040519081016040528092919081815260200182805461106390614167565b80156110b05780601f10611085576101008083540402835291602001916110b0565b820191906000526020600020905b81548152906001019060200180831161109357829003601f168201915b505050505081526020016005820180546110c990614167565b80601f01602080910402602001604051908101604052809291908181526020018280546110f590614167565b80156111425780601f1061111757610100808354040283529160200191611142565b820191906000526020600020905b81548152906001019060200180831161112557829003601f168201915b505050505081526020016006820154815260200160078201805461116590614167565b80601f016020809104026020016040519081016040528092919081815260200182805461119190614167565b80156111de5780601f106111b3576101008083540402835291602001916111de565b820191906000526020600020905b8154815290600101906020018083116111c157829003601f168201915b505050505081526020016008820180546111f790614167565b80601f016020809104026020016040519081016040528092919081815260200182805461122390614167565b80156112705780601f1061124557610100808354040283529160200191611270565b820191906000526020600020905b81548152906001019060200180831161125357829003601f168201915b5050505050815260200160098201805461128990614167565b80601f01602080910402602001604051908101604052809291908181526020018280546112b590614167565b80156113025780601f106112d757610100808354040283529160200191611302565b820191906000526020600020905b8154815290600101906020018083116112e557829003601f168201915b50505050508152602001600a8201805461131b90614167565b80601f016020809104026020016040519081016040528092919081815260200182805461134790614167565b80156113945780601f1061136957610100808354040283529160200191611394565b820191906000526020600020905b81548152906001019060200180831161137757829003601f168201915b5050505050815250509050806020015181608001518260a001518360c001518461012001518c9650965096509650965096505091939550919395565b60066020528060005260406000206000915054906101000a900460ff1681565b60008060159054906101000a900460ff16905090565b600b60205280600052604060002060009150905080600001805461142990614167565b80601f016020809104026020016040519081016040528092919081815260200182805461145590614167565b80156114a25780601f10611477576101008083540402835291602001916114a2565b820191906000526020600020905b81548152906001019060200180831161148557829003601f168201915b5050505050908060010180546114b790614167565b80601f01602080910402602001604051908101604052809291908181526020018280546114e390614167565b80156115305780601f1061150557610100808354040283529160200191611530565b820191906000526020600020905b81548152906001019060200180831161151357829003601f168201915b5050505050908060020160009054906101000a900473ffffffffffffffffffffffffffffffffffffffff16908060020160149054906101000a900460ff16905084565b60008054906101000a900473ffffffffffffffffffffffffffffffffffffffff1673ffffffffffffffffffffffffffffffffffffffff163373ffffffffffffffffffffffffffffffffffffffff1614611601576040517f08c379a00000000000000000000000000000000000000000000000000000000081526004016115f890613d11565b60405180910390fd5b600b60008473ffffffffffffffffffffffffffffffffffffffff1673ffffffffffffffffffffffffffffffffffffffff16815260200190815260200160002060020160149054906101000a900460ff1615611691576040517f08c379a000000000000000000000000000000000000000000000000000000000815260040161168890613d31565b60405180910390fd5b60405180608001604052808381526020018281526020018473ffffffffffffffffffffffffffffffffffffffff16815260200160011515815250600b60008573ffffffffffffffffffffffffffffffffffffffff1673ffffffffffffffffffffffffffffffffffffffff1681526020019081526020016000206000820151816000019080519060200190611726929190613002565b506020820151816001019080519060200190611743929190613002565b5060408201518160020160006101000a81548173ffffffffffffffffffffffffffffffffffffffff021916908373ffffffffffffffffffffffffffffffffffffffff16021790555060608201518160020160146101000a81548160ff021916908315150217905550905050600c839080600181540180825580915050600190039060005260206000200160009091909190916101000a81548173ffffffffffffffffffffffffffffffffffffffff021916908373ffffffffffffffffffffffffffffffffffffffff160217905550505050565b60008054906101000a900473ffffffffffffffffffffffffffffffffffffffff1673ffffffffffffffffffffffffffffffffffffffff163373ffffffffffffffffffffffffffffffffffffffff16146118a4576040517f08c379a000000000000000000000000000000000000000000000000000000000815260040161189b90613d11565b60405180910390fd5b600060149054906101000a900460ff16156118f4576040517f08c379a00000000000000000000000000000000000000000000000000000000081526004016118eb90613c51565b60405180910390fd5b60006005805490501161193c576040517f08c379a000000000000000000000000000000000000000000000000000000000815260040161193390613cd1565b60405180910390fd5b6000806001600060156101000a81548160ff02191690831515021790555060005b600580549050811015611a1b5782600582815481106119a5577f4e487b7100000000000000000000000000000000000000000000000000000000600052603260045260246000fd5b90600052602060002090600b02016002015410611a1657600581815481106119f6577f4e487b7100000000000000000000000000000000000000000000000000000000600052603260045260246000fd5b90600052602060002090600b020160020154925080915080806001019150505b61195d565b5060008110611cb957600060058281548110611a60577f4e487b7100000000000000000000000000000000000000000000000000000000600052603260045260246000fd5b90600052602060002090600b02016001018054611a7c90614167565b80601f0160208091040260200160405190810160405280929190818152602001828054611aa890614167565b8015611af55780601f10611aca57610100808354040283529160200191611af5565b820191906000526020600020905b815481529060010190602001808311611ad857829003601f168201915b50505050509050600060058381548110611b38577f4e487b7100000000000000000000000000000000000000000000000000000000600052603260045260246000fd5b90600052602060002090600b0201600201549050600060058481548110611b88577f4e487b7100000000000000000000000000000000000000000000000000000000600052603260045260246000fd5b90600052602060002090600b020160030160009054906101000a900473ffffffffffffffffffffffffffffffffffffffff1690506040518060800160405280600186611bd49190614049565b81526020018481526020018381526020018273ffffffffffffffffffffffffffffffffffffffff168152506001600082015181600001556020820151816001019080519060200190611c27929190613002565b506040820151816002015560608201518160030160006101000a81548173ffffffffffffffffffffffffffffffffffffffff021916908373ffffffffffffffffffffffffffffffffffffffff1602179055509050507f1aaa99e411a940104e7b7866d6fc9317a3e67e76472e8d2776a9a8943112c3908383604051611cad929190613c01565b60405180910390a15050505b5050565b60008054906101000a900473ffffffffffffffffffffffffffffffffffffffff1673ffffffffffffffffffffffffffffffffffffffff163373ffffffffffffffffffffffffffffffffffffffff1614611d4b576040517f08c379a0000000000000000000000000000000000000000000000000000000008152600401611d4290613d11565b60405180910390fd5b60008060146101000a81548160ff0219169083151502179055507fa549b9addfc3693a1863ac5b0b13c42960d78df554c01ea6ac72a7db985df0cf60405160405180910390a1565b600960008773ffffffffffffffffffffffffffffffffffffffff1673ffffffffffffffffffffffffffffffffffffffff16815260200190815260200160002060070160009054906101000a900460ff1615611e23576040517f08c379a0000000000000000000000000000000000000000000000000000000008152600401611e1a90613d51565b60405180910390fd5b6000611e2e82612fcd565b90506040518061010001604052808873ffffffffffffffffffffffffffffffffffffffff16815260200189815260200187815260200186815260200185815260200184815260200182815260200160011515815250600960008973ffffffffffffffffffffffffffffffffffffffff1673ffffffffffffffffffffffffffffffffffffffff16815260200190815260200160002060008201518160000160006101000a81548173ffffffffffffffffffffffffffffffffffffffff021916908373ffffffffffffffffffffffffffffffffffffffff1602179055506020820151816001019080519060200190611f25929190613002565b506040820151816002019080519060200190611f42929190613002565b506060820151816003019080519060200190611f5f929190613002565b506080820151816004019080519060200190611f7c929190613002565b5060a0820151816005019080519060200190611f99929190613002565b5060c0820151816006015560e08201518160070160006101000a81548160ff021916908315150217905550905050600a879080600181540180825580915050600190039060005260206000200160009091909190916101000a81548173ffffffffffffffffffffffffffffffffffffffff021916908373ffffffffffffffffffffffffffffffffffffffff1602179055507f8233a1016d0e0c56cc3a1e7454caa9df82be4406ad9fd67a8f79c8bdca15f36388888888888860405161206396959493929190613aad565b60405180910390a15050505050505050565b60008060009054906101000a900473ffffffffffffffffffffffffffffffffffffffff16905090565b60008060149054906101000a900460ff16905090565b60008054906101000a900473ffffffffffffffffffffffffffffffffffffffff1681565b600060159054906101000a900460ff1681565b600c81815481106120fb57600080fd5b906000526020600020016000915054906101000a900473ffffffffffffffffffffffffffffffffffffffff1681565b60096020528060005260406000206000915090508060000160009054906101000a900473ffffffffffffffffffffffffffffffffffffffff169080600101805461217390614167565b80601f016020809104026020016040519081016040528092919081815260200182805461219f90614167565b80156121ec5780601f106121c1576101008083540402835291602001916121ec565b820191906000526020600020905b8154815290600101906020018083116121cf57829003601f168201915b50505050509080600201805461220190614167565b80601f016020809104026020016040519081016040528092919081815260200182805461222d90614167565b801561227a5780601f1061224f5761010080835404028352916020019161227a565b820191906000526020600020905b81548152906001019060200180831161225d57829003601f168201915b50505050509080600301805461228f90614167565b80601f01602080910402602001604051908101604052809291908181526020018280546122bb90614167565b80156123085780601f106122dd57610100808354040283529160200191612308565b820191906000526020600020905b8154815290600101906020018083116122eb57829003601f168201915b50505050509080600401805461231d90614167565b80601f016020809104026020016040519081016040528092919081815260200182805461234990614167565b80156123965780601f1061236b57610100808354040283529160200191612396565b820191906000526020600020905b81548152906001019060200180831161237957829003601f168201915b5050505050908060050180546123ab90614167565b80601f01602080910402602001604051908101604052809291908181526020018280546123d790614167565b80156124245780601f106123f957610100808354040283529160200191612424565b820191906000526020600020905b81548152906001019060200180831161240757829003601f168201915b5050505050908060060154908060070160009054906101000a900460ff16905088565b6000600580549050905090565b60008054906101000a900473ffffffffffffffffffffffffffffffffffffffff1673ffffffffffffffffffffffffffffffffffffffff163373ffffffffffffffffffffffffffffffffffffffff16146124e2576040517f08c379a00000000000000000000000000000000000000000000000000000000081526004016124d990613d11565b60405180910390fd5b6001600060146101000a81548160ff0219169083151502179055507f258a7c8a176359d1dd4b5872009764b97f6228ed4dfc610540018b756f6f22bd60405160405180910390a1565b600960008273ffffffffffffffffffffffffffffffffffffffff1673ffffffffffffffffffffffffffffffffffffffff16815260200190815260200160002060070160009054906101000a900460ff166125ba576040517f08c379a00000000000000000000000000000000000000000000000000000000081526004016125b190613cb1565b60405180910390fd5b6000600960008373ffffffffffffffffffffffffffffffffffffffff1673ffffffffffffffffffffffffffffffffffffffff168152602001908152602001600020604051806101000160405290816000820160009054906101000a900473ffffffffffffffffffffffffffffffffffffffff1673ffffffffffffffffffffffffffffffffffffffff1673ffffffffffffffffffffffffffffffffffffffff16815260200160018201805461266d90614167565b80601f016020809104026020016040519081016040528092919081815260200182805461269990614167565b80156126e65780601f106126bb576101008083540402835291602001916126e6565b820191906000526020600020905b8154815290600101906020018083116126c957829003601f168201915b505050505081526020016002820180546126ff90614167565b80601f016020809104026020016040519081016040528092919081815260200182805461272b90614167565b80156127785780601f1061274d57610100808354040283529160200191612778565b820191906000526020600020905b81548152906001019060200180831161275b57829003601f168201915b5050505050815260200160038201805461279190614167565b80601f01602080910402602001604051908101604052809291908181526020018280546127bd90614167565b801561280a5780601f106127df5761010080835404028352916020019161280a565b820191906000526020600020905b8154815290600101906020018083116127ed57829003601f168201915b5050505050815260200160048201805461282390614167565b80601f016020809104026020016040519081016040528092919081815260200182805461284f90614167565b801561289c5780601f106128715761010080835404028352916020019161289c565b820191906000526020600020905b81548152906001019060200180831161287f57829003601f168201915b505050505081526020016005820180546128b590614167565b80601f01602080910402602001604051908101604052809291908181526020018280546128e190614167565b801561292e5780601f106129035761010080835404028352916020019161292e565b820191906000526020600020905b81548152906001019060200180831161291157829003601f168201915b50505050508152602001600682015481526020016007820160009054906101000a900460ff16151515158152505090508060c0015183604051602001612974919061399d565b604051602081830303815290604052805190602001201480156129e6575080604001516040516020016129a7919061399d565b60405160208183030381529060405280519060200120846040516020016129ce919061399d565b60405160208183030381529060405280519060200120145b612a25576040517f08c379a0000000000000000000000000000000000000000000000000000000008152600401612a1c90613c71565b60405180910390fd5b8173ffffffffffffffffffffffffffffffffffffffff167f048e252d5e4f0eb06f35f4b2d35d1c46d725d11d87b685253169fa84a995e14160405160405180910390a250505050565b6001806000015490806001018054612a8590614167565b80601f0160208091040260200160405190810160405280929190818152602001828054612ab190614167565b8015612afe5780601f10612ad357610100808354040283529160200191612afe565b820191906000526020600020905b815481529060010190602001808311612ae157829003601f168201915b5050505050908060020154908060030160009054906101000a900473ffffffffffffffffffffffffffffffffffffffff16905084565b6000600760008373ffffffffffffffffffffffffffffffffffffffff1673ffffffffffffffffffffffffffffffffffffffff16815260200190815260200160002060009054906101000a900460ff169050919050565b6000600960008373ffffffffffffffffffffffffffffffffffffffff1673ffffffffffffffffffffffffffffffffffffffff16815260200190815260200160002060070160009054906101000a900460ff169050919050565b600060149054906101000a900460ff1615612c33576040517f08c379a0000000000000000000000000000000000000000000000000000000008152600401612c2a90613cf1565b60405180910390fd5b600660008973ffffffffffffffffffffffffffffffffffffffff1673ffffffffffffffffffffffffffffffffffffffff16815260200190815260200160002060009054906101000a900460ff1615612cc0576040517f08c379a0000000000000000000000000000000000000000000000000000000008152600401612cb790613d51565b60405180910390fd5b60006001600580549050612cd49190614049565b905060056040518061016001604052808381526020018c8152602001600081526020018b73ffffffffffffffffffffffffffffffffffffffff1681526020018a81526020018981526020018881526020018781526020018681526020018581526020018481525090806001815401808255809150506001900390600052602060002090600b0201600090919091909150600082015181600001556020820151816001019080519060200190612d8a929190613002565b506040820151816002015560608201518160030160006101000a81548173ffffffffffffffffffffffffffffffffffffffff021916908373ffffffffffffffffffffffffffffffffffffffff1602179055506080820151816004019080519060200190612df8929190613002565b5060a0820151816005019080519060200190612e15929190613002565b5060c0820151816006015560e0820151816007019080519060200190612e3c929190613002565b50610100820151816008019080519060200190612e5a929190613002565b50610120820151816009019080519060200190612e78929190613002565b5061014082015181600a019080519060200190612e96929190613002565b5050506001600660008b73ffffffffffffffffffffffffffffffffffffffff1673ffffffffffffffffffffffffffffffffffffffff16815260200190815260200160002060006101000a81548160ff0219169083151502179055507f5a022fc2e48a23651bbc4855c873bb1efcf861de8e23fe86fccc875d71b32fd2818b8b8b8b8b8b8b8b8b604051612f329a99989796959493929190613dcc565b60405180910390a150505050505050505050565b60008060149054906101000a900460ff1615612f97576040517f08c379a0000000000000000000000000000000000000000000000000000000008152600401612f8e90613c91565b60405180910390fd5b600160020154905090565b60086020528060005260406000206000915090505481565b600060149054906101000a900460ff1681565b60008082604051602001612fe1919061399d565b60405160208183030381529060405280519060200120905080915050919050565b82805461300e90614167565b90600052602060002090601f0160209004810192826130305760008555613077565b82601f1061304957805160ff1916838001178555613077565b82800160010185558215613077579182015b8281111561307657825182559160200191906001019061305b565b5b5090506130849190613088565b5090565b5b808211156130a1576000816000905550600101613089565b5090565b60006130b86130b384613ff2565b613fc1565b9050828152602081018484840111156130d057600080fd5b6130db848285614125565b509392505050565b6000813590506130f281614280565b92915050565b600082601f83011261310957600080fd5b81356131198482602086016130a5565b91505092915050565b60008135905061313181614297565b92915050565b60006020828403121561314957600080fd5b6000613157848285016130e3565b91505092915050565b60008060006060848603121561317557600080fd5b6000613183868287016130e3565b935050602084013567ffffffffffffffff8111156131a057600080fd5b6131ac868287016130f8565b925050604084013567ffffffffffffffff8111156131c957600080fd5b6131d5868287016130f8565b9150509250925092565b600080600080600080600060e0888a0312156131fa57600080fd5b600088013567ffffffffffffffff81111561321457600080fd5b6132208a828b016130f8565b97505060206132318a828b016130e3565b965050604088013567ffffffffffffffff81111561324e57600080fd5b61325a8a828b016130f8565b955050606088013567ffffffffffffffff81111561327757600080fd5b6132838a828b016130f8565b945050608088013567ffffffffffffffff8111156132a057600080fd5b6132ac8a828b016130f8565b93505060a088013567ffffffffffffffff8111156132c957600080fd5b6132d58a828b016130f8565b92505060c088013567ffffffffffffffff8111156132f257600080fd5b6132fe8a828b016130f8565b91505092959891949750929550565b60008060008060008060008060006101208a8c03121561332c57600080fd5b60008a013567ffffffffffffffff81111561334657600080fd5b6133528c828d016130f8565b99505060206133638c828d016130e3565b98505060408a013567ffffffffffffffff81111561338057600080fd5b61338c8c828d016130f8565b97505060608a013567ffffffffffffffff8111156133a957600080fd5b6133b58c828d016130f8565b96505060806133c68c828d01613122565b95505060a08a013567ffffffffffffffff8111156133e357600080fd5b6133ef8c828d016130f8565b94505060c08a013567ffffffffffffffff81111561340c57600080fd5b6134188c828d016130f8565b93505060e08a013567ffffffffffffffff81111561343557600080fd5b6134418c828d016130f8565b9250506101008a013567ffffffffffffffff81111561345f57600080fd5b61346b8c828d016130f8565b9150509295985092959850929598565b60008060006060848603121561349057600080fd5b600084013567ffffffffffffffff8111156134aa57600080fd5b6134b6868287016130f8565b935050602084013567ffffffffffffffff8111156134d357600080fd5b6134df868287016130f8565b92505060406134f0868287016130e3565b9150509250925092565b60006020828403121561350c57600080fd5b600061351a84828501613122565b91505092915050565b6000806040838503121561353657600080fd5b600061354485828601613122565b9250506020613555858286016130e3565b9150509250929050565b613568816140d3565b82525050565b613577816140e5565b82525050565b613586816140f1565b82525050565b600061359782614022565b6135a1818561402d565b93506135b1818560208601614134565b6135ba8161426f565b840191505092915050565b60006135d082614022565b6135da818561403e565b93506135ea818560208601614134565b80840191505092915050565b600061360360178361402d565b91507f596f75206861766520616c726561647920766f7465642e0000000000000000006000830152602082019050919050565b6000613643602b8361402d565b91507f43616e6e6f74206465636c61726520726573756c74207768696c6520766f746960008301527f6e67206973206f70656e2e0000000000000000000000000000000000000000006020830152604082019050919050565b60006136a960128361402d565b91507f496e636f72726563742070617373776f726400000000000000000000000000006000830152602082019050919050565b60006136e960178361402d565b91507f456c656374696f6e206973207374696c6c206f70656e2e0000000000000000006000830152602082019050919050565b600061372960188361402d565b91507f566f746572206973206e6f7420726567697374657265642e00000000000000006000830152602082019050919050565b600061376960278361402d565b91507f4e6f2063616e6469646174657320746f206465636c617265206173207468652060008301527f77696e6e65722e000000000000000000000000000000000000000000000000006020830152604082019050919050565b60006137cf60298361402d565b91507f43616e206e6f74207265676973746572207768656e20456c656374696f6e206960008301527f732072756e6e696e6700000000000000000000000000000000000000000000006020830152604082019050919050565b600061383560278361402d565b91507f4f6e6c7920746865206f776e65722063616e20706572666f726d20746869732060008301527f616374696f6e2e000000000000000000000000000000000000000000000000006020830152604082019050919050565b600061389b60158361402d565b91507f41646d696e20616c7265616479206578697374732e00000000000000000000006000830152602082019050919050565b60006138db601c8361402d565b91507f566f74657220697320616c726561647920726567697374657265642e000000006000830152602082019050919050565b600061391b60118361402d565b91507f566f74696e6720697320636c6f7365642e0000000000000000000000000000006000830152602082019050919050565b600061395b60158361402d565b91507f496e76616c69642063616e6469646174652049442e00000000000000000000006000830152602082019050919050565b6139978161411b565b82525050565b60006139a982846135c5565b915081905092915050565b60006020820190506139c9600083018461355f565b92915050565b6000610100820190506139e5600083018b61355f565b81810360208301526139f7818a61358c565b90508181036040830152613a0b818961358c565b90508181036060830152613a1f818861358c565b90508181036080830152613a33818761358c565b905081810360a0830152613a47818661358c565b9050613a5660c083018561357d565b613a6360e083018461356e565b9998505050505050505050565b6000602082019050613a85600083018461356e565b92915050565b60006020820190508181036000830152613aa5818461358c565b905092915050565b600060c0820190508181036000830152613ac7818961358c565b9050613ad6602083018861355f565b8181036040830152613ae8818761358c565b90508181036060830152613afc818661358c565b90508181036080830152613b10818561358c565b905081810360a0830152613b24818461358c565b9050979650505050505050565b60006080820190508181036000830152613b4b818761358c565b90508181036020830152613b5f818661358c565b9050613b6e604083018561355f565b613b7b606083018461356e565b95945050505050565b600060c0820190508181036000830152613b9e818961358c565b90508181036020830152613bb2818861358c565b90508181036040830152613bc6818761358c565b9050613bd5606083018661398e565b8181036080830152613be7818561358c565b9050613bf660a083018461398e565b979650505050505050565b60006040820190508181036000830152613c1b818561358c565b9050613c2a602083018461398e565b9392505050565b60006020820190508181036000830152613c4a816135f6565b9050919050565b60006020820190508181036000830152613c6a81613636565b9050919050565b60006020820190508181036000830152613c8a8161369c565b9050919050565b60006020820190508181036000830152613caa816136dc565b9050919050565b60006020820190508181036000830152613cca8161371c565b9050919050565b60006020820190508181036000830152613cea8161375c565b9050919050565b60006020820190508181036000830152613d0a816137c2565b9050919050565b60006020820190508181036000830152613d2a81613828565b9050919050565b60006020820190508181036000830152613d4a8161388e565b9050919050565b60006020820190508181036000830152613d6a816138ce565b9050919050565b60006020820190508181036000830152613d8a8161390e565b9050919050565b60006020820190508181036000830152613daa8161394e565b9050919050565b6000602082019050613dc6600083018461398e565b92915050565b600061014082019050613de2600083018d61398e565b8181036020830152613df4818c61358c565b9050613e03604083018b61355f565b8181036060830152613e15818a61358c565b90508181036080830152613e29818961358c565b9050613e3860a083018861398e565b81810360c0830152613e4a818761358c565b905081810360e0830152613e5e818661358c565b9050818103610100830152613e73818561358c565b9050818103610120830152613e88818461358c565b90509b9a5050505050505050505050565b6000608082019050613eae600083018761398e565b8181036020830152613ec0818661358c565b9050613ecf604083018561398e565b613edc606083018461355f565b95945050505050565b600061016082019050613efb600083018e61398e565b8181036020830152613f0d818d61358c565b9050613f1c604083018c61398e565b613f29606083018b61355f565b8181036080830152613f3b818a61358c565b905081810360a0830152613f4f818961358c565b9050613f5e60c083018861398e565b81810360e0830152613f70818761358c565b9050818103610100830152613f85818661358c565b9050818103610120830152613f9a818561358c565b9050818103610140830152613faf818461358c565b90509c9b505050505050505050505050565b6000604051905081810181811067ffffffffffffffff82111715613fe857613fe7614240565b5b8060405250919050565b600067ffffffffffffffff82111561400d5761400c614240565b5b601f19601f8301169050602081019050919050565b600081519050919050565b600082825260208201905092915050565b600081905092915050565b60006140548261411b565b915061405f8361411b565b9250827fffffffffffffffffffffffffffffffffffffffffffffffffffffffffffffffff03821115614094576140936141e2565b5b828201905092915050565b60006140aa8261411b565b91506140b58361411b565b9250828210156140c8576140c76141e2565b5b828203905092915050565b60006140de826140fb565b9050919050565b60008115159050919050565b6000819050919050565b600073ffffffffffffffffffffffffffffffffffffffff82169050919050565b6000819050919050565b82818337600083830152505050565b60005b83811015614152578082015181840152602081019050614137565b83811115614161576000848401525b50505050565b6000600282049050600182168061417f57607f821691505b6020821081141561419357614192614211565b5b50919050565b60006141a48261411b565b91507fffffffffffffffffffffffffffffffffffffffffffffffffffffffffffffffff8214156141d7576141d66141e2565b5b600182019050919050565b7f4e487b7100000000000000000000000000000000000000000000000000000000600052601160045260246000fd5b7f4e487b7100000000000000000000000000000000000000000000000000000000600052602260045260246000fd5b7f4e487b7100000000000000000000000000000000000000000000000000000000600052604160045260246000fd5b6000601f19601f8301169050919050565b614289816140d3565b811461429457600080fd5b50565b6142a08161411b565b81146142ab57600080fd5b5056fea2646970667358221220d69545db6f1f9fb475aa1cd98fd41800f94b7bc455c1a6d1e594bc70278a3bd964736f6c63430008000033",
  "linkReferences": {},
  "deployedLinkReferences": {}
}