{
  "_format": "hh-sol-artifact-1",
  "contractName": "Election",
  "sourceName": "contracts/Election.sol",
  "abi": [
    {
      "inputs": [],
      "stateMutability": "nonpayable",
      "type": "constructor"
    },
    {
      "anonymous": false,
      "inputs": [],
      "name": "ElectionClosed",
      "type": "event"
    },
    {
      "anonymous": false,
      "inputs": [],
      "name": "ElectionOpen",
      "type": "event"
    },
    {
      "anonymous": false,
      "inputs": [
        {
          "indexed": false,
          "internalType": "string",
          "name": "winnerName",
          "type": "string"
        },
        {
          "indexed": false,
          "internalType": "uint256",
          "name": "winnerVoteCount",
          "type": "uint256"
        }
      ],
      "name": "ElectionResultDeclared",
      "type": "event"
    },
    {
      "anonymous": false,
      "inputs": [
        {
          "indexed": false,
          "internalType": "uint256",
          "name": "candidateId",
          "type": "uint256"
        },
        {
          "indexed": false,
          "internalType": "string",
          "name": "name",
          "type": "string"
        },
        {
          "indexed": false,
          "internalType": "address",
          "name": "ethereumAddress",
          "type": "address"
        },
        {
          "indexed": false,
          "internalType": "string",
          "name": "email",
          "type": "string"
        },
        {
          "indexed": false,
          "internalType": "string",
          "name": "mobileNumber",
          "type": "string"
        },
        {
          "indexed": false,
          "internalType": "uint256",
          "name": "dateOfBirth",
          "type": "uint256"
        },
        {
          "indexed": false,
          "internalType": "string",
          "name": "aadharNumber",
          "type": "string"
        },
        {
          "indexed": false,
          "internalType": "string",
          "name": "voterId",
          "type": "string"
        },
        {
          "indexed": false,
          "internalType": "string",
          "name": "homeAddress",
          "type": "string"
        },
        {
          "indexed": false,
          "internalType": "string",
          "name": "ipfsImageHash",
          "type": "string"
        }
      ],
      "name": "NewCandidate",
      "type": "event"
    },
    {
      "anonymous": false,
      "inputs": [
        {
          "indexed": true,
          "internalType": "address",
          "name": "voter",
          "type": "address"
        },
        {
          "indexed": false,
          "internalType": "uint256",
          "name": "candidateId",
          "type": "uint256"
        }
      ],
      "name": "Voted",
      "type": "event"
    },
    {
      "anonymous": false,
      "inputs": [
        {
          "indexed": true,
          "internalType": "address",
          "name": "voterAddress",
          "type": "address"
        }
      ],
      "name": "VoterLoggedIn",
      "type": "event"
    },
    {
      "anonymous": false,
      "inputs": [
        {
          "indexed": false,
          "internalType": "string",
          "name": "name",
          "type": "string"
        },
        {
          "indexed": false,
          "internalType": "address",
          "name": "voterAddress",
          "type": "address"
        },
        {
          "indexed": false,
          "internalType": "string",
          "name": "email",
          "type": "string"
        },
        {
          "indexed": false,
          "internalType": "string",
          "name": "mobileNumber",
          "type": "string"
        },
        {
          "indexed": false,
          "internalType": "string",
          "name": "voterId",
          "type": "string"
        },
        {
          "indexed": false,
          "internalType": "string",
          "name": "ipfsImageHash",
          "type": "string"
        }
      ],
      "name": "VoterRegistered",
      "type": "event"
    },
    {
      "inputs": [
        {
          "internalType": "address",
          "name": "_adminAddress",
          "type": "address"
        },
        {
          "internalType": "string",
          "name": "_name",
          "type": "string"
        },
        {
          "internalType": "string",
          "name": "_email",
          "type": "string"
        }
      ],
      "name": "addAdmin",
      "outputs": [],
      "stateMutability": "nonpayable",
      "type": "function"
    },
    {
      "inputs": [
        {
          "internalType": "string",
          "name": "_name",
          "type": "string"
        },
        {
          "internalType": "address",
          "name": "_ethereumAddress",
          "type": "address"
        },
        {
          "internalType": "string",
          "name": "_email",
          "type": "string"
        },
        {
          "internalType": "string",
          "name": "_mobileNumber",
          "type": "string"
        },
        {
          "internalType": "uint256",
          "name": "_dateOfBirth",
          "type": "uint256"
        },
        {
          "internalType": "string",
          "name": "_aadharNumber",
          "type": "string"
        },
        {
          "internalType": "string",
          "name": "_voterId",
          "type": "string"
        },
        {
          "internalType": "string",
          "name": "_homeAddress",
          "type": "string"
        },
        {
          "internalType": "string",
          "name": "_ipfsImageHash",
          "type": "string"
        }
      ],
      "name": "addCandidate",
      "outputs": [],
      "stateMutability": "nonpayable",
      "type": "function"
    },
    {
      "inputs": [
        {
          "internalType": "uint256",
          "name": "",
          "type": "uint256"
        }
      ],
      "name": "adminAccounts",
      "outputs": [
        {
          "internalType": "address",
          "name": "",
          "type": "address"
        }
      ],
      "stateMutability": "view",
      "type": "function"
    },
    {
      "inputs": [
        {
          "internalType": "address",
          "name": "",
          "type": "address"
        }
      ],
      "name": "admins",
      "outputs": [
        {
          "internalType": "string",
          "name": "name",
          "type": "string"
        },
        {
          "internalType": "string",
          "name": "email",
          "type": "string"
        },
        {
          "internalType": "address",
          "name": "ethereumAddress",
          "type": "address"
        },
        {
          "internalType": "bool",
          "name": "isAdmin",
          "type": "bool"
        }
      ],
      "stateMutability": "view",
      "type": "function"
    },
    {
      "inputs": [
        {
          "internalType": "uint256",
          "name": "",
          "type": "uint256"
        }
      ],
      "name": "candidates",
      "outputs": [
        {
          "internalType": "uint256",
          "name": "id",
          "type": "uint256"
        },
        {
          "internalType": "string",
          "name": "name",
          "type": "string"
        },
        {
          "internalType": "uint256",
          "name": "voteCount",
          "type": "uint256"
        },
        {
          "internalType": "address",
          "name": "ethereumAddress",
          "type": "address"
        },
        {
          "internalType": "string",
          "name": "email",
          "type": "string"
        },
        {
          "internalType": "string",
          "name": "mobileNumber",
          "type": "string"
        },
        {
          "internalType": "uint256",
          "name": "dateOfBirth",
          "type": "uint256"
        },
        {
          "internalType": "string",
          "name": "aadharNumber",
          "type": "string"
        },
        {
          "internalType": "string",
          "name": "voterId",
          "type": "string"
        },
        {
          "internalType": "string",
          "name": "homeAddress",
          "type": "string"
        },
        {
          "internalType": "string",
          "name": "ipfsImageHash",
          "type": "string"
        }
      ],
      "stateMutability": "view",
      "type": "function"
    },
    {
      "inputs": [
        {
          "internalType": "address",
          "name": "",
          "type": "address"
        }
      ],
      "name": "candidatesRegistered",
      "outputs": [
        {
          "internalType": "bool",
          "name": "",
          "type": "bool"
        }
      ],
      "stateMutability": "view",
      "type": "function"
    },
    {
      "inputs": [
        {
          "internalType": "address",
          "name": "_voterEthAddress",
          "type": "address"
        }
      ],
      "name": "checkHasVoted",
      "outputs": [
        {
          "internalType": "bool",
          "name": "",
          "type": "bool"
        }
      ],
      "stateMutability": "view",
      "type": "function"
    },
    {
      "inputs": [],
      "name": "closeElection",
      "outputs": [],
      "stateMutability": "nonpayable",
      "type": "function"
    },
    {
      "inputs": [],
      "name": "declareElectionResult",
      "outputs": [],
      "stateMutability": "nonpayable",
      "type": "function"
    },
    {
      "inputs": [
        {
          "internalType": "uint256",
          "name": "_candidateId",
          "type": "uint256"
        }
      ],
      "name": "getCandidate",
      "outputs": [
        {
          "internalType": "string",
          "name": "name",
          "type": "string"
        },
        {
          "internalType": "string",
          "name": "email",
          "type": "string"
        },
        {
          "internalType": "string",
          "name": "mobileNumber",
          "type": "string"
        },
        {
          "internalType": "uint256",
          "name": "dateOfBirth",
          "type": "uint256"
        },
        {
          "internalType": "string",
          "name": "homeAddress",
          "type": "string"
        },
        {
          "internalType": "uint256",
          "name": "candidateId",
          "type": "uint256"
        }
      ],
      "stateMutability": "view",
      "type": "function"
    },
    {
      "inputs": [],
      "name": "getCandidatesCount",
      "outputs": [
        {
          "internalType": "uint256",
          "name": "",
          "type": "uint256"
        }
      ],
      "stateMutability": "view",
      "type": "function"
    },
    {
      "inputs": [
        {
          "internalType": "address",
          "name": "_ethereumAddress",
          "type": "address"
        }
      ],
      "name": "getIpfsHash",
      "outputs": [
        {
          "internalType": "string",
          "name": "",
          "type": "string"
        }
      ],
      "stateMutability": "view",
      "type": "function"
    },
    {
      "inputs": [],
      "name": "getIsVotingOpen",
      "outputs": [
        {
          "internalType": "bool",
          "name": "",
          "type": "bool"
        }
      ],
      "stateMutability": "view",
      "type": "function"
    },
    {
      "inputs": [],
      "name": "getOwner",
      "outputs": [
        {
          "internalType": "address",
          "name": "tempOwner",
          "type": "address"
        }
      ],
      "stateMutability": "view",
      "type": "function"
    },
    {
      "inputs": [],
      "name": "getResultsDeclared",
      "outputs": [
        {
          "internalType": "bool",
          "name": "",
          "type": "bool"
        }
      ],
      "stateMutability": "view",
      "type": "function"
    },
    {
      "inputs": [],
      "name": "getWinnerId",
      "outputs": [
        {
          "internalType": "uint256",
          "name": "id",
          "type": "uint256"
        }
      ],
      "stateMutability": "view",
      "type": "function"
    },
    {
      "inputs": [],
      "name": "getWinnerName",
      "outputs": [
        {
          "internalType": "string",
          "name": "name",
          "type": "string"
        }
      ],
      "stateMutability": "view",
      "type": "function"
    },
    {
      "inputs": [],
      "name": "getWinnerVoteCount",
      "outputs": [
        {
          "internalType": "uint256",
          "name": "voteCount",
          "type": "uint256"
        }
      ],
      "stateMutability": "view",
      "type": "function"
    },
    {
      "inputs": [
        {
          "internalType": "address",
          "name": "",
          "type": "address"
        }
      ],
      "name": "hasVoted",
      "outputs": [
        {
          "internalType": "bool",
          "name": "",
          "type": "bool"
        }
      ],
      "stateMutability": "view",
      "type": "function"
    },
    {
      "inputs": [
        {
          "internalType": "address",
          "name": "_ethereumAddress",
          "type": "address"
        }
      ],
      "name": "isVoterRegistered",
      "outputs": [
        {
          "internalType": "bool",
          "name": "",
          "type": "bool"
        }
      ],
      "stateMutability": "view",
      "type": "function"
    },
    {
      "inputs": [],
      "name": "isVotingOpen",
      "outputs": [
        {
          "internalType": "bool",
          "name": "",
          "type": "bool"
        }
      ],
      "stateMutability": "view",
      "type": "function"
    },
    {
      "inputs": [
        {
          "internalType": "string",
          "name": "_email",
          "type": "string"
        },
        {
          "internalType": "string",
          "name": "_password",
          "type": "string"
        },
        {
          "internalType": "address",
          "name": "_ethereumAddress",
          "type": "address"
        }
      ],
      "name": "loginVoter",
      "outputs": [],
      "stateMutability": "nonpayable",
      "type": "function"
    },
    {
      "inputs": [],
      "name": "openElection",
      "outputs": [],
      "stateMutability": "nonpayable",
      "type": "function"
    },
    {
      "inputs": [],
      "name": "owner",
      "outputs": [
        {
          "internalType": "address",
          "name": "",
          "type": "address"
        }
      ],
      "stateMutability": "view",
      "type": "function"
    },
    {
      "inputs": [
        {
          "internalType": "string",
          "name": "_name",
          "type": "string"
        },
        {
          "internalType": "address",
          "name": "_ethereumAddress",
          "type": "address"
        },
        {
          "internalType": "string",
          "name": "_email",
          "type": "string"
        },
        {
          "internalType": "string",
          "name": "_mobileNumber",
          "type": "string"
        },
        {
          "internalType": "string",
          "name": "_voterId",
          "type": "string"
        },
        {
          "internalType": "string",
          "name": "_ipfsImageHash",
          "type": "string"
        },
        {
          "internalType": "string",
          "name": "_password",
          "type": "string"
        }
      ],
      "name": "registerVoter",
      "outputs": [],
      "stateMutability": "nonpayable",
      "type": "function"
    },
    {
      "inputs": [
        {
          "internalType": "uint256",
          "name": "",
          "type": "uint256"
        }
      ],
      "name": "registeredVoters",
      "outputs": [
        {
          "internalType": "address",
          "name": "",
          "type": "address"
        }
      ],
      "stateMutability": "view",
      "type": "function"
    },
    {
      "inputs": [],
      "name": "resultsDeclared",
      "outputs": [
        {
          "internalType": "bool",
          "name": "",
          "type": "bool"
        }
      ],
      "stateMutability": "view",
      "type": "function"
    },
    {
      "inputs": [
        {
          "internalType": "address",
          "name": "_ethereumAddress",
          "type": "address"
        },
        {
          "internalType": "string",
          "name": "ipfsHashTemp",
          "type": "string"
        }
      ],
      "name": "setIpfsHash",
      "outputs": [],
      "stateMutability": "nonpayable",
      "type": "function"
    },
    {
      "inputs": [
        {
          "internalType": "address",
          "name": "",
          "type": "address"
        }
      ],
      "name": "userVote",
      "outputs": [
        {
          "internalType": "uint256",
          "name": "",
          "type": "uint256"
        }
      ],
      "stateMutability": "view",
      "type": "function"
    },
    {
      "inputs": [
        {
          "internalType": "uint256",
          "name": "_candidateId",
          "type": "uint256"
        },
        {
          "internalType": "address",
          "name": "_ethereumAddress",
          "type": "address"
        }
      ],
      "name": "vote",
      "outputs": [],
      "stateMutability": "nonpayable",
      "type": "function"
    },
    {
      "inputs": [
        {
          "internalType": "address",
          "name": "",
          "type": "address"
        }
      ],
      "name": "voters",
      "outputs": [
        {
          "internalType": "address",
          "name": "ethereumAddress",
          "type": "address"
        },
        {
          "internalType": "string",
          "name": "name",
          "type": "string"
        },
        {
          "internalType": "string",
          "name": "email",
          "type": "string"
        },
        {
          "internalType": "string",
          "name": "mobileNumber",
          "type": "string"
        },
        {
          "internalType": "string",
          "name": "voterId",
          "type": "string"
        },
        {
          "internalType": "string",
          "name": "ipfsImageHash",
          "type": "string"
        },
        {
          "internalType": "bytes32",
          "name": "passwordHash",
          "type": "bytes32"
        },
        {
          "internalType": "bool",
          "name": "isRegistered",
          "type": "bool"
        }
      ],
      "stateMutability": "view",
      "type": "function"
    },
    {
      "inputs": [],
      "name": "winner",
      "outputs": [
        {
          "internalType": "uint256",
          "name": "id",
          "type": "uint256"
        },
        {
          "internalType": "string",
          "name": "name",
          "type": "string"
        },
        {
          "internalType": "uint256",
          "name": "voteCount",
          "type": "uint256"
        },
        {
          "internalType": "address",
          "name": "ethereumAddress",
          "type": "address"
        }
      ],
      "stateMutability": "view",
      "type": "function"
    }
  ],
  "bytecode": "0x608060405234801561001057600080fd5b50336000806101000a81548173ffffffffffffffffffffffffffffffffffffffff021916908373ffffffffffffffffffffffffffffffffffffffff16021790555060008060146101000a81548160ff02191690831515021790555060008060156101000a81548160ff0219169083151502179055506144c3806100946000396000f3fe608060405234801561001057600080fd5b50600436106101f05760003560e01c80638da5cb5b1161010f578063d8da2fa8116100a2578063ec8f807611610071578063ec8f8076146105d9578063f31adac3146105f5578063f5ba1c8714610613578063fa7f1bae14610643576101f0565b8063d8da2fa814610528578063dfbf53ae14610558578063e35f8cef14610579578063eb2119db146105a9576101f0565b8063bb9aa28f116100de578063bb9aa28f146104c8578063c475dd80146104e6578063c5d00f5d14610502578063d0b7c7ff1461050c576101f0565b80638da5cb5b14610425578063965473bd14610443578063a2addd6814610461578063a3ec138d14610491576101f0565b806340bcb769116101875780636c6c32d0116101565780636c6c32d0146103c35780636ec0176d146103cd578063893d20e8146103e95780638b55c27a14610407576101f0565b806340bcb7691461034c578063429b62e51461036a5780635babf5ef1461039d5780636c28fdb1146103b9576101f0565b80632bfda515116101c35780632bfda5151461028f5780633477ee2e146102ad57806335b8e820146102e75780633fa858561461031c576101f0565b806302d947ef146101f557806309eef43e146102115780630aea6806146102415780632436e06b1461025f575b600080fd5b61020f600480360381019061020a9190613702565b610661565b005b61022b600480360381019061022691906132c2565b6108ec565b6040516102389190613c4f565b60405180910390f35b61024961090c565b6040516102569190613f90565b60405180910390f35b610279600480360381019061027491906136d9565b610968565b6040516102869190613b93565b60405180910390f35b6102976109a7565b6040516102a49190613c6a565b60405180910390f35b6102c760048036038101906102c291906136d9565b610a8b565b6040516102de9b9a999897969594939291906140c4565b60405180910390f35b61030160048036038101906102fc91906136d9565b610ecd565b60405161031396959493929190613d63565b60405180910390f35b610336600480360381019061033191906132c2565b611432565b6040516103439190613c4f565b60405180910390f35b610354611452565b6040516103619190613c4f565b60405180910390f35b610384600480360381019061037f91906132c2565b611468565b6040516103949493929190613d10565b60405180910390f35b6103b760048036038101906103b2919061333f565b6115d5565b005b6103c1611878565b005b6103cb611d1f565b005b6103e760048036038101906103e291906133be565b611df5565b005b6103f16120d7565b6040516103fe9190613b93565b60405180910390f35b61040f612100565b60405161041c9190613c4f565b60405180910390f35b61042d612116565b60405161043a9190613b93565b60405180910390f35b61044b61213a565b6040516104589190613c4f565b60405180910390f35b61047b600480360381019061047691906136d9565b61214d565b6040516104889190613b93565b60405180910390f35b6104ab60048036038101906104a691906132c2565b61218c565b6040516104bf989796959493929190613bae565b60405180910390f35b6104d06124a9565b6040516104dd9190613f90565b60405180910390f35b61050060048036038101906104fb91906132eb565b6124b6565b005b61050a61250e565b005b6105266004803603810190610521919061365a565b6125e5565b005b610542600480360381019061053d91906132c2565b612b28565b60405161054f9190613c6a565b60405180910390f35b610560612bf9565b6040516105709493929190614078565b60405180910390f35b610593600480360381019061058e91906132c2565b612cbf565b6040516105a09190613c4f565b60405180910390f35b6105c360048036038101906105be91906132c2565b612d15565b6040516105d09190613c4f565b60405180910390f35b6105f360048036038101906105ee91906134ec565b612d6e565b005b6105fd6130d1565b60405161060a9190613f90565b60405180910390f35b61062d600480360381019061062891906132c2565b61312d565b60405161063a9190613f90565b60405180910390f35b61064b613145565b6040516106589190613c4f565b60405180910390f35b600060149054906101000a900460ff166106b0576040517f08c379a00000000000000000000000000000000000000000000000000000000081526004016106a790613f50565b60405180910390fd5b600760008273ffffffffffffffffffffffffffffffffffffffff1673ffffffffffffffffffffffffffffffffffffffff16815260200190815260200160002060009054906101000a900460ff161561073d576040517f08c379a000000000000000000000000000000000000000000000000000000000815260040161073490613e10565b60405180910390fd5b60008211801561075257506005805490508211155b610791576040517f08c379a000000000000000000000000000000000000000000000000000000000815260040161078890613f70565b60405180910390fd5b6001600760008373ffffffffffffffffffffffffffffffffffffffff1673ffffffffffffffffffffffffffffffffffffffff16815260200190815260200160002060006101000a81548160ff02191690831515021790555081600860008373ffffffffffffffffffffffffffffffffffffffff1673ffffffffffffffffffffffffffffffffffffffff16815260200190815260200160002081905550600560018361083c919061427e565b81548110610873577f4e487b7100000000000000000000000000000000000000000000000000000000600052603260045260246000fd5b90600052602060002090600b0201600201600081548092919061089590614378565b91905055508073ffffffffffffffffffffffffffffffffffffffff167f4d99b957a2bc29a30ebd96a7be8e68fe50a3c701db28a91436490b7d53870ca4836040516108e09190613f90565b60405180910390a25050565b60076020528060005260406000206000915054906101000a900460ff1681565b60008060149054906101000a900460ff161561095d576040517f08c379a000000000000000000000000000000000000000000000000000000000815260040161095490613e70565b60405180910390fd5b600160000154905090565b600a818154811061097857600080fd5b906000526020600020016000915054906101000a900473ffffffffffffffffffffffffffffffffffffffff1681565b6060600060149054906101000a900460ff16156109f9576040517f08c379a00000000000000000000000000000000000000000000000000000000081526004016109f090613e70565b60405180910390fd5b600180018054610a0890614346565b80601f0160208091040260200160405190810160405280929190818152602001828054610a3490614346565b8015610a815780601f10610a5657610100808354040283529160200191610a81565b820191906000526020600020905b815481529060010190602001808311610a6457829003601f168201915b5050505050905090565b60058181548110610a9b57600080fd5b90600052602060002090600b0201600091509050806000015490806001018054610ac490614346565b80601f0160208091040260200160405190810160405280929190818152602001828054610af090614346565b8015610b3d5780601f10610b1257610100808354040283529160200191610b3d565b820191906000526020600020905b815481529060010190602001808311610b2057829003601f168201915b5050505050908060020154908060030160009054906101000a900473ffffffffffffffffffffffffffffffffffffffff1690806004018054610b7e90614346565b80601f0160208091040260200160405190810160405280929190818152602001828054610baa90614346565b8015610bf75780601f10610bcc57610100808354040283529160200191610bf7565b820191906000526020600020905b815481529060010190602001808311610bda57829003601f168201915b505050505090806005018054610c0c90614346565b80601f0160208091040260200160405190810160405280929190818152602001828054610c3890614346565b8015610c855780601f10610c5a57610100808354040283529160200191610c85565b820191906000526020600020905b815481529060010190602001808311610c6857829003601f168201915b505050505090806006015490806007018054610ca090614346565b80601f0160208091040260200160405190810160405280929190818152602001828054610ccc90614346565b8015610d195780601f10610cee57610100808354040283529160200191610d19565b820191906000526020600020905b815481529060010190602001808311610cfc57829003601f168201915b505050505090806008018054610d2e90614346565b80601f0160208091040260200160405190810160405280929190818152602001828054610d5a90614346565b8015610da75780601f10610d7c57610100808354040283529160200191610da7565b820191906000526020600020905b815481529060010190602001808311610d8a57829003601f168201915b505050505090806009018054610dbc90614346565b80601f0160208091040260200160405190810160405280929190818152602001828054610de890614346565b8015610e355780601f10610e0a57610100808354040283529160200191610e35565b820191906000526020600020905b815481529060010190602001808311610e1857829003601f168201915b50505050509080600a018054610e4a90614346565b80601f0160208091040260200160405190810160405280929190818152602001828054610e7690614346565b8015610ec35780601f10610e9857610100808354040283529160200191610ec3565b820191906000526020600020905b815481529060010190602001808311610ea657829003601f168201915b505050505090508b565b60608060606000606060008087118015610eec57506005805490508711155b610f2b576040517f08c379a0000000000000000000000000000000000000000000000000000000008152600401610f2290613f70565b60405180910390fd5b60006005600189610f3c919061427e565b81548110610f73577f4e487b7100000000000000000000000000000000000000000000000000000000600052603260045260246000fd5b90600052602060002090600b02016040518061016001604052908160008201548152602001600182018054610fa790614346565b80601f0160208091040260200160405190810160405280929190818152602001828054610fd390614346565b80156110205780601f10610ff557610100808354040283529160200191611020565b820191906000526020600020905b81548152906001019060200180831161100357829003601f168201915b50505050508152602001600282015481526020016003820160009054906101000a900473ffffffffffffffffffffffffffffffffffffffff1673ffffffffffffffffffffffffffffffffffffffff1673ffffffffffffffffffffffffffffffffffffffff16815260200160048201805461109990614346565b80601f01602080910402602001604051908101604052809291908181526020018280546110c590614346565b80156111125780601f106110e757610100808354040283529160200191611112565b820191906000526020600020905b8154815290600101906020018083116110f557829003601f168201915b5050505050815260200160058201805461112b90614346565b80601f016020809104026020016040519081016040528092919081815260200182805461115790614346565b80156111a45780601f10611179576101008083540402835291602001916111a4565b820191906000526020600020905b81548152906001019060200180831161118757829003601f168201915b50505050508152602001600682015481526020016007820180546111c790614346565b80601f01602080910402602001604051908101604052809291908181526020018280546111f390614346565b80156112405780601f1061121557610100808354040283529160200191611240565b820191906000526020600020905b81548152906001019060200180831161122357829003601f168201915b5050505050815260200160088201805461125990614346565b80601f016020809104026020016040519081016040528092919081815260200182805461128590614346565b80156112d25780601f106112a7576101008083540402835291602001916112d2565b820191906000526020600020905b8154815290600101906020018083116112b557829003601f168201915b505050505081526020016009820180546112eb90614346565b80601f016020809104026020016040519081016040528092919081815260200182805461131790614346565b80156113645780601f1061133957610100808354040283529160200191611364565b820191906000526020600020905b81548152906001019060200180831161134757829003601f168201915b50505050508152602001600a8201805461137d90614346565b80601f01602080910402602001604051908101604052809291908181526020018280546113a990614346565b80156113f65780601f106113cb576101008083540402835291602001916113f6565b820191906000526020600020905b8154815290600101906020018083116113d957829003601f168201915b5050505050815250509050806020015181608001518260a001518360c001518461012001518c9650965096509650965096505091939550919395565b60066020528060005260406000206000915054906101000a900460ff1681565b60008060159054906101000a900460ff16905090565b600c60205280600052604060002060009150905080600001805461148b90614346565b80601f01602080910402602001604051908101604052809291908181526020018280546114b790614346565b80156115045780601f106114d957610100808354040283529160200191611504565b820191906000526020600020905b8154815290600101906020018083116114e757829003601f168201915b50505050509080600101805461151990614346565b80601f016020809104026020016040519081016040528092919081815260200182805461154590614346565b80156115925780601f1061156757610100808354040283529160200191611592565b820191906000526020600020905b81548152906001019060200180831161157557829003601f168201915b5050505050908060020160009054906101000a900473ffffffffffffffffffffffffffffffffffffffff16908060020160149054906101000a900460ff16905084565b60008054906101000a900473ffffffffffffffffffffffffffffffffffffffff1673ffffffffffffffffffffffffffffffffffffffff163373ffffffffffffffffffffffffffffffffffffffff1614611663576040517f08c379a000000000000000000000000000000000000000000000000000000000815260040161165a90613ef0565b60405180910390fd5b600c60008473ffffffffffffffffffffffffffffffffffffffff1673ffffffffffffffffffffffffffffffffffffffff16815260200190815260200160002060020160149054906101000a900460ff16156116f3576040517f08c379a00000000000000000000000000000000000000000000000000000000081526004016116ea90613f10565b60405180910390fd5b60405180608001604052808381526020018281526020018473ffffffffffffffffffffffffffffffffffffffff16815260200160011515815250600c60008573ffffffffffffffffffffffffffffffffffffffff1673ffffffffffffffffffffffffffffffffffffffff168152602001908152602001600020600082015181600001908051906020019061178892919061318d565b5060208201518160010190805190602001906117a592919061318d565b5060408201518160020160006101000a81548173ffffffffffffffffffffffffffffffffffffffff021916908373ffffffffffffffffffffffffffffffffffffffff16021790555060608201518160020160146101000a81548160ff021916908315150217905550905050600d839080600181540180825580915050600190039060005260206000200160009091909190916101000a81548173ffffffffffffffffffffffffffffffffffffffff021916908373ffffffffffffffffffffffffffffffffffffffff160217905550505050565b60008054906101000a900473ffffffffffffffffffffffffffffffffffffffff1673ffffffffffffffffffffffffffffffffffffffff163373ffffffffffffffffffffffffffffffffffffffff1614611906576040517f08c379a00000000000000000000000000000000000000000000000000000000081526004016118fd90613ef0565b60405180910390fd5b600060149054906101000a900460ff1615611956576040517f08c379a000000000000000000000000000000000000000000000000000000000815260040161194d90613e30565b60405180910390fd5b60006005805490501161199e576040517f08c379a000000000000000000000000000000000000000000000000000000000815260040161199590613eb0565b60405180910390fd5b6000806001600060156101000a81548160ff02191690831515021790555060005b600580549050811015611a7d578260058281548110611a07577f4e487b7100000000000000000000000000000000000000000000000000000000600052603260045260246000fd5b90600052602060002090600b02016002015410611a785760058181548110611a58577f4e487b7100000000000000000000000000000000000000000000000000000000600052603260045260246000fd5b90600052602060002090600b020160020154925080915080806001019150505b6119bf565b5060008110611d1b57600060058281548110611ac2577f4e487b7100000000000000000000000000000000000000000000000000000000600052603260045260246000fd5b90600052602060002090600b02016001018054611ade90614346565b80601f0160208091040260200160405190810160405280929190818152602001828054611b0a90614346565b8015611b575780601f10611b2c57610100808354040283529160200191611b57565b820191906000526020600020905b815481529060010190602001808311611b3a57829003601f168201915b50505050509050600060058381548110611b9a577f4e487b7100000000000000000000000000000000000000000000000000000000600052603260045260246000fd5b90600052602060002090600b0201600201549050600060058481548110611bea577f4e487b7100000000000000000000000000000000000000000000000000000000600052603260045260246000fd5b90600052602060002090600b020160030160009054906101000a900473ffffffffffffffffffffffffffffffffffffffff1690506040518060800160405280600186611c369190614228565b81526020018481526020018381526020018273ffffffffffffffffffffffffffffffffffffffff168152506001600082015181600001556020820151816001019080519060200190611c8992919061318d565b506040820151816002015560608201518160030160006101000a81548173ffffffffffffffffffffffffffffffffffffffff021916908373ffffffffffffffffffffffffffffffffffffffff1602179055509050507f1aaa99e411a940104e7b7866d6fc9317a3e67e76472e8d2776a9a8943112c3908383604051611d0f929190613de0565b60405180910390a15050505b5050565b60008054906101000a900473ffffffffffffffffffffffffffffffffffffffff1673ffffffffffffffffffffffffffffffffffffffff163373ffffffffffffffffffffffffffffffffffffffff1614611dad576040517f08c379a0000000000000000000000000000000000000000000000000000000008152600401611da490613ef0565b60405180910390fd5b60008060146101000a81548160ff0219169083151502179055507fa549b9addfc3693a1863ac5b0b13c42960d78df554c01ea6ac72a7db985df0cf60405160405180910390a1565b600960008773ffffffffffffffffffffffffffffffffffffffff1673ffffffffffffffffffffffffffffffffffffffff16815260200190815260200160002060070160009054906101000a900460ff1615611e85576040517f08c379a0000000000000000000000000000000000000000000000000000000008152600401611e7c90613f30565b60405180910390fd5b6000611e9082613158565b90506040518061010001604052808873ffffffffffffffffffffffffffffffffffffffff16815260200189815260200187815260200186815260200185815260200184815260200182815260200160011515815250600960008973ffffffffffffffffffffffffffffffffffffffff1673ffffffffffffffffffffffffffffffffffffffff16815260200190815260200160002060008201518160000160006101000a81548173ffffffffffffffffffffffffffffffffffffffff021916908373ffffffffffffffffffffffffffffffffffffffff1602179055506020820151816001019080519060200190611f8792919061318d565b506040820151816002019080519060200190611fa492919061318d565b506060820151816003019080519060200190611fc192919061318d565b506080820151816004019080519060200190611fde92919061318d565b5060a0820151816005019080519060200190611ffb92919061318d565b5060c0820151816006015560e08201518160070160006101000a81548160ff021916908315150217905550905050600a879080600181540180825580915050600190039060005260206000200160009091909190916101000a81548173ffffffffffffffffffffffffffffffffffffffff021916908373ffffffffffffffffffffffffffffffffffffffff1602179055507f8233a1016d0e0c56cc3a1e7454caa9df82be4406ad9fd67a8f79c8bdca15f3638888888888886040516120c596959493929190613c8c565b60405180910390a15050505050505050565b60008060009054906101000a900473ffffffffffffffffffffffffffffffffffffffff16905090565b60008060149054906101000a900460ff16905090565b60008054906101000a900473ffffffffffffffffffffffffffffffffffffffff1681565b600060159054906101000a900460ff1681565b600d818154811061215d57600080fd5b906000526020600020016000915054906101000a900473ffffffffffffffffffffffffffffffffffffffff1681565b60096020528060005260406000206000915090508060000160009054906101000a900473ffffffffffffffffffffffffffffffffffffffff16908060010180546121d590614346565b80601f016020809104026020016040519081016040528092919081815260200182805461220190614346565b801561224e5780601f106122235761010080835404028352916020019161224e565b820191906000526020600020905b81548152906001019060200180831161223157829003601f168201915b50505050509080600201805461226390614346565b80601f016020809104026020016040519081016040528092919081815260200182805461228f90614346565b80156122dc5780601f106122b1576101008083540402835291602001916122dc565b820191906000526020600020905b8154815290600101906020018083116122bf57829003601f168201915b5050505050908060030180546122f190614346565b80601f016020809104026020016040519081016040528092919081815260200182805461231d90614346565b801561236a5780601f1061233f5761010080835404028352916020019161236a565b820191906000526020600020905b81548152906001019060200180831161234d57829003601f168201915b50505050509080600401805461237f90614346565b80601f01602080910402602001604051908101604052809291908181526020018280546123ab90614346565b80156123f85780601f106123cd576101008083540402835291602001916123f8565b820191906000526020600020905b8154815290600101906020018083116123db57829003601f168201915b50505050509080600501805461240d90614346565b80601f016020809104026020016040519081016040528092919081815260200182805461243990614346565b80156124865780601f1061245b57610100808354040283529160200191612486565b820191906000526020600020905b81548152906001019060200180831161246957829003601f168201915b5050505050908060060154908060070160009054906101000a900460ff16905088565b6000600580549050905090565b80600b60008473ffffffffffffffffffffffffffffffffffffffff1673ffffffffffffffffffffffffffffffffffffffff168152602001908152602001600020908051906020019061250992919061318d565b505050565b60008054906101000a900473ffffffffffffffffffffffffffffffffffffffff1673ffffffffffffffffffffffffffffffffffffffff163373ffffffffffffffffffffffffffffffffffffffff161461259c576040517f08c379a000000000000000000000000000000000000000000000000000000000815260040161259390613ef0565b60405180910390fd5b6001600060146101000a81548160ff0219169083151502179055507f258a7c8a176359d1dd4b5872009764b97f6228ed4dfc610540018b756f6f22bd60405160405180910390a1565b600960008273ffffffffffffffffffffffffffffffffffffffff1673ffffffffffffffffffffffffffffffffffffffff16815260200190815260200160002060070160009054906101000a900460ff16612674576040517f08c379a000000000000000000000000000000000000000000000000000000000815260040161266b90613e90565b60405180910390fd5b6000600960008373ffffffffffffffffffffffffffffffffffffffff1673ffffffffffffffffffffffffffffffffffffffff168152602001908152602001600020604051806101000160405290816000820160009054906101000a900473ffffffffffffffffffffffffffffffffffffffff1673ffffffffffffffffffffffffffffffffffffffff1673ffffffffffffffffffffffffffffffffffffffff16815260200160018201805461272790614346565b80601f016020809104026020016040519081016040528092919081815260200182805461275390614346565b80156127a05780601f10612775576101008083540402835291602001916127a0565b820191906000526020600020905b81548152906001019060200180831161278357829003601f168201915b505050505081526020016002820180546127b990614346565b80601f01602080910402602001604051908101604052809291908181526020018280546127e590614346565b80156128325780601f1061280757610100808354040283529160200191612832565b820191906000526020600020905b81548152906001019060200180831161281557829003601f168201915b5050505050815260200160038201805461284b90614346565b80601f016020809104026020016040519081016040528092919081815260200182805461287790614346565b80156128c45780601f10612899576101008083540402835291602001916128c4565b820191906000526020600020905b8154815290600101906020018083116128a757829003601f168201915b505050505081526020016004820180546128dd90614346565b80601f016020809104026020016040519081016040528092919081815260200182805461290990614346565b80156129565780601f1061292b57610100808354040283529160200191612956565b820191906000526020600020905b81548152906001019060200180831161293957829003601f168201915b5050505050815260200160058201805461296f90614346565b80601f016020809104026020016040519081016040528092919081815260200182805461299b90614346565b80156129e85780601f106129bd576101008083540402835291602001916129e8565b820191906000526020600020905b8154815290600101906020018083116129cb57829003601f168201915b50505050508152602001600682015481526020016007820160009054906101000a900460ff16151515158152505090508060c0015183604051602001612a2e9190613b7c565b60405160208183030381529060405280519060200120148015612aa057508060400151604051602001612a619190613b7c565b6040516020818303038152906040528051906020012084604051602001612a889190613b7c565b60405160208183030381529060405280519060200120145b612adf576040517f08c379a0000000000000000000000000000000000000000000000000000000008152600401612ad690613e50565b60405180910390fd5b8173ffffffffffffffffffffffffffffffffffffffff167f048e252d5e4f0eb06f35f4b2d35d1c46d725d11d87b685253169fa84a995e14160405160405180910390a250505050565b6060600b60008373ffffffffffffffffffffffffffffffffffffffff1673ffffffffffffffffffffffffffffffffffffffff1681526020019081526020016000208054612b7490614346565b80601f0160208091040260200160405190810160405280929190818152602001828054612ba090614346565b8015612bed5780601f10612bc257610100808354040283529160200191612bed565b820191906000526020600020905b815481529060010190602001808311612bd057829003601f168201915b50505050509050919050565b6001806000015490806001018054612c1090614346565b80601f0160208091040260200160405190810160405280929190818152602001828054612c3c90614346565b8015612c895780601f10612c5e57610100808354040283529160200191612c89565b820191906000526020600020905b815481529060010190602001808311612c6c57829003601f168201915b5050505050908060020154908060030160009054906101000a900473ffffffffffffffffffffffffffffffffffffffff16905084565b6000600760008373ffffffffffffffffffffffffffffffffffffffff1673ffffffffffffffffffffffffffffffffffffffff16815260200190815260200160002060009054906101000a900460ff169050919050565b6000600960008373ffffffffffffffffffffffffffffffffffffffff1673ffffffffffffffffffffffffffffffffffffffff16815260200190815260200160002060070160009054906101000a900460ff169050919050565b600060149054906101000a900460ff1615612dbe576040517f08c379a0000000000000000000000000000000000000000000000000000000008152600401612db590613ed0565b60405180910390fd5b600660008973ffffffffffffffffffffffffffffffffffffffff1673ffffffffffffffffffffffffffffffffffffffff16815260200190815260200160002060009054906101000a900460ff1615612e4b576040517f08c379a0000000000000000000000000000000000000000000000000000000008152600401612e4290613f30565b60405180910390fd5b60006001600580549050612e5f9190614228565b905060056040518061016001604052808381526020018c8152602001600081526020018b73ffffffffffffffffffffffffffffffffffffffff1681526020018a81526020018981526020018881526020018781526020018681526020018581526020018481525090806001815401808255809150506001900390600052602060002090600b0201600090919091909150600082015181600001556020820151816001019080519060200190612f1592919061318d565b506040820151816002015560608201518160030160006101000a81548173ffffffffffffffffffffffffffffffffffffffff021916908373ffffffffffffffffffffffffffffffffffffffff1602179055506080820151816004019080519060200190612f8392919061318d565b5060a0820151816005019080519060200190612fa092919061318d565b5060c0820151816006015560e0820151816007019080519060200190612fc792919061318d565b50610100820151816008019080519060200190612fe592919061318d565b5061012082015181600901908051906020019061300392919061318d565b5061014082015181600a01908051906020019061302192919061318d565b5050506001600660008b73ffffffffffffffffffffffffffffffffffffffff1673ffffffffffffffffffffffffffffffffffffffff16815260200190815260200160002060006101000a81548160ff0219169083151502179055507f5a022fc2e48a23651bbc4855c873bb1efcf861de8e23fe86fccc875d71b32fd2818b8b8b8b8b8b8b8b8b6040516130bd9a99989796959493929190613fab565b60405180910390a150505050505050505050565b60008060149054906101000a900460ff1615613122576040517f08c379a000000000000000000000000000000000000000000000000000000000815260040161311990613e70565b60405180910390fd5b600160020154905090565b60086020528060005260406000206000915090505481565b600060149054906101000a900460ff1681565b6000808260405160200161316c9190613b7c565b60405160208183030381529060405280519060200120905080915050919050565b82805461319990614346565b90600052602060002090601f0160209004810192826131bb5760008555613202565b82601f106131d457805160ff1916838001178555613202565b82800160010185558215613202579182015b828111156132015782518255916020019190600101906131e6565b5b50905061320f9190613213565b5090565b5b8082111561322c576000816000905550600101613214565b5090565b600061324361323e846141d1565b6141a0565b90508281526020810184848401111561325b57600080fd5b613266848285614304565b509392505050565b60008135905061327d8161445f565b92915050565b600082601f83011261329457600080fd5b81356132a4848260208601613230565b91505092915050565b6000813590506132bc81614476565b92915050565b6000602082840312156132d457600080fd5b60006132e28482850161326e565b91505092915050565b600080604083850312156132fe57600080fd5b600061330c8582860161326e565b925050602083013567ffffffffffffffff81111561332957600080fd5b61333585828601613283565b9150509250929050565b60008060006060848603121561335457600080fd5b60006133628682870161326e565b935050602084013567ffffffffffffffff81111561337f57600080fd5b61338b86828701613283565b925050604084013567ffffffffffffffff8111156133a857600080fd5b6133b486828701613283565b9150509250925092565b600080600080600080600060e0888a0312156133d957600080fd5b600088013567ffffffffffffffff8111156133f357600080fd5b6133ff8a828b01613283565b97505060206134108a828b0161326e565b965050604088013567ffffffffffffffff81111561342d57600080fd5b6134398a828b01613283565b955050606088013567ffffffffffffffff81111561345657600080fd5b6134628a828b01613283565b945050608088013567ffffffffffffffff81111561347f57600080fd5b61348b8a828b01613283565b93505060a088013567ffffffffffffffff8111156134a857600080fd5b6134b48a828b01613283565b92505060c088013567ffffffffffffffff8111156134d157600080fd5b6134dd8a828b01613283565b91505092959891949750929550565b60008060008060008060008060006101208a8c03121561350b57600080fd5b60008a013567ffffffffffffffff81111561352557600080fd5b6135318c828d01613283565b99505060206135428c828d0161326e565b98505060408a013567ffffffffffffffff81111561355f57600080fd5b61356b8c828d01613283565b97505060608a013567ffffffffffffffff81111561358857600080fd5b6135948c828d01613283565b96505060806135a58c828d016132ad565b95505060a08a013567ffffffffffffffff8111156135c257600080fd5b6135ce8c828d01613283565b94505060c08a013567ffffffffffffffff8111156135eb57600080fd5b6135f78c828d01613283565b93505060e08a013567ffffffffffffffff81111561361457600080fd5b6136208c828d01613283565b9250506101008a013567ffffffffffffffff81111561363e57600080fd5b61364a8c828d01613283565b9150509295985092959850929598565b60008060006060848603121561366f57600080fd5b600084013567ffffffffffffffff81111561368957600080fd5b61369586828701613283565b935050602084013567ffffffffffffffff8111156136b257600080fd5b6136be86828701613283565b92505060406136cf8682870161326e565b9150509250925092565b6000602082840312156136eb57600080fd5b60006136f9848285016132ad565b91505092915050565b6000806040838503121561371557600080fd5b6000613723858286016132ad565b92505060206137348582860161326e565b9150509250929050565b613747816142b2565b82525050565b613756816142c4565b82525050565b613765816142d0565b82525050565b600061377682614201565b613780818561420c565b9350613790818560208601614313565b6137998161444e565b840191505092915050565b60006137af82614201565b6137b9818561421d565b93506137c9818560208601614313565b80840191505092915050565b60006137e260178361420c565b91507f596f75206861766520616c726561647920766f7465642e0000000000000000006000830152602082019050919050565b6000613822602b8361420c565b91507f43616e6e6f74206465636c61726520726573756c74207768696c6520766f746960008301527f6e67206973206f70656e2e0000000000000000000000000000000000000000006020830152604082019050919050565b600061388860128361420c565b91507f496e636f72726563742070617373776f726400000000000000000000000000006000830152602082019050919050565b60006138c860178361420c565b91507f456c656374696f6e206973207374696c6c206f70656e2e0000000000000000006000830152602082019050919050565b600061390860188361420c565b91507f566f746572206973206e6f7420726567697374657265642e00000000000000006000830152602082019050919050565b600061394860278361420c565b91507f4e6f2063616e6469646174657320746f206465636c617265206173207468652060008301527f77696e6e65722e000000000000000000000000000000000000000000000000006020830152604082019050919050565b60006139ae60298361420c565b91507f43616e206e6f74207265676973746572207768656e20456c656374696f6e206960008301527f732072756e6e696e6700000000000000000000000000000000000000000000006020830152604082019050919050565b6000613a1460278361420c565b91507f4f6e6c7920746865206f776e65722063616e20706572666f726d20746869732060008301527f616374696f6e2e000000000000000000000000000000000000000000000000006020830152604082019050919050565b6000613a7a60158361420c565b91507f41646d696e20616c7265616479206578697374732e00000000000000000000006000830152602082019050919050565b6000613aba601c8361420c565b91507f566f74657220697320616c726561647920726567697374657265642e000000006000830152602082019050919050565b6000613afa60118361420c565b91507f566f74696e6720697320636c6f7365642e0000000000000000000000000000006000830152602082019050919050565b6000613b3a60158361420c565b91507f496e76616c69642063616e6469646174652049442e00000000000000000000006000830152602082019050919050565b613b76816142fa565b82525050565b6000613b8882846137a4565b915081905092915050565b6000602082019050613ba8600083018461373e565b92915050565b600061010082019050613bc4600083018b61373e565b8181036020830152613bd6818a61376b565b90508181036040830152613bea818961376b565b90508181036060830152613bfe818861376b565b90508181036080830152613c12818761376b565b905081810360a0830152613c26818661376b565b9050613c3560c083018561375c565b613c4260e083018461374d565b9998505050505050505050565b6000602082019050613c64600083018461374d565b92915050565b60006020820190508181036000830152613c84818461376b565b905092915050565b600060c0820190508181036000830152613ca6818961376b565b9050613cb5602083018861373e565b8181036040830152613cc7818761376b565b90508181036060830152613cdb818661376b565b90508181036080830152613cef818561376b565b905081810360a0830152613d03818461376b565b9050979650505050505050565b60006080820190508181036000830152613d2a818761376b565b90508181036020830152613d3e818661376b565b9050613d4d604083018561373e565b613d5a606083018461374d565b95945050505050565b600060c0820190508181036000830152613d7d818961376b565b90508181036020830152613d91818861376b565b90508181036040830152613da5818761376b565b9050613db46060830186613b6d565b8181036080830152613dc6818561376b565b9050613dd560a0830184613b6d565b979650505050505050565b60006040820190508181036000830152613dfa818561376b565b9050613e096020830184613b6d565b9392505050565b60006020820190508181036000830152613e29816137d5565b9050919050565b60006020820190508181036000830152613e4981613815565b9050919050565b60006020820190508181036000830152613e698161387b565b9050919050565b60006020820190508181036000830152613e89816138bb565b9050919050565b60006020820190508181036000830152613ea9816138fb565b9050919050565b60006020820190508181036000830152613ec98161393b565b9050919050565b60006020820190508181036000830152613ee9816139a1565b9050919050565b60006020820190508181036000830152613f0981613a07565b9050919050565b60006020820190508181036000830152613f2981613a6d565b9050919050565b60006020820190508181036000830152613f4981613aad565b9050919050565b60006020820190508181036000830152613f6981613aed565b9050919050565b60006020820190508181036000830152613f8981613b2d565b9050919050565b6000602082019050613fa56000830184613b6d565b92915050565b600061014082019050613fc1600083018d613b6d565b8181036020830152613fd3818c61376b565b9050613fe2604083018b61373e565b8181036060830152613ff4818a61376b565b90508181036080830152614008818961376b565b905061401760a0830188613b6d565b81810360c0830152614029818761376b565b905081810360e083015261403d818661376b565b9050818103610100830152614052818561376b565b9050818103610120830152614067818461376b565b90509b9a5050505050505050505050565b600060808201905061408d6000830187613b6d565b818103602083015261409f818661376b565b90506140ae6040830185613b6d565b6140bb606083018461373e565b95945050505050565b6000610160820190506140da600083018e613b6d565b81810360208301526140ec818d61376b565b90506140fb604083018c613b6d565b614108606083018b61373e565b818103608083015261411a818a61376b565b905081810360a083015261412e818961376b565b905061413d60c0830188613b6d565b81810360e083015261414f818761376b565b9050818103610100830152614164818661376b565b9050818103610120830152614179818561376b565b905081810361014083015261418e818461376b565b90509c9b505050505050505050505050565b6000604051905081810181811067ffffffffffffffff821117156141c7576141c661441f565b5b8060405250919050565b600067ffffffffffffffff8211156141ec576141eb61441f565b5b601f19601f8301169050602081019050919050565b600081519050919050565b600082825260208201905092915050565b600081905092915050565b6000614233826142fa565b915061423e836142fa565b9250827fffffffffffffffffffffffffffffffffffffffffffffffffffffffffffffffff03821115614273576142726143c1565b5b828201905092915050565b6000614289826142fa565b9150614294836142fa565b9250828210156142a7576142a66143c1565b5b828203905092915050565b60006142bd826142da565b9050919050565b60008115159050919050565b6000819050919050565b600073ffffffffffffffffffffffffffffffffffffffff82169050919050565b6000819050919050565b82818337600083830152505050565b60005b83811015614331578082015181840152602081019050614316565b83811115614340576000848401525b50505050565b6000600282049050600182168061435e57607f821691505b60208210811415614372576143716143f0565b5b50919050565b6000614383826142fa565b91507fffffffffffffffffffffffffffffffffffffffffffffffffffffffffffffffff8214156143b6576143b56143c1565b5b600182019050919050565b7f4e487b7100000000000000000000000000000000000000000000000000000000600052601160045260246000fd5b7f4e487b7100000000000000000000000000000000000000000000000000000000600052602260045260246000fd5b7f4e487b7100000000000000000000000000000000000000000000000000000000600052604160045260246000fd5b6000601f19601f8301169050919050565b614468816142b2565b811461447357600080fd5b50565b61447f816142fa565b811461448a57600080fd5b5056fea2646970667358221220010b920fb62866561dc4c291bc08815338e0a5d5ee0f9d7e50d3178d3e20dd3864736f6c63430008000033",
  "linkReferences": {},
  "deployedLinkReferences": {}
}